:100000000C948B010C94A8010C94A8010C94A801E9
:100010000C94A8010C94A8010C94A8010C944335ED
:100020000C94A8010C94A8010C94EF350C94A80131
:100030000C94A8010C9467360C94A8010C94A801A8
:100040000C94A8010C94A8010C94A8010C94A8018C
:100050000C94A8010C94A8010C94A8010C94A8017C
:100060000C94A8010C94A80148395B396B397E398E
:100070008E39A139B139C43956616C6964616369DB
:100080006F6E20475255504F5F504944202823300F
:10009000293A00004461746F73206F726967696E5A
:1000A000616C6573204F4B00004461746F73206472
:1000B00065206261636B7570204552524F4E454F0B
:1000C0005300004461746F73206F726967696E61D9
:1000D0006C6573204552524F4E454F5300004461AA
:1000E000746F73206465206261636B7570204F4B81
:1000F00000004461746F73206F726967696E616C90
:1001000065732079206465206261636B757020459A
:1001100052524F4E454F5300004361726761207643
:10012000616C6F72657320706F72206465666563C1
:10013000746F00004E756D65726F206465204772A4
:1001400075706F203D00004D47505000004B50002F
:10015000004B4900004B4400004D4158494E5400AB
:10016000005450494400005456504944000054562D
:10017000430000505643000043454B5049440000A3
:10018000455643000050455246494C0000505249E4
:100190004E54000045535441444F00005049440020
:1001A00000524553455400005245494E4943494188
:1001B0005200004641425249434120524553455462
:1001C0000000434F4D414E444F0000504152414DBD
:1001D0004554524F0000444553434F4E4F4349440A
:1001E0004F0000424F525241444F00004F4B00001D
:1001F000454E4400004552524F5200000A0A0D5429
:1002000065726D696E616C204C69737461210A0AB4
:100210000D00000A0D00000A0D000000407A10F3E6
:100220005A00A0724E18090010A5D4E80000E87624
:1002300048170000E40B54020000CA9A3B0000007B
:10024000E1F505000080969800000040420F000094
:1002500000A08601000000102700000000E8030055
:100260000000006400000000000A0000000000011F
:1002700000000000002C76D888DC674F0823DFC11F
:10028000DFAE59E1B1B796E5E3E453C63AE65199DA
:100290007696E8E6C28426EB898C9B62ED407C6F03
:1002A000FCEFBC9C9F40F2BAA56FA5F490055A2ABA
:1002B000F75C936B6CF9676DC11BFCE0E40D47FEC6
:1002C000F520E6B500D0ED902E03009435770500BB
:1002D00080841E080000204E0A000000C80C333342
:1002E00033330F986E12831141EF8D2114893BE651
:1002F0005516CFFEE6DB18D1844B381BF77C1D90DA
:100300001DA4BBE424203284725E228100C9F12442
:10031000ECA1E53D270011241FBECFEFD8E0DEBFE2
:10032000CDBF12E0A0E0B1E0E4EDFCEB02C005902F
:100330000D92A436B107D9F724E0A4E6B2E001C0DB
:100340001D92A739B207E1F70E943D320C94685E16
:100350000C94A336EF92FF920F931F93CF93DF93EA
:10036000CDB7DEB728970FB6F894DEBF0FBECDBF6E
:1003700080916802882F90E081309105D9F0823019
:1003800091051CF4892B49F02EC18230910509F4A6
:10039000B3C0039709F4BDC026C18AE790E02AE7FD
:1003A00030E0F90120812064FC01208381E080930A
:1003B00068021CC18AE790E0FC018081882F90E0F0
:1003C00080749927892B09F096C088E790E0FC019A
:1003D00080819181CC01A0E0B0E0BC01CD010E9400
:1003E0008157DC01CB0121E73DEB41E852E4BC0140
:1003F000CD010E94D956DC01CB0189839A83AB835E
:10040000BC838091640290916502A0916602B091D4
:1004100067029C01AD0169817A818B819C810E9478
:100420006756DC01CB0120E030E048EC52E4BC012F
:10043000CD010E94D956DC01CB017C018D01809158
:10044000640290916502A0916602B09167029C01DE
:10045000AD01C801B7010E946856DC01CB01809351
:10046000640290936502A0936602B0936702809144
:10047000640290916502A0916602B091670220E04B
:1004800030E040E751E4BC01CD010E94335888239D
:1004900054F088E290E028E230E0F90120812F7DDD
:1004A000FC0120831BC08091640290916502A091A1
:1004B0006602B091670220E030E040E551E4BC0103
:1004C000CD010E94D45618164CF088E290E028E244
:1004D00030E0F90120812062FC0120838CE790E06C
:1004E0002CE730E0F90120812160FC01208382E0CB
:1004F000809368027BC07AC08AE790E02AE730E008
:10050000F90120812064FC01208383E0809368024C
:100510006DC08AE790E0FC018081882F90E08074B4
:100520009927892B09F05EC088E790E0FC01808163
:100530009181CC01A0E0B0E0BC01CD010E948157C7
:10054000DC01CB0121E93EE745E251E4BC01CD01EC
:100550000E94D956DC01CB018D839E83AF83B8877F
:100560008091690290916A02A0916B02B0916C0235
:100570009C01AD016D817E818F8198850E946756B7
:10058000DC01CB0120E030E048EC52E4BC01CD01BD
:100590000E94D956DC01CB017C018D01809169025A
:1005A00090916A02A0916B02B0916C029C01AD0126
:1005B000C801B7010E946856DC01CB018093690233
:1005C00090936A02A0936B02B0936C028CE790E068
:1005D0002CE730E0F90120812E7FFC01208310926E
:1005E000680204C003C00E940303000028960FB6EF
:1005F000F894DEBF0FBECDBFDF91CF911F910F9159
:10060000FF90EF900895CF93DF93CDB7DEB78CE7DF
:1006100090E026E4FC0120838AE790E027ECFC01CF
:10062000208310926402109265021092660210926A
:1006300067021092690210926A0210926B02109285
:100640006C0210926802DF91CF910895CF93DF93EF
:10065000CDB7DEB780913803882F90E0009719F06E
:100660000197E1F093C180EC90E0FC018081882348
:1006700024F480914003813059F480913A039091A1
:100680003B03892B11F4109240031092380383C16D
:1006900010923E0381E0809338037DC180913E0338
:1006A000882309F085C080EC90E0FC018081882FD0
:1006B00090E080719927892BA1F480EC90E0FC01F7
:1006C0008081882F90E088709927892B51F480ECE5
:1006D00090E0FC018081882F90E084709927892B1D
:1006E00039F00E94EE0410924003109238035FC06C
:1006F00080913E03882F90E026EC30E0F9012081C4
:1007000080599D4FFC0120838CE49DE190933D0333
:1007100080933C0380913E03882F90E080599D4F49
:10072000FC0180818A3051F080913E03882F90E057
:1007300080599D4FFC0180818D3011F580913E03E1
:10074000882F90E080599D4FFC0110820E94FE0589
:1007500086EC90E02AE0FC0120830E94FE0586ECF6
:1007600090E02DE0FC01208381E08093400380E253
:1007700093E090933B0380933A031092380317C0A1
:100780000E94FE0586EC90E020913E03222F30E08F
:1007900020593D4FF9012081FC01208380913E03C7
:1007A0008F5F80933E0381E080933803EEC0EDC0FD
:1007B00080EC90E0FC0180818823F4F080913C0380
:1007C00090913D03892BA1F480913E03882F90E006
:1007D00080599D4FFC01108281E08093400380E2AC
:1007E00093E090933B0380933A0310923803CDC07B
:1007F00081E080933803CFC080913E03873C08F0AE
:10080000A8C080EC90E0FC018081882F90E080718E
:100810009927892BA1F480EC90E0FC018081882F3E
:1008200090E088709927892B51F480EC90E0FC01CE
:100830008081882F90E084709927892B39F00E945D
:10084000EE04109240031092380382C080913E0360
:10085000882F90E026EC30E0F901208180599D4FEF
:10086000FC0120838CE49DE190933D0380933C0345
:1008700080913E03882F90E080599D4FFC0180813C
:100880008A3051F080913E03882F90E080599D4F2F
:10089000FC0180818D3011F580913E03882F90E01E
:1008A00080599D4FFC0110820E94FE0586EC90E06D
:1008B0002AE0FC0120830E94FE0586EC90E02DE0FA
:1008C000FC01208381E08093400380E293E09093D9
:1008D0003B0380933A03109238033AC00E94FE050E
:1008E00080913E03882F90E080599D4FFC018081CC
:1008F0008830C9F486EC90E028E0FC0120830E9457
:10090000FE0586EC90E020E2FC0120830E94FE05BB
:1009100086EC90E028E0FC01208380913E0381502A
:1009200080933E0311C086EC90E020913E03222F7D
:1009300030E020593D4FF9012081FC012083809156
:100940003E038F5F80933E0381E0809338031DC098
:100950001CC080913E03873CA1F480913E03882F08
:1009600090E080599D4FFC01108281E0809340030C
:1009700080E293E090933B0380933A031092380314
:1009800004C081E08093380306C005C01092400384
:10099000109238030000DF91CF910895CF93DF9339
:1009A000CDB7DEB784EC90E029E130E0FC01318383
:1009B000208380EC90E0FC01108281EC90E028E143
:1009C000FC01208382EC90E026E0FC012083109261
:1009D000400310926D02DF91CF910895CF93DF9382
:1009E00000D01F92CDB7DEB71A82198210C086ECF4
:1009F00090E0FC0180818B8389819A81883C9105FC
:100A000009F40BC089819A8101969A83898380ECCD
:100A100090E0FC018081882354F30F900F900F9099
:100A2000DF91CF910895CF93DF9300D000D000D015
:100A3000CDB7DEB79C838B837E836D83A8951A82A6
:100A4000198213C00E94FE0586EC90E029813A814C
:100A50004B815C81240F351FF9012081FC0120832B
:100A600089819A8101969A83898389819A812B81D0
:100A70003C81820F931FFC018081882351F08D817E
:100A80009E819C012150310989819A8182179307A7
:100A9000CCF226960FB6F894DEBF0FBECDBFDF9125
:100AA000CF910895CF93DF93CDB7DEB72A970FB6D6
:100AB000F894DEBF0FBECDBF9A878987A8951A82AA
:100AC000198219C00E94FE0586EC90E029813A81C6
:100AD00049855A85240F351F3F832E832E813F8100
:100AE000F901249128872885FC01208389819A8136
:100AF00001969A83898389819A8129853A85820F13
:100B0000931F9C838B838B819C81FC0184918D83BB
:100B10008D818823B9F62A960FB6F894DEBF0FBEF2
:100B2000CDBFDF91CF910895CF92DF92EF92FF92E8
:100B30000F931F93CF93DF93CDB7DEB72A970FB6EE
:100B4000F894DEBF0FBECDBF6D837E838F83988701
:100B500049872A87EDB6FEB68DB79EB76C01A8957A
:100B60008985282F30E08A85882F90E0820F931F97
:100B70009C01215031093A8329832DB73EB7281BA8
:100B8000390B0FB6F8943EBF0FBE2DBF8DB79EB781
:100B900001969C838B832B813C8149858D819E812D
:100BA000AF81B88589012A85BC01CD010E94A55875
:100BB0008985282F30E08A85882F90E0280F391FFB
:100BC0008B819C81B9010E9413050FB6F894DEBE9B
:100BD0000FBECDBE0FB6F894FEBE0FBEEDBE2A9678
:100BE0000FB6F894DEBF0FBECDBFDF91CF911F913E
:100BF0000F91FF90EF90DF90CF900895CF93DF9308
:100C00001F92CDB7DEB7A89582E090E090936F0277
:100C100080936E02000080EC90E0FC018081882FC0
:100C200090E080729927892B31F480916E02909127
:100C30006F02892B81F780916E0290916F02892B50
:100C400011F0198202C081E0898389810F90DF91C0
:100C5000CF910895CF93DF93CDB7DEB727970FB627
:100C6000F894DEBF0FBECDBF9D838C837F836E83E0
:100C70001A8219821B8217C00E9493068B838B8174
:100C8000882389F489819A812C813D81820F931F69
:100C900026EC30E0F9012081FC01208389819A81D2
:100CA00001969A8389838B81882361F58E819F8148
:100CB0009C012150310989819A818217930714F58B
:100CC00089819A8101972C813D81820F931FFC01BC
:100CD00080818823B9F089819A8101972C813D8197
:100CE000820F931FFC0180818A3061F089819A8193
:100CF00001972C813D81820F931FFC0180818D30F3
:100D000009F0BACF89819A812C813D81820F931F8E
:100D1000FC01108227960FB6F894DEBF0FBECDBF40
:100D2000DF91CF910895CF93DF931F92CDB7DEB7B8
:100D3000A89582E090E090936F0280936E0200008D
:100D400080EC90E0FC018081882334F080916E0279
:100D500090916F02892BA1F780916E0290916F02A2
:100D6000892B11F0198202C081E0898389810F905B
:100D7000DF91CF910895CF92DF92EF92FF920F9380
:100D80001F93CF93DF93CDB7DEB72A970FB6F894B2
:100D9000DEBF0FBECDBF80910904882F90E0813067
:100DA000910519F0029761F0D7C080910B049091E2
:100DB0000C04892B21F482E080930904D0C0CFC0B9
:100DC00080910A04882319F40E942D08C4C08091E0
:100DD0000A04833009F0A7C0209113043091140451
:100DE0008091110490911204A901481B590BCA016A
:100DF000CC01A0E0B0E0BC01CD010E948157DC0134
:100E0000CB018B839C83AD83BE8320E030E041EE39
:100E100053E46B817C818D819E810E943858DC0176
:100E2000CB019C01AD0160EC71EE84E69BE40E9475
:100E3000D956DC01CB018F839887A987BA872B818C
:100E40003C814D815E8160E07FEF8FE797E40E94F7
:100E5000D956DC01CB01BC01CD010E944B57DC010E
:100E6000CB019A83898389819A81181619062CF0FF
:100E700081E090E09A83898308C089819A810B97E9
:100E800024F08AE090E09A83898380910D04909108
:100E90000E04A0910F04B09110049C01AD016F816C
:100EA000788589859A850E946756DC01CB016C01A3
:100EB0007D0189819A81092E000CAA0BBB0BBC0114
:100EC000CD010E948357DC01CB019C01AD01C7011C
:100ED000B6010E94D956DC01CB017C018D018091C5
:100EE0000D0490910E04A0910F04B09110049C0188
:100EF000AD01C801B7010E946856DC01CB018093A7
:100F00000D0490930E04A0930F04B09310048AE094
:100F100090E090930C0480930B0410920A0481E0FB
:100F20008093090418C080910A048430A1F41092BF
:100F30000D0410920E0410920F04109210048AE017
:100F400090E090930C0480930B0410920A0481E0CB
:100F50008093090404C003C00E94BE0700002A96C3
:100F60000FB6F894DEBF0FBECDBFDF91CF911F91BA
:100F70000F91FF90EF90DF90CF900895CF93DF9384
:100F8000CDB7DEB780E890E0FC01108281E890E008
:100F900020ECFC01208382E890E0FC0110828FE6C7
:100FA00090E02FE630E0F90120812D7FFC012083C5
:100FB0008FE690E02FE630E0F90120812B7FFC01E5
:100FC00020838FE690E02FE630E0F90120812E7F2C
:100FD000FC0120838FE690E02FE630E0F9012081CC
:100FE0002F7DFC01208386E390E026E330E0F901C9
:100FF00020812062FC01208386E390E026E330E03C
:10100000F90120812260FC01208386E390E026E341
:1010100030E0F90120812460FC01208386E390E028
:1010200026E330E0F90120812160FC012083109249
:101030000D0410920E0410920F04109210048AE016
:1010400090E090930C0480930B0410920A0481E0CA
:1010500080930904DF91CF910895CF93DF93CDB7AB
:10106000DEB781E080930A0484E890E0FC011182FD
:10107000108286E390E026E330E0F90120812062CF
:10108000FC01208386E390E026E330E0F901208133
:101090002260FC01208386E390E026E330E0F90142
:1010A00020812460FC01208386E390E026E330E089
:1010B000F90120812160FC01208381E890E021E892
:1010C00030E0F90120812360FC0120838FE690E06D
:1010D0002FE630E0F90120812062FC0120838FE6B9
:1010E00090E02FE630E0F90120812160FC012083AF
:1010F000DF91CF910895CF92DF92EF92FF920F93FD
:101100001F93CF93DF93CDB7DEB72A970FB6F8942E
:10111000DEBF0FBECDBF80911504882F90E00097F1
:1011200021F0019709F49DC1FAC680910D049091B8
:101130000E04A0910F04B091100420E030E040E4D0
:1011400050E4BC01CD010E94335818160CF091C038
:10115000109225041092260410922704109228045D
:1011600080917F0490918004A0918104B0918204C9
:101170008093320490933304A0933404B0933504E5
:1011800080910D0490910E04A0910F04B091100471
:101190008093290490932A04A0932B04B0932C04E9
:1011A00010923B0410923A0480911D0490911E0409
:1011B000909355048093540480917F04909180040F
:1011C000A0918104B091820420E030E040EA52E432
:1011D000BC01CD010E9433581816A4F180917F0400
:1011E00090918004A0918104B091820420E030E0CD
:1011F000A901BC01CD010E94D45688231CF1809125
:101200000D0490910E04A0910F04B091100420E001
:1012100030E040E751E4BC01CD010E94335818167C
:101220008CF080910D0490910E04A0910F04B09168
:10123000100420E030E0A901BC01CD010E94D45689
:10124000882354F488E290E028E230E0F90120811C
:101250002F7EFC01208316C088E290E028E230E077
:10126000F90120812061FC01208381E08093150435
:1012700009C088E290E028E230E0F90120812F7E69
:10128000FC01208380911604813009F0E9C088E0D8
:10129000E0E4F1E0A1E4B3E001900D928A95E1F77A
:1012A00087E090E09E838D838D819E819C012F5BE2
:1012B0003C4F80910D0490910E04A0910F04B091C9
:1012C0001004890121E044E0BC01CD010E94A55831
:1012D0008D819E8104969E838D838D819E818F5BFF
:1012E0009C4F22E1E8E4F1E0DC0101900D922A95A7
:1012F000E1F781E190E02D813E81820F931F9E8373
:101300008D838D819E819C012F5B3C4F8091690272
:1013100090916A02A0916B02B0916C02890121E068
:1013200044E0BC01CD010E94A5588D819E810496A8
:101330009E838D838D819E818F5B9C4F2DE0EAE59E
:10134000F1E0DC0101900D922A95E1F78CE090E04C
:101350002D813E81820F931F9E838D838D819E817F
:101360009C012F5B3C4F80917F0490918004A09161
:101370008104B0918204890121E044E0BC01CD01E7
:101380000E94A5588D819E8104969E838D838091B5
:1013900092049091930499237CF54091920450918A
:1013A000930420918C0430918D048D819E818F5BFC
:1013B0009C4F652F6F934F93432F4F932F9327E6A7
:1013C00031E0232F2F9327E631E02F93292F2F93FE
:1013D0008F930E94EB582DB73EB7285F3F4F0FB653
:1013E000F894DEBF0FBECDBF9C018D819E81820F20
:1013F000931F9E838D832DC040919204509193043E
:1014000020918C0430918D048D819E818F5B9C4F47
:10141000652F6F934F93432F4F932F932EE731E018
:10142000232F2F932EE731E02F93292F2F938F9384
:101430000E94EB58EDB7FEB738960FB6F894DEBFB2
:101440000FBECDBF9C018D819E81820F931F9E8315
:101450008D8368EC70E081E493E00E94130562C51F
:1014600061C580917F0490918004A0918104B09126
:10147000820420E030E040EA52E4BC01CD010E9449
:1014800033581816A4F180917F0490918004A091A4
:101490008104B091820420E030E0A901BC01CD01BB
:1014A0000E94D45688231CF180910D0490910E0463
:1014B000A0910F04B091100420E030E040E751E427
:1014C000BC01CD010E94335818168CF080910D0498
:1014D00090910E04A0910F04B091100420E030E030
:1014E000A901BC01CD010E94D45688235CF488E296
:1014F00090E028E230E0F90120812F7EFC0120837A
:10150000109215048091170490911804892B09F00A
:10151000FAC380910D0490910E04A0910F04B09134
:1015200010042091290430912A0440912B045091F9
:101530002C04BC01CD010E94D956DC01CB0120E076
:1015400030E040E85FE3BC01CD010E946756DC015A
:10155000CB018093360490933704A0933804B09362
:1015600039048091360490913704A0913804B091E9
:101570003904BC01CD010E944B57DC01CB019923FA
:101580001CF4919581959109092E000CAA0BBB0BB7
:10159000BC01CD010E9483576B017C0180915804EE
:1015A00090915904A0915A04B0915B0420E030E07E
:1015B00048EC52E4BC01CD010E94D956DC01CB01BC
:1015C0009C01AD01C701B6010E94335818160CF0FA
:1015D000ADC08091360490913704A0913804B09149
:1015E0003904BC01CD010E944B57DC01CB0199238A
:1015F0001CF4919581959109092E000CAA0BBB0B47
:10160000BC01CD010E948357DC01CB0120E030E01A
:1016100040E85FE3BC01CD010E94335818160CF579
:1016200088E290E028E230E0F90120812F7EFC0181
:10163000208387E090E088709927892B11F088E259
:1016400001C088E097E09770892B982F88E10FB64A
:10165000F894A895809360000FBE90936000A895C1
:10166000FFCF8091540490915504892B09F05EC0FE
:101670008091480490914904A0914A04B0914B0490
:1016800020E030E0A901BC01CD010E94D45688239E
:1016900009F44CC08091360490913704A09138042D
:1016A000B0913904209148043091490440914A0492
:1016B00050914B04BC01CD010E943858DC01CB0194
:1016C000BC01CD010E944B57DC01CB01AC01209144
:1016D0008C0430918D04429FC001439F900D529F16
:1016E000900D1124909393048093920410922504FA
:1016F00010922604109227041092280480917F04EF
:1017000090918004A0918104B0918204809332046E
:1017100090933304A0933404B0933504809156041D
:101720009091570490933B0480933A0480910D0468
:1017300090910E04A0910F04B0911004809329049D
:1017400090932A04A0932B04B0932C0480913A0424
:1017500090913B04892B09F0C9C180E090E0A0E89A
:10176000BFE389839A83AB83BC8380913C049091CF
:101770003D04A0913E04B0913F0420E030E0A90177
:10178000BC01CD010E94D4568823D1F080910D0474
:1017900090910E04A0910F04B091100420913C048C
:1017A00030913D0440913E0450913F04BC01CD0175
:1017B0000E94D956DC01CB0189839A83AB83BC8319
:1017C0008091690290916A02A0916B02B0916C02C3
:1017D00020917F04309180044091810450918204D3
:1017E000BC01CD010E946756DC01CB0180932D0422
:1017F00090932E04A0932F04B09330048091500452
:1018000090915104A0915204B091530429813A81DE
:101810004B815C81BC01CD010E943858DC01CB01B9
:101820007C018D0180912D0490912E04A0912F04B4
:10183000B09130049C01AD01C801B7010E94385835
:10184000DC01CB018093400490934104A0934204B7
:10185000B093430480914C0490914D04A0914E04A8
:10186000B0914F0429813A814B815C81BC01CD014B
:101870000E943858DC01CB017C018D0180912D0440
:1018800090912E04A0912F04B09130049C01AD01E1
:10189000C801B7010E943858DC01CB016C017D0101
:1018A0008091230490912404CC01A0E0B0E0BC011D
:1018B000CD010E948157DC01CB019C01AD01C70124
:1018C000B6010E943858DC01CB0120E030E04AE745
:1018D00054E4BC01CD010E94D956DC01CB017C014E
:1018E0008D018091250490912604A0912704B09148
:1018F00028049C01AD01C801B7010E946856DC01B3
:10190000CB018093250490932604A0932704B093E1
:1019100028048091250490912604A0912704B09179
:1019200028042091190430911A0440911B0450910D
:101930001C04BC01CD010E94335818168CF4809110
:10194000190490911A04A0911B04B0911C04809377
:10195000250490932604A0932704B093280428C05C
:101960008091190490911A04A0911B04B0911C0459
:10197000B0582091250430912604409127045091BD
:101980002804BC01CD010E94335818168CF48091B4
:10199000190490911A04A0911B04B0911C04B05832
:1019A0008093250490932604A0932704B0932804E1
:1019B0008091440490914504A0914604B09147045D
:1019C00029813A814B815C81BC01CD010E9438584C
:1019D000DC01CB016C017D018091320490913304D4
:1019E000A0913404B091350420917F04309180049B
:1019F0004091810450918204BC01CD010E94675640
:101A0000DC01CB019C01AD01C701B6010E94385831
:101A1000DC01CB0120E030E04AE754E4BC01CD0119
:101A20000E943858DC01CB016C017D0180912304B8
:101A300090912404CC01A0E0B0E0BC01CD010E9453
:101A40008157DC01CB019C01AD01C701B6010E94A9
:101A5000D956DC01CB0180931F0490932004A093FE
:101A60002104B093220480917F0490918004A0917E
:101A70008104B09182048093320490933304A09344
:101A80003404B09335048091400490914104A091B6
:101A90004204B091430420912504309126044091E2
:101AA000270450912804BC01CD010E946856DC0136
:101AB000CB017C018D0180911F0490912004A091A5
:101AC0002104B09122049C01AD01C801B7010E941C
:101AD0006856DC01CB01BC01CD010E944B57DC01F3
:101AE000CB01909393048093920418C01092250424
:101AF00010922604109227041092280480917F04EB
:101B000090918004A0918104B0918204809332046A
:101B100090933304A0933404B0933504809131043E
:101B2000813009F0E8C089E0E6E9F1E0A1E4B3E042
:101B300001900D928A95E1F788E090E098878F8375
:101B40008F8198859C012F5B3C4F80910D04909173
:101B50000E04A0910F04B0911004890121E044E02B
:101B6000BC01CD010E94A5588F8198850496988765
:101B70008F838F8198858F5B9C4F22E1E8E4F1E0B1
:101B8000DC0101900D922A95E1F781E190E02F812F
:101B90003885820F931F98878F838F8198859C014A
:101BA0002F5B3C4F8091690290916A02A0916B0279
:101BB000B0916C02890121E044E0BC01CD010E949A
:101BC000A5588F819885049698878F838F819885F3
:101BD0008F5B9C4F2DE0EAE5F1E0DC0101900D9276
:101BE0002A95E1F78CE090E02F813885820F931FD2
:101BF00098878F838F8198859C012F5B3C4F8091C4
:101C00007F0490918004A0918104B09182048901A5
:101C100021E044E0BC01CD010E94A5588F81988548
:101C2000049698878F8380919204909193049923CE
:101C30007CF5409192045091930420918C04309152
:101C40008D048F8198858F5B9C4F652F6F934F9389
:101C5000432F4F932F9327E631E0232F2F9327E62F
:101C600031E02F93292F2F938F930E94EB582DB79C
:101C70003EB7285F3F4F0FB6F894DEBF0FBECDBF13
:101C80009C018F819885820F931F98878F832DC029
:101C9000409192045091930420918C0430918D04D2
:101CA0008F8198858F5B9C4F652F6F934F93432F48
:101CB0004F932F932EE731E0232F2F932EE731E020
:101CC0002F93292F2F938F930E94EB58EDB7FEB7D8
:101CD00038960FB6F894DEBF0FBECDBF9C018F8142
:101CE0009885820F931F98878F8368EC70E081E45A
:101CF00093E00E9413058091230490912404909313
:101D000018048093170480911604813009F0E8C00C
:101D100088E0E0E4F1E0A1E4B3E001900D928A955F
:101D2000E1F787E090E09A87898789859A859C0109
:101D30002F5B3C4F80910D0490910E04A0910F04F5
:101D4000B0911004890121E044E0BC01CD010E9462
:101D5000A55889859A8504969A87898789859A8561
:101D60008F5B9C4F22E1E8E4F1E0DC0101900D92F1
:101D70002A95E1F781E190E029853A85820F931F4A
:101D80009A87898789859A859C012F5B3C4F809132
:101D9000690290916A02A0916B02B0916C02890174
:101DA00021E044E0BC01CD010E94A55889859A85B7
:101DB00004969A87898789859A858F5B9C4F2DE049
:101DC000EAE5F1E0DC0101900D922A95E1F78CE063
:101DD00090E029853A85820F931F9A8789878985A4
:101DE0009A859C012F5B3C4F80917F0490918004E9
:101DF000A0918104B0918204890121E044E0BC01FA
:101E0000CD010E94A55889859A8504969A8789876D
:101E1000809192049091930499237CF540919204CF
:101E20005091930420918C0430918D0489859A857A
:101E30008F5B9C4F652F6F934F93432F4F932F933F
:101E400027E631E0232F2F9327E631E02F93292F28
:101E50002F938F930E94EB582DB73EB7285F3F4FCB
:101E60000FB6F894DEBF0FBECDBF9C0189859A8561
:101E7000820F931F9A8789872DC0409192045091B9
:101E8000930420918C0430918D0489859A858F5B11
:101E90009C4F652F6F934F93432F4F932F932EE7B4
:101EA00031E0232F2F932EE731E02F93292F2F930B
:101EB0008F930E94EB58EDB7FEB738960FB6F894A3
:101EC000DEBF0FBECDBF9C0189859A85820F931F0F
:101ED0009A87898768EC70E081E493E00E9413059B
:101EE00080910D0490910E04A0910F04B091100404
:101EF00020E030E040E250E4BC01CD010E94D45625
:101F000088230CF00FC088E290E028E230E0F9016D
:101F100020812F7EFC0120831092150403C00E94B3
:101F2000A10F00002A960FB6F894DEBF0FBECDBFFA
:101F3000DF91CF911F910F91FF90EF90DF90CF90A5
:101F40000895CF93DF93CDB7DEB7109216041092A9
:101F5000310410921504DF91CF910895CF93DF9350
:101F6000CDB7DEB72A970FB6F894DEBF0FBECDBF50
:101F70001A82198215C48A818F9389818F9388E789
:101F800090E0892F8F9388E790E08F938FE991E01D
:101F9000892F8F938FE991E08F9381E493E0892FCC
:101FA0008F9381E493E08F930E94EB588DB79EB797
:101FB00008960FB6F894DEBF0FBECDBF68EC70E098
:101FC00081E493E00E94130589819A8101969A83A6
:101FD000898360E574E080E090E00E94781680E5F7
:101FE00094E00E945F159C838B836CE474E084E032
:101FF00090E00E9478168CE494E00E945F159C01AA
:102000008B819C81820F931F9C838B8364E474E09B
:1020100088E090E00E94781684E494E00E945F15C6
:102020009C018B819C81820F931F9C838B8369E130
:1020300074E08CE090E00E94781689E194E00E94C0
:102040005F159C018B819C81820F931F9C838B83E6
:1020500068E574E080E190E00E94781688E594E0FD
:102060000E945F159C018B819C81820F931F9C8332
:102070008B836CE374E084E190E00E9478168CE33B
:1020800094E00E945F159C018B819C81820F931FBD
:102090009C838B8368E474E088E190E00E9478166A
:1020A00088E494E00E945F159C018B819C81820FE3
:1020B000931F9C838B8363E274E08CE190E00E9429
:1020C0004E1783E294E00E94BD159C018B819C8198
:1020D000820F931F9C838B8366E574E08EE190E012
:1020E0000E944E1786E594E00E94BD159C018B81ED
:1020F0009C81820F931F9C838B836DE174E080E24F
:1021000090E00E944E178DE194E00E94BD159C0165
:102110008B819C81820F931F9C838B83CE010596BC
:10212000BC0182E290E00E944E1760E574E084E218
:1021300090E00E94781680E594E00E945F159887F1
:102140008F836CE474E088E290E00E9478168CE45F
:1021500094E00E945F159C018F819885820F931FE8
:1021600098878F8364E474E08CE290E00E94781694
:1021700084E494E00E945F159C018F819885820F12
:10218000931F98878F8369E174E080E390E00E9459
:10219000781689E194E00E945F159C018F819885F3
:1021A000820F931F98878F8368E574E084E390E043
:1021B0000E94781688E594E00E945F159C018F814B
:1021C0009885820F931F98878F836CE374E088E370
:1021D00090E00E9478168CE394E00E945F159C01C9
:1021E0008F819885820F931F98878F8368E474E0AE
:1021F0008CE390E00E94781688E494E00E945F15DA
:102200009C018F819885820F931F98878F8363E24B
:1022100074E080E490E00E944E1783E294E00E9414
:10222000BD159C018F819885820F931F98878F839E
:1022300066E574E082E490E00E944E1786E594E043
:102240000E94BD159C018F819885820F931F9887EE
:102250008F836DE174E084E490E00E944E178DE17D
:1022600094E00E94BD159C018F819885820F931F79
:1022700098878F83CE010996BC0186E490E00E9486
:102280004E172B813C818D819E812817390709F0DB
:102290004FC02F81388589859A852817390709F01D
:1022A00047C084E990E0892F8F9384E990E08F9371
:1022B00087EA91E0892F8F9387EA91E08F9381E4F9
:1022C00093E0892F8F9381E493E08F930E94EB58E2
:1022D0000F900F900F900F900F900F9068EC70E0A0
:1022E00081E493E00E9413058EED90E0892F8F9397
:1022F0008EED90E08F9387EA91E0892F8F9387EAA4
:1023000091E08F9381E493E0892F8F9381E493E0B0
:102310008F930E94EB580F900F900F900F900F909B
:102320000F9068EC70E081E493E00E9413053DC2D9
:102330002B813C818D819E812817390709F047C187
:102340002F81388589859A852817390709F43FC177
:1023500084E990E0892F8F9384E990E08F9387EA56
:1023600091E0892F8F9387EA91E08F9381E493E046
:10237000892F8F9381E493E08F930E94EB580F9005
:102380000F900F900F900F900F9068EC70E081E429
:1023900093E00E94130589EA90E0892F8F9389EAE0
:1023A00090E08F9387EA91E0892F8F9387EA91E0FD
:1023B0008F9381E493E0892F8F9381E493E08F934F
:1023C0000E94EB580F900F900F900F900F900F906E
:1023D00068EC70E081E493E00E94130560E574E02E
:1023E00080E090E00E94781680E594E00E945F15FE
:1023F0009C838B836CE474E084E090E00E94781608
:102400008CE494E00E945F159C018B819C81820F7B
:10241000931F9C838B8364E474E088E090E00E94C7
:10242000781684E494E00E945F159C018B819C8166
:10243000820F931F9C838B8369E174E08CE090E0B2
:102440000E94781689E194E00E945F159C018B81BF
:102450009C81820F931F9C838B8368E574E080E1ED
:1024600090E00E94781688E594E00E945F159C0138
:102470008B819C81820F931F9C838B836CE374E020
:1024800084E190E00E9478168CE394E00E945F154E
:102490009C018B819C81820F931F9C838B8368E4BA
:1024A00074E088E190E00E94781688E494E00E944D
:1024B0005F159C018B819C81820F931F9C838B8372
:1024C00063E274E08CE190E00E944E1783E294E0B6
:1024D0000E94BD159C018B819C81820F931F9C8360
:1024E0008B8366E574E08EE190E00E944E1786E5EE
:1024F00094E00E94BD159C018B819C81820F931FEB
:102500009C838B836DE174E080E290E00E944E1723
:102510008DE194E00E94BD159C018B819C81820F0E
:10252000931F9C838B83CE010596BC0182E290E0D1
:102530000E944E172B813C818D819E81281739077F
:1025400009F044C060E574E084E290E00E94051662
:102550006CE474E088E290E00E94051664E474E0A4
:102560008CE290E00E94051669E174E080E390E05F
:102570000E94051668E574E084E390E00E94051669
:102580006CE374E088E390E00E94051668E474E070
:102590008CE390E00E94051663E274E080E490E032
:1025A0000E94EA1666E574E082E490E00E94EA1672
:1025B0006DE174E084E490E00E94EA16CE01039697
:1025C000BC0186E490E00E94EA16EFC0E9C02B81CE
:1025D0003C818D819E812817390709F492C02F8193
:1025E000388589859A852817390709F08AC083ECD0
:1025F00090E0892F8F9383EC90E08F9387EA91E0AE
:10260000892F8F9387EA91E08F9381E493E0892F5C
:102610008F9381E493E08F930E94EB580F900F907B
:102620000F900F900F900F9068EC70E081E493E0B2
:102630000E9413058EED90E0892F8F938EED90E030
:102640008F9387EA91E0892F8F9387EA91E08F93A8
:1026500081E493E0892F8F9381E493E08F930E942C
:10266000EB580F900F900F900F900F900F9068EC19
:1026700070E081E493E00E94130560E574E080E07F
:1026800090E00E9405166CE474E084E090E00E9403
:10269000051664E474E088E090E00E94051669E1A4
:1026A00074E08CE090E00E94051668E574E080E13B
:1026B00090E00E9405166CE374E084E190E00E94D3
:1026C000051668E474E088E190E00E94051663E274
:1026D00074E08CE190E00E94EA1666E574E08EE119
:1026E00090E00E94EA166DE174E080E290E00E94C2
:1026F000EA16CE010796BC0182E290E00E94EA163B
:1027000054C089819A810A9709F04AC083EC90E00D
:10271000892F8F9383EC90E08F9387EA91E0892F44
:102720008F9387EA91E08F9381E493E0892F8F93D1
:1027300081E493E08F930E94EB580F900F900F90DD
:102740000F900F900F9068EC70E081E493E00E948E
:10275000130589EA90E0892F8F9389EA90E08F939F
:1027600087EA91E0892F8F9387EA91E08F9381E444
:1027700093E0892F8F9381E493E08F930E94EB582D
:102780000F900F900F900F900F900F9068EC70E0EB
:1027900081E493E00E94130580E090E00E94DE1344
:1027A00089819A810A9708F4E6CB2A960FB6F894A5
:1027B000DEBF0FBECDBFDF91CF910895CF93DF93E2
:1027C00000D0CDB7DEB79A83898389819A81892B1E
:1027D00029F089819A81049709F0E1C080E090E0B6
:1027E000A0E8BFE38093500490935104A093520457
:1027F000B09353048AE097EDA3E2BCE380934C04CA
:1028000090934D04A0934E04B0934F0480E090E069
:10281000A8E4B2E48093440490934504A093460452
:10282000B093470480E090E0A0EAB0E480931904FC
:1028300090931A04A0931B04B0931C0480E090E0D2
:10284000A8ECB1E48093580490935904A0935A04DF
:10285000B0935B0480E090E0A0EAB0E480933C0495
:1028600090933D04A0933E04B0933F048DEC9CEC08
:10287000ACE8BFE38093480490934904A0934A04D2
:10288000B0934B0488EB9BE0909324048093230443
:1028900080EE9EE2909357048093560488EE9DEF5D
:1028A00090931E0480931D0460E574E080E090E046
:1028B0000E9405166CE474E084E090E00E94051626
:1028C00064E474E088E090E00E94051669E174E039
:1028D0008CE090E00E94051668E574E080E190E0ED
:1028E0000E9405166CE374E084E190E00E940516F6
:1028F00068E474E088E190E00E94051663E274E009
:102900008CE190E00E94EA1666E574E08EE190E0CA
:102910000E94EA166DE174E080E290E00E94EA16FF
:1029200060E574E084E290E00E9405166CE474E0D7
:1029300088E290E00E94051664E474E08CE290E086
:102940000E94051669E174E080E390E00E9405169C
:1029500068E574E084E390E00E9405166CE374E09F
:1029600088E390E00E94051668E474E08CE390E050
:102970000E94051663E274E080E490E00E94EA168B
:1029800066E574E082E490E00E94EA166DE174E08E
:1029900084E490E00E94EA1680E00E94D4140F9034
:1029A0000F90DF91CF910895CF93DF9300D01F92C6
:1029B000CDB7DEB78B838B81882321F08B81843068
:1029C00009F077C080E594E00E945F159A838983BF
:1029D0008CE494E00E945F159C0189819A81820FAA
:1029E000931F9A83898384E494E00E945F159C017D
:1029F00089819A81820F931F9A83898389E194E068
:102A00000E945F159C0189819A81820F931F9A838E
:102A1000898388E594E00E945F159C0189819A81F1
:102A2000820F931F9A83898388E494E00E945F1544
:102A30009C0189819A81820F931F9A8389838CE3F9
:102A400094E00E945F159C0189819A81820F931FF7
:102A50009A83898383E294E00E94BD159C01898159
:102A60009A81820F931F9A83898386E594E00E945E
:102A7000BD159C0189819A81820F931F9A83898356
:102A80008DE194E00E94BD159C0189819A81820F9D
:102A9000931F9A838983CE010196BC0182E290E064
:102AA0000E94EA16CE010196BC0186E490E00E94E5
:102AB000EA160F900F900F90DF91CF910895CF936A
:102AC000DF9300D000D000D0CDB7DEB79E838D83DA
:102AD000A8958D819E819A83898389819A81FC0141
:102AE00080819181A281B3818B2FBB2787FDB09517
:102AF0009B2FAB2F99279C838B8389819A81FC0123
:102B000080819181A281B381CD01BB2797FDB095D2
:102B1000AB2F99272B813C81820F931F9C838B8342
:102B200089819A81FC0180819181A281B381892F61
:102B30009A2FAB2FBB27A7FDBA9599272B813C81F4
:102B4000820F931F9C838B8389819A81FC018081F2
:102B50009181A281B38199272B813C81820F931FA0
:102B60009C838B838B819C8126960FB6F894DEBF65
:102B70000FBECDBFDF91CF910895CF93DF9300D0EB
:102B800000D0CDB7DEB79C838B83A8958B819C81C9
:102B9000FC0180819181892F99279A8389838B8178
:102BA0009C81FC0180819181992729813A81820F42
:102BB000931F9A83898389819A810F900F900F9038
:102BC0000F90DF91CF910895CF93DF9300D000D085
:102BD00000D0CDB7DEB79E838D83A8958D819E8171
:102BE0009A83898389819A81FC01808191819927C7
:102BF0009C838B838B819C8126960FB6F894DEBFD5
:102C00000FBECDBFDF91CF910895CF93DF93CDB7A6
:102C1000DEB72A970FB6F894DEBF0FBECDBF9887F8
:102C20008F837A8769871A8219824CC0A8958FE3AF
:102C300090E0FC018081882F90E082709927892B99
:102C4000B1F7F89489859A85FC0180819181A281F0
:102C5000B3812F813885AC01BD01C9010E94145E8A
:102C600078948FE390E0FC018081882F90E082705F
:102C70009927892BB1F7F8948F8198850E94FA5D86
:102C8000DC01CB018B839C83AD83BE8378948985E3
:102C90009A85FC0180819181A281B3812B813C8145
:102CA0004D815E81BC01CD010E94D456882329F458
:102CB00085E690E09A83898305C089819A8101968F
:102CC0009A83898389819A81843691050CF4AECFE9
:102CD00081E490E028E430E0FC01318320832A96EF
:102CE0000FB6F894DEBF0FBECDBFDF91CF91089530
:102CF000CF93DF93CDB7DEB72A970FB6F894DEBF38
:102D00000FBECDBF98878F837A8769871A82198211
:102D10004BC0A8958FE390E0FC018081882F90E064
:102D200082709927892BB1F7F8948F8198850E943A
:102D3000FA5DDC01CB0129853A85F9018083918315
:102D4000A283B38378948FE390E0FC018081882F85
:102D500090E082709927892BB1F7F8948F8198853C
:102D60000E94FA5DDC01CB018B839C83AD83BE8323
:102D7000789489859A85FC0180819181A281B381B3
:102D80002B813C814D815E81BC01CD010E94D456D6
:102D9000882329F485E690E09A83898305C0898198
:102DA0009A8101969A83898389819A8184369105D3
:102DB0000CF4AFCF81E490E028E430E0FC013183F3
:102DC00020832A960FB6F894DEBF0FBECDBFDF91E9
:102DD000CF910895CF93DF93CDB7DEB728970FB685
:102DE000F894DEBF0FBECDBF9E838D8378876F833F
:102DF0001A8219823DC0A8958FE390E0FC01808182
:102E0000882F90E082709927892BB1F7F8948F81F1
:102E10009885FC01208131818D819E81B9010E94BC
:102E20001C5E78948FE390E0FC018081882F90E015
:102E300082709927892BB1F7F8948D819E810E9429
:102E4000005E9C838B8378948F819885FC01208120
:102E500031818B819C812817390729F485E690E020
:102E60009A83898305C089819A8101969A8389838F
:102E700089819A81843691050CF4BDCF81E490E07C
:102E800028E430E0FC013183208328960FB6F894C3
:102E9000DEBF0FBECDBFDF91CF910895CF93DF93FB
:102EA000CDB7DEB728970FB6F894DEBF0FBECDBF03
:102EB0009E838D8378876F831A8219823DC0A8957F
:102EC0008FE390E0FC018081882F90E08270992749
:102ED000892BB1F7F8948D819E810E94005E9C0140
:102EE0008F819885FC013183208378948FE390E073
:102EF000FC018081882F90E082709927892BB1F79F
:102F0000F8948D819E810E94005E9C838B837894CF
:102F10008F819885FC01208131818B819C812817CC
:102F2000390729F485E690E09A83898305C0898171
:102F30009A8101969A83898389819A818436910541
:102F40000CF4BDCF81E490E028E430E0FC01318353
:102F5000208328960FB6F894DEBF0FBECDBFDF9159
:102F6000CF910895CF93DF93CDB7DEB727970FB6F4
:102F7000F894DEBF0FBECDBF9D838C837F836E83AD
:102F80001A82198238C0A8958FE390E0FC018081F5
:102F9000882F90E082709927892BB1F7F8948E8161
:102FA0009F81FC0120818C819D81622F0E94065EA1
:102FB00078948FE390E0FC018081882F90E082700C
:102FC0009927892BB1F7F8948C819D810E94F25D3D
:102FD0008B8378948E819F81FC0190818B819817DF
:102FE00029F485E690E09A83898305C089819A81D6
:102FF00001969A83898389819A81843691050CF49C
:10300000C2CF81E490E028E430E0FC0131832083EA
:1030100027960FB6F894DEBF0FBECDBFDF91CF91DC
:103020000895CF93DF93CDB7DEB727970FB6F89407
:10303000DEBF0FBECDBF9D838C837F836E831A82DC
:10304000198238C0A8958FE390E0FC018081882F19
:1030500090E082709927892BB1F7F8948C819D813B
:103060000E94F25D282F8E819F81FC01208378943D
:103070008FE390E0FC018081882F90E08270992797
:10308000892BB1F7F8948C819D810E94F25D8B832E
:1030900078948E819F81FC0190818B81981729F40F
:1030A00085E690E09A83898305C089819A8101969B
:1030B0009A83898389819A81843691050CF4C2CFE1
:1030C00081E490E028E430E0FC01318320832796FE
:1030D0000FB6F894DEBF0FBECDBFDF91CF9108953C
:1030E000CF93DF93CDB7DEB784E290E024E230E007
:1030F000F90120812E7FFC01208384E290E024E20C
:1031000030E0F90120812460FC01208384E290E01A
:1031100024E230E0F90120812260FC01208384E276
:1031200090E024E230E0F90120812062FC0120835C
:1031300084E290E024E230E0F90120812860FC0183
:10314000208384E290E024E230E0F90120812F7EA8
:10315000FC01208387E290E027E230E0F901208142
:103160002160FC01208387E290E027E230E0F90152
:1031700020812260FC01208387E290E027E230E09A
:10318000F90120812460FC01208387E290E027E29E
:1031900030E0F90120812860FC01208387E290E083
:1031A00027E230E0F90120812061FC01208387E2E1
:1031B00090E027E230E0F90120812062FC012083C9
:1031C0008AE290E02AE230E0F90120812061FC01EE
:1031D00020838AE290E02AE230E0F9012081206237
:1031E000FC0120838AE290E02AE230E0F9012081AC
:1031F0002064FC0120838AE290E02AE230E0F901B9
:1032000020812068FC0120838AE290E02AE230E0FD
:10321000F90120812860FC0120838AE290E02AE203
:1032200030E0F90120812460FC0120838AE290E0F3
:103230002AE230E0F90120812E7FFC0120838AE21E
:1032400090E02AE230E0F90120812260FC01208335
:10325000DF91CF910895CF93DF93CDB7DEB780EBA9
:1032600090E022E0FC01208381EB90E024E0FC016F
:10327000208383EB90E029EFFC01208380E790E03E
:1032800020E730E0F90120812260FC012083DF91FA
:10329000CF9108950F931F93CF93DF93CDB7DEB7F0
:1032A000C55AD1090FB6F894DEBF0FBECDBF9E013F
:1032B0002C553F4FF9018083CE018B559F4FFC0168
:1032C0006083CE018C559F4FFC01808182958F7069
:1032D0008983CE018C559F4FFC0180818F708A833A
:1032E000CE018B559F4FFC018081882351F48BE2E6
:1032F00090E02BE230E0F9012081277FFC01208360
:1033000009C08BE290E02BE230E0F90120812860D7
:10331000FC01208380E090E0A0E0BFE38C839D83EC
:10332000AE83BF832BEA3AEA4AEA50E46C817D819E
:103330008E819F810E943858DC01CB018887998754
:10334000AA87BB8720E030E040E850E46C817D81B3
:103350008E819F810E943858DC01CB018C879D872C
:10336000AE87BF8720E030E040E85FE3688579857D
:103370008A859B850E94D45688231CF481E0888B23
:10338000B2C020E03FEF4FE757E46C857D858E8526
:103390009F850E94335818160CF07BC020E030E067
:1033A0004AE754E46C817D818E819F810E94D956C9
:1033B000DC01CB01898B9A8BAB8BBC8B20E030E09E
:1033C0004AE755E469897A898B899C890E94385833
:1033D000DC01CB018D8B9E8BAF8BB88F20E030E072
:1033E00040E85FE36D897E898F89988D0E94D4566D
:1033F00088232CF481E090E09A8F898F3FC020E0F1
:103400003FEF4FE757E46D897E898F89988D0E9441
:10341000335818164CF520E030E040E251E4698959
:103420007A898B899C890E943858DC01CB01BC01C8
:10343000CD010E945257DC01CB019A8F898F0FC0BA
:1034400080E991E09C8F8B8F8B8D9C8D0197F1F79C
:103450009C8F8B8F898D9A8D01979A8F898F898DFB
:103460009A8D892B69F73FC06D897E898F89988DE8
:103470000E945257DC01CB019A8F898F898D9A8DDA
:103480009E8F8D8F8D8D9E8D0197F1F79E8F8D8FE5
:103490002AC020E030E04FE753E4688579858A85CB
:1034A0009B850E9433581816ACF46C857D858E85FB
:1034B0009F850E945257DC01CB0198A38F8F8F8D7F
:1034C00098A19AA389A389A19AA10197F1F79AA338
:1034D00089A30FC0688579858A859B850E9452578C
:1034E000DC01CB01888B88898BA38BA18A95F1F7AE
:1034F0008BA385E290E025E230E0F9012081226093
:10350000FC0120838BE290E0FC018081282F2F704A
:103510008981882F90E082959295907F9827807F6F
:103520009827822B8B838BE290E02B81FC012083F8
:1035300080E090E0A0E8BFE38CA39DA3AEA3BFA36F
:103540002BEA3AEA4AEA50E46CA17DA18EA19FA140
:103550000E943858DC01CB0188A799A7AAA7BBA76E
:1035600020E030E040E850E46CA17DA18EA19FA155
:103570000E943858DC01CB018CA79DA7AEA7BFA73E
:1035800020E030E040E85FE368A579A58AA59BA527
:103590000E94D45688231CF481E088ABC6C020E08A
:1035A0003FEF4FE757E46CA57DA58EA59FA50E9430
:1035B000335818160CF07BC020E030E04AE754E4A2
:1035C0006CA17DA18EA19FA10E94D956DC01CB01E7
:1035D00089AB9AABABABBCAB20E030E04AE755E43B
:1035E00069A97AA98BA99CA90E943858DC01CB0152
:1035F0008DAB9EABAFABB8AF20E030E040E85FE30F
:103600006DA97EA98FA998AD0E94D45688232CF469
:1036100081E090E09AAF89AF3FC020E03FEF4FE7F5
:1036200057E46DA97EA98FA998AD0E94335818164A
:103630004CF520E030E040E251E469A97AA98BA979
:103640009CA90E943858DC01CB01BC01CD010E942D
:103650005257DC01CB019AAF89AF0FC080E991E0EE
:103660009CAF8BAF8BAD9CAD0197F1F79CAF8BAF4F
:1036700089AD9AAD01979AAF89AF89AD9AAD892B83
:1036800069F753C06DA97EA98FA998AD0E945257C2
:10369000DC01CB019AAF89AF89AD9AAD9EAF8DAFFA
:1036A0008DAD9EAD0197F1F79EAF8DAF3EC020E08E
:1036B00030E04FE753E468A579A58AA59BA50E9451
:1036C000335818164CF56CA57DA58EA59FA50E94B4
:1036D0005257DC01CB019E01215C3F4FF9019183E0
:1036E0008083CE018F5B9F4F9E01215C3F4FF9018C
:1036F00020813181FC0131832083CE018F5B9F4F7C
:10370000FC01808191810197F1F79E012F5B3F4F72
:10371000F901918380831CC068A579A58AA59BA522
:103720000E945257DC01CB0188ABCE018D5B9F4FCD
:1037300028A9FC012083CE018D5B9F4FFC01808175
:10374000282F2A95F1F7CE018D5B9F4FFC01208336
:1037500085E290E025E230E0F90120812D7FFC0137
:1037600020839E012C5B3F4F80E090E0A0E8BFE308
:10377000F90180839183A283B3838E01085B1F4F7D
:10378000CE018C5B9F4F2BEA3AEA4AEA50E4FC01F7
:1037900060817181828193810E943858DC01CB0164
:1037A000F80180839183A283B3838E01045B1F4F52
:1037B000CE018C5B9F4F20E030E040E850E4FC01FC
:1037C00060817181828193810E943858DC01CB0134
:1037D000F80180839183A283B383CE01885B9F4FDE
:1037E00020E030E040E85FE3FC016081718182818C
:1037F00093810E94D45688233CF4CE01805B9F4F76
:1038000021E0FC01208330C1CE01845B9F4F20E08A
:103810003FEF4FE757E4FC01608171818281938122
:103820000E94335818160CF0D1C0CE018C5B9F4F0C
:1038300020E030E04AE754E4FC016081718182813C
:1038400093810E94D956DC01CB019E012F5A3F4F34
:10385000F90180839183A283B3838E010B5A1F4F9A
:10386000CE018F5A9F4F20E030E04AE755E4FC013B
:1038700060817181828193810E943858DC01CB0183
:10388000F80180839183A283B383CE018B5A9F4F2B
:1038900020E030E040E85FE3FC01608171818281DB
:1038A00093810E94D45688234CF4CE01875A9F4FAF
:1038B00021E030E0FC01318320836DC0CE018B5AC2
:1038C0009F4F20E03FEF4FE757E4FC01608171819B
:1038D000828193810E94335818160CF04AC0CE01A1
:1038E0008F5A9F4F20E030E040E251E4FC016081BC
:1038F0007181828193810E943858DC01CB018E0155
:10390000075A1F4FBC01CD010E945257DC01CB0169
:10391000F8019183808324C0CE01855A9F4F20E90E
:1039200031E0FC0131832083CE01855A9F4FFC0199
:10393000808191810197F1F79E01255A3F4FF9014E
:1039400091838083CE01875A9F4F9E01275A3F4F14
:10395000F9012081318121503109FC01318320831B
:10396000CE01875A9F4FFC0180819181892BA1F65E
:103970007BC08E01075A1F4FCE018B5A9F4FFC010F
:1039800060817181828193810E945257DC01CB0159
:10399000F80191838083CE01835A9F4F9E01275A5D
:1039A0003F4FF90120813181FC0131832083CE0119
:1039B000835A9F4FFC01808191810197F1F79E010D
:1039C000235A3F4FF901918380834EC0CE01885B1B
:1039D0009F4F20E030E04FE753E4FC0160817181AC
:1039E000828193810E94335818166CF58E01015A1A
:1039F0001F4FCE01845B9F4FFC01608171818281EA
:103A000093810E945257DC01CB01F801918380839E
:103A1000CE018F599F4F9E01215A3F4FF9012081BE
:103A20003181FC0131832083CE018F599F4FFC01EE
:103A3000808191810197F1F79E012F593F4FF90144
:103A40009183808328C08E01005B1F4FCE01885B6D
:103A50009F4FFC0160817181828193810E94525746
:103A6000DC01CB01F8018083CE018D599F4F9E016F
:103A7000205B3F4FF9012081FC012083CE018D594D
:103A80009F4FFC018081282F2A95F1F7CE018D5997
:103A90009F4FFC01208385E290E025E230E0F901B0
:103AA00020812260FC0120838BE290E0FC01808178
:103AB000282F2F708A81882F90E082959295907F91
:103AC0009827807F9827822B8B838BE290E02B8135
:103AD000FC0120839E012C593F4F80E090E0A0E83C
:103AE000BFE3F90180839183A283B3838E010859D8
:103AF0001F4FCE018C599F4F2BEA3AEA4AEA50E415
:103B0000FC0160817181828193810E943858DC01BF
:103B1000CB01F80180839183A283B3838E01045982
:103B20001F4FCE018C599F4F20E030E040E850E419
:103B3000FC0160817181828193810E943858DC018F
:103B4000CB01F80180839183A283B383CE0188598E
:103B50009F4F20E030E040E85FE3FC01608171812D
:103B6000828193810E94D45688233CF4CE018059EF
:103B70009F4F21E0FC01208330C1CE0184599F4F2B
:103B800020E03FEF4FE757E4FC01608171818281C3
:103B900093810E94335818160CF0D1C0CE018C5975
:103BA0009F4F20E030E04AE754E4FC0160817181DE
:103BB000828193810E94D956DC01CB019E012F584E
:103BC0003F4FF90180839183A283B3838E010B5809
:103BD0001F4FCE018F589F4F20E030E04AE755E459
:103BE000FC0160817181828193810E943858DC01DF
:103BF000CB01F80180839183A283B383CE018B58DC
:103C00009F4F20E030E040E85FE3FC01608171817C
:103C1000828193810E94D45688234CF4CE01875828
:103C20009F4F21E030E0FC01318320836DC0CE0145
:103C30008B589F4F20E03FEF4FE757E4FC01608136
:103C40007181828193810E94335818160CF04AC00A
:103C5000CE018F589F4F20E030E040E251E4FC015C
:103C600060817181828193810E943858DC01CB018F
:103C70008E0107581F4FBC01CD010E945257DC0135
:103C8000CB01F8019183808324C0CE0185589F4FDA
:103C900020E931E0FC0131832083CE0185589F4F1C
:103CA000FC01808191810197F1F79E0125583F4FDA
:103CB000F90191838083CE0187589F4F9E01275839
:103CC0003F4FF9012081318121503109FC013183BD
:103CD0002083CE0187589F4FFC0180819181892BE1
:103CE000A1F67BC08E0107581F4FCE018B589F4F06
:103CF000FC0160817181828193810E945257DC01B5
:103D0000CB01F80191838083CE0183589F4F9E01A0
:103D100027583F4FF90120813181FC0131832083F5
:103D2000CE0183589F4FFC01808191810197F1F76B
:103D30009E0123583F4FF901918380834EC0CE01ED
:103D400088599F4F20E030E04FE753E4FC01608149
:103D50007181828193810E94335818166CF58E010F
:103D600001581F4FCE0184599F4FFC016081718122
:103D7000828193810E945257DC01CB01F80191832B
:103D80008083CE018F579F4F9E0121583F4FF901ED
:103D900020813181FC0131832083CE018F579F4FD9
:103DA000FC01808191810197F1F79E012F573F4FD0
:103DB000F9019183808328C08E0100591F4FCE01E5
:103DC00088599F4FFC0160817181828193810E949B
:103DD0005257DC01CB01F8018083CE018D579F4FF4
:103DE0009E0120593F4FF9012081FC012083CE0123
:103DF0008D579F4FFC018081282F2A95F1F7CE0126
:103E00008D579F4FFC01208385E290E025E230E052
:103E1000F90120812D7FFC0120839E012C573F4F0B
:103E200080E090E0A0E8BFE3F90180839183A28362
:103E3000B3838E0108571F4FCE018C579F4F2BEA3B
:103E40003AEA4AEA50E4FC016081718182819381FF
:103E50000E943858DC01CB01F80180839183A28352
:103E6000B3838E0104571F4FCE018C579F4F20E024
:103E700030E040E850E4FC016081718182819381EF
:103E80000E943858DC01CB01F80180839183A28322
:103E9000B383CE0188579F4F20E030E040E85FE3D6
:103EA000FC0160817181828193810E94D4568823B4
:103EB0003CF4CE0180579F4F21E0FC01208330C1AC
:103EC000CE0184579F4F20E03FEF4FE757E4FC01BE
:103ED00060817181828193810E94335818160CF0A1
:103EE000D1C0CE018C579F4F20E030E04AE754E428
:103EF000FC0160817181828193810E94D956DC012D
:103F0000CB019E012F563F4FF90180839183A283FD
:103F1000B3838E010B561F4FCE018F569F4F20E06B
:103F200030E04AE755E4FC01608171818281938130
:103F30000E943858DC01CB01F80180839183A28371
:103F4000B383CE018B569F4F20E030E040E85FE323
:103F5000FC0160817181828193810E94D456882303
:103F60004CF4CE0187569F4F21E030E0FC013183B5
:103F700020836DC0CE018B569F4F20E03FEF4FE76F
:103F800057E4FC0160817181828193810E943358E2
:103F900018160CF04AC0CE018F569F4F20E030E03B
:103FA00040E251E4FC0160817181828193810E9431
:103FB0003858DC01CB018E0107561F4FBC01CD01E3
:103FC0000E945257DC01CB01F8019183808324C009
:103FD000CE0185569F4F20E931E0FC0131832083DB
:103FE000CE0185569F4FFC01808191810197F1F7A9
:103FF0009E0125563F4FF90191838083CE0187565C
:104000009F4F9E0127563F4FF9012081318121505A
:104010003109FC0131832083CE0187569F4FFC017B
:1040200080819181892BA1F67BC08E0107561F4F9D
:10403000CE018B569F4FFC016081718182819381FB
:104040000E945257DC01CB01F80191838083CE019D
:1040500083569F4F9E0127563F4FF90120813181A2
:10406000FC0131832083CE0183569F4FFC01808168
:1040700091810197F1F79E0123563F4FF9019183FA
:1040800080834EC0CE0188579F4F20E030E04FE73D
:1040900053E4FC0160817181828193810E943358D5
:1040A00018166CF58E0101561F4FCE0184579F4F95
:1040B000FC0160817181828193810E945257DC01F1
:1040C000CB01F80191838083CE018F559F4F9E01D4
:1040D00021563F4FF90120813181FC01318320833A
:1040E000CE018F559F4FFC01808191810197F1F79F
:1040F0009E012F553F4FF9019183808328C08E0187
:1041000000571F4FCE0188579F4FFC01608171817E
:10411000828193810E945257DC01CB01F801808398
:10412000CE018D559F4F9E0120573F4FF9012081B1
:10413000FC012083CE018D559F4FFC018081282FEB
:104140002A95F1F7CE018D559F4FFC0120830E94E7
:10415000B520CB55DF4F0FB6F894DEBF0FBECDBFF5
:10416000DF91CF911F910F9108950F931F93CF93DC
:10417000DF93CDB7DEB7C95ED1090FB6F894DEBFC5
:104180000FBECDBF19828AE290E02AE230E0F90149
:1041900020812F70FC0120838BE290E02BE230E045
:1041A000F90120812460FC0120838BE290E02BE266
:1041B00030E0F9012081277FFC01208380E090E03E
:1041C000A0E0BFE38C839D83AE83BF832BEA3AEAF2
:1041D0004AEA50E46C817D818E819F810E9438582B
:1041E000DC01CB0188879987AA87BB8720E030E074
:1041F00040E850E46C817D818E819F810E94385817
:10420000DC01CB018C879D87AE87BF8720E030E043
:1042100040E85FE3688579858A859B850E94D4564E
:1042200088231CF481E0888BB2C020E03FEF4FE789
:1042300057E46C857D858E859F850E9433581816BE
:104240000CF07BC020E030E04AE754E46C817D81D3
:104250008E819F810E94D956DC01CB01898B9A8B7C
:10426000AB8BBC8B20E030E04AE755E469897A8962
:104270008B899C890E943858DC01CB018D8B9E8BE9
:10428000AF8BB88F20E030E040E85FE36D897E8936
:104290008F89988D0E94D45688232CF481E090E079
:1042A0009A8F898F3FC020E03FEF4FE757E46D8939
:1042B0007E898F89988D0E94335818164CF520E01E
:1042C00030E040E251E469897A898B899C890E94B7
:1042D0003858DC01CB01BC01CD010E945257DC01F2
:1042E000CB019A8F898F0FC080E991E09C8F8B8FD3
:1042F0008B8D9C8D0197F1F79C8F8B8F898D9A8D7B
:1043000001979A8F898F898D9A8D892B69F73FC084
:104310006D897E898F89988D0E945257DC01CB016F
:104320009A8F898F898D9A8D9E8F8D8F8D8D9E8D81
:104330000197F1F79E8F8D8F2AC020E030E04FE784
:1043400053E4688579858A859B850E9433581816C1
:10435000ACF46C857D858E859F850E945257DC016B
:10436000CB0198A38F8F8F8D98A19AA389A389A140
:104370009AA10197F1F79AA389A30FC0688579855F
:104380008A859B850E945257DC01CB01888B8889E6
:104390008BA38BA18A95F1F78BA385E290E025E2B0
:1043A00030E0F90120812260FC01208380E090E070
:1043B000A0E0BFE38CA39DA3AEA3BFA32BEA3AEA80
:1043C0004AEA50E46CA17DA18EA19FA10E943858B9
:1043D000DC01CB0188A799A7AAA7BBA720E030E002
:1043E00040E850E46CA17DA18EA19FA10E943858A5
:1043F000DC01CB018CA79DA7AEA7BFA720E030E0D2
:1044000040E85FE368A579A58AA59BA50E94D456DC
:1044100088231CF481E088ABD2C020E03FEF4FE757
:1044200057E46CA57DA58EA59FA50E94335818164C
:104430000CF087C020E030E04AE754E46CA17DA195
:104440008EA19FA10E94D956DC01CB0189AB9AAB0A
:10445000ABABBCAB20E030E04AE755E469A97AA9F0
:104460008BA99CA90E943858DC01CB018DAB9EAB77
:10447000AFABB8AF20E030E040E85FE36DA97EA9C4
:104480008FA998AD0E94D45688232CF481E090E047
:104490009AAF89AF45C020E03FEF4FE757E46DA9E1
:1044A0007EA98FA998AD0E94335818167CF520E09C
:1044B00030E040E251E469A97AA98BA99CA90E9445
:1044C0003858DC01CB01BC01CD010E945257DC0100
:1044D000CB019AAF89AF0FC080E991E09CAF8BAF61
:1044E0008BAD9CAD0197F1F79CAF8BAF89AD9AADC9
:1044F00001979AAF89AF89AD9AAD892B69F7CE0143
:104500008C5B9F4FFC01808188AB59C06DA97EA94F
:104510008FA998AD0E945257DC01CB019AAF89AFA9
:1045200089AD9AAD9EAF8DAF8DAD9EAD0197F1F780
:104530009EAF8DAFCE018C5B9F4FFC01808188AB1D
:104540003EC020E030E04FE753E468A579A58AA596
:104550009BA50E94335818164CF56CA57DA58EA519
:104560009FA50E945257DC01CB019E01215C3F4F69
:10457000F90191838083CE018F5B9F4F9E01215C67
:104580003F4FF90120813181FC0131832083CE012D
:104590008F5B9F4FFC01808191810197F1F79E0114
:1045A0002F5B3F4FF901918380831CC068A579A5DB
:1045B0008AA59BA50E945257DC01CB0188ABCE0196
:1045C0008D5B9F4F28A9FC012083CE018D5B9F4FFF
:1045D000FC018081282F2A95F1F7CE018D5B9F4F3A
:1045E000FC01208389E290E0FC01808182958F703C
:1045F000898389818295807F89839E012B5B3F4FD0
:1046000080E090E0A0E0BFE3F90180839183A28382
:10461000B3838E01075B1F4FCE018B5B9F4F2BEA4D
:104620003AEA4AEA50E4FC01608171818281938117
:104630000E943858DC01CB01F80180839183A2836A
:10464000B3838E01035B1F4FCE018B5B9F4F20E036
:1046500030E040E850E4FC01608171818281938107
:104660000E943858DC01CB01F80180839183A2833A
:10467000B383CE01875B9F4F20E030E040E85FE3EB
:10468000FC0160817181828193810E94D4568823CC
:104690003CF4CE018F5A9F4F21E0FC01208344C19E
:1046A000CE01835B9F4F20E03FEF4FE757E4FC01D3
:1046B00060817181828193810E94335818160CF0B9
:1046C000E5C0CE018B5B9F4F20E030E04AE754E429
:1046D000FC0160817181828193810E94D956DC0145
:1046E000CB019E012E5A3F4FF90180839183A28313
:1046F000B3838E010A5A1F4FCE018E5A9F4F20E07E
:1047000030E04AE755E4FC01608171818281938148
:104710000E943858DC01CB01F80180839183A28389
:10472000B383CE018A5A9F4F20E030E040E85FE338
:10473000FC0160817181828193810E94D45688231B
:104740004CF4CE01865A9F4F21E030E0FC013183CA
:10475000208377C0CE018A5A9F4F20E03FEF4FE77A
:1047600057E4FC0160817181828193810E943358FA
:1047700018160CF054C0CE018E5A9F4F20E030E046
:1047800040E251E4FC0160817181828193810E9449
:104790003858DC01CB018E01065A1F4FBC01CD01F8
:1047A0000E945257DC01CB01F8019183808324C021
:1047B000CE01845A9F4F20E931E0FC0131832083F0
:1047C000CE01845A9F4FFC01808191810197F1F7BE
:1047D0009E01245A3F4FF90191838083CE01865A6E
:1047E0009F4F9E01265A3F4FF90120813181215070
:1047F0003109FC0131832083CE01865A9F4FFC0191
:1048000080819181892BA1F6CE018F5A9F4F9E0105
:104810002B593F4FF9012081FC01208385C08E0177
:10482000065A1F4FCE018A5A9F4FFC016081718149
:10483000828193810E945257DC01CB01F801918360
:104840008083CE01825A9F4F9E01265A3F4FF90125
:1048500020813181FC0131832083CE01825A9F4F18
:10486000FC01808191810197F1F79E01225A3F4F0F
:10487000F90191838083CE018F5A9F4F9E012B595E
:104880003F4FF9012081FC0120834EC0CE01875BA0
:104890009F4F20E030E04FE753E4FC0160817181DD
:1048A000828193810E94335818166CF58E01005A4C
:1048B0001F4FCE01835B9F4FFC016081718182811C
:1048C00093810E945257DC01CB01F80191838083D0
:1048D000CE018E599F4F9E01205A3F4FF9012081F2
:1048E0003181FC0131832083CE018E599F4FFC0121
:1048F000808191810197F1F79E012E593F4FF90177
:104900009183808328C08E010F5A1F4FCE01875B91
:104910009F4FFC0160817181828193810E94525777
:10492000DC01CB01F8018083CE018C599F4F9E01A1
:104930002F5A3F4FF9012081FC012083CE018C5971
:104940009F4FFC018081282F2A95F1F7CE018C59C9
:104950009F4FFC01208385E290E025E230E0F901E1
:1049600020812D7FFC0120839E012A593F4F80E04A
:1049700090E0A0E8BFE3F90180839183A283B38331
:104980008E0106591F4FCE018A599F4F2BEA3AEAF2
:104990004AEA50E4FC0160817181828193810E9426
:1049A0003858DC01CB01F80180839183A283B38363
:1049B0008E0102591F4FCE018A599F4F20E030E0EF
:1049C00040E850E4FC0160817181828193810E9402
:1049D0003858DC01CB01F80180839183A283B38333
:1049E000CE0186599F4F20E030E040E85FE3FC01B4
:1049F00060817181828193810E94D45688233CF426
:104A0000CE018E589F4F21E0FC01208344C1CE018E
:104A100082599F4F20E03FEF4FE757E4FC01608150
:104A20007181828193810E94335818160CF0E5C081
:104A3000CE018A599F4F20E030E04AE754E4FC0160
:104A400060817181828193810E94D956DC01CB0102
:104A50009E012D583F4FF90180839183A283B38338
:104A60008E0109581F4FCE018D589F4F20E030E036
:104A70004AE755E4FC0160817181828193810E9443
:104A80003858DC01CB01F80180839183A283B38382
:104A9000CE0189589F4F20E030E040E85FE3FC0101
:104AA00060817181828193810E94D45688234CF465
:104AB000CE0185589F4F21E030E0FC0131832083F7
:104AC00077C0CE0189589F4F20E03FEF4FE757E472
:104AD000FC0160817181828193810E943358181694
:104AE0000CF054C0CE018D589F4F20E030E040E2E2
:104AF00051E4FC0160817181828193810E94385868
:104B0000DC01CB018E0105581F4FBC01CD010E9475
:104B10005257DC01CB01F8019183808324C0CE0180
:104B200083589F4F20E931E0FC0131832083CE017F
:104B300083589F4FFC01808191810197F1F79E017D
:104B400023583F4FF90191838083CE0185589F4FB1
:104B50009E0125583F4FF9012081318121503109B3
:104B6000FC0131832083CE0185589F4FFC01808159
:104B70009181892BA1F6CE018E589F4F9E012A5715
:104B80003F4FF9012081FC01208385C08E0105582B
:104B90001F4FCE0189589F4FFC0160817181828136
:104BA00093810E945257DC01CB01F80191838083ED
:104BB000CE0181589F4F9E0125583F4FF90120811A
:104BC0003181FC0131832083CE0181589F4FFC014C
:104BD000808191810197F1F79E0121583F4FF901A2
:104BE00091838083CE018E589F4F9E012A573F4F5D
:104BF000F9012081FC0120834EC0CE0186599F4FD0
:104C000020E030E04FE753E4FC0160817181828154
:104C100093810E94335818166CF58E010F571F4F61
:104C2000CE0182599F4FFC01608171818281938105
:104C30000E945257DC01CB01F80191838083CE01A1
:104C40008D579F4F9E012F573F4FF9012081318192
:104C5000FC0131832083CE018D579F4FFC01808161
:104C600091810197F1F79E012D573F4FF9019183F3
:104C7000808328C08E010E581F4FCE0186599F4F4A
:104C8000FC0160817181828193810E945257DC0115
:104C9000CB01F8018083CE018B579F4F9E012E5888
:104CA0003F4FF9012081FC012083CE018B579F4F9C
:104CB000FC018081282F2A95F1F7CE018B579F4F59
:104CC000FC01208385E290E025E230E0F9012081BB
:104CD0002260FC0120839E0129573F4F80E090E035
:104CE000A0E0BFE3F90180839183A283B3838E01A7
:104CF00005571F4FCE0189579F4F2BEA3AEA4AEAE0
:104D000050E4FC0160817181828193810E94385856
:104D1000DC01CB01F80180839183A283B3838E01F0
:104D200001571F4FCE0189579F4F20E030E040E8E8
:104D300050E4FC0160817181828193810E94385826
:104D4000DC01CB01F80180839183A283B383CE0180
:104D500085579F4F20E030E040E85FE3FC01608131
:104D60007181828193810E94D45688233CF4CE01C4
:104D70008D569F4F21E0FC01208344C1CE01815715
:104D80009F4F20E03FEF4FE757E4FC0160817181C6
:104D9000828193810E94335818160CF0E5C0CE0131
:104DA00089579F4F20E030E04AE754E4FC016081DE
:104DB0007181828193810E94D956DC01CB019E01D1
:104DC0002C563F4FF90180839183A283B3838E01D8
:104DD00008561F4FCE018C569F4F20E030E04AE727
:104DE00055E4FC0160817181828193810E94385871
:104DF000DC01CB01F80180839183A283B383CE01D0
:104E000088569F4F20E030E040E85FE3FC0160817E
:104E10007181828193810E94D45688234CF4CE0103
:104E200084569F4F21E030E0FC013183208377C01E
:104E3000CE0188569F4F20E03FEF4FE757E4FC013B
:104E400060817181828193810E94335818160CF021
:104E500054C0CE018C569F4F20E030E040E251E438
:104E6000FC0160817181828193810E943858DC014C
:104E7000CB018E0104561F4FBC01CD010E94525739
:104E8000DC01CB01F8019183808324C0CE018256DE
:104E90009F4F20E931E0FC0131832083CE0182560F
:104EA0009F4FFC01808191810197F1F79E0122566D
:104EB0003F4FF90191838083CE0184569F4F9E011D
:104EC00024563F4FF9012081318121503109FC01E5
:104ED00031832083CE0184569F4FFC0180819181D4
:104EE000892BA1F6CE018D569F4F9E0129553F4F2C
:104EF000F9012081FC01208385C08E0104561F4FDB
:104F0000CE0188569F4FFC0160817181828193811F
:104F10000E945257DC01CB01F80191838083CE01BE
:104F200080569F4F9E0124563F4FF90120813181C9
:104F3000FC0131832083CE0180569F4FFC0180818C
:104F400091810197F1F79E0120563F4FF90191831E
:104F50008083CE018D569F4F9E0129553F4FF90109
:104F60002081FC0120834EC0CE0185579F4F20E059
:104F700030E04FE753E4FC016081718182819381CD
:104F80000E94335818166CF58E010E551F4FCE0136
:104F900081579F4FFC0160817181828193810E94C2
:104FA0005257DC01CB01F80191838083CE018C55EF
:104FB0009F4F9E012E553F4FF90120813181FC0109
:104FC00031832083CE018C559F4FFC0180819181DC
:104FD0000197F1F79E012C553F4FF9019183808392
:104FE00028C08E010D561F4FCE0185579F4FFC01E3
:104FF00060817181828193810E945257DC01CB01D3
:10500000F8018083CE018A559F4F9E012D563F4F58
:10501000F9012081FC012083CE018A559F4FFC01BC
:105020008081282F2A95F1F7CE018A559F4FFC01E8
:10503000208389E290E0FC01808182958F708A83D1
:105040008A818F708A8399818A81892B898389815A
:1050500080788B839E0128553F4F80E090E0A0E050
:10506000BFE3F90180839183A283B3838E0104554A
:105070001F4FCE0188559F4F2BEA3AEA4AEA50E487
:10508000FC0160817181828193810E943858DC012A
:10509000CB01F80180839183A283B3838E010055F5
:1050A0001F4FCE0188559F4F20E030E040E850E48C
:1050B000FC0160817181828193810E943858DC01FA
:1050C000CB01F80180839183A283B383CE01845501
:1050D0009F4F20E030E040E85FE3FC016081718198
:1050E000828193810E94D45688233CF4CE018C5453
:1050F0009F4F21E0FC01208344C1CE0180559F4F8A
:1051000020E03FEF4FE757E4FC016081718182812D
:1051100093810E94335818160CF0E5C0CE018855D3
:105120009F4F20E030E04AE754E4FC016081718148
:10513000828193810E94D956DC01CB019E012B54C0
:105140003F4FF90180839183A283B3838E0107547B
:105150001F4FCE018B549F4F20E030E04AE755E4CB
:10516000FC0160817181828193810E943858DC0149
:10517000CB01F80180839183A283B383CE0187544E
:105180009F4F20E030E040E85FE3FC0160817181E7
:10519000828193810E94D45688234CF4CE0183549B
:1051A0009F4F21E030E0FC013183208377C0CE01A6
:1051B00087549F4F20E03FEF4FE757E4FC016081A9
:1051C0007181828193810E94335818160CF054C06B
:1051D000CE018B549F4F20E030E040E251E4FC01CF
:1051E00060817181828193810E943858DC01CB01FA
:1051F0008E0103541F4FBC01CD010E945257DC01A8
:10520000CB01F8019183808324C0CE0181549F4F4C
:1052100020E931E0FC0131832083CE0181549F4F8E
:10522000FC01808191810197F1F79E0121543F4F4C
:10523000F90191838083CE0183549F4F9E012354B3
:105240003F4FF9012081318121503109FC01318327
:105250002083CE0183549F4FFC0180819181892B53
:10526000A1F6CE018C549F4F9E0128533F4FF90168
:105270002081FC01208385C08E0103541F4FCE0185
:1052800087549F4FFC0160817181828193810E94CC
:105290005257DC01CB01F80191838083CE018F53FB
:1052A0009F4F9E0123543F4FF90120813181FC0122
:1052B00031832083CE018F539F4FFC0180819181E8
:1052C0000197F1F79E012F533F4FF901918380839E
:1052D000CE018C549F4F9E0128533F4FF9012081EE
:1052E000FC0120834EC0CE0184559F4F20E030E06A
:1052F0004FE753E4FC0160817181828193810E94B8
:10530000335818166CF58E010D531F4FCE01805582
:105310009F4FFC0160817181828193810E9452576D
:10532000DC01CB01F80191838083CE018B539F4F29
:105330009E012D533F4FF90120813181FC013183C2
:105340002083CE018B539F4FFC0180819181019777
:10535000F1F79E012B533F4FF9019183808328C0C1
:105360008E010C541F4FCE0184559F4FFC0160816C
:105370007181828193810E945257DC01CB01F80137
:105380008083CE0189539F4F9E012C543F4FF901DA
:105390002081FC012083CE0189539F4FFC01808135
:1053A000282F2A95F1F7CE0189539F4FFC012083C6
:1053B00085E290E025E230E0F90120812D7FFC01BB
:1053C00020839E0127533F4F80E090E0A0E8BFE399
:1053D000F90180839183A283B3838E0103531F4F0E
:1053E000CE0187539F4F2BEA3AEA4AEA50E4FC0188
:1053F00060817181828193810E943858DC01CB01E8
:10540000F80180839183A283B3838E010F521F4FD3
:10541000CE0187539F4F20E030E040E850E4FC018C
:1054200060817181828193810E943858DC01CB01B7
:10543000F80180839183A283B383CE0183539F4F6E
:1054400020E030E040E85FE3FC016081718182810F
:1054500093810E94D45688233CF4CE018B529F4FF7
:1054600021E0FC01208344C1CE018F529F4F20E0F8
:105470003FEF4FE757E4FC016081718182819381A6
:105480000E94335818160CF0E5C0CE0187539F4F89
:1054900020E030E04AE754E4FC01608171818281C0
:1054A00093810E94D956DC01CB019E012A523F4FC5
:1054B000F90180839183A283B3838E0106521F4F2B
:1054C000CE018A529F4F20E030E04AE755E4FC01CC
:1054D00060817181828193810E943858DC01CB0107
:1054E000F80180839183A283B383CE0186529F4FBC
:1054F00020E030E040E85FE3FC016081718182815F
:1055000093810E94D45688234CF4CE0182529F4F3F
:1055100021E030E0FC013183208377C0CE01865248
:105520009F4F20E03FEF4FE757E4FC01608171811E
:10553000828193810E94335818160CF054C0CE011A
:105540008A529F4F20E030E040E251E4FC0160814C
:105550007181828193810E943858DC01CB018E01D8
:1055600002521F4FBC01CD010E945257DC01CB01FA
:10557000F8019183808324C0CE0180529F4F20E99F
:1055800031E0FC0131832083CE0180529F4FFC012A
:10559000808191810197F1F79E0120523F4FF901DF
:1055A00091838083CE0182529F4F9E0122523F4FB2
:1055B000F9012081318121503109FC01318320839F
:1055C000CE0182529F4FFC0180819181892BA1F6EF
:1055D000CE018B529F4F9E0127513F4FF9012081F1
:1055E000FC01208385C08E0102521F4FCE018652DE
:1055F0009F4FFC0160817181828193810E9452578B
:10560000DC01CB01F80191838083CE018E519F4F45
:105610009E0122523F4FF90120813181FC013183EB
:105620002083CE018E519F4FFC0180819181019793
:10563000F1F79E012E513F4FF90191838083CE01F6
:105640008B529F4F9E0127513F4FF9012081FC0152
:1056500020834EC0CE0183539F4F20E030E04FE7C0
:1056600053E4FC0160817181828193810E943358EF
:1056700018166CF58E010C511F4FCE018F529F4FA3
:10568000FC0160817181828193810E945257DC010B
:10569000CB01F80191838083CE018A519F4F9E01F7
:1056A0002C513F4FF90120813181FC01318320834E
:1056B000CE018A519F4FFC01808191810197F1F7C2
:1056C0009E012A513F4FF9019183808328C08E01AA
:1056D0000B521F4FCE0183539F4FFC01608171819C
:1056E000828193810E945257DC01CB01F8018083B3
:1056F000CE0188519F4F9E012B523F4FF9012081CF
:10570000FC012083CE0188519F4FFC018081282F0E
:105710002A95F1F7CE0188519F4FFC0120838B81A0
:10572000882311F00C94CD218BE290E02BE230E045
:10573000F90120812B7FFC0120838AE290E02AE29C
:1057400030E0F9012081206FFC012083C751DF4F39
:105750000FB6F894DEBF0FBECDBFDF91CF911F9182
:105760000F9108950F931F93CF93DF93CDB7DEB7BB
:10577000C157D1090FB6F894DEBF0FBECDBF9E0151
:105780002F583F4FF901808380E090E0A0EFB1E413
:105790008B839C83AD83BE8320E030E04AE755E4F1
:1057A0006B817C818D819E810E943858DC01CB0108
:1057B0008F839887A987BA8720E030E040E85FE3CD
:1057C0006F81788589859A850E94D45688232CF428
:1057D00081E090E09C878B873FC020E03FEF4FE760
:1057E00057E46F81788589859A850E943358181609
:1057F0004CF520E030E040E251E46B817C818D810A
:105800009E810E943858DC01CB01BC01CD010E9471
:105810005257DC01CB019C878B870FC080E991E058
:105820009E878D878D859E850197F1F79E878D8751
:105830008B859C8501979C878B878B859C85892B85
:1058400069F714C06F81788589859A850E945257BF
:10585000DC01CB019C878B878B859C85988B8F8700
:105860008F8598890197F1F7988B8F878AE290E06E
:105870002AE230E0F9012081206FFC01208384E2DC
:1058800090E024E230E0F90120812260FC012083D5
:105890008AE290E02AE230E0F90120812860FC01F0
:1058A00020838AE290E02AE230E0F901208124603E
:1058B000FC0120838BE290E02BE230E0F9012081B3
:1058C0002F70FC01208385E290E025E230E0F901B1
:1058D00020812D7FFC0120838BE290E02BE230E0E1
:1058E000F90120812B7FFC0120838BE290E02BE2E9
:1058F00030E0F9012081277FFC0120838AE999E9C2
:10590000A9E9BEE3898B9A8BAB8BBC8B2BEA3AEA75
:105910004AEA50E469897A898B899C890E943858BF
:10592000DC01CB018D8B9E8BAF8BB88F20E030E0FC
:1059300040E850E469897A898B899C890E943858AB
:10594000DC01CB01898F9A8FAB8FBC8F20E030E0D8
:1059500040E85FE36D897E898F89988D0E94D456D7
:1059600088231CF481E08D8FB2C020E03FEF4FE729
:1059700057E4698D7A8D8B8D9C8D0E943358181653
:105980000CF07BC020E030E04AE754E469897A8972
:105990008B899C890E94D956DC01CB018E8F9F8F09
:1059A000A8A3B9A320E030E04AE755E46E8D7F8DCF
:1059B00088A199A10E943858DC01CB018AA39BA33E
:1059C000ACA3BDA320E030E040E85FE36AA17BA187
:1059D0008CA19DA10E94D45688232CF481E090E0F4
:1059E0009FA38EA33FC020E03FEF4FE757E46AA19B
:1059F0007BA18CA19DA10E94335818164CF520E084
:105A000030E040E251E46E8D7F8D88A199A10E9423
:105A10003858DC01CB01BC01CD010E945257DC019A
:105A2000CB019FA38EA30FC080E991E099A788A71F
:105A300088A599A50197F1F799A788A78EA19FA19D
:105A400001979FA38EA38EA19FA1892B69F73FC0C9
:105A50006AA17BA18CA19DA10E945257DC01CB01C0
:105A60009FA38EA38EA19FA19BA78AA78AA59BA572
:105A70000197F1F79BA78AA72AC020E030E04FE703
:105A800053E46D897E898F89988D0E94335818164A
:105A9000ACF4698D7A8D8B8D9C8D0E945257DC0100
:105AA000CB019DA78CA78CA59DA59FA78EA78EA592
:105AB0009FA50197F1F79FA78EA70FC06D897E89DB
:105AC0008F89988D0E945257DC01CB018D8F8D8D6F
:105AD00088AB88A98A95F1F788AB82E08A8385E252
