:100000000C9434000C94EB000C9446000C944600C5
:100010000C9446000C9446000C9446000C94460048
:100020000C9446000C9446000C9446000C94460038
:100030000C9446000C9446000C9446000C94460028
:100040000C9446000C9446000C9446000C94460018
:100050000C9446000C9446000C9446000C94460008
:100060000C9446000C94460011241FBECFEFD8E03C
:10007000DEBFCDBF21E0A0E0B1E001C01D92A931FB
:10008000B207E1F70E94BE000C9447010C942301D3
:10009000CF9329988FEF0E944101C82F8FEF0E94C4
:1000A0004101299A2C2F30E0322F2227A901482B19
:1000B000CA01CF910895CF93C82F843010F087E004
:1000C00001C086E029980E9441018C2F8295880FFB
:1000D000880F807C0E944101C82F8FEF0E94410150
:1000E000299ACF702C2F30E0322F2227A901482BDC
:1000F000CA01CF9108950C942D011092C50081E0A2
:100100008093C40082E08093C00088E18093C100A6
:1001100086E08093C20008959091C00095FFFCCFC7
:100120008093C60008958091C00087FFFCCF809126
:10013000C60008958FE190E02091C00027FF04C021
:100140002091C6000197C1F70895259A209A239A15
:1001500024982C98259A579A5F9A569A5E9A5298A4
:100160005A98519A5098589853985B98089582E0FD
:100170008093690081E08DBB08950895F89415BAC5
:10018000109268001BBA10926B0010926C001092D3
:100190006D000E94A50080E090E00E947D000E941A
:1001A000B7000E947B00F8940E949A0080E04E996C
:1001B0000CC0811109C02D9A289A8CE20E948C00F3
:1001C0008CE20E948C00789481E04F99F0CF2D98BA
:1001D0002898F894EBCF1F920F920FB60F9211242C
:1001E0002F933F934F935F936F937F938F939F933F
:1001F000AF93BF93EF93FF930E9448009093170132
:10020000809316018091160190911701892F0E9409
:100210008C0080911601909117010E948C008CE255
:100220000E948C00FF91EF91BF91AF919F918F91B0
:100230007F916F915F914F913F912F910F900FBEE2
:100240000F901F9018951F920F920FB60F921124C6
:100250000F900FBE0F901F90189584B18C6284B9D7
:100260002A9A219A299A8CB588658CBD8DB58160B2
:100270008DBD08958CB58F7B8CBD84B1877D84B98D
:1002800008958EBD0DB407FEFDCF8EB50895F89488
:02029000FFCF9E
:00000001FF
