:100000000C942A000C943C000C943C000C943C0092
:100010000C943C000C943C000C943C000C943C0070
:100020000C943C000C943C000C94CF000C943C00CD
:100030000C943C000C943C000C943C000C943C0050
:100040000C943C000C943C000C943C000C943C0040
:100050000C943C0011241FBECFE5D8E0DEBFCDBF1D
:1000600020E0A0E6B0E001C01D92AD36B207E1F796
:100070000E94C0000C94F6000C94EC0082E0809387
:100080006200089580916200813049F028F082304A
:1000900049F08330B9F024C0949897980895949AC1
:1000A000979A089594989798809160009091610034
:1000B000892BC9F488EE93E09093610080936000EF
:1000C00083E00FC0949A979A8091600090916100AC
:1000D000892B49F488EE93E090936100809360004F
:1000E00082E0809362000895E3E6F0E011821082DE
:1000F000128213821482089581E08093620085B396
:100100000895D89AD998D998DA98DA98DB98DB9834
:10011000DF9ADE9ADD9ADC9AB89AB99ABA9ABB9AB3
:10012000C49AC59AC698C698C79AA098A198A2984A
:10013000A398A498A598A698A798A89AA99AAA9AC5
:10014000AB9AAC9AAD9AAE9AAF9A88989098899AE1
:100150008B9A8E9A8D9A8B9A8C9A8F9A08958BE0AF
:1001600083BF8CE78CBF88B78D7F88BF88B78E7FB1
:1001700088BF89B78E7F89BF89B7826089BF08959C
:10018000F8940E9481000E94AF000E943E000E94ED
:10019000740078940E9442000E947C00FBCF1F9262
:1001A0000F920FB60F9211248F939F93809160004E
:1001B00090916100892B49F08091600090916100DD
:1001C000019790936100809360009F918F910F90B1
:1001D0000FBE0F901F9018951F920F920FB60F929F
:1001E00011240F900FBE0F901F901895F894FFCF19
:00000001FF
