:100000000C94C2000C94D3050C94DF000C94DF0018
:100010000C94DF000C94DF000C94DF000C94DF00E4
:100020000C94DF000C94DF000C94EA050C94DF00C4
:100030000C94DF000C94DF000C94DF000C94DF00C4
:100040000C94DF000C94DF000C94DF000C94DF00B4
:100050000C94DF0000407A10F35A00A0724E180989
:100060000010A5D4E80000E87648170000E40B541F
:10007000020000CA9A3B000000E1F50500008096EE
:100080009800000040420F000000A0860100000020
:10009000102700000000E8030000000064000000DA
:1000A00000000A00000000000100000000002C76A3
:1000B000D888DC674F0823DFC1DFAE59E1B1B796BE
:1000C000E5E3E453C63AE651997696E8E6C284261B
:1000D000EB898C9B62ED407C6FFCEFBC9C9F40F2F7
:1000E000BAA56FA5F490055A2AF75C936B6CF96773
:1000F0006DC11BFCE0E40D47FEF520E6B500D0ED38
:10010000902E0300943577050080841E080000209F
:100110004E0A000000C80C333333330F986E12833D
:100120001141EF8D2114893BE65516CFFEE6DB1811
:10013000D1844B381BF77C1D901DA4BBE4242032D6
:1001400084725E228100C9F124ECA1E53D272020C4
:1001500020202020202020202020202020200000DF
:10016000436F6E7461646F722047656967657220C2
:10017000000052616D69726F20416C6F6E736F2069
:100180002020000011241FBECFE5D8E0DEBFCDBF88
:1001900010E0A0E6B0E0EAE6FCE102C005900D92B6
:1001A000AA3DB107D9F721E0AAEDB0E001C01D9248
:1001B000A235B207E1F70E948F050C94330E0C9420
:1001C000430610BC19B882E08BB988E18AB986E889
:1001D00080BD08955D9BFECF8CB908955F9BFECFD7
:1001E0008CB108958FE190E05F9B03C02CB1019723
:1001F000D9F70895EAEEF0E0108211821282089594
:100200008091EA00813009F44FC020F0823009F477
:1002100065C00895989908C081E08093EA008093B2
:10022000EB0084E68093EC009E9909C081E0809306
:10023000EA0087E08093EB0084E68093EC009999D4
:1002400009C081E08093EA0082E08093EB0084E6BD
:100250008093EC009D9909C081E08093EA0086E0DC
:100260008093EB0084E68093EC009C9909C081E0C8
:100270008093EA0085E08093EB0084E68093EC00B5
:100280009B9909C081E08093EA0084E08093EB00B1
:1002900084E68093EC009A9939C081E08093EA006B
:1002A00083E08093EB002FC08091EC0081112EC081
:1002B000989B0CC09E9B0AC0999B08C09D9B06C042
:1002C0009C9B04C09B9B02C09A9904C082E08093CF
:1002D000EA0008951092EA000C94FA008091EC0074
:1002E000811114C0989B12C09E9B10C0999B0EC098
:1002F0009D9B0CC09C9B0AC09B9B08C09A9B06C000
:1003000083E08093EA0084E68093EC000895809176
:10031000EA00833009F09CC08091EC00811198C004
:100320008091EB00873091F4209144013091450198
:1003300028373105C8F520914401309145012F5FE0
:100340003F4F30934501209344012EC0863081F405
:100350008091440190914501029768F18091440198
:10036000909145010197909345018093440123C0EA
:10037000853089F480912A01811102C081E005C095
:1003800080912A01813021F482E080932A0113C0F8
:1003900010922A0110C0833039F4909143019111D9
:1003A0006EC091E0909343019BEF980F933018F04B
:1003B000823009F047C080912A01811105C08091E7
:1003C00044019091450128C080912A01813059F45F
:1003D00020914401309145014CE3429FC001439F6D
:1003E000900D112419C080914401909145014397CB
:1003F00030F082E190E09093450180934401409178
:1004000044015091450120E13EE0429FC001439FDD
:10041000900D529F900D11249093270180932601F7
:10042000809126019091270190934F0180934E0176
:1004300088EE93E090934B0180934A0110922C0137
:1004400010922B0160E081E00E9496040E94FA0065
:10045000809143018130B1F4809126019091270170
:1004600090934F0180934E0188EE93E090934B015F
:1004700080934A0110922C0110922B010895109242
:10048000430192CF0895EF92FF920F931F93CF9362
:10049000DF9380E00E94CA048EE4E82E81E0F82E0B
:1004A000FF92EF9200EA10E01F930F93C8E0D1E0B3
:1004B000DF93CF930E94170960E080E00E947D05E2
:1004C000CE010E940B05FF92EF921F930F93DF93D3
:1004D000CF930E94170961E080E00E947D05CE0164
:1004E0000E940B0588EE93E09093F0008093EF005C
:1004F0001092200110921F01109207018DB79EB734
:100500000C960FB6F8949EBF0FBE8DBFDF91CF91B2
:100510001F910F91FF90EF9008950F931F93CF932A
:10052000DF9382E791E09F938F9300EA10E01F939F
:100530000F93C8E0D1E0DF93CF930E94170960E0EA
:1005400080E00E947D05CE010E940B0580E691E0CF
:100550009F938F931F930F93DF93CF930E9417095D
:1005600061E080E00E947D05CE010E940B058DB701
:100570009EB70C960FB6F8949EBF0FBE8DBF8091AC
:10058000ED009091EE00892BD1F7DF91CF911F9173
:100590000F910895CF92DF92EF92FF920F931F93E6
:1005A000CF93DF93CDB7DEB72A970FB6F894DEBFAF
:1005B0000FBECDBF809107018130A9F018F08230C5
:1005C00019F13AC18091ED009091EE00892B09F06C
:1005D00035C181E08093070188EE93E09093EE00AF
:1005E0008093ED002BC10E948D028091ED009091CF
:1005F000EE00892B09F022C182E08093070160E0C0
:1006000081E00E9496041AC18091440190914501B5
:100610009F938F9383EA90E09F938F9308E011E07C
:100620001F930F930E94170960E080E00E947D05F0
:10063000C8010E940B058BEA90E09F938F931F9354
:100640000F930E94170960E08FE00E947D05C801AA
:100650000E940B0580912A010FB6F894DEBF0FBEF1
:10066000CDBF811105C06EEA70E0C8010E9410097B
:1006700080912A01813031F460EB70E088E091E0F4
:100680000E94100980912A01823031F462EB70E0FF
:1006900088E091E00E941009809144019091450109
:1006A0000A9718F460E086E00BC0809144019091B5
:1006B000450160E08436910510F487E001C088E0D0
:1006C0000E947D0588E091E00E940B056091260163
:1006D0007091270100914E0110914F0180E090E050
:1006E0000E94F5079B01AC0160E070E088EC92E4A9
:1006F0000E9454076B017C01B80180E090E00E94E9
:10070000F5079B01AC01C701B6010E9483089B015C
:10071000AC0160E070E088EC92E40E94E7068E0194
:100720000F5F1F4F20E042E00E94F00860E08CE085
:100730000E947D05C8010E940B0580914C0190919B
:100740004D019F938F9384EB90E09F938F9308E0EC
:1007500011E01F930F930E94170961E080E00E944F
:100760007D05C8010E940B05809143010F900F90F9
:100770000F900F900F900F90813021F46CEB70E090
:10078000C8010BC080912B0190912C0180319742C0
:1007900038F062EC70E088E091E00E94100943C0FC
:1007A00080912B0190912C01883E934048F08091DC
:1007B0002B0190912C019F938F938BEC90E027C09D
:1007C00080912B0190912C018436910548F0809105
:1007D0002B0190912C019F938F938AEC90E017C08E
:1007E00080912B0190912C010A9748F080912B0168
:1007F00090912C019F938F9389EC90E008C0809199
:100800002B0190912C019F938F9388EC90E09F9304
:100810008F931F930F930E9417090F900F900F90C3
:100820000F900F900F9061E08BE00E947D0588E0B3
:1008300091E00E940B0502C00E9443022A960FB667
:10084000F894DEBF0FBECDBFDF91CF911F910F9106
:10085000FF90EF90DF90CF900895DF9ADE9ADD9AB7
:10086000DC9ADB9ADA9AD99AD89ABA9AB99AB89A4B
:10087000C59AC698C698C79AA098A698A198A59810
:10088000A498A398A298A89AAE9AA99AAD9AAC9A5D
:10089000AB9AAA9A88989098899A8F9A8A989298EF
:1008A000BB98BC98A7988B988C988D988E98C39A73
:1008B000C49AAF9A939A949A959A969A089583E0D7
:1008C00085BF80E48BBF08958BE083BF8CE78CBF2E
:1008D00088B78D7F88BF88B78E7F88BF82E089BF49
:1008E00008958AB38F708ABBC19AC29800C000C0B5
:1008F000C09A00C000C089B3807F00C000C0C0980B
:1009000092E09A95F1F700C0C09A00C000C099B378
:1009100000C000C0C09892E09A95F1F700C087FD32
:10092000E7CFC1988AB3806F8ABB0895382F32957C
:100930003F70982F9F70611102C0C29801C0C29A87
:1009400000C000C0C09A2BB3822F8F7040E1349F4B
:1009500090011124282B2BBB82E08A95F1F700C06F
:10096000C09832E03A95F1F700C0C09A8BB3282FB7
:100970002F7040E1949FC0011124822B8BBB82E039
:100980008A95F1F700C0C09832E03A95F1F700C0BF
:100990000C947104CF93DF93C82F8FE59AEE0197E3
:1009A000F1F700C000008AB3806F8ABBB89ABA9A88
:1009B000B99A8BB38F708BBBC098C198C29800C096
:1009C0000000C09ADD9A92E09A95F1F700C0C098B5
:1009D00082E08A95F1F700C00E94710460E08C2FDC
:1009E0008C600E94960460E088E20E94960460E0B9
:1009F00080E40E949604C0E6D0E061E089910E9404
:100A0000960490E0C03AD907C1F760E080E8DF9132
:100A1000CF910C9496040F931F93CF93DF93EC0127
:100A200088818823C9F0853281F48E010F5F1F4FC2
:100A30008981805361E0883028F085E20E94960425
:100A400061E089810E94960404C061E00E949604DE
:100A50008E01E8012196E4CFDF91CF911F910F9194
:100A60000895EF92FF920F931F93CF93DF9300D0DF
:100A700000D01F92CDB7DEB79B01AE014F5F5F4F35
:100A80007A0145E0F70111924A95E9F7FE013696A1
:100A90000AE010E0009731F0B8010E94BF0682938F
:100AA000CB01F8CF2F3FFFEF3F0741F4F7018F0154
:100AB0000E191F0981918823D1F304C005E010E0CD
:100AC000021B130B0E0D1F1DC8018E199F090597E0
:100AD00044F4F80181918F0161E0805D0E949604E9
:100AE000F3CF0F900F900F900F900F90DF91CF9159
:100AF0001F910F91FF90EF900895843178F4623048
:100B000031F0633031F0613029F4806403C0805FDC
:100B100001C0805B60E080680C9496040895F894AE
:100B20002FEF80E792E0215080409040E1F700C035
:100B300000000E942D040E9464040E9443020E944F
:100B40005F0478948EE190E0A0E0B0E080934401EF
:100B500090934501A0934601B093470180932601ED
:100B600090932701A0932801B09329018091260139
:100B700090912701A0912801B091290180934E0105
:100B800090934F01A0935001B093510110922A010C
:100B90000E94FA000E9400010E9487010E94CA027E
:100BA0000E945506F7CF1F920F920FB60F92112495
:100BB0008F939F9380912B0190912C01019690939C
:100BC0002C0180932B019F918F910F900FBE0F905E
:100BD0001F9018951F920F920FB60F9211248F93AA
:100BE0009F93AF93BF938091EC00882319F08150BD
:100BF0008093EC008091ED009091EE00892B49F0FC
:100C00008091ED009091EE0001979093EE0080931B
:100C1000ED0080914A0190914B01892B31F0809138
:100C20004A0190914B01019721C080914E01909112
:100C30004F01A0915001B0915101892B8A2B8B2B30
:100C400099F080914E0190914F01A0915001B09187
:100C500051010197A109B10980934E0190934F0171
:100C6000A0935001B093510188EE93E090934B0113
:100C700080934A01BF91AF919F918F910F900FBECA
:100C80000F901F9018951F920F920FB60F9211247C
:100C900060E081E00E94960460E080E00E947D05B3
:100CA0008FEC90E00E940B05FFCFCF92DF92EF9286
:100CB000FF92CF93DF93C0912601D09127016091DD
:100CC0002B0170912C0180914E0190914F01892B45
:100CD000D9F580E090E00E94F5076B017C01BE0130
:100CE00080E090E00E94F5079B01AC01C701B601CE
:100CF0000E94540720E030E040E752E40E9483085D
:100D00000E94C60770934D0160934C0180912B01A6
:100D100090912C0190932E0180932D0110922C0123
:100D200010922B01809126019091270190934F0101
:100D300080934E0160E081E0DF91CF91FF90EF90D2
:100D4000DF90CF900C949604DF91CF91FF90EF90BD
:100D5000DF90CF90089587B3806B87BBC49ABC9A0D
:100D6000C49A8DB188658DB908956E9887B38F75D3
:100D700087BB08958FB9779BFECF8FB1089597FBFE
:100D8000072E16F4009407D077FD09D00E94D306F1
:100D900007FC05D03EF4909581959F4F089570957E
:100DA00061957F4F0895AA1BBB1B51E107C0AA1F85
:100DB000BB1FA617B70710F0A61BB70B881F991FFC
:100DC0005A95A9F780959095BC01CD01089550588A
:100DD000BB27AA270E94FF060C9449080E943B08E3
:100DE00038F00E94420820F039F49F3F19F426F4AD
:100DF0000C9438080EF4E095E7FB0C943208E92FC8
:100E00000E945A0858F3BA176207730784079507B8
:100E100020F079F4A6F50C947C080EF4E0950B2EE6
:100E2000BA2FA02D0B01B90190010C01CA01A0013C
:100E30001124FF27591B99F0593F50F4503E68F197
:100E40001A16F040A22F232F342F4427585FF3CFD8
:100E5000469537952795A795F0405395C9F77EF4A9
:100E60001F16BA0B620B730B840BBAF09150A1F0F2
:100E7000FF0FBB1F661F771F881FC2F70EC0BA0F78
:100E8000621F731F841F48F4879577956795B79500
:100E9000F7959E3F08F0B0CF9395880F08F09927FB
:100EA000EE0F9795879508950E9468070C9449085E
:100EB0000E94420858F00E943B0840F029F45F3F2E
:100EC00029F00C94320851110C947D080C943808C8
:100ED0000E945A0868F39923B1F3552391F3951BA7
:100EE000550BBB27AA2762177307840738F09F5F4B
:100EF0005F4F220F331F441FAA1FA9F335D00E2EB8
:100F00003AF0E0E832D091505040E695001CCAF724
:100F10002BD0FE2F29D0660F771F881FBB1F2617E7
:100F200037074807AB07B0E809F0BB0B802DBF01BE
:100F3000FF2793585F4F3AF09E3F510578F00C948D
:100F400032080C947D085F3FE4F3983ED4F3869515
:100F500077956795B795F7959F5FC9F7880F911DAE
:100F60009695879597F90895E1E0660F771F881F9A
:100F7000BB1F621773078407BA0720F0621B730B4D
:100F8000840BBA0BEE1F88F7E09508950E94620863
:100F900088F09F5798F0B92F9927B751B0F0E1F03A
:100FA000660F771F881F991F1AF0BA95C9F714C0EA
:100FB000B13091F00E947C08B1E008950C947C0857
:100FC000672F782F8827B85F39F0B93FCCF3869523
:100FD00077956795B395D9F73EF490958095709580
:100FE00061957F4F8F4F9F4F0895E89409C097FBFD
:100FF0003EF490958095709561957F4F8F4F9F4FF0
:101000009923A9F0F92F96E9BB279395F695879533
:1010100077956795B795F111F8CFFAF4BB0F11F4F6
:1010200060FF1BC06F5F7F4F8F4F9F4F16C088239D
:1010300011F096E911C0772321F09EE8872F762FD3
:1010400005C0662371F096E8862F70E060E02AF014
:101050009A95660F771F881FDAF7880F9695879500
:1010600097F9089597F99F6780E870E060E0089528
:101070009FEF80EC089500240A94161617061806B0
:101080000906089500240A9412161306140605068C
:101090000895092E0394000C11F4882352F0BB0F1D
:1010A00040F4BF2B11F460FF04C06F5F7F4F8F4F80
:1010B0009F4F089557FD9058440F551F59F05F3FBB
:1010C00071F04795880F97FB991F61F09F3F79F06A
:1010D00087950895121613061406551FF2CF4695EC
:1010E000F1DF08C0161617061806991FF1CF86956E
:1010F0007105610508940895E894BB276627772752
:10110000CB0197F908950E9496080C9449080E9413
:101110003B0838F00E94420820F0952311F00C940F
:1011200032080C94380811240C947D080E945A0847
:1011300070F3959FC1F3950F50E0551F629FF0012A
:10114000729FBB27F00DB11D639FAA27F00DB11D43
:10115000AA1F649F6627B00DA11D661F829F2227CC
:10116000B00DA11D621F739FB00DA11D621F839F53
:10117000A00D611D221F749F3327A00D611D231F29
:10118000849F600D211D822F762F6A2F11249F5777
:1011900050409AF0F1F088234AF0EE0FFF1FBB1F7A
:1011A000661F771F881F91505040A9F79E3F510539
:1011B00080F00C9432080C947D085F3FE4F3983E75
:1011C000D4F3869577956795B795F795E7959F5FE3
:1011D000C1F7FE2B880F911D9695879597F9089575
:1011E000EF920F931F93CF93DF93E80147FD02C067
:1011F00034E001C034E1042E000C550B57FF03C04E
:10120000519541955109E32E022F242FAE010E94E2
:101210001A0BCE01DF91CF911F910F91EF9008959E
:10122000FB01DC0101900D920020E1F70895AEE092
:10123000B0E0EDE1F9E00C940A0E0D891E8986E01C
:101240008C831A8309838FEF9FE79E838D83AE0182
:10125000475E5F4F6F89788DCE0101960E943909F4
:10126000EF81F885E00FF11F10822E96E4E00C94D8
:10127000260EABE0B0E0EFE3F9E00C94FC0D6C015E
:101280007B018A01FC0117821682838181FFCCC118
:10129000CE0101963C01F6019381F70193FD859102
:1012A00093FF81917F01882309F4BAC1853239F413
:1012B00093FD859193FF81917F01853229F4B601D9
:1012C00090E00E94620DE7CF912C212C312CFFE1A0
:1012D000F315D8F08B3279F038F4803279F083321C
:1012E000A1F4232D20611DC08D3261F0803369F49B
:1012F000232D216016C0832D8260382EE32DE460FB
:101300003E2E2AC0F32DF8601DC037FC2DC020ED05
:10131000280F2A3040F08E32B9F436FC81C1232DDB
:101320002064322E19C036FE06C08AE0989E200D39
:101330001124922E11C0EAE02E9E200D1124222E9F
:10134000F32DF0623F2E08C08C3621F4832D806887
:10135000382E02C0883641F4F70193FD859193FF42
:1013600081917F018111B3CF982F9F7D9554933048
:1013700028F40C5F1F4F9FE399830DC0833631F033
:10138000833771F0833509F059C021C0F80180819D
:1013900089830E5F1F4F88248394912C530113C0BF
:1013A0002801F2E04F0E511CF801A080B18036FEFA
:1013B00003C0692D70E002C06FEF7FEFC5010E948E
:1013C000570D4C018201F32DFF773F2E16C02801E7
:1013D00022E0420E511CF801A080B18036FE03C00D
:1013E000692D70E002C06FEF7FEFC5010E944C0DC8
:1013F0004C01F32DF0683F2E820133FC1BC0822D7F
:1014000090E088169906B0F4B60180E290E00E9460
:10141000620D2A94F4CFF50137FC859137FE819156
:101420005F01B60190E00E94620D21102A9421E034
:10143000821A91088114910471F7E8C0843611F082
:10144000893641F5F80137FE07C0608171818281DC
:1014500093810C5F1F4F08C060817181072E000CC3
:10146000880B990B0E5F1F4FF32DFF763F2E97FFD2
:1014700009C090958095709561957F4F8F4F9F4FD4
:10148000F0683F2E2AE030E0A3010E949E0D882ED6
:10149000861845C0853731F4232D2F7EB22E2AE0E1
:1014A00030E025C0932D997FB92E8F36C1F018F406
:1014B000883579F0B5C0803719F0883721F0B0C091
:1014C000E92FE061BE2EB4FE0DC0FB2DF460BF2EEF
:1014D00009C034FE0AC0292F2660B22E06C028E0BB
:1014E00030E005C020E130E002C020E132E0F80148
:1014F000B7FE07C060817181828193810C5F1F4FAD
:1015000006C06081718180E090E00E5F1F4FA301F3
:101510000E949E0D882E8618FB2DFF773F2E36FEEB
:101520000DC0232D2E7FA22E891458F434FE0BC03B
:1015300032FC09C0832D8E7EA82E05C0B82CA32CAA
:1015400003C0B82C01C0B92CA4FE0FC0FE01E80DE9
:10155000F11D8081803321F49A2D997EA92E09C036
:10156000A2FE06C0B394B39404C08A2D867809F015
:10157000B394A3FC11C0A0FE06C0B21488F4280CDA
:10158000922C9B180EC0B21460F4B60180E290E079
:101590000E94620DB394F7CFB21418F42B1802C056
:1015A000982C212CA4FE10C0B60180E390E00E948C
:1015B000620DA2FE17C0A1FC03C088E790E002C044
:1015C00088E590E0B6010CC08A2D867859F0A1FE1E
:1015D00002C08BE201C080E2A7FC8DE2B60190E080
:1015E0000E94620D891438F4B60180E390E00E94F5
:1015F000620D9A94F7CF8A94F301E80DF11D808172
:10160000B60190E00E94620D8110F5CF222009F40E
:1016100042CEB60180E290E00E94620D2A94F6CF9D
:10162000F6018681978102C08FEF9FEF2B96E2E152
:101630000C94180EA9E0B0E0E0E2FBE00C94020E7E
:101640006A01122FB02E2BE3201720F0FF24F39411
:10165000F00E02C02CE3F22E0F2D27E0AE014F5FFB
:101660005F4F0E94740CBC014981842F89708130C6
:1016700031F0E1FC06C0E0FE06C090E205C09DE24C
:1016800003C09BE201C090E05E2D507143FF3CC05F
:10169000911102C083E001C084E0811718F4212F6A
:1016A000281B01C020E051110BC0F601822F30E24F
:1016B000882319F031938150FBCFC20ED11C20E05A
:1016C000992329F0D6019C93F60131966F01C6014A
:1016D0000396E2FE0AC03EE4D6013C9341E4119633
:1016E0004C93119712963C9306C03EE6F601308368
:1016F00041E641833283FC01322F40E2332309F477
:1017000042C041933150FACF42FF44C0911102C010
:1017100083E001C084E0811718F4212F281B01C049
:1017200020E051110BC0F601822F30E2882319F01E
:1017300031938150FBCFC20ED11C20E0992329F0B8
:10174000D6019C93F60131966F01C6010396E2FE25
:101750000BC039E4D6013C933EE411963C931197BB
:1017600036E412963C9307C039E6F60130833EE634
:10177000318336E63283FC01322F40E2332319F005
:1017800041933150FBCFFC01E20FF11D10828EEF2F
:101790009FEFA6C021E030E0911102C020E030E0D0
:1017A000161617061CF4FB01319602C0E1E0F0E0CA
:1017B0002E0F3F1FBB2021F0EB2DF0E0319602C031
:1017C000E0E0F0E02E0F3F1FE12FF0E02E173F0783
:1017D0001CF4121B212F01C020E08E2D887159F4BA
:1017E000F601822F30E2882319F031938150FBCF2C
:1017F000C20ED11C20E0992329F0D6019C93F6015A
:1018000031966F0151110BC0F601822F90E38823AE
:1018100019F091938150FBCFC20ED11C20E00F2D07
:10182000060F9A81342F307144FF03C0913309F4BD
:101830000150101624F4093018F008E001C001E04E
:10184000AB0177FF02C040E050E0FB01E41BF50B69
:10185000A1E0B0E0AC0FBD1FEA0FFB1F8EE2A82E87
:101860004B01801A91080B2D10E01195019511097B
:101870004F3FBFEF5B0721F4D601AC9211966D018B
:10188000641775072CF08416950614F4818101C045
:1018900080E3415051093196D60111967D014017E0
:1018A000510724F0D6018C936701E2CF64177507C6
:1018B00039F4963320F4953319F4311101C081E3E2
:1018C000F6018083F701822F90E2882319F091932B
:1018D0008150FBCFF701E20FF11D108280E090E014
:1018E0002996ECE00C941E0E283008F027E03327F0
:1018F000DA01990F311D87FD916000966105710530
:1019000039F432602E5F3D9330E32A95E1F7089574
:101910009F3F30F080387105610509F03C5F3C5F06
:101920003D93913008F08068911DDF93CF931F9312
:101930000F93FF92EF92192F987F9695E92F969526
:101940009695E90FFF27E255FF4F99273327EE249D
:10195000FF24A701E70105900894079428F4360FA7
:10196000E71EF81E491F511D660F771F881F991F1C
:101970000694A1F70590079428F4E70EF81E491F76
:10198000561FC11D770F881F991F661F0694A1F768
:101990000590079428F4F80E491F561FC71FD11D44
:1019A000880F991F661F771F0694A1F7059007946B
:1019B00020F4490F561FC71FD81F990F661F771FA6
:1019C000881F0694A9F784911095177041F0D69559
:1019D000C79557954795F794E7941A95C1F7E4E5AD
:1019E000F0E0689415901591359165919591059069
:1019F0007FE27395E118F10A430B560BC90BD0092E
:101A0000C0F7E10CF11E431F561FC91FD01D7EF405
:101A1000703311F48A95E6CFE894015030F0080F46
:101A20000AF40027021708F4202F2395022F7A3397
:101A300028F079E37D932A95E9F710C07D932A95E4
:101A400089F6069497956795379517951794E11839
:101A5000F10A430B560BC90BD00998F023957E91E0
:101A600073957A3308F070E37C932013B8F77E9176
:101A700070617D9330F0839571E37D9370E32A95D7
:101A8000E1F71124EF90FF900F911F91CF91DF911B
:101A9000992787FD90950895FC010590615070404D
:101AA0000110D8F7809590958E0F9F1F0895FC0127
:101AB0006150704001900110D8F7809590958E0F7D
:101AC0009F1F08950F931F93CF93DF93FB012381F3
:101AD00021FD03C08FEF9FEF2CC022FF16C046816F
:101AE0005781248135814217530744F4A081B18185
:101AF0009D012F5F3F4F318320838C932681378157
:101B00002F5F3F4F3783268314C08B01EC01FB010D
:101B10000084F185E02D0995892BE1F6D801169610
:101B20008D919C911797019617969C938E9316977B
:101B3000CE01DF91CF911F910F910895FA01AA274D
:101B4000283051F1203181F1E8946F936E7F6E5F00
:101B50007F4F8F4F9F4FAF4FB1E03ED0B4E03CD0AE
:101B6000670F781F891F9A1FA11D680F791F8A1F91
:101B7000911DA11D6A0F711D811D911DA11D20D0F8
:101B800009F468943F912AE0269F11243019305DB2
:101B90003193DEF6CF010895462F4770405D4193A3
:101BA000B3E00FD0C9F7F6CF462F4F70405D4A33F0
:101BB00018F0495D31FD4052419302D0A9F7EACFB8
:101BC000B4E0A6959795879577956795BA95C9F7E7
:101BD00000976105710508959B01AC010A2E0694DA
:101BE0005795479537952795BA95C9F7620F731F93
:101BF000841F951FA01D08952F923F924F925F92D0
:101C00006F927F928F929F92AF92BF92CF92DF920C
:101C1000EF92FF920F931F93CF93DF93CDB7DEB771
:101C2000CA1BDB0B0FB6F894DEBF0FBECDBF099405
:101C30002A88398848885F846E847D848C849B845C
:101C4000AA84B984C884DF80EE80FD800C811B816A
:101C5000AA81B981CE0FD11D0FB6F894DEBF0FBE99
:0A1C6000CDBFED010895F894FFCF09
:101C6A0000001111131D10100F10100E01011E009B
:101C7A00000000000000000000000000000000005A
:101C8A00000000000000000000000000000000004A
:101C9A00000000000000000000000000000000003A
:101CAA00255300496E743A202564002525007300E7
:101CBA006D00680043504D3A202575002053544F5B
:101CCA0050007878787870002020202575700045BB
:0A1CDA0072726F7220494E54000030
:00000001FF
