:100000000C9434000C9446000C9446000C9446006A
:100010000C9446000C9446000C9446000C94460048
:100020000C9446000C947E010C9446000C944600FF
:100030000C9446000C9446000C9446000C94460028
:100040000C9470010C9446000C9446000C944600ED
:100050000C9446000C9446000C9446000C94460008
:100060000C9446000C94460011241FBECFEFD8E03C
:10007000DEBFCDBF21E0A0E0B1E001C01D92AB31F9
:10008000B207E1F70E9437010C94B3010C94A90167
:100090009093C5008093C40088E18093C1008EE0F6
:1000A0008093C20008959091C00095FFFCCF80938B
:1000B000C60008958091C00087FFFCCF8091C600E4
:1000C00008958FE190E02091C00027FF04C02091A7
:1000D000C6000197C1F7089580911801823039F167
:1000E00028F4882359F0813079F00895843009F498
:1000F00045C088F1853009F456C0089581E08093A9
:10010000800045984398089580911001809388005D
:100110008091140180938A0081E88093800082E0BE
:1001200080931801809113018093160108958091A6
:1001300010018093880010928A004598439A80911C
:100140001601811144C083E08093180180911A0147
:100150008093110126C01092880010928A00459861
:10016000439880911101811132C084E0809318017D
:10017000809112018093190181E227C010928800BA
:100180008091140180938A00459A439880911901C7
:1001900081111DC085E08093180180911701809323
:1001A000150181E012C01092880010928A004598D3
:1001B00043988091150181110AC082E08093180153
:1001C000809113018093160181E880938000089547
:1001D000509A519A389825982498239839983A9AA1
:1001E0003D9A3B9A3C98219A229A529A539A549A51
:1001F000559A569A579A209A409A2D9A2C9A2B9A49
:10020000419842984498589842984598439829981C
:100210002A985A985B985C985D985E985F982898A1
:10022000089514BC83E085BDEEE6F0E08081816036
:100230008083A898089589E08093810010928200BD
:1002400010926F00109289001092880010928B001B
:1002500010928A0008951092B00082E08093B1005D
:10026000E0E7F0E0808181608083B89808950FB660
:10027000F894A89580916000886180936000109246
:1002800060000FBEF8940E94E8000E9411010E94D5
:100290002B010E941B019CE088E10FB6F894A89501
:1002A000809360000FBE90936000789495E09093E7
:1002B000130181E080931A0190931201809317013A
:1002C00094E69093100192E39093140180931801A7
:1002D0000E946C00A8955998599A5898589AF8CF46
:1002E0001F920F920FB60F9211248F9382E886BD52
:1002F0008F910F900FBE0F901F9018951F920F9225
:100300000FB60F9211248F9386EE8093B2008091E6
:100310001601882319F081508093160180911101F4
:10032000882319F08150809311018091190188234D
:1003300019F081508093190180911501882319F0DB
:100340008150809315018F910F900FBE0F901F90D9
:1003500018951F920F920FB60F9211240F900FBE97
:0A0360000F901F901895F894FFCF3E
:00000001FF
