:100000000C946A040C9489040C9489040C9489045B
:100010000C9489040C9489040C9489040C9489042C
:100020000C9489040C9489040C9489040C9489041C
:100030000C9489040C9489040C9489040C944D4408
:100040000C9489040C9489040C9489040C948904FC
:100050000C9489040C9489040C9489040C948904EC
:100060000C9489040C9489040C9489040C948904DC
:100070000C9489040C9489040C9489040C948904CC
:100080000C9489040C9489040C948904457374615C
:10009000646F20456E7472616461733A2000003BA6
:1000A00020204163746976616461733A2000003BEB
:1000B00020204C69626572616461733A20000045DA
:1000C000737461646F2053616C696461733A2000DA
:1000D00000462E4A2E204C4C414D415320532E4178
:1000E0002E000043617267616E646F00002E000095
:1000F0002020202020202020202020202020202000
:1001000000000A0D41637475616C697A610A0D0023
:10011000000A0D00000A0D000056616C69646163FD
:10012000696F6E20475255504F5F534552494520E5
:10013000282330293A000056616C69646163696F55
:100140006E20475255504F5F414C41524D41532014
:10015000282331293A000056616C69646163696F34
:100160006E20475255504F5F414443202823322987
:100170003A000056616C69646163696F6E20475292
:1001800055504F5F50574D20282333293A000044E3
:1001900061746F73206F726967696E616C6573203B
:1001A0004F4B00004461746F73206465206261638B
:1001B0006B7570204552524F4E454F5300004461BD
:1001C000746F73206F726967696E616C6573204527
:1001D00052524F4E454F5300004461746F73206478
:1001E00065206261636B7570204F4B000044617441
:1001F0006F73206F726967696E616C657320792017
:100200006465206261636B7570204552524F4E45A4
:100210004F53000043617267612076616C6F7265B5
:100220007320706F72206465666563746F00004EA2
:10023000756D65726F20646520477275706F203D23
:100240000000AAF1923FAAF1923FAAF1923FC74B58
:10025000873FC74B873FC74B873FC74B873FC74B3E
:10026000873FC74B873F0000803F0000803F000072
:10027000803F0000803F0000803F8B6C473F8B6CCD
:10028000473F8B6C473F8B6C473F8B6C473F8B6C7A
:10029000473F8B6C473F8B6C473F8B6C473F8B6C6A
:1002A000473F8B6C473F8B6C473F8B6C473F8B6C5A
:1002B000473FE926313FD9CE573F9318943F9318D3
:1002C000943F9318943F9318943F8716893F87165D
:1002D000893F8716893F8716893F8716893F87168A
:1002E000893F8716893F0000803F0000803F000063
:1002F000803F0000803F0000803F0000803F000002
:10030000803F1058793F1058793FFCA9713FFCA9F4
:10031000713FB072683FB072683FB072683FB072B0
:10032000683F4A0C623F4A0C623F4A0C623F4A0CEB
:10033000623FE5D0D23FCFF7933FA01A8F3FA01A7C
:100340008F3FA01A8F3FA01A8F3F0000803F000010
:10035000803F0000803F0000803F0000803F0000A1
:10036000803F0000803F0000803F0000803FAAF1F6
:10037000723FAAF1723FAAF1723FAAF1723F583957
:10038000543F5839543F5839543F5839543F5839DD
:10039000543F5839543F5839543F5839543F5839CD
:1003A000543F5839543F5839543F21B0823F21B00F
:1003B000823F21B0823F21B0823F21B0823F8B6CCF
:1003C000673F8B6C673F8B6C673F8B6C673F8B6CB9
:1003D000673F8B6C673F8B6C673F8B6C673F8B6CA9
:1003E000673F8B6C673F8B6C673F8B6C673F000090
:1003F000803F0000803F0000803F0000803FDBF92D
:100400008E3FDBF98E3FDBF98E3FDBF98E3FC52057
:10041000803FC520803FC520803FC520803FC5204C
:10042000803F7B148E3F7B148E3F7B148E3F7B146A
:100430008E3F7B148E3F7B148E3F7B148E3FE926CC
:10044000813FE926813FE926813F48E17A3F48E143
:100450007A3F0000803F0000803F0000803F0000A6
:10046000803F54E3853F54E3853F54E3853F54E3A5
:10047000853F54E3853F54E3853F54E3853F54E390
:10048000853F48E17A3F48E17A3F48E17A3F48E1D9
:100490007A3FE926513FE926513F7F6A8C3F7F6AC8
:1004A0008C3F7F6A8C3F7F6A8C3F7F6A8C3F7F6A7C
:1004B0008C3F7F6A8C3F7F6A8C3F5C8F623F5C8F92
:1004C000623F5C8F623F5C8F623F5C8F623F0000E7
:1004D000803F0000803F0000803F0000803F000020
:1004E000803F0000803F0000803F0000803F000010
:1004F000803F0000803F9EEF873F9EEF873F9EEF4B
:10050000873F9EEF873FEE7C7F3FEE7C7F3FEE7C18
:100510007F3F462E4A2E204C4C414D415320532EB6
:10052000412E0A0D54726174616D69656E746F209D
:1005300064652041677561732D46696C74726163EF
:10054000696F6E0A0D436F6E64756374696D6574CF
:10055000726F20646520446F732043616E616C6527
:10056000730A0D4669726D776172653A2076312E95
:1005700030300A0D532F4E3A200000494E464F00AE
:10058000005052494E54200000454E5452414441BF
:10059000530000414443000053414C49444153003F
:1005A000005245494E49434941520000464142529A
:1005B0004943412052455345540000414C41524D5E
:1005C0004153205245534554000050574D20524549
:1005D000534554000043414C2052455345540000BC
:1005E0005245534554000053455249450000464981
:1005F0004C54524F2050574D2031000046494C5426
:10060000524F2050574D2032000046494C54524F13
:1006100020434F4E442031000046494C54524F2055
:10062000434F4E442032000047414E414E43494122
:100630002050574D2031000047414E414E43494123
:100640002050574D203200005449454D504F204115
:100650004C41524D41203100005449454D504F20EE
:10066000414C41524D4120320000414C41524D41DC
:1006700020310000414C41524D41203200004341A5
:100680004C2050574D2031000043414C2050574DD5
:100690002032000043414C20434F4E4420310000A3
:1006A00043414C20434F4E44203200004155544FAB
:1006B00043414C2050574D203100004155544F4389
:1006C000414C2050574D203200004155544F43417A
:1006D0004C20434F4E44203100004155544F43417C
:1006E0004C20434F4E44203200004F464653455461
:1006F00020434F4E44203100004F4646534554207E
:10070000434F4E442032000052414E474F20434F4A
:100710004E442031000052414E474F20434F4E443B
:100720002032000053494C454E4349415220414C30
:1007300041524D410000434F4D414E444F00005047
:100740004152414D4554524F0000444553434F4E92
:100750004F4349444F0000424F525241444F000022
:100760004F4B0000454E4400004552524F5200008E
:100770000A0A0D5465726D696E616C204C69737460
:1007800061210A0A0D00004655455241204445208A
:1007900052414E474F00004F4646534554000030EB
:1007A0002D3230470000302D3230430000322D32E0
:1007B0003030470000322D32303043000032302DCF
:1007C0003235303047000032302D32353030430082
:1007D000000A0D00000A0D000000407A10F35A00D4
:1007E000A0724E18090010A5D4E80000E87648175A
:1007F0000000E40B54020000CA9A3B000000E1F53F
:1008000005000080969800000040420F000000A004
:100810008601000000102700000000E8030000002F
:10082000006400000000000A000000000001000059
:100830000000002C76D888DC674F0823DFC1DFAECC
:1008400059E1B1B796E5E3E453C63AE65199769695
:10085000E8E6C28426EB898C9B62ED407C6FFCEF5E
:10086000BC9C9F40F2BAA56FA5F490055A2AF75C8C
:10087000936B6CF9676DC11BFCE0E40D47FEF5203E
:10088000E6B500D0ED902E03009435770500808406
:100890001E080000204E0A000000C80C333333331A
:1008A0000F986E12831141EF8D2114893BE6551686
:1008B000CFFEE6DB18D1844B381BF77C1D901DA4BE
:1008C000BBE424203284725E228100C9F124ECA1B1
:1008D000E53D270011241FBECFEFD0E1DEBFCDBF25
:1008E00012E0A0E0B1E0E4E8F3E101E00BBF02C0F8
:1008F00007900D92A037B107D9F726E0A0E7B2E044
:1009000001C01D92AC32B207E1F70E940A440C9478
:10091000C0890C945047CF92DF92EF92FF920F93D1
:100920001F93CF93DF93CDB7DEB780917602882FE8
:1009300090E08130910521F0029709F448C28EC4FD
:1009400080911A05813009F03EC28091E7049091B0
:10095000E804092E000CAA0BBB0BBC01CD010E94C0
:1009600090827B018C018091110590911205A091DC
:100970001305B09114059C01AD01C801B7010E9497
:100980007481DC01CB0120E030E040E851E4BC019F
:10099000CD010E944583DC01CB016C017D012091DA
:1009A000E7043091E8048091FF0490910005A901CB
:1009B000481B590BCA01092E000CAA0BBB0BBC012A
:1009C000CD010E949082DC01CB019C01AD01C701E9
:1009D000B6010E94E681DC01CB019C01AD0160E023
:1009E00070E080EA91E40E947481DC01CB01809385
:1009F000700290937102A0937202B093730280917F
:100A0000700290917102A0917202B091730220E085
:100A100030E040E850E4BC01CD010E94E181882330
:100A20006CF480E090E0A0E8B0E4809370029093D2
:100A30007102A0937202B09373021EC08091700283
:100A400090917102A0917202B091730220E030E0A7
:100A500040EA51E4BC01CD010E944083181664F4C1
:100A600080E090E0A0EAB1E480937002909371027C
:100A7000A0937202B0937302809170029091710200
:100A8000A0917202B0917302209113063091140666
:100A90004091150650911606BC01CD010E9474814B
:100AA000DC01CB0180937B0290937C02A0937D02BA
:100AB000B0937E0280917B0290917C02A0917D0296
:100AC000B0917E02BF772AE037ED43EA5CE3BC01D8
:100AD000CD010E94408318160CF073C180917B02F7
:100AE00090917C02A0917D02B0917E02BF772DECA7
:100AF0003CEC4CE45EE3BC01CD010E94E181882323
:100B00000CF053C08091700290917102A09172021A
:100B1000B09173022091130630911406409115068E
:100B200050911606BC01CD010E94408318169CF41A
:100B30008AE490E0FC01808191818F3F934058F4DA
:100B40008AE490E0FC01208131812F5F3F4FFC015E
:100B50003183208336C18091700290917102A091FF
:100B60007202B091730220911306309114064091E5
:100B7000150650911606BC01CD010E94E181882323
:100B80000CF01FC18AE490E0FC0180819181892BE7
:100B900009F417C18AE490E0FC01208131812150E1
:100BA0003109FC01318320830CC180917B0290913B
:100BB0007C02A0917D02B0917E0220E030E040E80E
:100BC00054E4BC01CD010E944583DC01CB016C01E2
:100BD0007D018091740290917502CC01A0E0B0E09B
:100BE000BC01CD010E948E82DC01CB019C01AD01D4
:100BF000C701B6010E944583DC01CB0120E030E44F
:100C00004CE956E4BC01CD010E94E681DC01CB0138
:100C1000BC01CD010E94B283DC01CB01BC01CD013E
:100C20000E945882DC01CB0190937A028093790272
:100C30008091790290917A02892B09F053C08091BA
:100C4000700290917102A0917202B0917302209192
:100C50001306309114064091150650911606BC01FA
:100C6000CD010E94408318169CF48AE490E0FC01B8
:100C7000808191818F3F934058F48AE490E0FC0199
:100C8000208131812F5F3F4FFC013183208399C048
:100C90008091700290917102A0917202B0917302E2
:100CA00020911306309114064091150650911606B6
:100CB000BC01CD010E94E18188230CF082C08AE44E
:100CC00090E0FC0180819181892B09F47AC08AE44B
:100CD00090E0FC012081318121503109FC013183F8
:100CE00020836FC08091790290917A0218161906BC
:100CF0009CF58AE490E0FC01808191812091790249
:100D000030917A02820F931F8F3F934088F48AE4D8
:100D100090E02AE430E0F9012081318140917902AC
:100D200050917A02240F351FFC013183208349C082
:100D30008AE490E0FC01808191818F3F934008F02C
:100D400040C08AE490E0FC01208131812F5F3F4F59
:100D5000FC013183208335C08091790290917A0221
:100D600099237CF58AE490E0FC01808191812091B7
:100D7000790230917A02820F931F892B89F08AE4DD
:100D800090E02AE430E0F90120813181409179023C
:100D900050917A02240F351FFC013183208311C04A
:100DA0008AE490E0FC0180819181892B51F08AE4F2
:100DB00090E0FC012081318121503109FC01318317
:100DC000208310921A0582E0809376024AC28091B5
:100DD000FC04813009F03EC280911B0690911C06F4
:100DE000092E000CAA0BBB0BBC01CD010E94908206
:100DF0007B018C018091ED049091EE04A091EF04B1
:100E0000B091F0049C01AD01C801B7010E9474814A
:100E1000DC01CB0120E030E040E851E4BC01CD0131
:100E20000E944583DC01CB016C017D0120911B06F2
:100E300030911C068091150590911605A901481B5B
:100E4000590BCA01092E000CAA0BBB0BBC01CD012A
:100E50000E949082DC01CB019C01AD01C701B6016B
:100E60000E94E681DC01CB019C01AD0160E070E0F5
:100E700080EA91E40E947481DC01CB0180937002CE
:100E800090937102A0937202B093730280917002EA
:100E900090917102A0917202B091730220E030E053
:100EA00040E850E4BC01CD010E94E18188236CF44C
:100EB00080E090E0A0E8B0E480937002909371022B
:100EC000A0937202B09373021EC080917002909141
:100ED0007102A0917202B091730220E030E040EA0A
:100EE00051E4BC01CD010E944083181664F480E0F7
:100EF00090E0A0EAB1E48093700290937102A09315
:100F00007202B09373028091700290917102A0916D
:100F10007202B09173022091170630911806409129
:100F2000190650911A06BC01CD010E947481DC01A2
:100F3000CB0180937B0290937C02A0937D02B093BF
:100F40007E0280917B0290917C02A0917D02B09103
:100F50007E02BF772AE037ED43EA5CE3BC01CD01B6
:100F60000E94408318160CF073C180917B0290910F
:100F70007C02A0917D02B0917E02BF772DEC3CEC0B
:100F80004CE45EE3BC01CD010E94E18188230CF0BA
:100F900053C08091700290917102A0917202B09141
:100FA000730220911706309118064091190650914E
:100FB0001A06BC01CD010E94408318169CF488E4F7
:100FC00090E0FC01808191818F3F934058F488E448
:100FD00090E0FC01208131812F5F3F4FFC01318384
:100FE000208336C18091700290917102A0917202AB
:100FF000B09173022091170630911806409119069E
:1010000050911A06BC01CD010E94E18188230CF0A9
:101010001FC188E490E0FC0180819181892B09F453
:1010200017C188E490E0FC01208131812150310911
:10103000FC01318320830CC180917B0290917C0262
:10104000A0917D02B0917E0220E030E040E854E4BF
:10105000BC01CD010E944583DC01CB016C017D0107
:101060008091770290917802CC01A0E0B0E0BC01C1
:10107000CD010E948E82DC01CB019C01AD01C70134
:10108000B6010E944583DC01CB0120E030E44CE94D
:1010900056E4BC01CD010E94E681DC01CB01BC011C
:1010A000CD010E94B283DC01CB01BC01CD010E94C5
:1010B0005882DC01CB0190937A028093790280916F
:1010C000790290917A02892B09F053C080917002C5
:1010D00090917102A0917202B09173022091170653
:1010E000309118064091190650911A06BC01CD01A5
:1010F0000E94408318169CF488E490E0FC018081F3
:1011000091818F3F934058F488E490E0FC01208166
:1011100031812F5F3F4FFC013183208399C0809143
:10112000700290917102A0917202B09173022091AD
:101130001706309118064091190650911A06BC0105
:10114000CD010E94E18188230CF082C088E490E008
:10115000FC0180819181892B09F47AC088E490E0B8
:10116000FC012081318121503109FC013183208330
:101170006FC08091790290917A02181619069CF539
:1011800088E490E0FC018081918120917902309186
:101190007A02820F931F8F3F934088F488E490E097
:1011A00028E430E0F90120813181409179025091A9
:1011B0007A02240F351FFC013183208349C088E463
:1011C00090E0FC01808191818F3F934008F040C006
:1011D00088E490E0FC01208131812F5F3F4FFC01CA
:1011E0003183208335C08091790290917A029923CE
:1011F0007CF588E490E0FC01808191812091790266
:1012000030917A02820F931F892B89F088E490E055
:1012100028E430E0F9012081318140917902509138
:101220007A02240F351FFC013183208311C088E42A
:1012300090E0FC0180819181892B51F088E490E05D
:10124000FC012081318121503109FC01318320834F
:101250001092FC0481E08093760203C00E943A0958
:101260000000DF91CF911F910F91FF90EF90DF90E1
:10127000CF900895CF93DF93CDB7DEB78FE490E0A2
:1012800023EAFC0120838EE490E029E0FC01208326
:101290008AE490E0FC011182108288E490E0FC0175
:1012A0001182108281E080937602DF91CF910895C0
:1012B000CF93DF93CDB7DEB780914903882F90E0BD
:1012C000009719F00197E1F093C18BE290E0FC01E7
:1012D0008081882324F480915203813059F48091D5
:1012E0004B0390914C03892B11F4109252031092EE
:1012F000490383C11092510381E0809349037DC16A
:1013000080915103882309F085C08BE290E0FC01B5
:101310008081882F90E080719927892BA1F48BE23E
:1013200090E0FC018081882F90E088709927892BBC
:1013300051F48BE290E0FC018081882F90E0847072
:101340009927892B39F00E94210B10925203109299
:1013500049035FC080915103882F90E02CE230E078
:10136000F90120818F579D4FFC01208380E395E791
:1013700090934E0380934D0380915103882F90E00A
:101380008F579D4FFC0180818A3051F0809151032D
:10139000882F90E08F579D4FFC0180818D3011F593
:1013A00080915103882F90E08F579D4FFC01108250
:1013B0000E94310C8CE290E02AE0FC0120830E9424
:1013C000310C8CE290E02DE0FC01208381E08093E1
:1013D000520380ED97E090934C0380934B0310925F
:1013E000490317C00E94310C8CE290E02091510318
:1013F000222F30E02F573D4FF9012081FC0120833F
:10140000809151038F5F8093510381E08093490362
:10141000EEC0EDC08BE290E0FC0180818823F4F007
:1014200080914D0390914E03892BA1F4809151033B
:10143000882F90E08F579D4FFC01108281E08093B0
:10144000520380ED97E090934C0380934B031092EE
:101450004903CDC081E080934903CFC080915103FF
:10146000873C08F0A8C08BE290E0FC018081882FC7
:1014700090E080719927892BA1F48BE290E0FC0128
:101480008081882F90E088709927892B51F48BE216
:1014900090E0FC018081882F90E084709927892B4F
:1014A00039F00E94210B109252031092490382C01E
:1014B00080915103882F90E02CE230E0F9012081E7
:1014C0008F579D4FFC01208380E395E790934E0357
:1014D00080934D0380915103882F90E08F579D4F4B
:1014E000FC0180818A3051F080915103882F90E077
:1014F0008F579D4FFC0180818D3011F580915103F4
:10150000882F90E08F579D4FFC0110820E94310C74
:101510008CE290E02AE0FC0120830E94310C8CE2F6
:1015200090E02DE0FC01208381E08093520380ED68
:1015300097E090934C0380934B03109249033AC079
:101540000E94310C80915103882F90E08F579D4F5E
:10155000FC0180818830C9F48CE290E028E0FC0135
:1015600020830E94310C8CE290E020E2FC01208379
:101570000E94310C8CE290E028E0FC0120838091F5
:10158000510381508093510311C08CE290E020916F
:101590005103222F30E02F573D4FF9012081FC01EC
:1015A0002083809151038F5F8093510381E080936A
:1015B00049031DC01CC080915103873CA1F4809158
:1015C0005103882F90E08F579D4FFC01108281E0DE
:1015D0008093520380ED97E090934C0380934B03EC
:1015E0001092490304C081E08093490306C005C0FE
:1015F00010925203109249030000DF91CF91089599
:10160000CF93DF93CDB7DEB780E990E0FC01108285
:1016100089E290E029E1FC0120838BE290E022E066
:10162000FC0120838AE290E028E1FC01208385E927
:1016300090E026E0FC01208310925203DF91CF91CD
:101640000895CF93DF9300D01F92CDB7DEB71A82F3
:10165000198210C08CE290E0FC0180818B8389812B
:101660009A81883C910509F40BC089819A81019681
:101670009A8389838BE290E0FC018081882354F374
:101680000F900F900F90DF91CF910895CF93DF933C
:1016900000D000D000D0CDB7DEB79C838B837E8393
:1016A0006D83A8951A82198213C00E94310C8CE2B6
:1016B00090E029813A814B815C81240F351FF9012B
:1016C0002081FC01208389819A8101969A838983F4
:1016D00089819A812B813C81820F931FFC0180813B
:1016E000882351F08D819E819C012150310989818F
:1016F0009A8182179307CCF226960FB6F894DEBF34
:101700000FBECDBFDF91CF910895CF93DF93CDB7BB
:10171000DEB72A970FB6F894DEBF0FBECDBF9A870B
:101720008987A8951A82198219C00E94310C8CE20F
:1017300090E029813A8149855A85240F351F3F83DE
:101740002E832E813F81F901249128872885FC0171
:10175000208389819A8101969A83898389819A81DC
:1017600029853A85820F931F9C838B838B819C8173
:10177000FC0184918D838D818823B9F62A960FB65A
:10178000F894DEBF0FBECDBFDF91CF910895CF9209
:10179000DF92EF92FF920F931F93CF93DF93CDB71A
:1017A000DEB72A970FB6F894DEBF0FBECDBF6D83AC
:1017B0007E838F83988749872A87EDB6FEB68DB7DB
:1017C0009EB76C01A8958985282F30E08A85882FDF
:1017D00090E0820F931F9C01215031093A832983A5
:1017E0002DB73EB7281B390B0FB6F8943EBF0FBE7E
:1017F0002DBF8DB79EB701969C838B832B813C8137
:1018000049858D819E81AF81B88589012A85BC017A
:10181000CD010E94FF838985282F30E08A85882F9B
:1018200090E0280F391F8B819C81B9010E94460BE3
:101830000FB6F894DEBE0FBECDBE0FB6F894FEBE56
:101840000FBEEDBE2A960FB6F894DEBF0FBECDBF19
:10185000DF91CF911F910F91FF90EF90DF90CF908C
:101860000895CF93DF931F92CDB7DEB7A89585E09B
:1018700090E09093800280937F0200008BE290E0E2
:10188000FC018081882F90E080729927892B31F4A8
:1018900080917F0290918002892B81F780917F0255
:1018A00090918002892B11F0198202C081E0898316
:1018B00089810F90DF91CF910895CF93DF93CDB7BA
:1018C000DEB727970FB6F894DEBF0FBECDBF9D835E
:1018D0008C837F836E831A8219821B8217C00E94B9
:1018E000C60C8B838B81882389F489819A812C8112
:1018F0003D81820F931F2CE230E0F9012081FC0131
:10190000208389819A8101969A8389838B81882398
:1019100061F58E819F819C012150310989819A81D5
:101920008217930714F589819A8101972C813D8153
:10193000820F931FFC0180818823B9F089819A81ED
:1019400001972C813D81820F931FFC0180818A3099
:1019500061F089819A8101972C813D81820F931FCB
:10196000FC0180818D3009F0BACF89819A812C8168
:101970003D81820F931FFC01108227960FB6F894C9
:10198000DEBF0FBECDBFDF91CF910895CF93DF9320
:101990001F92CDB7DEB7A89585E090E090938002C6
:1019A00080937F0200008BE290E0FC01808188231D
:1019B00034F080917F0290918002892BA1F7809171
:1019C0007F0290918002892B11F0198202C081E080
:1019D000898389810F90DF91CF910895EF92FF92D3
:1019E0000F931F93CF93DF93CDB7DEB780912B0476
:1019F000882F90E08130910509F45DC08230910517
:101A000009F4AFC0892B09F004C180912C04909196
:101A10002D04A0912E04B0912F0420E030E0A90104
:101A2000BC01CD010E94E1818823A1F180911B04BA
:101A300090911C047C0100E010E080911D049091C5
:101A40001E049C0140E050E088EE93E0DC010E941F
:101A50004681DC01CB01E816F9060A071B0751F4A1
:101A600080912704909128048160909328048093AA
:101A700027041DC080911B0490911C04892BB9F48C
:101A800080912704909128048E7F9093280480935E
:101A900027040DC010921C0410921B04809127048F
:101AA000909128048E7F909328048093270481E0EE
:101AB00080932B04B1C08091210490912204A091C5
:101AC0002304B091240420E030E0A901BC01CD0141
:101AD0000E94E1818823A1F1809125049091260440
:101AE0007C0100E010E080913004909131049C0171
:101AF00040E050E088EE93E0DC010E944681DC018A
:101B0000CB01E816F9060A071B0751F48091270458
:101B100090912804826090932804809327041DC02C
:101B20008091250490912604892BB9F48091270493
:101B3000909128048D7F90932804809327040DC0F2
:101B40001092260410922504809127049091280475
:101B50008D7F909328048093270482E080932B0448
:101B60005BC08091270490912804892BD1F180914A
:101B700027049091280481709927892B51F083E2E2
:101B800090E023E230E0F90120812062FC01208313
:101B900009C083E290E023E230E0F90120812F7D4B
:101BA000FC0120838091270490912804827099275A
:101BB000892B51F083E290E023E230E0F9012081AB
:101BC0002061FC01208309C083E290E023E230E041
:101BD000F90120812F7EFC01208382E08093E204C2
:101BE00015C083E290E023E230E0F90120812F7DEF
:101BF000FC01208383E290E023E230E0F9012081C0
:101C00002F7EFC01208381E08093E20410922B045C
:101C100003C00E94130E0000DF91CF911F910F911E
:101C2000FF90EF900895CF93DF93CDB7DEB710927A
:101C30001C0410921B04109226041092250410928A
:101C40002A0410922904109228041092270483E297
:101C500090E023E230E0F90120812F7DFC01208318
:101C600083E290E023E230E0F90120812F7EFC0145
:101C7000208310922B04DF91CF910895CF93DF93AF
:101C8000CDB7DEB72A970FB6F894DEBF0FBECDBF33
:101C900080913804882F90E08330910509F4A9C021
:101CA000843091053CF48130910561F0029709F48C
:101CB0007FC071C28430910509F4A7C00A9709F466
:101CC000B0C069C21092400410923F048BE390E0D0
:101CD0002BE330E0F90120812E7FFC01208389E392
:101CE00090E0FC018081882F90E082709927892BF9
:101CF00051F480913F04909140048160909340049E
:101D000080933F0409C080913F04909140048E7FEE
:101D10009093400480933F0489E390E0FC0180812C
:101D2000882F90E084709927892B51F480913F048B
:101D30009091400482609093400480933F0409C0D6
:101D400080913F04909140048D7F90934004809354
:101D50003F0489E390E0FC018081882F90E0887047
:101D60009927892B51F480913F049091400484601D
:101D70009093400480933F0409C080913F04909168
:101D800040048B7F9093400480933F0480914504EE
:101D900090914604892B41F410924304109242041E
:101DA00010923A041092390482E080933804F6C10C
:101DB000809142049091430481709927892B89F086
:101DC00040911F045091200420E63AEE429FC0014A
:101DD000439F900D529F900D112490932A0480935D
:101DE00029048091390490913A0483E08093380467
:101DF000D5C180914204909143048091390490911F
:101E00003A0484E080933804C9C1809142049091DF
:101E100043048091390490913A048AE08093380415
:101E2000BDC180914104813009F02DC18CE890E062
:101E3000892F8F938CE890E08F9380E491E0892F35
:101E40008F9380E491E08F9383E593E0892F8F93C4
:101E500083E593E08F930E9445840F900F900F903D
:101E60000F900F900F909A8389831C821B8239C038
:101E700081E090E00B8002C0880F991F0A94E2F77E
:101E80009C0180913D0490913E0482239323892BF1
:101E900091F089819A818D5A9C4F21E330E0FC01B9
:101EA0003183208381E090E029813A81820F931F62
:101EB0009A83898311C089819A818D5A9C4F20E32E
:101EC00030E0FC013183208381E090E029813A8178
:101ED000820F931F9A8389838B819C8101969C83B7
:101EE0008B838B819C8103971CF289819A818D5A07
:101EF0009C4F2FE930E0232F2F932FE930E02F93D1
:101F000024E431E0232F2F9324E431E02F93292F71
:101F10002F938F930E9445840F900F900F900F90F6
:101F20000F900F909C0189819A81820F931F9A8351
:101F300089831E821D8239C081E090E00D8002C03D
:101F4000880F991F0A94E2F79C01809142049091B6
:101F5000430482239323892B91F089819A818D5A9E
:101F60009C4F21E330E0FC013183208381E090E04D
:101F700029813A81820F931F9A83898311C08981B5
:101F80009A818D5A9C4F20E330E0FC0131832083FD
:101F900081E090E029813A81820F931F9A8389839F
:101FA0008D819E8101969E838D838D819E81039775
:101FB0001CF289819A818D5A9C4F2FEA30E0232FA1
:101FC0002F932FEA30E02F9324E431E0232F2F9337
:101FD00024E431E02F93292F2F938F930E9445847F
:101FE0000F900F900F900F900F900F909C01898190
:101FF0009A81820F931F9A83898318861F8239C022
:1020000081E090E00F8002C0880F991F0A94E2F7E8
:102010009C018091390490913A0482239323892B67
:1020200091F089819A818D5A9C4F21E330E0FC0127
:102030003183208381E090E029813A81820F931FD0
:102040009A83898311C089819A818D5A9C4F20E39C
:1020500030E0FC013183208381E090E029813A81E6
:10206000820F931F9A8389838F8198850196988721
:102070008F838F81988503971CF268EC70E083E56D
:1020800093E00E94460B80914404813009F07FC0A8
:102090008FEB90E0892F8F938FEB90E08F9380E40C
:1020A00091E0892F8F9380E491E08F9383E593E013
:1020B000892F8F9383E593E08F930E9445840F903F
:1020C0000F900F900F900F900F909A87898783E25F
:1020D00090E0FC018081882F90E080729927892B05
:1020E00091F089859A858D5A9C4F21E330E0FC015F
:1020F0003183208381E090E029853A85820F931F08
:102100009A87898711C089859A858D5A9C4F20E3CB
:1021100030E0FC013183208381E090E029853A851D
:10212000820F931F9A87898783E290E0FC01808168
:10213000882F90E080719927892B91F089859A8565
:102140008D5A9C4F21E330E0FC013183208381E0F4
:1021500090E029853A85820F931F9A87898711C05D
:1021600089859A858D5A9C4F20E330E0FC013183AC
:10217000208381E090E029853A85820F931F9A871A
:10218000898768EC70E083E593E00E94460B81E06C
:102190008093380403C00E94D71000002A960FB61F
:1021A000F894DEBF0FBECDBFDF91CF910895CF93DE
:1021B000DF9300D0CDB7DEB71092400410923F04F9
:1021C00010923E0410923D04109243041092420477
:1021D00010923A041092390410923C0410923B047D
:1021E00010924104109244041A8219820EC089810F
:1021F0009A81880F991F8E5C9B4FFC01118210827F
:1022000089819A8101969A83898389819A8103972A
:1022100074F381E0809338040F900F90DF91CF9199
:1022200008950F931F93CF93DF93CDB7DEB7289711
:102230000FB6F894DEBF0FBECDBF80915D04882F2E
:1022400090E081309105D1F08230910509F4F6C11A
:10225000892B09F0D8C38091470490914804892BB9
:1022600061F480915C04813041F482E091E00E944D
:10227000850B81E080935D04C9C3C8C380912704A6
:102280009091280481709927892B21F18091600415
:1022900090916104892BF1F080EF90E0892F8F936A
:1022A00080EF90E08F9387E491E0892F8F9387E40C
:1022B00091E08F938BE494E0892F8F938BE494E0EB
:1022C0008F930E9445840F900F900F900F900F9066
:1022D0000F90A2C18091F3049091F4048D3F93403C
:1022E00080F086E0EAE4F1E0ABE4B4E001900D9226
:1022F0008A95E1F785E090E090935F0480935E0417
:1023000025C08091F3049091F404029780F486E054
:10231000E0E5F1E0ABE4B4E001900D928A95E1F7DD
:1023200085E090E090935F0480935E040FC086E0A8
:10233000E6E5F1E0ABE4B4E001900D928A95E1F7B7
:1023400085E090E090935F0480935E048091110596
:1023500090911205A0911305B091140589839A8379
:10236000AB83BC838091FF0490910005092E000C83
:10237000AA0BBB0BBC01CD010E949082DC01CB01FA
:1023800029813A814B815C81BC01CD010E9440834F
:10239000181614F586E0E0E5F1E0ABE4B4E0019056
:1023A0000D928A95E1F785E090E090935F04809329
:1023B0005E048091FF0490910005092E000CAA0B89
:1023C000BB0BBC01CD010E949082DC01CB01898353
:1023D0009A83AB83BC8339C08091E7049091E80471
:1023E000092E000CAA0BBB0BBC01CD010E949082F0
:1023F000DC01CB0129813A814B815C81BC01CD019B
:102400000E94E18188230CF586E0EAE4F1E0ABE488
:10241000B4E001900D928A95E1F785E090E0909309
:102420005F0480935E048091E7049091E804092E94
:10243000000CAA0BBB0BBC01CD010E949082DC01F9
:10244000CB0189839A83AB83BC838091E90490910B
:10245000EA04019799F08091E9049091EA040497C5
:1024600069F08091E9049091EA04039739F0809132
:10247000E9049091EA04069709F05CC02DEC3CEC6D
:102480004CEC5DE369817A818B819C810E94E181C2
:1024900088239CF486E0E6E5F1E0ABE4B4E001904B
:1024A0000D928A95E1F785E090E090935F04809328
:1024B0005E0419821A821B821C8280915E049091B4
:1024C0005F049C01255B3B4F89819A81AB81BC8174
:1024D000890121E046E0BC01CD010E94FF8380918B
:1024E0005E0490915F04069690935F0480935E046F
:1024F00080915E0490915F04855B9B4F2CE531E0F9
:10250000232F2F932CE531E02F93292F2F938F9397
:102510000E9445840F900F900F900F909C01809126
:102520005E0490915F04820F931F90935F048093E9
:102530005E0472C08091E9049091EA04029739F038
:102540008091E9049091EA04059709F05CC02AE0C3
:1025500037ED43E25CE369817A818B819C810E9443
:10256000E18188239CF486E0E6E5F1E0ABE4B4E0A9
:1025700001900D928A95E1F785E090E090935F04D9
:1025800080935E0419821A821B821C8280915E04F1
:1025900090915F049C01255B3B4F89819A81AB81BF
:1025A000BC81890122E046E0BC01CD010E94FF838D
:1025B00080915E0490915F04069690935F048093EF
:1025C0005E0480915E0490915F04855B9B4F2CE5D7
:1025D00031E0232F2F932CE531E02F93292F2F93D8
:1025E0008F930E9445840F900F900F900F909C0145
:1025F00080915E0490915F04820F931F90935F041B
:1026000080935E0409C081E1E8E7F1E0ABE4B4E067
:1026100001900D928A95E1F761E170E08BE494E01E
:102620000E94460B60E080E00E94D7438BE494E078
:102630000E94014382E080935D04E8C180912704F9
:102640009091280482709927892B21F18091600450
:1026500090916104892BF1F080EF90E0892F8F93A6
:1026600080EF90E08F9387E491E0892F8F9387E448
:1026700091E08F938BE494E0892F8F938BE494E027
:102680008F930E9445840F900F900F900F900F90A2
:102690000F90A2C180910705909108058D3F93404E
:1026A00080F086E0E6E6F1E0ABE4B4E001900D9264
:1026B0008A95E1F785E090E090935F0480935E0453
:1026C00025C08091070590910805029780F486E067
:1026D000ECE6F1E0ABE4B4E001900D928A95E1F70D
:1026E00085E090E090935F0480935E040FC086E0E5
:1026F000E2E7F1E0ABE4B4E001900D928A95E1F7F6
:1027000085E090E090935F0480935E048091ED04F7
:102710009091EE04A091EF04B091F0048D839E831C
:10272000AF83B8878091150590911605092E000C8E
:10273000AA0BBB0BBC01CD010E949082DC01CB0136
:102740002D813E814F815885BC01CD010E9440837F
:10275000181614F586E0ECE6F1E0ABE4B4E0019085
:102760000D928A95E1F785E090E090935F04809365
:102770005E048091150590911605092E000CAA0B98
:10278000BB0BBC01CD010E949082DC01CB018D838B
:102790009E83AF83B88739C080911B0690911C0639
:1027A000092E000CAA0BBB0BBC01CD010E9490822C
:1027B000DC01CB012D813E814F815885BC01CD01CB
:1027C0000E94E18188230CF586E0E6E6F1E0ABE4C7
:1027D000B4E001900D928A95E1F785E090E0909346
:1027E0005F0480935E0480911B0690911C06092E65
:1027F000000CAA0BBB0BBC01CD010E949082DC0136
:10280000CB018D839E83AF83B88780911D06909105
:102810001E06019799F080911D0690911E0604975F
:1028200069F080911D0690911E06039739F0809102
:102830001D0690911E06069709F05CC02DEC3CEC3D
:102840004CEC5DE36D817E818F8198850E94E181F2
:1028500088239CF486E0E2E7F1E0ABE4B4E0019089
:102860000D928A95E1F785E090E090935F04809364
:102870005E041D821E821F82188680915E049091E4
:102880005F049C01255B3B4F8D819E81AF81B885A4
:10289000890121E046E0BC01CD010E94FF838091C7
:1028A0005E0490915F04069690935F0480935E04AB
:1028B00080915E0490915F04855B9B4F2CE531E035
:1028C000232F2F932CE531E02F93292F2F938F93D4
:1028D0000E9445840F900F900F900F909C01809163
:1028E0005E0490915F04820F931F90935F04809326
:1028F0005E0472C080911D0690911E06029739F009
:1029000080911D0690911E06059709F05CC02AE093
:1029100037ED43E25CE36D817E818F8198850E9473
:10292000E18188239CF486E0E2E7F1E0ABE4B4E0E7
:1029300001900D928A95E1F785E090E090935F0415
:1029400080935E041D821E821F82188680915E0421
:1029500090915F049C01255B3B4F8D819E81AF81EF
:10296000B885890122E046E0BC01CD010E94FF83C9
:1029700080915E0490915F04069690935F0480932B
:102980005E0480915E0490915F04855B9B4F2CE513
:1029900031E0232F2F932CE531E02F93292F2F9314
:1029A0008F930E9445840F900F900F900F909C0181
:1029B00080915E0490915F04820F931F90935F0457
:1029C00080935E0409C081E1E9E8F1E0ABE4B4E0A2
:1029D00001900D928A95E1F761E170E08BE494E05B
:1029E0000E94460B61E080E00E94D7438BE494E0B4
:1029F0000E94014388EE93E090934804809347043B
:102A000010925D0403C00E941115000028960FB6B5
:102A1000F894DEBF0FBECDBFDF91CF911F910F9114
:102A20000895CF93DF93CDB7DEB78BE390E02BE330
:102A300030E0F90120812F7EFC0120838BE390E0C0
:102A40002BE330E0F90120812F7EFC01208389E314
:102A500090E0FC018081882F90E080729927892B7B
:102A600009F047C080E00E94883D80EF90E0892F08
:102A70008F9380EF90E08F9387E491E0892F8F937D
:102A800087E491E08F938BE494E0892F8F938BE41C
:102A900094E08F930E9445840F900F900F900F90B9
:102AA0000F900F9060E080E00E94D7438BE494E0A9
:102AB0000E94014361E080E00E94D7438BE494E0F0
:102AC0000E94014388E390E028E330E0F90120818F
:102AD0002860FC01208388EE93E090934A04809361
:102AE0004904109261041092600481E080935C04B8
:102AF00002C010925C0410925D04DF91CF910895A2
:102B0000CF93DF9300D0CDB7DEB780915C048130E6
:102B100009F0CDC081ED90E0892F8F9381ED90E099
:102B20008F9387E491E0892F8F9387E491E08F93CF
:102B30008BE494E0892F8F938BE494E08F930E9431
:102B400045840F900F900F900F900F900F9060E0C2
:102B500080E00E94D7438BE494E00E94014384EF1D
:102B600091E09093480480934704000080914704CB
:102B700090914804892BD1F783EE90E0892F8F93B1
:102B800083EE90E08F9387E491E0892F8F9387E421
:102B900091E08F938BE494E0892F8F938BE494E002
:102BA0008F930E9445840F900F900F900F900F907D
:102BB0000F9090935F0480935E0461E080E00E9438
:102BC000D7438BE494E00E94014381E191E00E94AD
:102BD000850B60E170E08BE494E00E94460B84EF8B
:102BE00091E090934804809347040000809147044B
:102BF00090914804892BD1F78DEE90E0892F8F9327
:102C00008DEE90E08F9387E491E0892F8F9387E496
:102C100091E08F938BE494E0892F8F938BE494E081
:102C20008F930E9445840F900F900F900F900F90FC
:102C30000F901A82198226C080915E0490915F04E1
:102C4000982F8981890F61E00E94D7438BE494E03B
:102C50000E94014360E170E08BE494E00E94460B27
:102C600084EF91E0909348048093470400008091A2
:102C7000470490914804892BD1F789819A81019664
:102C80009A83898380915E0490915F0420E130E013
:102C9000281B390B89819A81821793076CF285E191
:102CA00091E00E94850B10926104109260040F90D5
:102CB0000F90DF91CF910895CF93DF93CDB7DEB71B
:102CC00064970FB6F894DEBF0FBECDBF1A8219828B
:102CD00052C28A818F9389818F9389E191E0892FF4
:102CE0008F9389E191E08F938AE991E0892F8F9307
:102CF0008AE991E08F9383E593E0892F8F9383E5B1
:102D000093E08F930E9445848DB79EB708960FB6C7
:102D1000F894DEBF0FBECDBF68EC70E083E593E0B2
:102D20000E94460B89819A8101969A8389831E8627
:102D30001D861C821B821EC08B819C819C01215E92
:102D4000394F8B819C818A599B4FB9010E94492838
:102D50008B819C81815E994F0E941C269C018D85F0
:102D60009E85820F931F9E878D878B819C81019604
:102D70009C838B838B819C810A97F4F2CE010F9602
:102D8000BC0180E090E00E9486271A8A198A1E8280
:102D90001D821EC08D819E819C01215E394F8D81D7
:102DA0009E818C559B4FB9010E9449288D819E813F
:102DB000815E994F0E941C269C0189899A89820F05
:102DC000931F9A8B898B8D819E8101969E838D8323
:102DD0008D819E810A97F4F2CE014396BC0180E07A
:102DE00090E00E9486272D853E858F85988928173B
:102DF000390709F04FC029893A898B899C8928179E
:102E0000390709F047C08FE891E0892F8F938FE849
:102E100091E08F9382EA91E0892F8F9382EA91E08B
:102E20008F9383E593E0892F8F9383E593E08F93CE
:102E30000E9445840F900F900F900F900F900F906D
:102E400068EC70E083E593E00E94460B89ED91E029
:102E5000892F8F9389ED91E08F9382EA91E0892FFA
:102E60008F9382EA91E08F9383E593E0892F8F938C
:102E700083E593E08F930E9445840F900F900F900D
:102E80000F900F900F9068EC70E083E593E00E9444
:102E9000460B76C12D853E858F8598892817390781
:102EA00009F0A4C029893A898B899C892817390798
:102EB00009F49CC08FE891E0892F8F938FE891E00F
:102EC0008F9382EA91E0892F8F9382EA91E08F932A
:102ED00083E593E0892F8F9383E593E08F930E949E
:102EE00045840F900F900F900F900F900F9068EC0B
:102EF00070E083E593E00E94460B84EA91E0892F1D
:102F00008F9384EA91E08F9382EA91E0892F8F93E7
:102F100082EA91E08F9383E593E0892F8F9383E595
:102F200093E08F930E9445840F900F900F900F9025
:102F30000F900F9068EC70E083E593E00E94460BE1
:102F40001E861D8618861F821EC08F8198859C0153
:102F5000215E394F8F8198858A599B4FB9010E9414
:102F600049288F819885815E994F0E941C269C017B
:102F70008D859E85820F931F9E878D878F81988573
:102F8000019698878F838F8198850A97F4F2CE01F6
:102F90000F96BC0180E090E00E9486272D853E853B
:102FA0008F8598892817390701F51A86198611C067
:102FB00089859A859C01215E394F89859A858C5532
:102FC0009B4FB9010E94EA2789859A8501969A87C5
:102FD000898789859A850A975CF3CE010D96BC0195
:102FE00082E090E00E942227CBC0C5C02D853E859F
:102FF0008F8598892817390709F46EC029893A897D
:103000008B899C892817390709F066C08EEB91E0FF
:10301000892F8F938EEB91E08F9382EA91E0892F35
:103020008F9382EA91E08F9383E593E0892F8F93CA
:1030300083E593E08F930E9445840F900F900F904B
:103040000F900F900F9068EC70E083E593E00E9482
:10305000460B89ED91E0892F8F9389ED91E08F9355
:1030600082EA91E0892F8F9382EA91E08F9383E542
:1030700093E0892F8F9383E593E08F930E9445849B
:103080000F900F900F900F900F900F9068EC70E0E2
:1030900083E593E00E94460B1C861B8611C08B853E
:1030A0009C859C01215E394F8B859C858A599B4F5D
:1030B000B9010E94EA278B859C8501969C878B87A6
:1030C0008B859C850A975CF3CE014196BC0180E01C
:1030D00090E00E94222754C089819A810A9709F0C2
:1030E0004AC08EEB91E0892F8F938EEB91E08F9306
:1030F00082EA91E0892F8F9382EA91E08F9383E5B2
:1031000093E0892F8F9383E593E08F930E9445840A
:103110000F900F900F900F900F900F9068EC70E051
:1031200083E593E00E94460B84EA91E0892F8F9318
:1031300084EA91E08F9382EA91E0892F8F9382EA6B
:1031400091E08F9383E593E0892F8F9383E593E05C
:103150008F930E9445840F900F900F900F900F90C7
:103160000F9068EC70E083E593E00E94460B80E0EE
:1031700090E00E94692289819A810A9708F4A9CD7A
:103180001A821982D9C28A818F9389818F9387E3AA
:1031900091E0892F8F9387E391E08F938AE991E003
:1031A000892F8F938AE991E08F9383E593E0892FAC
:1031B0008F9383E593E08F930E9445848DB79EB7EC
:1031C00008960FB6F894DEBF0FBECDBF68EC70E076
:1031D00083E593E00E94460B89819A8101969A8348
:1031E00089836CE274E08CE794E00E94B0268CE264
:1031F00094E00E9497259E878D876DE174E086ECB0
:1032000094E00E9486278DE194E00E94F5259C01C0
:103210008D859E85820F931F9E878D8761E274E066
:1032200082E994E00E94B02681E294E00E94972512
:103230009C018D859E85820F931F9E878D8760E3FD
:1032400074E08AED94E00E94862780E394E00E9477
:10325000F5259C018D859E85820F931F9E878D8706
:103260006FE174E08CED94E00E9486278FE194E09A
:103270000E94F5259C018D859E85820F931F9E8758
:103280008D87CE010F96BC0184E090E00E948627D6
:103290006CE274E080E894E00E94B0268CE294E056
:1032A0000E9497259A8B898B6DE174E08EEC94E0F7
:1032B0000E9486278DE194E00E94F5259C01898972
:1032C0009A89820F931F9A8B898B61E274E08EE951
:1032D00094E00E94B02681E294E00E9497259C0130
:1032E00089899A89820F931F9A8B898B60E374E096
:1032F00084ED94E00E94862780E394E00E94F52507
:103300009C0189899A89820F931F9A8B898B6FE11F
:1033100074E08AE794E00E9486278FE194E00E949F
:10332000F5259C0189899A89820F931F9A8B898B35
:10333000CE014396BC0186E090E00E9486272D8551
:103340003E858F8598892817390709F04FC029894C
:103350003A898B899C892817390709F047C08FE87B
:1033600091E0892F8F938FE891E08F9382EA91E02B
:10337000892F8F9382EA91E08F9383E593E0892FE1
:103380008F9383E593E08F930E9445840F900F9075
:103390000F900F900F900F9068EC70E083E593E032
:1033A0000E94460B89ED91E0892F8F9389ED91E082
:1033B0008F9382EA91E0892F8F9382EA91E08F9335
:1033C00083E593E0892F8F9383E593E08F930E94A9
:1033D00045840F900F900F900F900F900F9068EC16
:1033E00070E083E593E00E94460BABC12D853E85DE
:1033F0008F8598892817390709F0D3C029893A8918
:103400008B899C892817390709F4CBC08FE891E094
:10341000892F8F938FE891E08F9382EA91E0892F33
:103420008F9382EA91E08F9383E593E0892F8F93C6
:1034300083E593E08F930E9445840F900F900F9047
:103440000F900F900F9068EC70E083E593E00E947E
:10345000460B84EA91E0892F8F9384EA91E08F9361
:1034600082EA91E0892F8F9382EA91E08F9383E53E
:1034700093E0892F8F9383E593E08F930E94458497
:103480000F900F900F900F900F900F9068EC70E0DE
:1034900083E593E00E94460B6CE274E08CE794E0D5
:1034A0000E94B0268CE294E00E9497259E878D872B
:1034B0006DE174E086EC94E00E9486278DE194E053
:1034C0000E94F5259C018D859E85820F931F9E8706
:1034D0008D8761E274E082E994E00E94B02681E287
:1034E00094E00E9497259C018D859E85820F931FF5
:1034F0009E878D8760E374E08AED94E00E948627C2
:1035000080E394E00E94F5259C018D859E85820FC5
:10351000931F9E878D876FE174E08CED94E00E948D
:1035200086278FE194E00E94F5259C018D859E857C
:10353000820F931F9E878D87CE010F96BC0184E07A
:1035400090E00E9486272D853E858F8598892817D3
:10355000390731F56CE274E080E894E00E943D2682
:103560006DE174E08EEC94E00E94222761E274E049
:103570008EE994E00E943D2660E374E084ED94E0DF
:103580000E9422276FE174E08AE794E00E942227DC
:10359000CE010D96BC0186E090E00E942227D1C0AA
:1035A000CBC02D853E858F8598892817390709F46A
:1035B00074C029893A898B899C892817390709F0B1
:1035C0006CC08EEB91E0892F8F938EEB91E08F93FF
:1035D00082EA91E0892F8F9382EA91E08F9383E5CD
:1035E00093E0892F8F9383E593E08F930E94458426
:1035F0000F900F900F900F900F900F9068EC70E06D
:1036000083E593E00E94460B89ED91E0892F8F932B
:1036100089ED91E08F9382EA91E0892F8F9382EA7E
:1036200091E08F9383E593E0892F8F9383E593E077
:103630008F930E9445840F900F900F900F900F90E2
:103640000F9068EC70E083E593E00E94460B6CE21B
:1036500074E08CE794E00E943D266DE174E086EC16
:1036600094E00E94222761E274E082E994E00E94E3
:103670003D2660E374E08AED94E00E9422276FE12A
:1036800074E08CED94E00E942227CE014196BC01AB
:1036900084E090E00E94222754C089819A810A9791
:1036A00009F04AC08EEB91E0892F8F938EEB91E069
:1036B0008F9382EA91E0892F8F9382EA91E08F9332
:1036C00083E593E0892F8F9383E593E08F930E94A6
:1036D00045840F900F900F900F900F900F9068EC13
:1036E00070E083E593E00E94460B84EA91E0892F25
:1036F0008F9384EA91E08F9382EA91E0892F8F93F0
:1037000082EA91E08F9383E593E0892F8F9383E59D
:1037100093E08F930E9445840F900F900F900F902D
:103720000F900F9068EC70E083E593E00E94460BE9
:1037300081E090E00E94692289819A810A9708F4C9
:1037400022CD1A82198293C48A818F9389818F93A3
:1037500087E591E0892F8F9387E591E08F938AE940
:1037600091E0892F8F938AE991E08F9383E593E02D
:10377000892F8F9383E593E08F930E9445848DB7C3
:103780009EB708960FB6F894DEBF0FBECDBF68ECAB
:1037900070E083E593E00E94460B89819A8101964F
:1037A0009A8389836DEF74E080E994E00E94862714
:1037B0008DEF94E00E94F5259E878D8769E075E086
:1037C00080E794E00E94B02689E095E00E9497256A
:1037D0009C018D859E85820F931F9E878D8768E152
:1037E00075E084E794E00E94862788E195E00E94D6
:1037F000F5259C018D859E85820F931F9E878D8761
:1038000067E975E08EEA94E00E94B02687E995E0CA
:103810000E9497259C018D859E85820F931F9E8710
:103820008D8769EE74E084E694E00E94862789EE35
:1038300094E00E94F5259C018D859E85820F931F43
:103840009E878D8761E075E08AE994E00E94862773
:1038500081E095E00E94F5259C018D859E85820F73
:10386000931F9E878D876DE075E08EED94E00E943A
:10387000B0268DE095E00E9497259C018D859E8560
:10388000820F931F9E878D8768EF74E080EC94E031
:103890000E94B02688EF94E00E9497259C018D85B8
:1038A0009E85820F931F9E878D876DE176E088E964
:1038B00094E00E9486278DE196E00E94F5259C0108
:1038C0008D859E85820F931F9E878D8766EF74E09E
:1038D00088EC94E00E94862786EF94E00E94F5250C
:1038E0009C018D859E85820F931F9E878D8763E93E
:1038F00075E084E894E00E94B02683E995E00E9498
:1039000097259C018D859E85820F931F9E878D87AD
:1039100063E075E080ED94E00E94B02683E095E0DE
:103920000E9497259C018D859E85820F931F9E87FF
:103930008D87CE010F96BC0188E090E00E9486271B
:103940006DEF74E084EC94E00E9486278DEF94E0A4
:103950000E94F5259A8B898B69E075E08AEC94E0EA
:103960000E94B02689E095E00E9497259C018989F4
:103970009A89820F931F9A8B898B68E175E086E99B
:1039800094E00E94862788E195E00E94F5259C013D
:1039900089899A89820F931F9A8B898B67E975E0D1
:1039A00084EB94E00E94B02687E995E00E94972579
:1039B0009C0189899A89820F931F9A8B898B69EE62
:1039C00074E082E694E00E94862789EE94E00E94EB
:1039D000F5259C0189899A89820F931F9A8B898B7F
:1039E00061E075E08AE894E00E94862781E095E036
:1039F0000E94F5259C0189899A89820F931F9A8BD1
:103A0000898B6DE075E08CEB94E00E94B0268DE030
:103A100095E00E9497259C0189899A89820F931FBE
:103A20009A8B898B68EF74E086ED94E00E94B02653
:103A300088EF94E00E9497259C0189899A89820FDA
:103A4000931F9A8B898B6DE176E088EB94E00E945E
:103A500086278DE196E00E94F5259C0189899A8947
:103A6000820F931F9A8B898B66EF74E08CE994E048
:103A70000E94862786EF94E00E94F5259C018989A3
:103A80009A89820F931F9A8B898B63E975E08CE882
:103A900094E00E94B02683E995E00E9497259C015E
:103AA00089899A89820F931F9A8B898B63E075E0CD
:103AB00086E794E00E94B02683E095E00E94972577
:103AC0009C0189899A89820F931F9A8B898BCE01D9
:103AD0004396BC018AE090E00E9486272D853E85B2
:103AE0008F8598892817390709F04FC029893A89A5
:103AF0008B899C892817390709F047C08FE891E026
:103B0000892F8F938FE891E08F9382EA91E0892F3C
:103B10008F9382EA91E08F9383E593E0892F8F93CF
:103B200083E593E08F930E9445840F900F900F9050
:103B30000F900F900F9068EC70E083E593E00E9487
:103B4000460B89ED91E0892F8F9389ED91E08F935A
:103B500082EA91E0892F8F9382EA91E08F9383E547
:103B600093E0892F8F9383E593E08F930E944584A0
:103B70000F900F900F900F900F900F9068EC70E0E7
:103B800083E593E00E94460B77C22D853E858F85A5
:103B900098892817390709F075C129893A898B89CD
:103BA0009C892817390709F46DC18FE891E0892FA6
:103BB0008F938FE891E08F9382EA91E0892F8F9322
:103BC00082EA91E08F9383E593E0892F8F9383E5D9
:103BD00093E08F930E9445840F900F900F900F9069
:103BE0000F900F9068EC70E083E593E00E94460B25
:103BF00084EA91E0892F8F9384EA91E08F9382EA9F
:103C000091E0892F8F9382EA91E08F9383E593E08F
:103C1000892F8F9383E593E08F930E9445840F90C3
:103C20000F900F900F900F900F9068EC70E083E56D
:103C300093E00E94460B6DEF74E080E994E00E94EF
:103C400086278DEF94E00E94F5259E878D8769E099
:103C500075E080E794E00E94B02689E095E00E943C
:103C600097259C018D859E85820F931F9E878D874A
:103C700068E175E084E794E00E94862788E195E09A
:103C80000E94F5259C018D859E85820F931F9E873E
:103C90008D8767E975E08EEA94E00E94B02687E997
:103CA00095E00E9497259C018D859E85820F931F2C
:103CB0009E878D8769EE74E084E694E00E948627F3
:103CC00089EE94E00E94F5259C018D859E85820FEA
:103CD000931F9E878D8761E075E08AE994E00E94DA
:103CE000862781E095E00E94F5259C018D859E85C3
:103CF000820F931F9E878D876DE075E08EED94E0B7
:103D00000E94B0268DE095E00E9497259C018D854C
:103D10009E85820F931F9E878D8768EF74E080ECED
:103D200094E00E94B02688EF94E00E9497259C01C1
:103D30008D859E85820F931F9E878D876DE176E02E
:103D400088E994E00E9486278DE196E00E94F5259F
:103D50009C018D859E85820F931F9E878D8766EFC0
:103D600074E088EC94E00E94862786EF94E00E943D
:103D7000F5259C018D859E85820F931F9E878D87DB
:103D800063E975E084E894E00E94B02683E995E059
:103D90000E9497259C018D859E85820F931F9E878B
:103DA0008D8763E075E080ED94E00E94B02683E0AB
:103DB00095E00E9497259C018D859E85820F931F1B
:103DC0009E878D87CE010F96BC0188E090E00E940F
:103DD00086272D853E858F8598892817390709F014
:103DE00050C06DEF74E084EC94E00E94222769E0FB
:103DF00075E08AEC94E00E943D2668E175E086E972
:103E000094E00E94222767E975E084EB94E00E9429
:103E10003D2669EE74E082E694E00E94222761E08C
:103E200075E08AE894E00E9422276DE075E08CEB53
:103E300094E00E943D2668EF74E086ED94E00E94D5
:103E40003D266DE176E088EB94E00E94222766EF44
:103E500074E08CE994E00E94222763E975E08CE825
:103E600094E00E943D2663E075E086E794E00E94BE
:103E70003D26CE010D96BC018AE090E00E942227EB
:103E8000FBC0F5C02D853E858F8598892817390799
:103E900009F49EC029893A898B899C89281739079A
:103EA00009F096C08EEB91E0892F8F938EEB91E015
:103EB0008F9382EA91E0892F8F9382EA91E08F932A
:103EC00083E593E0892F8F9383E593E08F930E949E
:103ED00045840F900F900F900F900F900F9068EC0B
:103EE00070E083E593E00E94460B89ED91E0892F15
:103EF0008F9389ED91E08F9382EA91E0892F8F93E0
:103F000082EA91E08F9383E593E0892F8F9383E595
:103F100093E08F930E9445840F900F900F900F9025
:103F20000F900F9068EC70E083E593E00E94460BE1
:103F30006DEF74E080E994E00E94222769E075E06B
:103F400080E794E00E943D2668E175E084E794E014
:103F50000E94222767E975E08EEA94E00E943D26E0
:103F600069EE74E084E694E00E94222761E075E047
:103F70008AE994E00E9422276DE075E08EED94E0DE
:103F80000E943D2668EF74E080EC94E00E943D269C
:103F90006DE176E088E994E00E94222766EF74E004
:103FA00088EC94E00E94222763E975E084E894E0BD
:103FB0000E943D2663E075E080ED94E00E943D267E
:103FC000CE014196BC0188E090E00E94222754C0B7
:103FD00089819A810A9709F04AC08EEB91E0892F76
:103FE0008F938EEB91E08F9382EA91E0892F8F93EC
:103FF00082EA91E08F9383E593E0892F8F9383E5A5
:1040000093E08F930E9445840F900F900F900F9034
:104010000F900F9068EC70E083E593E00E94460BF0
:1040200084EA91E0892F8F9384EA91E08F9382EA6A
:1040300091E0892F8F9382EA91E08F9383E593E05B
:10404000892F8F9383E593E08F930E9445840F908F
:104050000F900F900F900F900F9068EC70E083E539
:1040600093E00E94460B82E090E00E9469228981E1
:104070009A810A9708F468CB1A8219821CC28A8135
:104080008F9389818F9383E791E0892F8F9383E7C3
:1040900091E08F938AE991E0892F8F938AE991E0EB
:1040A0008F9383E593E0892F8F9383E593E08F933C
:1040B0000E9445848DB79EB708960FB6F894DEBF70
:1040C0000FBECDBF68EC70E083E593E00E94460B25
:1040D00089819A8101969A83898364E772E082EBF1
:1040E00094E00E94862784E792E00E94F5259E874F
:1040F0008D8767E772E082EA94E00E94862787E76F
:1041000092E00E94F5259C018D859E85820F931F6C
:104110009E878D87CE010F96BC018CE090E00E94B7
:10412000862764E772E08AEB94E00E94862784E7A2
:1041300092E00E94F5259A8B898B67E772E088E808
:1041400094E00E94862787E792E00E94F5259C0173
:1041500089899A89820F931F9A8B898BCE01439606
:10416000BC018EE090E00E9486272D853E858F85DC
:1041700098892817390709F04FC029893A898B890E
:104180009C892817390709F047C08FE891E0892FEB
:104190008F938FE891E08F9382EA91E0892F8F933C
:1041A00082EA91E08F9383E593E0892F8F9383E5F3
:1041B00093E08F930E9445840F900F900F900F9083
:1041C0000F900F9068EC70E083E593E00E94460B3F
:1041D00089ED91E0892F8F9389ED91E08F9382EAA9
:1041E00091E0892F8F9382EA91E08F9383E593E0AA
:1041F000892F8F9383E593E08F930E9445840F90DE
:104200000F900F900F900F900F9068EC70E083E587
:1042100093E00E94460B54C12D853E858F85988979
:104220002817390709F08EC029893A898B899C891A
:104230002817390709F486C08FE891E0892F8F93FA
:104240008FE891E08F9382EA91E0892F8F9382EA41
:1042500091E08F9383E593E0892F8F9383E593E03B
:104260008F930E9445840F900F900F900F900F90A6
:104270000F9068EC70E083E593E00E94460B84EABF
:1042800091E0892F8F9384EA91E08F9382EA91E005
:10429000892F8F9382EA91E08F9383E593E0892FB2
:1042A0008F9383E593E08F930E9445840F900F9046
:1042B0000F900F900F900F9068EC70E083E593E003
:1042C0000E94460B64E772E082EB94E00E9486272E
:1042D00084E792E00E94F5259E878D8767E772E06C
:1042E00082EA94E00E94862787E792E00E94F52503
:1042F0009C018D859E85820F931F9E878D87CE01A1
:104300000F96BC018CE090E00E9486272D853E85AB
:104310008F85988928173907A1F464E772E08AEB42
:1043200094E00E94222767E772E088E894E00E9408
:104330002227CE010D96BC018EE090E00E9422273C
:10434000BFC0B9C02D853E858F859889281739074C
:1043500009F462C029893A898B899C892817390711
:1043600009F05AC08EEB91E0892F8F938EEB91E08C
:104370008F9382EA91E0892F8F9382EA91E08F9365
:1043800083E593E0892F8F9383E593E08F930E94D9
:1043900045840F900F900F900F900F900F9068EC46
:1043A00070E083E593E00E94460B89ED91E0892F50
:1043B0008F9389ED91E08F9382EA91E0892F8F931B
:1043C00082EA91E08F9383E593E0892F8F9383E5D1
:1043D00093E08F930E9445840F900F900F900F9061
:1043E0000F900F9068EC70E083E593E00E94460B1D
:1043F00064E772E082EB94E00E94222767E772E0B4
:1044000082EA94E00E942227CE014196BC018CE012
:1044100090E00E94222754C089819A810A9709F06E
:104420004AC08EEB91E0892F8F938EEB91E08F93B2
:1044300082EA91E0892F8F9382EA91E08F9383E55E
:1044400093E0892F8F9383E593E08F930E944584B7
:104450000F900F900F900F900F900F9068EC70E0FE
:1044600083E593E00E94460B84EA91E0892F8F93C5
:1044700084EA91E08F9382EA91E0892F8F9382EA18
:1044800091E08F9383E593E0892F8F9383E593E009
:104490008F930E9445840F900F900F900F900F9074
:1044A0000F9068EC70E083E593E00E94460B83E098
:1044B00090E00E94692289819A810B9708F4DFCDF0
:1044C00064960FB6F894DEBF0FBECDBFDF91CF91DB
:1044D0000895CF93DF93CDB7DEB728970FB6F89442
:1044E000DEBF0FBECDBF98878F838F819885892BC4
:1044F00009F045C01A8219820BC089819A81815EB8
:10450000994FFC01108289819A8101969A8389834F
:1045100089819A810A978CF31C821B8211C08B813E
:104520009C819C01215E394F8B819C818A599B4FD4
:10453000B9010E94EA278B819C8101969C838B8321
:104540008B819C810A975CF31E821D8211C08D8134
:104550009E819C01215E394F8D819E818C559B4FA0
:10456000B9010E94EA278D819E8101969E838D83E9
:104570008D819E810A975CF380E00E9461248F8187
:104580009885019729F08F819885049709F061C07B
:1045900010922C0410922D0410922E0410922F04CD
:1045A0008EE190E090931E0480931D0410922104EC
:1045B0001092220410922304109224048EE190E0C1
:1045C00090933104809330048CE390E09093200426
:1045D00080931F046CE274E08CE794E00E943D2617
:1045E0006DE174E086EC94E00E94222761E274E0C1
:1045F00082E994E00E943D2660E374E08AED94E055
:104600000E9422276FE174E08CED94E00E94222743
:104610006CE274E080E894E00E943D266DE174E075
:104620008EEC94E00E94222761E274E08EE994E02F
:104630000E943D2660E374E084ED94E00E9422270E
:104640006FE174E08AE794E00E94222781E00E94F3
:1046500061248F819885029729F08F81988504972E
:1046600009F0F7C084EF91E09093FE048093FD047D
:104670008DEC9CECACE4B2E48093090590930A05C0
:10468000A0930B05B0930C0584EF91E0909319056E
:10469000809318058DEC9CECACE4B2E48093970514
:1046A00090939805A0939905B0939A0581E090E0C6
:1046B0009093EA048093E90484EF91E090930205DB
:1046C000809301058CE992EAABE0B0E480930D059C
:1046D00090930E05A0930F05B09310051092F80467
:1046E0001092F9041092FA041092FB0482E090E018
:1046F00090931E0680931D0684EF91E09093F7043B
:104700008093F6048DE495E1ACE8BCE380939305D7
:1047100090939405A0939505B09396051092030588
:104720001092040510920505109206056DEF74E0D5
:1047300080E994E00E94222769E075E080E794E038
:104740000E943D2668E175E084E794E00E942227FC
:1047500067E975E08EEA94E00E943D2669EE74E018
:1047600084E694E00E94222761E075E08AE994E003
:104770000E9422276DE075E08EED94E00E943D26B8
:1047800068EF74E080EC94E00E943D266DE176E0F5
:1047900088E994E00E94222766EF74E088EC94E0B8
:1047A0000E94222763E975E084E894E00E943D2698
:1047B00063E075E080ED94E00E943D266DEF74E0CB
:1047C00084EC94E00E94222769E075E08AEC94E092
:1047D0000E943D2668E175E086E994E00E94222768
:1047E00067E975E084EB94E00E943D2669EE74E091
:1047F00082E694E00E94222761E075E08AE894E076
:104800000E9422276DE075E08CEB94E00E943D262B
:1048100068EF74E086ED94E00E943D266DE176E05D
:1048200088EB94E00E94222766EF74E08CE994E024
:104830000E94222763E975E08CE894E00E943D26FF
:1048400063E075E086E794E00E943D2682E00E94E6
:1048500061248F819885039721F08F819885049733
:1048600039F588EC90E0909375028093740288EC9F
:1048700090E0909378028093770264E772E082EB95
:1048800094E00E94222767E772E082EA94E00E94A7
:10489000222764E772E08AEB94E00E94222767E710
:1048A00072E088E894E00E94222783E00E9461245D
:1048B00028960FB6F894DEBF0FBECDBFDF91CF9123
:1048C0000895CF93DF9300D000D01F92CDB7DEB70D
:1048D0008D838D81882351F51C821B821A82198257
:1048E00012C089819A81815E994F0E941C269C0189
:1048F0008B819C81820F931F9C838B8389819A81FA
:1049000001969A83898389819A810A9754F3CE010B
:104910000396BC0180E090E00E942227CE0103961E
:10492000BC0182E090E00E942227F9C08D81813095
:1049300009F041C08CE294E00E9497259C838B8310
:104940008DE194E00E94F5259C018B819C81820F72
:10495000931F9C838B8381E294E00E9497259C01A6
:104960008B819C81820F931F9C838B8380E394E0D7
:104970000E94F5259C018B819C81820F931F9C8353
:104980008B838FE194E00E94F5259C018B819C81B3
:10499000820F931F9C838B83CE010396BC0184E01E
:1049A00090E00E942227CE010396BC0186E090E0B1
:1049B0000E942227B4C08D81823009F08EC08DEF15
:1049C00094E00E94F5259C838B8389E095E00E940A
:1049D00097259C018B819C81820F931F9C838B83E5
:1049E00088E195E00E94F5259C018B819C81820FD6
:1049F000931F9C838B8387E995E00E9497259C01F8
:104A00008B819C81820F931F9C838B8389EE94E022
:104A10000E94F5259C018B819C81820F931F9C83B2
:104A20008B8381E095E00E94F5259C018B819C8120
:104A3000820F931F9C838B838DE095E00E949725C6
:104A40009C018B819C81820F931F9C838B8388EFB9
:104A500094E00E9497259C018B819C81820F931F7B
:104A60009C838B838DE196E00E94F5259C018B81D0
:104A70009C81820F931F9C838B8386EF94E00E941E
:104A8000F5259C018B819C81820F931F9C838B83D6
:104A900083E995E00E9497259C018B819C81820F80
:104AA000931F9C838B8383E095E00E9497259C0154
:104AB0008B819C81820F931F9C838B83CE010396F5
:104AC000BC0188E090E00E942227CE010396BC0141
:104AD0008AE090E00E94222722C08D818330F9F481
:104AE00084E792E00E94F5259C838B8387E792E020
:104AF0000E94F5259C018B819C81820F931F9C83D2
:104B00008B83CE010396BC018CE090E00E942227AB
:104B1000CE010396BC018EE090E00E9422270F9008
:104B20000F900F900F900F90DF91CF910895CF933A
:104B3000DF9300D000D000D0CDB7DEB79E838D8349
:104B4000A8958D819E819A83898389819A81FC01B0
:104B500080819181A281B3818B2FBB2787FDB09586
:104B60009B2FAB2F99279C838B8389819A81FC0192
:104B700080819181A281B381CD01BB2797FDB09542
:104B8000AB2F99272B813C81820F931F9C838B83B2
:104B900089819A81FC0180819181A281B381892FD1
:104BA0009A2FAB2FBB27A7FDBA9599272B813C8164
:104BB000820F931F9C838B8389819A81FC01808162
:104BC0009181A281B38199272B813C81820F931F10
:104BD0009C838B838B819C8126960FB6F894DEBFD5
:104BE0000FBECDBFDF91CF910895CF93DF9300D05B
:104BF00000D0CDB7DEB79C838B83A8958B819C8139
:104C0000FC0180819181892F99279A8389838B81E7
:104C10009C81FC0180819181992729813A81820FB1
:104C2000931F9A83898389819A810F900F900F90A7
:104C30000F90DF91CF910895CF93DF9300D000D0F4
:104C400000D0CDB7DEB79E838D83A8958D819E81E0
:104C50009A83898389819A81FC0180819181992736
:104C60009C838B838B819C8126960FB6F894DEBF44
:104C70000FBECDBFDF91CF910895CF93DF93CDB716
:104C8000DEB72A970FB6F894DEBF0FBECDBF988768
:104C90008F837A8769871A8219824CC0A8958CE322
:104CA00090E0FC018081882F90E082709927892B09
:104CB000B1F7F89489859A85FC0180819181A28160
:104CC000B3812F813885AC01BD01C9010E94A38940
:104CD00078948CE390E0FC018081882F90E08270D2
:104CE0009927892BB1F7F8948F8198850E948A893A
:104CF000DC01CB018B839C83AD83BE837894898553
:104D00009A85FC0180819181A281B3812B813C81B4
:104D10004D815E81BC01CD010E94E181882329F48F
:104D200085E690E09A83898305C089819A810196FE
:104D30009A83898389819A81843691050CF4AECF58
:104D40008EE390E020E130E0FC01318320832A965D
:104D50000FB6F894DEBF0FBECDBFDF91CF9108959F
:104D6000CF93DF93CDB7DEB72A970FB6F894DEBFA7
:104D70000FBECDBF98878F837A8769871A82198281
:104D80004BC0A8958CE390E0FC018081882F90E0D7
:104D900082709927892BB1F7F8948F8198850E94AA
:104DA0008A89DC01CB0129853A85F90180839183C9
:104DB000A283B38378948CE390E0FC018081882FF8
:104DC00090E082709927892BB1F7F8948F819885AC
:104DD0000E948A89DC01CB018B839C83AD83BE83D7
:104DE000789489859A85FC0180819181A281B38123
:104DF0002B813C814D815E81BC01CD010E94E1810E
:104E0000882329F485E690E09A83898305C0898107
:104E10009A8101969A83898389819A818436910542
:104E20000CF4AFCF8EE390E020E130E0FC01318361
:104E300020832A960FB6F894DEBF0FBECDBFDF9158
:104E4000CF910895CF93DF93CDB7DEB728970FB6F4
:104E5000F894DEBF0FBECDBF9E838D8378876F83AE
:104E60001A8219823DC0A8958CE390E0FC018081F4
:104E7000882F90E082709927892BB1F7F8948F8161
:104E80009885FC01208131818D819E81B9010E942C
:104E9000AB8978948CE390E0FC018081882F90E0CE
:104EA00082709927892BB1F7F8948D819E810E9499
:104EB00090899C838B8378948F819885FC012081D5
:104EC00031818B819C812817390729F485E690E090
:104ED0009A83898305C089819A8101969A838983FF
:104EE00089819A81843691050CF4BDCF8EE390E0E0
:104EF00020E130E0FC013183208328960FB6F8943E
:104F0000DEBF0FBECDBFDF91CF910895CF93DF936A
:104F1000CDB7DEB728970FB6F894DEBF0FBECDBF72
:104F20009E838D8378876F831A8219823DC0A895EE
:104F30008CE390E0FC018081882F90E082709927BB
:104F4000892BB1F7F8948D819E810E9490899C01F4
:104F50008F819885FC013183208378948CE390E0E5
:104F6000FC018081882F90E082709927892BB1F70E
:104F7000F8948D819E810E9490899C838B83789484
:104F80008F819885FC01208131818B819C8128173C
:104F9000390729F485E690E09A83898305C08981E1
:104FA0009A8101969A83898389819A8184369105B1
:104FB0000CF4BDCF8EE390E020E130E0FC013183C2
:104FC000208328960FB6F894DEBF0FBECDBFDF91C9
:104FD000CF910895CF93DF93CDB7DEB727970FB664
:104FE000F894DEBF0FBECDBF9D838C837F836E831D
:104FF0001A82198238C0A8958CE390E0FC01808168
:10500000882F90E082709927892BB1F7F8948E81D0
:105010009F81FC0120818C819D81622F0E94968955
:1050200078948CE390E0FC018081882F90E082707E
:105030009927892BB1F7F8948C819D810E948289F0
:105040008B8378948E819F81FC0190818B8198174E
:1050500029F485E690E09A83898305C089819A8145
:1050600001969A83898389819A81843691050CF40B
:10507000C2CF8EE390E020E130E0FC013183208359
:1050800027960FB6F894DEBF0FBECDBFDF91CF914C
:105090000895CF93DF93CDB7DEB727970FB6F89477
:1050A000DEBF0FBECDBF9D838C837F836E831A824C
:1050B000198238C0A8958CE390E0FC018081882F8C
:1050C00090E082709927892BB1F7F8948C819D81AB
:1050D0000E948289282F8E819F81FC0120837894F1
:1050E0008CE390E0FC018081882F90E0827099270A
:1050F000892BB1F7F8948C819D810E9482898B83E2
:1051000078948E819F81FC0190818B81981729F47E
:1051100085E690E09A83898305C089819A8101960A
:105120009A83898389819A81843691050CF4C2CF50
:105130008EE390E020E130E0FC013183208327966C
:105140000FB6F894DEBF0FBECDBFDF91CF910895AB
:10515000CF93DF93CDB7DEB78AE390E02AE330E068
:10516000F90120812160FC0120838AE390E02AE399
:1051700030E0F90120812D7FFC0120838BE390E05A
:105180002BE330E0F90120812260FC0120838AE3D7
:1051900090E02AE330E0F90120812B7FFC0120839D
:1051A0008BE390E02BE330E0F90120812460FC01E7
:1051B00020838AE390E02AE330E0F9012081277F11
:1051C000FC0120838BE390E02BE330E0F9012081A8
:1051D0002860FC0120838AE390E02AE330E0F901B3
:1051E00020812061FC0120838AE390E02AE330E003
:1051F000F90120812F7DFC0120838BE390E02BE3DC
:1052000030E0F90120812062FC01208387E390E0F7
:1052100027E330E0F90120812860FC01208387E347
:1052200090E027E330E0F90120812062FC01208337
:1052300087E390E027E330E0F90120812064FC015E
:10524000208387E390E027E330E0F90120812068A4
:10525000FC01208384E390E024E330E0F901208125
:105260002160FC01208384E390E024E330E0F90135
:1052700020812260FC01208384E390E024E330E07D
:10528000F90120812460FC01208384E390E024E381
:1052900030E0F90120812860FC01208381E390E067
:1052A00021E330E0F90120812B7FFC01208381E3A1
:1052B00090E021E330E0F90120812860FC012083A7
:1052C00081E390E021E330E0F90120812062FC01DC
:1052D000208381E390E021E330E0F9012081206424
:1052E000FC01208381E390E021E330E0F90120819B
:1052F0002068FC01208382E290E022E230E0F901A4
:1053000020812E7FFC01208382E290E022E230E0C7
:10531000F90120812260FC01208382E290E022E2F8
:1053200030E0F90120812860FC01208382E290E0D6
:1053300022E230E0F90120812061FC01208382E239
:1053400090E022E230E0F90120812062FC0120831C
:1053500081E690E021E630E0F90120812E7FFC011A
:10536000208381E690E021E630E0F90120812D7F65
:10537000FC01208381E690E021E630E0F901208104
:105380002B7FFC01208381E690E021E630E0F901EB
:105390002081277FFC01208381E690E021E630E038
:1053A000F90120812F7BFC01208381E690E021E63A
:1053B00030E0F90120812F77FC01208384E690E022
:1053C00024E630E0F90120812061FC012083DF9197
:1053D000CF910895CF93DF93CDB7DEB783E590E00B
:1053E0002CE0FC01208381E590E02CE7FC01208388
:1053F00086E590E026E530E0F90120812260FC019D
:10540000208386E590E026E530E0F90120812160E7
:10541000FC01208387E590E027E530E0F901208159
:105420002E7FFC01208387E590E027E530E0F9013D
:1054300020812260FC012083DF91CF910895CF93DA
:10544000DF93CDB7DEB784E08093E2041092E604E8
:105450001092E5041092E4041092E30483E290E0D9
:1054600023E230E0F9012081277FFC012083DF91D6
:10547000CF9108950F931F93CF93DF93CDB7DEB7EE
:10548000CA5AD1090FB6F894DEBF0FBECDBF9E0138
:1054900027553F4FF9018083CE0186559F4FFC0170
:1054A0006083CE0187559F4FFC0180818D83CE01A3
:1054B00087559F4FFC0110821A8219822BC08D8163
:1054C000882F90E0098002C0959587950A94E2F7AD
:1054D00081709927892BC9F023E030E089819A8176
:1054E000281B390B81E090E002C0880F991F2A9594
:1054F000E2F7282FCE0187559F4FFC018081282B92
:10550000CE0187559F4FFC01208389819A810196A6
:105510009A83898389819A8104978CF284E090E050
:105520009C838B832BC08D81882F90E00B8002C0E1
:10553000959587950A94E2F781709927892BC9F090
:105540002BE030E08B819C81281B390B81E090E0BF
:1055500002C0880F991F2A95E2F7282FCE018755A0
:105560009F4FFC018081282BCE0187559F4FFC0166
:1055700020838B819C8101969C838B838B819C8172
:1055800008978CF2CE0187559F4FFC018081829550
:105590008F708E83CE0187559F4FFC0180818F7065
:1055A0008F83CE0186559F4FFC018081882351F463
:1055B00082E390E022E330E0F90120812F7BFC01BF
:1055C000208309C082E390E022E330E0F9012081EA
:1055D0002064FC01208380E090E0A0E0BFE38987A5
:1055E0009A87AB87BC872BEA3AEA4AE250E469859E
:1055F0007A858B859C850E944583DC01CB018D8754
:105600009E87AF87B88B89859A85AB85BC859C01C1
:10561000AD01BC01CD010E947581DC01CB01898BFC
:105620009A8BAB8BBC8B20E030E040E85FE36D856C
:105630007E858F8598890E94E18188231CF481E012
:105640008D8BB2C020E03FEF4FE757E469897A893C
:105650008B899C890E94408318160CF07BC020E047
:1056600030E04AE754E469857A858B859C850E9401
:10567000E681DC01CB018E8B9F8BA88FB98F20E058
:1056800030E04AEF54E46E897F89888D998D0E94BD
:105690004583DC01CB018A8F9B8FAC8FBD8F20E0CF
:1056A00030E040E85FE36A8D7B8D8C8D9D8D0E949C
:1056B000E18188232CF481E090E09F8F8E8F3FC0A2
:1056C00020E03FEF4FE757E46A8D7B8D8C8D9D8DF9
:1056D0000E94408318164CF520E030E040E251E48F
:1056E0006E897F89888D998D0E944583DC01CB016D
:1056F000BC01CD010E945F82DC01CB019F8F8E8FA8
:105700000FC088EC90E099A388A388A199A1019784
:10571000F1F799A388A38E8D9F8D01979F8F8E8F10
:105720008E8D9F8D892B69F73FC06A8D7B8D8C8D07
:105730009D8D0E945F82DC01CB019F8F8E8F8E8DAD
:105740009F8D9BA38AA38AA19BA10197F1F79BA39D
:105750008AA32AC020E030E04FE753E46D857E85C0
:105760008F8598890E9440831816ACF469897A89DC
:105770008B899C890E945F82DC01CB019DA38CA355
:105780008CA19DA19FA38EA38EA19FA10197F1F74C
:105790009FA38EA30FC06D857E858F8598890E94FB
:1057A0005F82DC01CB018D8B8D8988A788A58A95C6
:1057B000F1F788A785E690E025E630E0F901208141
:1057C0002061FC01208385E390E0FC018081982F1B
:1057D000907F8E81892B888785E390E02885FC0166
:1057E000208380E090E0A0E8BFE389A79AA7ABA759
:1057F000BCA72BEA3AEA4AE250E469A57AA58BA550
:105800009CA50E944583DC01CB018DA79EA7AFA775
:10581000B8AB89A59AA5ABA5BCA59C01AD01BC01FF
:10582000CD010E947581DC01CB0189AB9AABABAB9A
:10583000BCAB20E030E040E85FE36DA57EA58FA51E
:1058400098A90E94E18188231CF481E08DABDEC021
:1058500020E03FEF4FE757E469A97AA98BA99CA9FB
:105860000E94408318160CF093C020E030E04AE715
:1058700054E469A57AA58BA59CA50E94E681DC016C
:10588000CB018EAB9FABA8AFB9AF20E030E04AEFC1
:1058900054E46EA97FA988AD99AD0E944583DC01CF
:1058A000CB018AAF9BAFACAFBDAF20E030E040E8AA
:1058B0005FE36AAD7BAD8CAD9DAD0E94E181882335
:1058C0002CF481E090E09FAF8EAF4BC020E03FEF23
:1058D0004FE757E46AAD7BAD8CAD9DAD0E94408330
:1058E0001816ACF520E030E040E251E46EA97FA943
:1058F00088AD99AD0E944583DC01CB01BC01CD018F
:105900000E945F82DC01CB019FAF8EAF1BC0CE0136
:10591000805C9F4F28EC30E0FC0131832083CE0176
:10592000805C9F4FFC01808191810197F1F79E017E
:10593000205C3F4FF901918380838EAD9FAD01972D
:105940009FAF8EAF8EAD9FAD892B09F75FC06AAD5B
:105950007BAD8CAD9DAD0E945F82DC01CB019FAF22
:105960008EAFCE018E5B9F4F2EAD3FADFC013183DC
:105970002083CE018E5B9F4FFC0180819181019736
:10598000F1F79E012E5B3F4FF901918380833EC06A
:1059900020E030E04FE753E46DA57EA58FA598A9E0
:1059A0000E94408318164CF58E010C5B1F4F69A9AD
:1059B0007AA98BA99CA90E945F82DC01CB01F80126
:1059C00091838083CE018A5B9F4F9E012C5B3F4F6A
:1059D000F90120813181FC0131832083CE018A5B72
:1059E0009F4FFC01808191810197F1F79E012A5B15
:1059F0003F4FF901918380831CC06DA57EA58FA5C3
:105A000098A90E945F82DC01CB018DABCE01885B3F
:105A10009F4F2DA9FC012083CE01885B9F4FFC0185
:105A20008081282F2A95F1F7CE01885B9F4FFC01DA
:105A3000208385E690E025E630E0F90120812F7E85
:105A4000FC0120839E01275B3F4F80E090E0A0E8AF
:105A5000BFE3F90180839183A283B3838E01035B4B
:105A60001F4FCE01875B9F4F2BEA3AEA4AE250E490
:105A7000FC0160817181828193810E944583DC01F8
:105A8000CB01F80180839183A283B3838E010F5AE7
:105A90001F4FCE01875B9F4FFC0180819181A281C6
:105AA000B3819C01AD01BC01CD010E947581DC0177
:105AB000CB01F80180839183A283B383CE01835B02
:105AC0009F4F20E030E040E85FE3FC01608171819E
:105AD000828193810E94E18188233CF4CE018B5A1C
