:100000000C9434000C94E5000C9446000C944600CB
:100010000C9446000C9446000C9446000C94460048
:100020000C9446000C9446000C9446000C94460038
:100030000C9446000C9446000C9446000C94460028
:100040000C9446000C9446000C9446000C94460018
:100050000C9446000C9446000C9446000C94460008
:100060000C9446000C94460011241FBECFEFD8E03C
:10007000DEBFCDBF21E0A0E0B1E001C01D92A931FB
:10008000B207E1F70E94C3000C9441010C941D01DA
:10009000CF932C988FEF0E943B01C82F8FEF0E94C7
:1000A0003B012C9A2C2F30E0322F2227A901482B1C
:1000B000CA01CF910895CF93C82F843010F087E004
:1000C00001C086E02C980E943B018C2F8295880FFE
:1000D000880F807C0E943B01C82F8FEF0E943B015C
:1000E0002C9ACF702C2F30E0322F2227A901482BD9
:1000F000CA01CF9108950C9427011092C50081E0A8
:100100008093C40082E08093C00088E18093C100A6
:1001100086E08093C20008959091C00095FFFCCFC7
:100120008093C60008958091C00087FFFCCF809126
:10013000C60008958FE190E02091C00027FF04C021
:100140002091C6000197C1F70895259A239A249813
:10015000259A2C98579A5F9A569A5E9A52985A986E
:10016000519A509A5A9A53985B98229826982798B1
:100170002A9A2E9A2F9A089582E08093690081E04E
:100180008DBB08950895F8940E94A50080E090E04A
:100190000E947D000E94BC000E947B002598F8947C
:1001A0000E949A0080E04E990BC0811108C0259AE8
:1001B0008CE20E948C008CE20E948C00789481E09A
:1001C0004F99F1CF2598F894EDCF1F920F920FB66B
:1001D0000F9211242F933F934F935F936F937F93CD
:1001E0008F939F93AF93BF93EF93FF930E94480029
:1001F0009093170180931601809116019091170139
:10020000892F0E948C0080911601909117010E9405
:100210008C008CE20E948C00FF91EF91BF91AF9116
:100220009F918F917F916F915F914F913F912F910E
:100230000F900FBE0F901F9018951F920F920FB640
:100240000F9211240F900FBE0F901F90189584B13C
:10025000806B84B92C9A249A2C9A8CB588658CBDB5
:100260008DB581608DBD08958CB58F7B8CBD84B1BB
:100270008F7584B908958EBD0DB407FEFDCF8EB580
:060280000895F894FFCF81
:00000001FF
