:100000000C9468040C9487040C9487040C94870463
:100010000C9487040C9487040C9487040C94870434
:100020000C9487040C9487040C9487040C94870424
:100030000C9487040C9487040C9487040C946A1F16
:100040000C9487040C9487040C9487040C94870404
:100050000C9487040C9487040C9487040C948704F4
:100060000C9487040C9487040C9487040C948704E4
:100070000C9487040C9487040C9487040C948704D4
:100080000C9487040C9487040C948704B022AC224F
:10009000FC22F92247234423E223DF2378244573FB
:1000A0007461646F2053616C696461733A2000006D
:1000B0003B20204C69626572616461733A200000E4
:1000C0003B20204163746976616461733A200000CB
:1000D00045737461646F20456E7472616461733A34
:1000E0002000000A0D00000A0D00000A0D0000208B
:1000F0002020202020202020202020202020200020
:10010000004E756D65726F20646520477275706F63
:10011000203D000043617267612076616C6F7265FB
:100120007320706F72206465666563746F000044AD
:1001300061746F73206F726967696E616C6573209B
:1001400079206465206261636B7570204552524F5F
:100150004E454F5300004461746F73206465206204
:1001600061636B7570204F4B00004461746F7320A6
:100170006F726967696E616C6573204552524F4EAC
:10018000454F5300004461746F73206465206261C1
:10019000636B7570204552524F4E454F53000044DB
:1001A00061746F73206F726967696E616C6573202B
:1001B0004F4B000056616C69646163696F6E204744
:1001C0005255504F5F50574D20282333293A000095
:1001D00056616C69646163696F6E20475255504F78
:1001E0005F41444320282332293A000056616C695C
:1001F000646163696F6E20475255504F5F414C41B7
:10020000524D415320282331293A000056616C6930
:10021000646163696F6E20475255504F5F5345527A
:10022000494520282330293A0000AC1C7A3FAC1CF9
:100230007A3FAC1C7A3FAC1C7A3FAC1C7A3FAC1CBA
:100240007A3FAC1C7A3FAC1C7A3FAC1C7A3FAC1CAA
:100250007A3FAC1C7A3FAC1C7A3FAC1C7A3FAC1C9A
:100260007A3FAC1C7A3FAC1C7A3FAC1C7A3FAC1C8A
:100270007A3FAC1C7A3F0000803F0000803F0000C6
:10028000803F0000803F0000803F0000803F000072
:10029000803F0000803FD578893FD578893F6666EA
:1002A000963F6666963F7B148E3F7B148E3F7B1491
:1002B0008E3F7B148E3F7B148E3F7B148E3F7B14CE
:1002C0008E3FE926813FE926813FE926813F48E1CB
:1002D0007A3F48E17A3F0000803F0000803F000005
:1002E000803F0000803F54E3853F54E3853F54E363
:1002F000853F54E3853F54E3853F54E3853F54E312
:10030000853F54E3853F54E3853F48E17A3F48E128
:100310007A3F48E17A3F48E17A3FE926513FE926B2
:10032000513F21B0823F21B0823F21B0823F21B0B6
:10033000823F21B0823F8B6C673F8B6C673F8B6C39
:10034000673F8B6C673F8B6C673F8B6C673F8B6C39
:10035000673F8B6C673F8B6C673F8B6C673F8B6C29
:10036000673F8B6C673F0000803F0000803F0000CC
:10037000803F0000803F0000803FDBF98E3FDBF9CB
:100380008E3FDBF98E3FDBF98E3FC520803FC520D5
:10039000803FC520803FC520803FC520803FE5D0FD
:1003A000D23FCFF7933FA01A8F3FA01A8F3FA01ADA
:1003B0008F3FA01A8F3F0000803F0000803F000069
:1003C000803F0000803F0000803F0000803F000031
:1003D000803F0000803F0000803FAAF1723FAAF1F9
:1003E000723FAAF1723FAAF1723FAAF1723F5839E7
:1003F000543F5839543F5839543F5839543F58396D
:10040000543F5839543F5839543F5839543F58395C
:10041000543F5839543F5839543F9318943F9318D8
:10042000943F9318943F9318943F8716893F8716FB
:10043000893F8716893F8716893F8716893F871628
:10044000893F8716893F0000803F0000803F000001
:10045000803F0000803F0000803F0000803F0000A0
:10046000803F1058793F1058793F1058793FFCA9C8
:10047000713FFCA9713FB072683FB072683FB072C3
:10048000683FB072683F4A0C623F4A0C623F4A0CB8
:10049000623F4A0C623FAAF1923FAAF1923FAAF151
:1004A000923FC74B873FC74B873FC74B873FC74BE1
:1004B000873FC74B873FC74B873F0000803F000007
:1004C000803F0000803F0000803F0000803F8B6C39
:1004D000473F8B6C473F8B6C473F8B6C473F8B6C28
:1004E000473F8B6C473F8B6C473F8B6C473F8B6C18
:1004F000473F8B6C473F8B6C473F8B6C473F8B6C08
:10050000473F8B6C473F8B6C473FE926313FD9CE45
:10051000573F0A0D00000A0D000076312E3300000F
:1005200053573A0000534E3A00000A0D547261745A
:10053000616D69656E746F206465204167756173D4
:100540002D46696C74726163696F6E0A0D436F6E3C
:1005500064756374696D6574726F20646520446F9F
:10056000732043616E616C65730A0D0000462E4A6C
:100570002E204C4C414D415320532E412E00003231
:10058000302D3235303043000032302D32353030AE
:10059000470000322D323030430000322D323030EF
:1005A000470000302D3230430000302D32304700FC
:1005B000004F46465345540000465545524120449D
:1005C000452052414E474F00000A0A0D5465726D96
:1005D000696E616C204C69737461210A0A0D000018
:1005E0004552524F520000454E4400004F4B000010
:1005F000424F525241444F0000444553434F4E4FE7
:100600004349444F0000504152414D4554524F0020
:1006100000434F4D414E444F000053494C454E431B
:1006200049415220414C41524D41000052414E47F8
:100630004F20434F4E442032000052414E474F203E
:10064000434F4E44203100004F464653455420430B
:100650004F4E44203200004F464653455420434FEE
:100660004E44203100004155544F43414C20434FEC
:100670004E44203200004155544F43414C20434FDB
:100680004E44203100004155544F43414C205057B7
:100690004D203200004155544F43414C2050574D9E
:1006A0002031000043414C20434F4E442032000093
:1006B00043414C20434F4E442031000043414C20E5
:1006C00050574D2032000043414C2050574D2031AF
:1006D0000000414C41524D4120320000414C4152FA
:1006E0004D41203100005449454D504F20414C416F
:1006F000524D41203200005449454D504F20414C4D
:1007000041524D412031000047414E414E43494145
:100710002050574D2032000047414E414E43494141
:100720002050574D2031000046494C54524F204331
:100730004F4E442032000046494C54524F20434F04
:100740004E442031000046494C54524F2050574DE2
:100750002032000046494C54524F2050574D203112
:10076000000053455249450000524553455400008E
:1007700043414C205245534554000050574D2052A0
:10078000455345540000414C41524D415320524580
:10079000534554000046414252494341205245537B
:1007A000455400005245494E4943494152000053C7
:1007B000414C4944415300004144430000454E54DC
:1007C000524144415300005052494E5420000049C8
:1007D0004E464F000000407A10F35A00A0724E18A7
:1007E000090010A5D4E80000E87648170000E40BE3
:1007F00054020000CA9A3B000000E1F505000080A9
:10080000969800000040420F000000A08601000002
:1008100000102700000000E8030000000064000052
:100820000000000A00000000000100000000002C91
:1008300076D888DC674F0823DFC1DFAE59E1B1B756
:1008400096E5E3E453C63AE651997696E8E6C28423
:1008500026EB898C9B62ED407C6FFCEFBC9C9F403B
:10086000F2BAA56FA5F490055A2AF75C936B6CF960
:10087000676DC11BFCE0E40D47FEF520E6B500D036
:10088000ED902E0300943577050080841E0800004B
:10089000204E0A000000C80C333333330F986E1219
:1008A000831141EF8D2114893BE65516CFFEE6DB1F
:1008B00018D1844B381BF77C1D901DA4BBE4242069
:1008C0003284725E228100C9F124ECA1E53D27004B
:1008D00011241FBECFEFD0E1DEBFCDBF12E0A0E0FC
:1008E000B1E0EEE7FDE900E00BBF02C007900D921A
:1008F000A639B107D9F726E0A6E9B2E001C01D92FA
:10090000AC3AB207E1F70E94261F0C94BD4E0C943E
:10091000F72183EA8FBD89E08EBD1BBC1ABC19BCD0
:1009200018BC81E080939C0208954F925F926F9271
:100930007F928F929F92AF92BF92CF92DF92EF926F
:10094000FF92CF93DF93CDB7DEB728970FB6F89419
:10095000DEBF0FBECDBF80919C02813021F082307E
:1009600009F42CC16CC280918E05813009F024C13C
:10097000E0906305F090640520918605309187052D
:100980004091880550918905B7010F2C000C880B08
:10099000990B2D833E834F8358870E9486472D8174
:1009A0003E814F8158850E946A4620E030E040E851
:1009B00051E40E943B484B015C018091720590918B
:1009C00073059701281B390BB901330F880B990B5D
:1009D0000E9486479B01AC01C501B4010E94DC4620
:1009E0009B01AC0160E070E080EA91E40E946A46FD
:1009F0006B017C0120E030E040E850E40E94D746E3
:100A000087FF05C080E090E0A0E8B0E417C020E0D8
:100A100030E040EA51E4C701B6010E94364818169A
:100A20004CF0C0929602D0929702E0929802F09217
:100A300099020CC080E090E0A0EAB1E480939602B5
:100A400090939702A0939802B093990240909602D7
:100A5000509097026090980270909902C09097060B
:100A6000D0909806E0909906F0909A06A70196011A
:100A7000C301B2010E946A464B015C016093A1026E
:100A80007093A2028093A3029093A402DC01CB0195
:100A9000BF7789839A83AB83BC832AE037ED43EA2F
:100AA0005CE3BC01CD010E94364818160CF082C0F0
:100AB0002DEC3CEC4CE45EE369817A818B819C8176
:100AC0000E94D74687FF0EC0A7019601C301B2015D
:100AD0000E9436481816E4F58AB59BB58F3F9340BF
:100AE000B8F54EC020E030E040E854E4C501B40160
:100AF0000E943B484B015C0160919A0270919B02FD
:100B000080E090E00E9484479B01AC01C501B401E4
:100B10000E943B4820E030E44CE956E40E94DC4669
:100B20000E94A8480E944E477093A00260939F02C3
:100B300061157105B1F4A7019601C301B2010E94CC
:100B4000364818162CF48AB59BB58F3F9340C0F0F9
:100B5000A7019601C301B2010E94D74687FF2AC0B0
:100B600020C01616170684F42AB53BB5260F371F8A
:100B70002F3F334078F08AB59BB58F3F9340D0F438
:100B80008AB59BB5019614C02AB53BB5260F371F11
:100B9000232B39F02AB53BB5620F731F7BBD6ABDAD
:100BA00009C08AB59BB5892B29F08AB59BB50197F9
:100BB0009BBD8ABD10928E0582E02AC180916F058F
:100BC000813009F024C1E0909F06F090A0062091AA
:100BD000690530916A0540916B0550916C05B7012C
:100BE0000F2C000C880B990B2D833E834F83588765
:100BF0000E9486472D813E814F8158850E946A461A
:100C000020E030E040E851E40E943B484B015C01A9
:100C100080918A0590918B059701281B390BB901AA
:100C2000330F880B990B0E9486479B01AC01C501CD
:100C3000B4010E94DC469B01AC0160E070E080EAF8
:100C400091E40E946A466B017C0120E030E040E8BC
:100C500050E40E94D74687FF05C080E090E0A0E8FE
:100C6000B0E417C020E030E040EA51E4C701B6012B
:100C70000E94364818164CF0C0929602D092970205
:100C8000E0929802F09299020CC080E090E0A0EA15
:100C9000B1E48093960290939702A0939802B09348
:100CA000990240909602509097026090980270903E
:100CB0009902C0909B06D0909C06E0909D06F09013
:100CC0009E06A7019601C301B2010E946A464B012C
:100CD0005C016093A1027093A2028093A30290939F
:100CE000A402DC01CB01BF7789839A83AB83BC83E9
:100CF0002AE037ED43EA5CE3BC01CD010E943648AF
:100D000018160CF082C02DEC3CEC4CE45EE36981DB
:100D10007A818B819C810E94D74687FF0EC0A701F4
:100D20009601C301B2010E9436481816E4F588B551
:100D300099B58F3F9340B8F54EC020E030E040E8D1
:100D400054E4C501B4010E943B484B015C01609131
:100D50009D0270919E0280E090E00E9484479B017A
:100D6000AC01C501B4010E943B4820E030E44CE9ED
:100D700056E40E94DC460E94A8480E944E477093A9
:100D8000A00260939F0261157105B1F4A70196015D
:100D9000C301B2010E94364818162CF488B599B5E3
:100DA0008F3F9340C0F0A7019601C301B2010E949A
:100DB000D74687FF2AC020C01616170684F428B528
:100DC00039B5260F371F2F3F334078F088B599B5D6
:100DD0008F3F9340D0F488B599B5019614C028B5DB
:100DE00039B5260F371F232B39F028B539B5620FD7
:100DF000731F79BD68BD09C088B599B5892B29F0E5
:100E000088B599B5019799BD88BD10926F0581E0AD
:100E100080939C0228960FB6F894DEBF0FBECDBF1C
:100E2000DF91CF91FF90EF90DF90CF90BF90AF9088
:100E30009F908F907F906F905F904F90089528962D
:100E40000FB6F894DEBF0FBECDBFDF91CF91FF90FC
:100E5000EF90DF90CF90BF90AF909F908F907F905A
:100E60006F905F904F900C9489041092900089E1EC
:100E700089B982E08BB988E18AB986E080939500D0
:100E800010927603089589EC90E05F9B03C02CB12B
:100E90000197D9F70895A89585E090E09093A60270
:100EA0008093A5025D9906C08091A5029091A6024B
:100EB000892BC1F72091A5023091A60281E0232B56
:100EC00009F080E00895CF93C0916F03CC2319F00F
:100ED000C13091F09EC05F9B04C080917603813049
:100EE00041F48091710390917203892B09F491C0B0
:100EF00092C0109275037CC0E0917503E1112AC085
:100F00005C9904C05B9902C05A9B03C00E944307CE
:100F100080C08CB18093A70220E335E7309374033F
:100F2000209373038A3011F08D3019F41092A702C8
:100F300038C00E944B07E0917503F0E0E955FD4F82
:100F400080818CB9809175038F5F80937503C09306
:100F50006F0363C05F990CC0809173039091740319
:100F6000892B09F05AC0F0E0E955FD4F108248C0C6
:100F7000E73C08F041C05C99C9CF5B99C7CF5A994B
:100F8000C5CFF0E08CB1E955FD4F808320E335E714
:100F900030937403209373038A3011F08D3069F419
:100FA00010820E944B078AE08CB90E944B078DE0AB
:100FB0008CB981E08093760325C00E944B07E091B5
:100FC0007503F0E0E955FD4FC081CCB9C83059F444
:100FD0000E944B0780E28CB90E944B07CCB98091EC
:100FE0007503815003C0809175038F5F80937503F3
:100FF00081E080936F0311C0E73C79F410926E0397
:10100000C093760380ED97E0909372038093710311
:1010100002C01092760310926F03CF910895EF9261
:10102000FF920F931F93CF93DF937C01A895EC0160
:101030008B01015011098881882359F0CE018E1946
:101040009F09801791072CF40E944B0789918CB956
:10105000F2CFDF91CF911F910F91FF90EF90089504
:10106000AF92BF92CF92DF92EF92FF920F931F93B6
:10107000CF93DF93CDB7DEB7ADB6BEB6A895E22E5F
:10108000F12CE40EF11CEDB7FEB7EE19FF090FB617
:10109000F894FEBF0FBEEDBF31966F018F010E9425
:1010A000F548B701C6010E940F080FB6F894BEBEFE
:1010B0000FBEADBEDF91CF911F910F91FF90EF90CA
:1010C000DF90CF90BF90AF9008950F931F93CF9371
:1010D000DF93A895EC01FE0184918E010F5F1F4FF5
:1010E000882339F00E944B07FE01C491CCB9E80176
:1010F000F2CFDF91CF911F910F910895A89585E0D0
:1011000090E09093A6028093A5025F9906C080911B
:10111000A5029091A602892BC1F72091A5023091DA
:10112000A60281E0232B09F080E00895CF92DF92A0
:10113000EF92FF920F931F93CF93DF936C018C017B
:1011400001501109C0E0D0E07B0181E0E81AF1080C
:10115000CE15DF0594F4F80191918F01992369F080
:101160009A3059F09D3049F00E947E08811105C0E7
:101170008CB1F80180832196EBCFCC0DDD1D188258
:10118000DF91CF911F910F91FF90EF90DF90CF9063
:10119000089580914304882319F08130C1F03AC04A
:1011A0008091A9048130D1F590914104911136C00C
:1011B00090919B0097FD32C0109244042CE330E0E4
:1011C0003093400420933F0480934304089580911A
:1011D0003F0490914004892BE9F090914404E92F59
:1011E000F0E0EB5BFB4F80818823A1F0933690F415
:1011F00090919B0095FF12C080939C0080914404C5
:101200008F5F809344048CE390E09093400480933C
:101210003F0408951092A904109243040895109277
:10122000980089E18093990082E080939B0088E197
:1012300080939A008EE080939D00959A10924204CC
:101240001092A904089585E690E020919B0027FF65
:1012500004C020919C000197C1F70895809141043A
:10126000882319F08130D9F073C080919B0087FFEB
:1012700004C080914204813051F48091AA0490917D
:10128000AB04892B09F068C0109242040895809144
:101290009B001092120581E0809341040895E09133
:1012A000120590919B00E1111AC094FD08C0909125
:1012B0009B0093FD04C090919B0092FF03C00E948D
:1012C000230946C090919C009093AC0428EC30E038
:1012D000309311052093100580931205089597FD12
:1012E0000BC02091100530911105232BA9F5F0E0DA
:1012F000E455FB4F108223C0E336E8F480919B0055
:1013000084FDDDCF80919B0083FDD9CF80919B0030
:1013100082FDD5CF80919C00AE2FB0E0A455BB4F8D
:101320008C9388EC90E09093110580931005EF5F0B
:10133000E09312050895E33679F410920F05809337
:10134000420484EF91E09093AB048093AA0402C01E
:1013500010924204109241040895109214051092C4
:10136000130510921E0510921D0510922105109272
:101370002205109223051092240510922005109248
:101380001F051D981C98109225050895CF92DF9295
:10139000EF92FF9280912505813009F443C020F03F
:1013A000823009F47FC09AC020E030E0A90160914A
:1013B00026057091270580912805909129050E94A6
:1013C000D746882301F1C0901305D09014052091D1
:1013D000150530911605E12CF12CA8EEB3E00E9422
:1013E0004746C616D706E806F90631F480911F0570
:1013F00090912005816010C0809113059091140593
:10140000892B29F00DC010921405109213058091BC
:101410001F05909120058E7F9093200580931F05D6
:1014200081E03DC020E030E0A90160911905709194
:101430001A0580911B0590911C050E94D7468823B0
:1014400001F1C0901D05D0901E0520912A05309114
:101450002B05E12CF12CA8EEB3E00E944746C616FE
:10146000D706E806F90631F480911F059091200512
:10147000826010C080911D0590911E05892B29F076
:101480000DC010921E0510921D0580911F059091B0
:1014900020058D7F9093200580931F0582E0809327
:1014A000250522C080911F0590912005009771F0BD
:1014B00080FF02C01D9A01C01D9880911F0581FF09
:1014C00002C01C9A01C01C9882E003C01D981C98A1
:1014D00081E080935E051092250506C0FF90EF9095
:1014E000DF90CF900C94AD09FF90EF90DF90CF90FC
:1014F000089510923A05109239051092380510920D
:10150000370510923D0510923C051092340510925B
:101510003305109236051092350510923B05109256
:101520003E05ECE2F5E011821082138212821582F0
:10153000148281E0809332050895CF92DF92EF927A
:10154000FF920F931F93CF93DF93809132058330E7
:1015500009F472C030F4813059F0823009F450C07F
:1015600087C1843009F472C08A3009F479C080C11F
:1015700010923A0510923905D898C99906C0809101
:10158000390590913A05816005C0809139059091A7
:101590003A058E7F90933A0580933905CA9906C023
:1015A0008091390590913A05826005C08091390596
:1015B00090913A058D7F90933A0580933905CB99A8
:1015C00006C08091390590913A05846005C08091EC
:1015D000390590913A058B7F90933A0580933905B0
:1015E00080913F0590914005892B41F410923D0573
:1015F00010923C05109234051092330582E02DC103
:1016000080913C0590913D0580FF10C02091170509
:1016100030911805A0E6BAEE0E9447466093210576
:1016200070932205809323059093240580913305C0
:101630009091340583E011C180913C0590913D0566
:10164000809133059091340584E007C180913C0579
:1016500090913D0580913305909134058AE0FDC05D
:1016600080913B05813009F0BFC080ED90E09F93F1
:101670008F938FE891E09F938F9387E793E09F93F9
:101680008F930E944249EC0189589C4F7C010F9036
:101690000F900F900F900F900F9000E010E0CC246F
:1016A000C394D12C80913705909138059601002E76
:1016B00002C0220F331F0A94E2F782239323892B5F
:1016C00019F060E471E002C062E471E0C7010E94B9
:1016D00033490F5F1F4F9FEFE91AF90A03301105D5
:1016E00009F7239680EC90E09F938F9380E991E037
:1016F0009F938F93CE0189589C4F9F938F930E9405
:101700004249C80FD91FCE0189589C4F7C010F90C8
:101710000F900F900F900F900F9000E010E0CC24EE
:10172000C394D12C80913C0590913D059601002EEB
:1017300002C0220F331F0A94E2F782239323892BDE
:1017400019F060E471E002C062E471E0C7010E9438
:1017500033490F5F1F4F9FEFE91AF90A0330110554
:1017600009F7239680EB90E09F938F9380E991E0B7
:101770009F938F93CE0189589C4F9F938F930E9484
:1017800042498C0F9D1FEC01C958DC4F0F900F9000
:101790000F900F900F900F9000E010E0EE24E39474
:1017A000F12C80913305909134059701002E02C0F1
:1017B000220F331F0A94E2F782239323892B19F017
:1017C00060E471E002C062E471E0CE010E9433493E
:1017D0000F5F1F4F21960330110519F768EC70E079
:1017E00087E793E00E940F0880913E058130A1F5C4
:1017F0008EE990E09F938F938FE891E09F938F9372
:1018000087E793E09F938F930E9442499C010F903A
:101810000F900F900F900F900F9089589C4FE901F7
:1018200021961D9B03C060E471E002C062E471E098
:101830000E943349CE0189589C4F1C9B03C060E431
:1018400071E002C062E471E00E94334968EC70E02C
:1018500087E793E00E940F0881E080933205DF91D3
:10186000CF911F910F91FF90EF90DF90CF9008954F
:10187000DF91CF911F910F91FF90EF90DF90CF906C
:101880000C94790ADC98DC98CD9936C080E00E94EF
:10189000431E8FEE90E09F938F9380E991E09F939A
:1018A0008F9385E495E09F938F930E94424960E077
:1018B00080E00E94141F85E495E00E94A21E61E072
:1018C00080E00E94141F85E495E00E94A21EC39A46
:1018D00088EE93E0909344058093430510925D0554
:1018E00010925C0581E080935A050F900F900F9045
:1018F0000F900F900F9002C010925A0510925B0546
:101900000895CF92DF92EF92FF920F931F93CF93A0
:10191000DF9380915B05813009F48AC020F082302A
:1019200009F479C16DC28091410590914205892BDE
:1019300009F070C28091A90481116DC06091860583
:1019400070918705809188059091890505E414E0E0
:1019500022E049EF0E94F548CBE3C0934C0460912C
:10196000690570916A0580916B0590916C050DE495
:1019700014E022E049EF0E94F548C0935404C1E10D
:10198000D0E001E010E080913705909138059E018C
:1019900021513109A80102C0440F551F2A95E2F7D1
:1019A0009A0128233923CE010197232B19F060E4F3
:1019B00071E002C062E471E08B5B9B4F0E9433498F
:1019C0002196C431D105F9F68BE3809358041D9B11
:1019D00003C060E471E002C062E471E089E594E074
:1019E0000E9433491C9B03C060E471E002C062E4C2
:1019F00071E08AE594E00E9433498BE380935B04B5
:101A00008AE080935C048DE080935D0410925E0414
:101A100081E08093A90480915A05813011F480936C
:101A20005B0584E690E09093420580934105F2C106
:101A300080911F0580FF1BC080915C0590915D0522
:101A4000892BA9F08FEE90E09F938F9380E991E02E
:101A50009F938F9385E495E09F938F930E944249D3
:101A60000F900F900F900F900F900F90C8C0609143
:101A70008F0570919005809191059091920520E0DD
:101A800030E04FE754E40E94364818161CF464E432
:101A900071E015C060918F0570919005809191055E
:101AA0009091920520E030E040E050E40E94D7465B
:101AB00087FF03C06AE471E002C061EB71E085E476
:101AC00095E00E943349C0908605D0908705E0904C
:101AD0008805F09089056091720570917305072E55
:101AE000000C880B990B0E9486478B01D82FC92FB9
:101AF0009B01482F592FC701B6010E94D74687FF87
:101B000003C06AE471E018C06091630570916405D8
:101B1000072E000C880B990B0E9486478B01D82F4B
:101B2000C92F9B01482F592FC701B6010E94364883
:101B300018164CF464E471E085E495E00E943349A2
:101B40006801ED2EFC2E809165059091660581302F
:101B5000910549F09C01235031092230310518F0DC
:101B600086309105B9F42DEC3CEC4CEC5DE3C701FB
:101B7000B6010E94D74687FF09C061EB71E085E49A
:101B800095E00E943349C12CD12C76010AE415E07E
:101B900021E01BC08230910511F0059751F52AE034
:101BA00037ED43E25CE3C701B6010E94D74687FFE9
:101BB00009C061EB71E085E495E00E943349C12CD6
:101BC000D12C76010AE415E022E046E0C701B60117
:101BD0000E94F54880E591E09F938F9380E595E022
:101BE0009F938F930E9442490F900F900F900F90F8
:101BF00006C068E571E085E495E00E94334960E045
:101C000080E00E94141F85E495E00E94A21E82E0FD
:101C100080935B05FFC080911F0581FF1BC08091F1
:101C20005C0590915D05892BA9F08FEE90E09F9364
:101C30008F9380E991E09F938F9385E495E09F9344
:101C40008F930E9442490F900F900F900F900F902A
:101C50000F90C8C06091930670919406809195068C
:101C60009091960620E030E04FE754E40E94364819
:101C700018161CF469E671E015C060919306709126
:101C80009406809195069091960620E030E040E021
:101C900050E40E94D74687FF03C06FE671E002C0A0
:101CA00063EC71E085E495E00E943349C0906905DA
:101CB000D0906A05E0906B05F0906C0560918A0504
:101CC00070918B05072E000C880B990B0E9486479C
:101CD0008B01D82FC92F9B01482F592FC701B6015F
:101CE0000E94D74687FF03C06FE671E018C060917D
:101CF0009F067091A006072E000C880B990B0E947E
:101D000086478B01D82FC92F9B01482F592FC70118
:101D1000B6010E94364818164CF469E671E085E475
:101D200095E00E9433496801ED2EFC2E8091A106BA
:101D30009091A2068130910549F09C012350310910
:101D40002230310518F086309105B9F42DEC3CECC9
:101D50004CEC5DE3C701B6010E94D74687FF09C07E
:101D600063EC71E085E495E00E943349C12CD12CED
:101D700076010AE415E021E01BC08230910511F0E4
:101D8000059751F52AE037ED43E25CE3C701B60160
:101D90000E94D74687FF09C063EC71E085E495E0B7
:101DA0000E943349C12CD12C76010AE415E022E0CF
:101DB00046E0C701B6010E94F54880E591E09F9397
:101DC0008F9380E595E09F938F930E9442490F90F7
:101DD0000F900F900F9006C065E771E085E495E0E5
:101DE0000E94334961E080E00E94141F85E495E081
:101DF0000E94A21E81E080935A0510925B050AC0E2
:101E0000DF91CF911F910F91FF90EF90DF90CF90D6
:101E10000C94420CDF91CF911F910F91FF90EF90A6
:101E2000DF90CF900895CF93DF9380915A05813052
:101E300009F05EC08BEE90E00E9465088DE695E0AB
:101E40009F938F9380E991E09F938F93C5E4D5E0B2
:101E5000DF93CF930E94424960E080E00E94141F0C
:101E6000CE010E94A21E87EE90E00E94650865E107
:101E700070E0CE010E940F088AE195E09F938F9356
:101E800080E295E09F938F9383EA96E09F938F93F0
:101E900085E295E09F938F9380E592E09F938F93E7
:101EA000DF93CF930E94424961E080E00E94141FBB
:101EB000CE010E94A21E83EE90E00E94650865E1BB
:101EC00070E0CE010E940F0888EB9BE090934205E2
:101ED000809341058DB79EB742960FB6F8949EBF8A
:101EE0000FBE8DBF8091410590914205892BD1F79E
:101EF000DF91CF910895A895FC01408151816281C5
:101F00007381872FBB2787FDB0959B2FAB2F992718
:101F1000860F911D9A013327820F931F452F562F4D
:101F2000672F772767FD7A955527840F951F0895AA
:101F3000A895FC0140818181282F30E0C901840FE0
:101F4000911D0895A895FC0180819181992708959C
:101F5000EF92FF920F931F93CF93DF938C017B013E
:101F6000C4E6D0E0A895E199FECFF894F70140814E
:101F7000518162817381C8010E94A04E7894E199D9
:101F8000FECFF894C8010E94874E7894F701208113
:101F90003181428153810E94D746882311F02197D5
:101FA00009F780E090E09FBB8EBBDF91CF911F913E
:101FB0000F91FF90EF900895EF92FF920F931F9370
:101FC000CF93DF938C017B01C4E6D0E0A895E19923
:101FD000FECFF894C8010E94874EF7016083718399
:101FE000828393837894E199FECFF894C8010E948C
:101FF000874E9B01AC017894F701608171818281E9
:1020000093810E94D746882311F02197F9F680E04A
:1020100090E09FBB8EBBDF91CF911F910F91FF90FE
:10202000EF900895EF92FF920F931F93CF93DF935A
:102030008C017B01C4E6D0E0A895E199FECFF8942D
:10204000F70160817181C8010E94A84E7894E199DE
:10205000FECFF894C8010E948D4E7894F70120813C
:1020600031818217930711F0219731F780E090E0DA
:102070009FBB8EBBDF91CF911F910F91FF90EF908F
:102080000895CF93DF9300D0CDB7DEB78130D9F577
:1020900086E295E00E947B0F9A83898385E195E033
:1020A0000E94980F29813A81820F931F9A83898316
:1020B00089E195E00E947B0F29813A81820F931F6D
:1020C0009A8389838AE295E00E94980F29813A8158
:1020D000820F931F9A83898387E195E00E94980F6E
:1020E00029813A81820F931F9A838983BE016F5F92
:1020F0007F4F8CE690E00E941210BE016F5F7F4F11
:102100008CE590E0A2C0823009F081C080E795E0C4
:102110000E94980F9A8389838EE795E00E947B0F37
:1021200029813A81820F931F9A8389838CE895E0F5
:102130000E94980F29813A81820F931F9A83898385
:1021400083E196E00E947B0F29813A81820F931FE1
:102150009A83898385E695E00E94980F29813A81C8
:10216000820F931F9A83898384E795E00E94980FDA
:1021700029813A81820F931F9A83898382E895E0AF
:102180000E947B0F29813A81820F931F9A83898352
:1021900086E795E00E947B0F29813A81820F931F89
:1021A0009A83898381EA96E00E94980F29813A8177
:1021B000820F931F9A8389838DE695E00E94980F82
:1021C00029813A81820F931F9A8389838FE096E059
:1021D0000E947B0F29813A81820F931F9A83898302
:1021E0008AE795E00E947B0F29813A81820F931F35
:1021F0009A838983BE016F5F7F4F86E390E00E94E0
:102200001210BE016F5F7F4F80E190E01EC08330EF
:10221000F1F48AE992E00E94980F9A8389838DE90C
:1022200092E00E94980F29813A81820F931F9A832E
:102230008983BE016F5F7F4F8AE090E00E94121099
:10224000BE016F5F7F4F84E090E00E9412100F90FC
:102250000F90DF91CF910895CF93DF9300D0CDB74A
:10226000DEB781111EC0E3EAF6E080E090E0A895B9
:102270002081820F911D319626E0E93AF207B9F7E5
:102280009A838983BE016F5F7F4F84E890E00E944C
:102290001210BE016F5F7F4F8CE790E00E9412101A
:1022A00002C00E9441100F900F90DF91CF910895CE
:1022B000EF92FF920F931F93CF93DF938C017B01DB
:1022C000C4E6D0E0A895E199FECFF894C8010E9439
:1022D0008D4EF701918380837894E199FECFF89435
:1022E000C8010E948D4E7894F70120813181281712
:1022F000390711F0219731F780E090E09FBB8EBB4A
:10230000DF91CF911F910F91FF90EF900895EF9281
:10231000FF920F931F93CF93DF938C017B01C4E651
:10232000D0E0A895E199FECFF894F7016081C8014B
:102330000E94934E7894E199FECFF894C8010E94D0
:102340007F4E7894F7019081891711F0219749F712
:1023500080E090E09FBB8EBBDF91CF911F910F91EA
:10236000FF90EF9008950F931F93CF93DF93EC01AD
:10237000009771F51092A3061092A4061092A5067C
:102380001092A6061092A7061092A80600E010E090
:10239000B8016D55794FC8018A579F4F0E94871128
:1023A0000F5F1F4F0630110599F700E010E0B801EC
:1023B0006D55794FC80182589F4F0E9487110F5F5A
:1023C0001F4F0630110599F780E00E942C115EC165
:1023D0008130910521F08430910509F083C110927C
:1023E00026051092270510922805109229058EE1E6
:1023F00090E09093160580931505109219051092A0
:102400001A0510921B0510921C0590932B058093C2
:102410002A058CE390E0909318058093170566E2F7
:1024200075E088E790E00E94A80F65E175E086E717
:1024300090E00E94121069E175E082E790E00E944E
:10244000A80F6AE275E080E790E00E94121067E151
:1024500075E08EE690E00E94121066E275E088E674
:1024600090E00E94A80F65E175E086E690E00E948A
:10247000121069E175E082E690E00E94A80F6AE21E
:1024800075E080E690E00E94121067E175E08EE54D
:1024900090E00E94121081E00E944110C230D105EC
:1024A00009F0F0C024E630E0309371052093700508
:1024B0008DEC9CECACE4B2E480937E0590937F05B8
:1024C000A0938005B093810530938D0520938C05F2
:1024D0008093130690931406A0931506B0931606E6
:1024E00081E090E0909366058093650584EF91E02C
:1024F00090937505809374054CE952EA6BE070E4A3
:1025000040938205509383056093840570938505FD
:102510001092760510927705109278051092790541
:1025200022E030E03093A2062093A10690936E053E
:1025300080936D058DE495E1ACE8BCE380930F06D4
:1025400090931006A0931106B093120610927A058C
:1025500010927B0510927C0510927D0560E775E076
:102560008AE590E00E9412106EE775E086E590E043
:102570000E94A80F6CE875E084E590E00E941210BC
:1025800063E176E080E590E00E94A80F65E675E0E3
:102590008EE490E00E94121064E775E08CE490E015
:1025A0000E94121062E875E088E490E00E94A80F93
:1025B00066E775E084E490E00E94A80F61EA76E0A7
:1025C00082E490E00E9412106DE675E080E490E0F5
:1025D0000E9412106FE076E08CE390E00E94A80F5A
:1025E0006AE775E088E390E00E94A80F60E775E075
:1025F00084E390E00E9412106EE775E080E390E0C3
:102600000E94A80F6CE875E08EE290E00E94121024
:1026100063E176E08AE290E00E94A80F65E675E04B
:1026200088E290E00E94121064E775E086E290E094
:102630000E94121062E875E082E290E00E94A80F0A
:1026400066E775E08EE190E00E94A80F61EA76E00F
:102650008CE190E00E9412106DE675E08AE190E056
:102660000E9412106FE076E086E190E00E94A80FD1
:102670006AE775E082E190E00E94A80F82E00E9484
:10268000411004C0C430D10509F40CCF2397229720
:1026900060F588EC90E090939B0280939A0290936F
:1026A0009E0280939D026AE972E08EE090E00E94B3
:1026B00012106DE972E08CE090E00E9412106AE95D
:1026C00072E088E090E00E9412106DE972E086E00E
:1026D00090E00E94121083E0DF91CF911F910F9143
:1026E0000C944110029791F6DDCEDF91CF911F91AE
:1026F0000F910895EF92FF920F931F93CF93DF9363
:102700008C017B01C4E6D0E0A895E199FECFF89456
:10271000C8010E947F4EF70180837894E199FECF33
:10272000F894C8010E947F4E7894F7019081981721
:1027300011F0219749F780E090E09FBB8EBBDF91BD
:10274000CF911F910F91FF90EF9008952F923F929C
:102750004F925F926F927F928F929F92AF92BF92B1
:10276000CF92DF92EF92FF920F931F93CF93DF935D
:10277000CDB7DEB728970FB6F894DEBF0FBECDBF3A
:1027800000E010E047E7E42E43E0F42E5EE8A52EDB
:1027900051E0B52E65E8262E61E0362E1F930F938B
:1027A000ACE0B2E0BF93AF93A6E8B1E0BF93AF93C4
:1027B000FF92EF920E94424968EC70E087E793E055
:1027C0000E940F080F5F1F4F18861F8226E8822E77
:1027D00020E0922E33EAC32E36E0D32E0FB6F894C3
:1027E000DEBF0FBECDBF36012401B301C2010E947E
:1027F0007A13A895D3012C918F819885820F911D12
:1028000098878F83BFEF4B1A5B0AEFEF6E1A7E0A31
:10281000F9EA6F16F6E07F0641F7BE016B5F7F4F66
:1028200084E890E00E9458111C821B828EE7482E9B
:1028300080E0582E93EA692E96E0792EB301C2010A
:102840000E947A13A895D3012C918B819C81820FD1
:10285000911D9C838B83BFEF4B1A5B0AEFEF6E1ABF
:102860007E0AF9EA6F16F6E07F0641F7BE016F5F58
:102870007F4F84E890E00E9458116F8178854D81E8
:102880005E812B813C8189819A816417750709F0EB
:10289000A9C02817390709F044C08FE991E09F9338
:1028A0008F931EE8E12E11E0F12EFF92EF9207E7E1
:1028B00013E01F930F930E94424968EC70E0C80137
:1028C0000E940F0886E591E09F938F93FF92EF920D
:1028D0001F930F930E94424968EC70E0C8010E9468
:1028E0000F080FB6F894DEBF0FBECDBFE12CF12C60
:1028F0006CEE262E61E0362E76E8472E71E0572EDC
:10290000E7E7CE2EE3E0DE2EFFE96F2EF1E07F2E2B
:10291000AEE8AA2EA1E0BA2EB5E88B2EB1E09B2E30
:10292000DCC0AFE9B1E0BF93AF93BF92AF92FF922B
:10293000EF920E94424968EC70E087E793E00E94C2
:102940000F083F922F92BF92AF92FF92EF920E9498
:10295000424968EC70E087E793E00E940F08188610
:102960001F820FB6F894DEBF0FBECDBFB601C40103
:102970000E947A13A895D6012C918F819885820F99
:10298000911D98878F83BFEF8B1A9B0AEFEFCE1AAA
:10299000DE0AF9EACF16F6E0DF0641F7BE016B5F0B
:1029A0007F4F84E890E00E9458112F8138858D81F7
:1029B0009E812817390709F086C000E010E0B801B1
:1029C0006D55794FC80182589F4F0E9487110F5F44
:1029D0001F4F0630110599F7BE01695F7F4F8CE7E5
:1029E00090E041C02817390709F040C08AE691E01D
:1029F0009F938F935EE8E52E51E0F52EFF92EF92C4
:102A000007E713E01F930F930E94424968EC70E0C0
:102A1000C8010E940F0886E591E09F938F93FF9273
:102A2000EF921F930F930E94424968EC70E0C80137
:102A30000E940F080FB6F894DEBF0FBECDBF00E0B6
:102A400010E0B8016D55794FC8018A579F4F0E9419
:102A500087110F5F1F4F0630110599F7BE016D5F9B
:102A60007F4F84E890E00E94121040CF0A30110599
:102A700009F094CE8AE691E09F938F934EE8E42E7E
:102A800041E0F42EFF92EF9207E713E01F930F93BC
:102A90000E94424968EC70E0C8010E940F0885E876
:102AA00091E09F938F93FF92EF921F930F930E9459
:102AB000424968EC70E0C8010E940F0880E090E095
:102AC0000E94B3110ECF0A30110509F067CE0ECF68
:102AD0009AE0E916F10409F4F6C0FF92EF923F92F2
:102AE0002F925F924F9207E713E0DF92CF920E94FE
:102AF000424968EC70E0C8010E940F08BFEFEB1A72
:102B0000FB0A66E275E088E790E00E94DC0F86E24F
:102B100095E00E947B0F98878F8365E175E086E7DB
:102B200090E00E94581185E195E00E94980F2F8156
:102B30003885820F931F98878F8369E175E082E75C
:102B400090E00E94DC0F89E195E00E947B0F2F81CD
:102B50003885820F931F98878F836AE275E080E73C
:102B600090E00E9458118AE295E00E94980F2F8110
:102B70003885820F931F98878F8367E175E08EE613
:102B800090E00E94581187E195E00E94980F2F81F4
:102B90003885820F931F98878F83BE016B5F7F4FAD
:102BA0008CE690E00E94581166E275E088E690E0BD
:102BB0000E94DC0F86E295E00E947B0F9C838B8352
:102BC00065E175E086E690E00E94581185E195E0A8
:102BD0000E94980F2B813C81820F931F9C838B83D3
:102BE00069E175E082E690E00E94DC0F89E195E002
:102BF0000E947B0F2B813C81820F931F9C838B83D0
:102C00006AE275E080E690E00E9458118AE295E061
:102C10000E94980F2B813C81820F931F9C838B8392
:102C200067E175E08EE590E00E94581187E195E03C
:102C30000E94980F2B813C81820F931F9C838B8372
:102C4000BE016F5F7F4F8CE590E00E9458110FB678
:102C5000F894DEBF0FBECDBF6F8178854D815E8158
:102C60002B813C8189819A816417750709F0E8C03E
:102C70002817390709F042C08FE991E09F938F939D
:102C80003EE8E32E31E0F32EFF92EF921F930F9375
:102C90000E94424968EC70E0C8010E940F0886E576
:102CA00091E09F938F93FF92EF921F930F930E9457
:102CB000424968EC70E0C8010E940F080FB6F89412
:102CC000DEBF0FBECDBFE12CF12CB0ED2B2EB1E05D
:102CD0003B2E16E8412E11E0512E07E7C02E03E0EF
:102CE000D02E8FE9682E81E0782E9EE8A92E91E003
:102CF000B92E25E8822E21E0922E23C17F926F9279
:102D0000BF92AF92DF92CF920E94424968EC70E08E
:102D100087E793E00E940F089F928F92BF92AF9235
:102D2000DF92CF920E94424968EC70E087E793E01F
:102D30000E940F0866E275E088E790E00E94DC0FD1
:102D400086E295E00E947B0F98878F8365E175E0AE
:102D500086E790E00E94581185E195E00E94980F67
:102D60002F813885820F931F98878F8369E175E0E3
:102D700082E790E00E94DC0F89E195E00E947B0FE2
:102D80002F813885820F931F98878F836AE275E0C1
:102D900080E790E00E9458118AE295E00E94980F27
:102DA0002F813885820F931F98878F8367E175E0A5
:102DB0008EE690E00E94581187E195E00E94980FFE
:102DC0002F813885820F931F98878F83BE016B5F99
:102DD0007F4F8CE690E00E9458110FB6F894DEBF4A
:102DE0000FBECDBF2F8138858D819E812817390771
:102DF00009F06ECE66E275E088E690E00E94A80FCA
:102E000065E175E086E690E00E94121069E175E0E8
:102E100082E690E00E94A80F6AE275E080E690E00A
:102E20000E94121067E175E08EE590E00E9412109A
:102E3000BE01695F7F4F8CE590E00E94121043CF86
:102E40002817390709F04AC08AE691E09F938F93CB
:102E5000AEE8EA2EA1E0FA2EFF92EF921F930F93B5
:102E60000E94424968EC70E087E793E00E940F08F7
:102E700086E591E09F938F93FF92EF921F930F93BC
:102E80000E94424968EC70E087E793E00E940F08D7
:102E900066E275E088E790E00E94A80F65E175E0C2
:102EA00086E790E00E94121069E175E082E790E009
:102EB0000E94A80F6AE275E080E790E00E9412107D
:102EC00067E175E08EE690E00E941210BE016D5F32
:102ED0007F4F8CE690E00E941210F0CEFAE0EF16E1
:102EE000F10409F0FACD8AE691E09F938F93FEE812
:102EF000EF2EF1E0FF2EFF92EF921F930F930E94AF
:102F0000424968EC70E087E793E00E940F0885E88B
:102F100091E09F938F93FF92EF921F930F930E94E4
:102F2000424968EC70E087E793E00E940F0881E077
:102F300090E00E94B311C2CE9AE0E916F10409F4C0
:102F4000D6C1FF92EF923F922F925F924F9207E786
:102F500013E0DF92CF920E94424968EC70E0C80112
:102F60000E940F08AFEFEA1AFA0A60E775E08AE5F7
:102F700090E00E94581180E795E00E94980F988792
:102F80008F836EE775E086E590E00E94DC0F8EE7A8
:102F900095E00E947B0F2F813885820F931F9887C1
:102FA0008F836CE875E084E590E00E9458118CE80E
:102FB00095E00E94980F2F813885820F931F988784
:102FC0008F8363E176E080E590E00E94DC0F83E18F
:102FD00096E00E947B0F2F813885820F931F988780
:102FE0008F8365E675E08EE490E00E94581185E6D7
:102FF00095E00E94980F2F813885820F931F988744
:103000008F8364E775E08CE490E00E94581184E7B8
:1030100095E00E94980F2F813885820F931F988723
:103020008F8362E875E088E490E00E94DC0F82E81C
:1030300095E00E947B0F2F813885820F931F988720
:103040008F8366E775E084E490E00E94DC0F86E7FA
:1030500095E00E947B0F2F813885820F931F988700
:103060008F8361EA76E082E490E00E94581181EA61
:1030700096E00E94980F2F813885820F931F9887C2
:103080008F836DE675E080E490E00E9458118DE634
:1030900095E00E94980F2F813885820F931F9887A3
:1030A0008F836FE076E08CE390E00E94DC0F8FE08E
:1030B00096E00E947B0F2F813885820F931F98879F
:1030C0008F836AE775E088E390E00E94DC0F8AE76F
:1030D00095E00E947B0F2F813885820F931F988780
:1030E0008F83BE016B5F7F4F86E390E00E94581193
:1030F00060E775E084E390E00E94581180E795E076
:103100000E94980F9C838B836EE775E080E390E0CC
:103110000E94DC0F8EE795E00E947B0F2B813C81A3
:10312000820F931F9C838B836CE875E08EE290E0A6
:103130000E9458118CE895E00E94980F2B813C81E9
:10314000820F931F9C838B8363E176E08AE290E099
:103150000E94DC0F83E196E00E947B0F2B813C8173
:10316000820F931F9C838B8365E675E088E290E075
:103170000E94581185E695E00E94980F2B813C81B2
:10318000820F931F9C838B8364E775E086E290E057
:103190000E94581184E795E00E94980F2B813C8192
:1031A000820F931F9C838B8362E875E082E290E03C
:1031B0000E94DC0F82E895E00E947B0F2B813C810E
:1031C000820F931F9C838B8366E775E08EE190E00E
:1031D0000E94DC0F86E795E00E947B0F2B813C81EB
:1031E000820F931F9C838B8361EA76E08CE190E0F1
:1031F0000E94581181EA96E00E94980F2B813C8131
:10320000820F931F9C838B836DE675E08AE190E0CB
:103210000E9458118DE695E00E94980F2B813C8109
:10322000820F931F9C838B836FE076E086E190E0B2
:103230000E94DC0F8FE096E00E947B0F2B813C8187
:10324000820F931F9C838B836AE775E082E190E095
:103250000E94DC0F8AE795E00E947B0F2B813C8166
:10326000820F931F9C838B83BE016F5F7F4F80E132
:1032700090E00E9458110FB6F894DEBF0FBECDBF8C
:103280006F8178854D815E812B813C8189819A8116
:103290006417750709F080C12817390709F040C085
:1032A0008FE991E09F938F93EEE8EE2EE1E0FE2E02
:1032B000FF92EF921F930F930E94424968EC70E0D7
:1032C000C8010E940F0886E591E09F938F93FF92BB
:1032D000EF921F930F930E94424968EC70E0C8017F
:1032E0000E940F080FB6F894DEBF0FBECDBFA12C11
:1032F000B12C36E8232E31E0332E07E713E04AE6FF
:10330000442E41E0542E5EE8E52E51E0F52E65E8AE
:10331000862E61E0962E7FE9672E71E0772E0CC233
:103320007F926F92BF92AF92DF92CF920E944249FA
:1033300068EC70E087E793E00E940F089F928F92FD
:10334000BF92AF92DF92CF920E94424968EC70E048
:1033500087E793E00E940F0860E775E08AE590E058
:103360000E94581180E795E00E94980F98878F83FC
:103370006EE775E086E590E00E94DC0F8EE795E051
:103380000E947B0F2F813885820F931F98878F8330
:103390006CE875E084E590E00E9458118CE895E0B7
:1033A0000E94980F2F813885820F931F98878F83F3
:1033B00063E176E080E590E00E94DC0F83E196E037
:1033C0000E947B0F2F813885820F931F98878F83F0
:1033D00065E675E08EE490E00E94581185E695E080
:1033E0000E94980F2F813885820F931F98878F83B3
:1033F00064E775E08CE490E00E94581184E795E062
:103400000E94980F2F813885820F931F98878F8392
:1034100062E875E088E490E00E94DC0F82E895E0C5
:103420000E947B0F2F813885820F931F98878F838F
:1034300066E775E084E490E00E94DC0F86E795E0A3
:103440000E947B0F2F813885820F931F98878F836F
:1034500061EA76E082E490E00E94581181EA96E009
:103460000E94980F2F813885820F931F98878F8332
:103470006DE675E080E490E00E9458118DE695E0DD
:103480000E94980F2F813885820F931F98878F8312
:103490006FE076E08CE390E00E94DC0F8FE096E036
:1034A0000E947B0F2F813885820F931F98878F830F
:1034B0006AE775E088E390E00E94DC0F8AE795E018
:1034C0000E947B0F2F813885820F931F98878F83EF
:1034D000BE016B5F7F4F86E390E00E9458110FB6EC
:1034E000F894DEBF0FBECDBF2F8138858D819E81C0
:1034F0002817390709F020CD60E775E084E390E0F4
:103500000E9412106EE775E080E390E00E94A80F21
:103510006CE875E08EE290E00E94121063E176E0C4
:103520008AE290E00E94A80F65E675E088E290E0EC
:103530000E94121064E775E086E290E00E9412108B
:1035400062E875E082E290E00E94A80F66E775E00D
:103550008EE190E00E94A80F61EA76E08CE190E0B5
:103560000E9412106DE675E08AE190E00E94121050
:103570006FE076E086E190E00E94A80F6AE775E0D0
:1035800082E190E00E94A80FBE01695F7F4F80E159
:1035900090E00E941210ABCE2817390709F074C0D2
:1035A0008AE691E09F938F932EE8E22E21E0F22E9F
:1035B000FF92EF921F930F930E94424968EC70E0D4
:1035C00087E793E00E940F0886E591E09F938F9331
:1035D000FF92EF921F930F930E94424968EC70E0B4
:1035E00087E793E00E940F0860E775E08AE590E0C6
:1035F0000E9412106EE775E086E590E00E94A80F29
:103600006CE875E084E590E00E94121063E176E0DA
:1036100080E590E00E94A80F65E675E08EE490E0FA
:103620000E94121064E775E08CE490E00E94121092
:1036300062E875E088E490E00E94A80F66E775E014
:1036400084E490E00E94A80F61EA76E082E490E0D2
:103650000E9412106DE675E080E490E00E94121066
:103660006FE076E08CE390E00E94A80F6AE775E0D7
:1036700088E390E00E94A80FBE016D5F7F4F86E354
:1036800090E00E9412102ECEFAE0EF16F10409F03D
:1036900058CC8AE691E09F938F939EE8E92E91E0C3
:1036A000F92EFF92EF921F930F930E94424968EC0C
:1036B00070E087E793E00E940F0885E891E09F9310
:1036C0008F93FF92EF921F930F930E94424968ECF1
:1036D00070E087E793E00E940F0882E090E00E948C
:1036E000B31100CE9AE0A916B10409F057C15F9258
:1036F0004F92FF92EF921F930F930E94424968EC02
:1037000070E087E793E00E940F089F928F92FF92EC
:10371000EF921F930F930E94424968EC70E087E795
:1037200093E00E940F0883E090E00E94B3110FB66F
:10373000F894DEBF0FBECDBFBF92AF92A4EBB1E055
:10374000BF93AF933F922F9287E7C82E83E0D82E86
:103750001F930F930E94424968EC70E0C6010E94DB
:103760000F08FFEFAF1ABF0A6AE972E08EE090E03F
:103770000E9458118AE992E00E94980F98878F83DF
:103780006DE972E08CE090E00E9458118DE992E0C2
:103790000E94980F2F813885820F931F98878F83FF
:1037A000BE016B5F7F4F8AE090E00E9458116AE98A
:1037B00072E088E090E00E9458118AE992E00E944D
:1037C000980F9C838B836DE972E086E090E00E9405
:1037D00058118DE992E00E94980F2B813C81820F55
:1037E000931F9C838B83BE016F5F7F4F84E090E0CB
:1037F0000E9458110FB6F894DEBF0FBECDBF6F8187
:1038000078854D815E812B813C8189819A81641705
:10381000750709F084C02817390709F58FE991E089
:103820009F938F930EE811E01F930F93DF92CF9237
:103830000E94424968EC70E0C6010E940F0886E5CC
:1038400091E09F938F931F930F93DF92CF920E94EB
:10385000424968EC70E0C6010E940F0899C07F924F
:103860006F92FF92EF921F930F930E94424968EC70
:1038700070E087E793E00E940F089F928F92FF927B
:10388000EF921F930F930E94424968EC70E087E724
:1038900093E00E940F086AE972E08EE090E00E94D7
:1038A00058118AE992E00E94980F98878F836DE9FA
:1038B00072E08CE090E00E9458118DE992E00E9445
:1038C000980F2F813885820F931F98878F83BE01B1
:1038D0006B5F7F4F8AE090E00E9458110FB6F8941A
:1038E000DEBF0FBECDBF2F8138858D819E81281709
:1038F000390709F053C06AE972E088E090E00E945D
:1039000012106DE972E086E090E00E941210BE0194
:10391000695F7F4F84E090E00E94121044C0281736
:10392000390709F0DFCE8AE691E09F938F930EE886
:1039300011E01F930F93DF92CF920E94424968ECEF
:1039400070E087E793E00E940F0886E591E09F937F
:103950008F931F930F93DF92CF920E94424968EC9E
:1039600070E087E793E00E940F086AE972E08EE05A
:1039700090E00E9412106DE972E08CE090E00E94ED
:103980001210BE016D5F7F4F8AE090E00E9412101E
:103990000FB6F894DEBF0FBECDBF05C0BBE0AB16BF
:1039A000B10409F0C9CE28960FB6F894DEBF0FBE59
:1039B000CDBFDF91CF911F910F91FF90EF90DF90DE
:1039C000CF90BF90AF909F908F907F906F905F90BF
:1039D0004F903F902F900895D09AD198D99AD2982D
:1039E000DA9AD398DB9AD49AD598DD9ABB9ABD9A85
:1039F000BE9ABF9AA09AA19AA29AA39A8A988B9AE1
:103A00008D9A8E9A8F9A1098119A139A149A159AE1
:103A1000E1E6F0E080818E7F808380818D7F8083EE
:103A200080818B7F80838081877F808380818F7B73
:103A3000808380818F778083E4E6F0E080818061FD
:103A4000808308958CE083BF8CE781BF86B7826056
:103A500086BF86B7816086BF87B78E7F87BF87B7EF
:103A6000826087BF08958BE185BD8DE383BD089596
:103A700084E080935E0510926205109261051092B9
:103A8000600510925F051B9808950F931F93CF93C5
:103A9000DF9384B3807F84BB979A969800C000C060
:103AA000E3E0F0E061E070E0ABE0B0E08091650061
:103AB00080618093650000C000C093B300C000C067
:103AC000809165008F7E8093650002E00A95F1F792
:103AD00000C08091650080618093650000C000C0D7
:103AE00083B3282F2F70892F8295807F822B40E00F
:103AF00050E020E090E0EC01042E02C0D595C7957F
:103B00000A94E2F7C0FF0AC0EF01C41BD50B8B017A
:103B100002C0000F111FCA95E2F7202B4F5F5F4FC5
:103B20004430510541F744E050E0EC01042E02C05E
:103B3000D595C7950A94E2F7C0FF0AC0ED01C41BF2
:103B4000D50B8B0102C0000F111FCA95E2F7202B85
:103B50004F5F5F4F4830510541F700C000C0809172
:103B600065008F7E8093650082E08A95F1F700C042
:103B700027FD9CCF979884B38F6084BBDF91CF9152
:103B80001F910F9108950F931F93CF93DF9320E020
:103B900030E090E0482F50E0E3E0F0E0A1E0B0E05A
:103BA000EA01022E02C0D595C7950A94E2F7C0FF3C
:103BB0000AC0EF01C21BD30B8D0102C0000F111F01
:103BC000CA95E2F7902B2F5F3F4F2430310541F724
:103BD00024E030E0EBE0F0E0A1E0B0E0EA01022E0A
:103BE00002C0D595C7950A94E2F7C0FF0AC0EF015D
:103BF000C21BD30B8D0102C0000F111FCA95E2F743
:103C0000902B2F5F3F4F2830310541F7392F3295E8
:103C10003F709F70611102C0969801C0969A00C0D3
:103C200000C02091650020612093650085B3807FEE
:103C3000832B85BB02E00A95F1F700C080916500F7
:103C40008F7E8093650012E01A95F1F700C0809195
:103C5000650080618093650085B3807F982B95BB5C
:103C600082E08A95F1F700C0809165008F7E809395
:103C7000650002E00A95F1F700C0DF91CF911F9136
:103C80000F910C94451DEF92FF921F93CF93DF93FA
:103C90001F92CDB7DEB7EFE5FAEE3197F1F700C02E
:103CA000000094B39F6094BB9091640090619093E6
:103CB00064008E9A8F9A95B3907F95BB9091650022
:103CC0009F7E909365009798969800C00000909111
:103CD0006500906190936500AA9AF2E0FA95F1F779
:103CE00000C0909165009F7E9093650092E09A9548
:103CF000F1F700C089830E94451D60E089818C60D6
:103D00000E94C31D60E088E20E94C31D60E080E461
:103D10000E94C31D80E0E82E81E0F82E10E41E0D05
:103D200061E0F70181917F010E94C31D1E11F8CF50
:103D300060E080E80F90DF91CF911F91FF90EF90AE
:103D40000C94C31D0F931F93CF93DF93EC018881D5
:103D50008823C9F0853281F48E010F5F1F4F89815E
:103D6000805361E0883028F085E20E94C31D61E045
:103D700089810E94C31D04C061E00E94C31D8E01A1
:103D8000E8012196E4CFDF91CF911F910F91089523
:103D9000EF92FF920F931F93CF93DF9300D000D049
:103DA0001F92CDB7DEB79B01AE014F5F5F4F7A0127
:103DB00045E0F70111924A95E9F7FE0136960AE0CF
:103DC00010E0009731F0B8010E942A468293CB019F
:103DD000F8CF2F3FFFEF3F0741F4F7018F010E1996
:103DE0001F0981918823D1F304C005E010E0021B74
:103DF000130B0E0D1F1DC8018E199F09059744F462
:103E0000F80181918F0161E0805D0E94C31DF3CFB5
:103E10000F900F900F900F900F90DF91CF911F9107
:103E20000F91FF90EF900895843178F4623031F073
:103E3000633031F0613029F4806403C08C5E01C0CE
:103E40008C5A60E080680C94C31D08950FB6F894F6
:103E5000A89581B5886181BD11BC0FBEF8940E9400
:103E6000EC1C0E94790A0E94221D0E94331D0E94B0
:103E700035070E940F090E944E220E9489040E9469
:103E8000AD090E94A6130E9400250E94420C0E94C8
:103E9000381D78940E94130F0E94EF449FE088E140
:103EA0000FB6F894A89581BD0FBE91BD0E9463071F
:103EB0000E942E090E94C9080E949D0A0E948F221A
:103EC0000E9495040E94810C0E94C6090E94CE2681
:103ED000A895ECCF1F920F920FB60F9211240BB63C
:103EE0000F92CF92DF92EF92FF922F933F934F93D7
:103EF0005F936F937F938F939F93AF93BF93CF9372
:103F0000DF93EF93FF938091210590912205A0917B
:103F10002305B0912405892B8A2B8B2BA9F0809146
:103F2000210590912205A0912305B09124050197C8
:103F3000A109B1098093210590932205A09323053F
:103F4000B09324051B986CC080915E05843019F4F1
:103F50008CE291E006C080915E05833051F488E8E0
:103F600093E1909362058093610581E080935E0503
:103F700016C080915E05823091F480916105909128
:103F80006205892B61F480915F0590916005892B12
:103F900031F488EE93E090936205809361058091FF
:103FA000610590916205892BD9F01B9A809161057A
:103FB00090916205019790936205809361058091CD
:103FC000610590916205892B59F580915E058230DB
:103FD00039F580E991E09093600580935F0520C0FA
:103FE00080915F05909160051B98892BC9F08091A5
:103FF0005F059091600501979093600580935F0540
:1040000080915F0590916005892B51F480915E0548
:10401000823031F488EE93E09093620580936105DD
:104020008091350590913605C29760F580913505F0
:10403000909136050196909336058093350580E082
:1040400090E041E050E02091390530913A05BA0105
:10405000082E02C0660F771F0A94E2F72623372343
:10406000232B59F0FC01EE0FFF1FE45DFA4F208176
:1040700031812F5F3F4F318320830196833091053B
:1040800011F775C080E090E0E1E0F0E0A0E1B7E278
:104090009C01220F331FE901C45DDA4F4881598129
:1040A0004E31510520F14091370550913805BF013F
:1040B000082E02C0660F771F0A94E2F746235723A3
:1040C000452BA9F44091370550913805462B572BC5
:1040D000509338054093370540913C0550913D057C
:1040E000462B572B50933D0540933C052EC0E901CC
:1040F000C45DDA4F488159814E31510550F54091E8
:10410000370550913805BF01082E02C0660F771F92
:104110000A94E2F746235723452BD9F040913705FF
:10412000509138057B01E094F0944E215F2150932B
:104130003805409337054091330550913405462B9F
:10414000572B5093340540933305B0934005A0930B
:104150003F05E901C45DDA4F198218820196833068
:10416000910509F095CF1092360510923505809192
:104170003F0590914005892B49F080913F05909132
:10418000400501979093400580933F056091860517
:104190007091870580918805909189052091260569
:1041A0003091270540912805509129050E943648F5
:1041B0001816CCF4C0901305D09014052091150565
:1041C00030911605E12CF12CA8EEB3E00E94474691
:1041D000C616D706E806F906A8F480911305909153
:1041E000140501960BC08091130590911405892B3D
:1041F00049F080911305909114050197909314054F
:10420000809313056091690570916A0580916B0533
:1042100090916C052091190530911A0540911B056C
:1042200050911C050E9436481816CCF4C0901D050C
:10423000D0901E0520912A0530912B05E12CF12C00
:10424000A8EEB3E00E944746C616D706E806F90670
:10425000A8F480911D0590911E0501960BC08091D8
:104260001D0590911E05892B49F080911D059091A7
:104270001E05019790931E0580931D0580914105B1
:1042800090914205892B49F080914105909142051A
:104290000197909342058093410580914305909149
:1042A0004405892BB1F08091430590914405019715
:1042B0009093440580934305809143059091440574
:1042C000892B11F584EF91E090935D0580935C0557
:1042D0001BC080915C0590915D05892BA9F08091B0
:1042E0005C0590915D05019790935D0580935C0559
:1042F00080915C0590915D05892B31F488EE93E007
:1043000090934405809343058091A5029091A60265
:10431000892B49F08091A5029091A6020197909374
:10432000A6028093A5028091710390917203892B5C
:1043300049F08091710390917203019790937203F9
:10434000809371038091730390917403892B49F0DA
:1043500080917303909174030197909374038093F9
:1043600073038091AA049091AB04892B49F080914A
:10437000AA049091AB0401979093AB048093AA0494
:104380008091100590911105892B49F080911005BD
:1043900090911105019790931105809310058091DC
:1043A0003F0490914004892B49F080913F04909103
:1043B000400401979093400480933F04FF91EF9154
:1043C000DF91CF91BF91AF919F918F917F916F912D
:1043D0005F914F913F912F91FF90EF90DF90CF90A1
:1043E0000F900BBE0F900FBE0F901F9018951F924D
:1043F0000F920FB60F9211240F900FBE0F901F90C7
:104400001895843029F487B1807E87B93A9A089547
:10441000853031F487B1807E87B987B185600FC060
:10442000863031F487B1807E87B987B1866007C056
:10443000873031F487B1807E87B987B1876087B9CB
:1044400008953F9A3E9A0895811103C087B1807EF6
:1044500015C0813029F487B1807E87B9389A0895D4
:10446000823029F487B1807E87B9399A08958330E4
:1044700039F487B1807E87B987B1836087B90895A1
:104480000C940122811103C03F983E9A0895813017
:1044900011F40C9421223F983E98089580E487B946
:1044A00080E00E94242287ED86B910929706109230
:1044B00098061092990610929A0610929B061092F6
:1044C0009C0610929D0610929E06109286051092F0
:1044D000870510928805109289051092690510923F
:1044E0006A0510926B0510926C051092930610925B
:1044F0009406109295061092960610928F051092CF
:1045000090051092910510929205109268051092F4
:104510008E0510926F0581E08093670508958F9254
:104520009F92AF92BF92CF92DF92EF92FF920F9342
:104530001F93CF93DF9300D000D0CDB7DEB7E091CB
:1045400067058E2F90E08930910508F036C2FC0196
:10455000EA5BFF4F0C943E46369A109267053FC2C5
:1045600036993DC284B195B1C0909B06D0909C060F
:10457000E0909D06F0909E06BC0180E090E00E94D5
:1045800084472091130630911406409115065091EE
:1045900016060E94DC46A70196010E946A464B015E
:1045A0005C0180918C0590918D05BC0180E090E0CC
:1045B0000E9484479B01AC01C501B4010E94DC4606
:1045C0009B01AC01C701B6010E946B4660939B063C
:1045D00070939C0680939D0690939E0681E0809345
:1045E0006F0582E00E94242280E00E94422283E044
:1045F000E1C1369A82E0DEC13699F1C184B195B14C
:10460000C0909706D0909806E0909906F0909A0690
:10461000BC0180E090E00E94844720917E053091AB
:104620007F0540918005509181050E94DC46A701DD
:1046300096010E946A464B015C0180917005909141
:104640007105BC0180E090E00E9484479B01AC01B1
:10465000C501B4010E94DC469B01AC01C701B60153
:104660000E946B4660939706709398068093990614
:1046700090939A0681E080938E0586E00E94012245
:104680000E94212285E096C1369A84E093C1369932
:10469000A6C1C0909306D0909406E0909506F09045
:1046A000960684B195B1209193063091940640917D
:1046B000950650919606BC0180E090E029833A83EC
:1046C0004B835C830E94844729813A814B815C81C2
:1046D0000E946A464B015C0180916D0590916E05C8
:1046E000BC0180E090E00E9484479B01AC01C501C1
:1046F000B4010E94DC469B01AC01C701B6010E94D7
:104700006B466093930670939406809395069093FE
:10471000960600ED11E0E12CF12C6091930670916A
:1047200094068091950690919606F8012191319119
:10473000419151918F010E94D74687FF04C08FEFAE
:10474000E81AF80AEACF6091930670919406809176
:1047500095069091960620917A0530917B054091BF
:104760007C0550917D050E946A4620910F0630918C
:10477000100640911106509112060E943B48970185
:10478000220F331F220F331F295E394FF901208179
:104790003181428153810E943B4860936905709347
:1047A0006A0580936B0590936C0587E00E94012257
:1047B0000E94212287E080936705369A10C1369ABD
:1047C00086E0F8C036990BC1C0908F05D090900557
:1047D000E0909105F090920584B195B120918F05FC
:1047E000309190054091910550919205BC0180E077
:1047F00090E029833A834B835C830E94844729811C
:104800003A814B815C810E946A464B015C01809138
:10481000740590917505BC0180E090E00E9484478A
:104820009B01AC01C501B4010E94DC469B01AC01B7
:10483000C701B6010E946B4660938F057093900587
:10484000809391059093920500ED11E0E12CF12CFD
:1048500060918F05709190058091910590919205DE
:10486000F80121913191419151918F010E94D746D8
:1048700087FF04C0FFEFEF1AFF0AEACF60918F05B0
:104880007091900580919105909192052091760507
:104890003091770540917805509179050E946A46DC
:1048A00020918205309183054091840550918505C2
:1048B0000E943B489701220F331F220F331F2D56B2
:1048C0003A4FF90120813181428153810E943B4856
:1048D000609386057093870580938805909389057A
:1048E00080E00E94242280E00E94422288E062C090
:1048F00080916805813009F05CC063E971E087E769
:1049000093E00E94334960919706709198068091D8
:10491000990690919A060FE713E022E045E00E9485
:10492000F5486CE971E084E893E00E9433496091B6
:104930009B0670919C0680919D0690919E060FE8C3
:1049400013E022E045E00E94F54868EA71E084E95E
:1049500093E00E94334960918605709187058091AC
:1049600088059091890502EA13E022E047E00E9461
:10497000F54867EB71E089EA93E00E943349609162
:10498000690570916A0580916B0590916C050AEB41
:1049900013E022E047E00E94F54869EC71E081EC09
:1049A00093E00E94334968EC70E087E793E00E944F
:1049B0000F0881E08093670512C00F900F900F9051
:1049C0000F90DF91CF911F910F91FF90EF90DF90AB
:1049D000CF90BF90AF909F908F900C944E220F90ED
:1049E0000F900F900F90DF91CF911F910F91FF903B
:1049F000EF90DF90CF90BF90AF909F908F900895F1
:104A0000809165059091660581309105B9F584EC3A
:104A100099E0909364058093630584E190E090931E
:104A20007305809372058EE993E0A3E9B5E0FC017C
:104A300045915591659174914D935D936D937D93DF
:104A4000049626E0AF30B20791F78091A1069091CD
:104A5000A2068130910509F0C6C084EC99E09093DC
:104A6000A00680939F0684E190E090938B0580934D
:104A70008A058EE993E0A7E1B6E0A6C082309105F1
:104A8000E9F484E190E090936405809363051092CB
:104A900073051092720586E994E0A3E9B5E0FC0184
:104AA00045915591659174914D935D936D937D936F
:104AB000049626E0AF30B20791F7C7CF8330910557
:104AC000F9F488EC90E0909364058093630582E0AC
:104AD00090E090937305809372058AE194E0A3E9D6
:104AE000B5E0FC0145915591659174914D935D93AD
:104AF0006D937D93049626E0AF30B20791F7A5CF72
:104B000084309105F9F484EC99E0909364058093E6
:104B1000630584E190E090937305809372058AE2C7
:104B200092E0A3E9B5E0FC0145915591659174913E
:104B30004D935D936D937D93049626E0AF30B2075D
:104B400091F783CF85309105E9F484E190E090936B
:104B5000640580936305109273051092720582E2DA
:104B600093E0A3E9B5E0FC014591559165917491FD
:104B70004D935D936D937D93049626E0AF30B2071D
:104B800091F763CF069709F060CF88EC90E090939F
:104B900064058093630582E090E0909373058093B1
:104BA000720586EA92E0A3E9B5E0FC0145915591D2
:104BB000659174914D935D936D937D93049626E07A
:104BC000AF30B20791F741CFFC0145915591659106
:104BD00074914D935D936D937D93049626E0A33974
:104BE000B20791F7089582309105E9F484E190E0ED
:104BF0009093A00680939F0610928B0510928A05D1
:104C000086E994E0A7E1B6E0FC01459155916591F4
:104C100074914D935D936D937D93049626E0A33933
:104C2000B20791F7089583309105F9F488EC90E08C
:104C30009093A00680939F0682E090E090938B056E
:104C400080938A058AE194E0A7E1B6E0FC014591F2
:104C50005591659174914D935D936D937D930496F9
:104C600026E0A339B20791F7089584309105F9F44D
:104C700084EC99E09093A00680939F0684E190E0F5
:104C800090938B0580938A058AE292E0A7E1B6E0D3
:104C9000FC0145915591659174914D935D936D9390
:104CA0007D93049626E0A339B20791F708958530E5
:104CB0009105E9F484E190E09093A00680939F062B
:104CC00010928B0510928A0582E293E0A7E1B6E08C
:104CD000FC0145915591659174914D935D936D9350
:104CE0007D93049626E0A339B20791F708950697BD
:104CF000F1F488EC90E09093A00680939F0682E008
:104D000090E090938B0580938A0586EA92E0A7E174
:104D1000B6E0FC0145915591659174914D935D9379
:104D20006D937D93049626E0A339B20791F7089519
:104D3000CF93DF93AC01FB019F01261B370B9191B1
:104D40009A30D1F39D30C1F3D901F901EA1BFB0B75
:104D5000E40FF51F9491992351F0E491EB01C20FF8
:104D6000D31F8881E81315C02F5F3F4FEECFC901D5
:104D70002115310581F0FB01E20FF31F80818032A4
:104D800011F42F5F3F4F3093AB062093AA06C90161
:104D900002C080E090E0DF91CF9108958F929F92C2
:104DA000AF92BF92CF92DF92EF92FF920F931F9339
:104DB000CF93DF938091A906882321F08130B1F051
:104DC0000C94D644C0917603C13011F00C94E244A7
:104DD00068EC70E087EA92E00E9499451092AB0679
:104DE0001092AA06C093A9060C94E24467EA72E006
:104DF0008FEC97E00E949826892B61F18AE195E07B
:104E00009F938F9380E295E09F938F9383EA96E040
:104E10009F938F9385E295E09F938F938AE295E02D
:104E20009F938F938DE695E09F938F938CE492E010
:104E30009F938F9387EA92E09F938F930E944249BA
:104E40008DB79EB740960FB6F8949EBF0FBE8DBF2C
:104E50000C94C74467EA72E082E697E00E949826C5
:104E6000892B09F481C0E091AA06F091AB06E955BF
:104E7000FD4F808181528D3508F05AC003EA16E05B
:104E8000C0E0D0E0E091AA06F091AB06EC0FFD1F68
:104E9000E955FD4F80819FED980F9D35A8F4C530F1
:104EA000D10591F0F8018083B801CE018A579F4F58
:104EB0000E948711B801CE0182589F4F0E9487112E
:104EC00021960F5F1F4FDECF8E010D55194FF80150
:104ED0001082B801CE018A579F4F0E948711B801F6
:104EE000CE0182589F4F0E9487112196C630D1056E
:104EF00059F780E00E942C1183EA96E09F938F93EC
:104F000082E697E09F938F938AE592E09F938F9339
:104F100087EA92E09F938F930E9442498DB79EB794
:104F200008960FB6F8949EBF0FBE8DBF0C94C74471
:104F300083EA96E09F938F9382E697E09F938F9307
:104F40008AE592E09F938F9387EA92E09F938F93F5
:104F50000E944249EDB7FEB738960FB6F894FEBFEF
:104F60000FBEEDBF0C94C74467EA72E08AE396E097
:104F70000E949826892B09F4B7C36091AA06709104
:104F8000AB0669557D4F83EA95E00E949826892BF0
:104F900009F46EC085E090E0909366058093650506
:104FA00084EF91E0909375058093740587EE9DE101
:104FB000A7EABCE38093820590938305A0938405C0
:104FC000B0938505109276051092770510927805BA
:104FD0001092790565E675E08EE490E00E9412106B
:104FE00064E775E08CE490E00E94121062E875E0DE
:104FF00088E490E00E94A80F66E775E084E490E002
:105000000E94A80F65E675E088E290E00E94121009
:1050100064E775E086E290E00E94121062E875E0B5
:1050200082E290E00E94A80F66E775E08EE190E0D2
:105030000E94A80F82E00E942C1183EA95E09F93C2
:105040008F938AE396E09F938F9381E692E09F93FC
:105050008F9387EA92E09F938F930E9442498DB786
:105060009EB708960FB6F8949EBF0FBE8DBF38C38B
:105070006091AA067091AB0669557D4F8AEA95E06A
:105080000E949826892B09F46EC082E090E09093EC
:1050900066058093650584EF91E090937505809394
:1050A00074058DE495E1ACE8BCE3809382059093B0
:1050B0008305A0938405B093850510927605109220
:1050C0007705109278051092790565E675E08EE413
:1050D00090E00E94121064E775E08CE490E00E947A
:1050E000121062E875E088E490E00E94A80F66E77D
:1050F00075E084E490E00E94A80F65E675E088E220
:1051000090E00E94121064E775E086E290E00E9451
:10511000121062E875E082E290E00E94A80F66E754
:1051200075E08EE190E00E94A80F82E00E942C11B1
:105130008AEA95E09F938F938AE396E09F938F93FB
:1051400081E692E09F938F9387EA92E09F938F93FB
:105150000E944249EDB7FEB738960FB6F894FEBFED
:105160000FBEEDBFBDC26091AA067091AB06695536
:105170007D4F83E995E00E949826892B09F46EC043
:1051800086E090E0909366058093650584EF91E05A
:10519000909375058093740583E099E0AAE4BEE3DB
:1051A0008093820590938305A0938405B093850531
:1051B0001092760510927705109278051092790575
:1051C00065E675E08EE490E00E94121064E775E0F9
:1051D0008CE490E00E94121062E875E088E490E0B0
:1051E0000E94A80F66E775E084E490E00E94A80F93
:1051F00065E675E088E290E00E94121064E775E0D1
:1052000086E290E00E94121062E875E082E290E08F
:105210000E94A80F66E775E08EE190E00E94A80F5B
:1052200082E00E942C1183E995E09F938F938AE39B
:1052300096E09F938F9381E692E09F938F9387EA06
:1052400092E09F938F930E9442498DB79EB7089634
:105250000FB6F8949EBF0FBE8DBF42C26091AA06E2
:105260007091AB0669557D4F8BE995E00E949826B9
:10527000892B09F46EC083E090E0909366058093DB
:10528000650584EF91E0909375058093740589E638
:105290009FE6A0E3BEE38093820590938305A093ED
:1052A0008405B093850510927605109277051092CB
:1052B00078051092790565E675E08EE490E00E942D
:1052C000121064E775E08CE490E00E94121062E82E
:1052D00075E088E490E00E94A80F66E775E084E43A
:1052E00090E00E94A80F65E675E088E290E00E94D9
:1052F000121064E775E086E290E00E94121062E806
:1053000075E082E290E00E94A80F66E775E08EE10A
:1053100090E00E94A80F82E00E942C118BE995E09A
:105320009F938F938AE396E09F938F9381E692E019
:105330009F938F9387EA92E09F938F930E944249B5
:10534000EDB7FEB738960FB6F894FEBF0FBEEDBFAF
:10535000C7C16091AA067091AB0669557D4F8FE772
:1053600095E00E949826892B09F46EC084E090E0B5
:10537000909366058093650584EF91E090937505A1
:105380008093740581EB90E5A3E6B0E480938205F9
:1053900090938305A0938405B093850510927605BC
:1053A00010927705109278051092790565E675E000
:1053B0008EE490E00E94121064E775E08CE490E0C7
:1053C0000E94121062E875E088E490E00E94A80F45
:1053D00066E775E084E490E00E94A80F65E675E05A
:1053E00088E290E00E94121064E775E086E290E0A7
:1053F0000E94121062E875E082E290E00E94A80F1D
:1054000066E775E08EE190E00E94A80F82E00E94BE
:105410002C118FE795E09F938F938AE396E09F93FB
:105420008F9381E692E09F938F9387EA92E09F9318
:105430008F930E9442498DB79EB708960FB6F89495
:105440009EBF0FBE8DBF4CC16091AA067091AB0686
:1054500069557D4F89E895E00E949826892B09F4CB
:105460006EC081E090E0909366058093650584EFBF
:1054700091E090937505809374058CE992EAABE016
:10548000B0E48093820590938305A0938405B09344
:105490008505109276051092770510927805109286
:1054A000790565E675E08EE490E00E94121064E7ED
:1054B00075E08CE490E00E94121062E875E088E4E8
:1054C00090E00E94A80F66E775E084E490E00E94F7
:1054D000A80F65E675E088E290E00E94121064E78C
:1054E00075E086E290E00E94121062E875E082E2C8
:1054F00090E00E94A80F66E775E08EE190E00E94C0
:10550000A80F82E00E942C1189E895E09F938F9369
:105510008AE396E09F938F9381E692E09F938F9327
:1055200087EA92E09F938F930E944249EDB7FEB7BE
:1055300038960FB6F894FEBF0FBEEDBFD1C0809174
:1055400065059091660585309105D9F483EA95E06B
:105550009F938F938AE396E09F938F9381E692E0E7
:105560009F938F9387EA92E09F938F930E94424983
:105570008DB79EB708960FB6F8949EBF0FBE8DBF2D
:10558000AFC082309105D9F48AEA95E09F938F935A
:105590008AE396E09F938F9381E692E09F938F93A7
:1055A00087EA92E09F938F930E944249EDB7FEB73E
:1055B00038960FB6F894FEBF0FBEEDBF91C086308F
:1055C0009105D9F483E995E09F938F938AE396E060
:1055D0009F938F9381E692E09F938F9387EA92E067
:1055E0009F938F930E9442498DB79EB708960FB63E
:1055F000F8949EBF0FBE8DBF73C083309105D9F460
:105600008BE995E09F938F938AE396E09F938F9326
:1056100081E692E09F938F9387EA92E09F938F9326
:105620000E944249EDB7FEB738960FB6F894FEBF18
:105630000FBEEDBF55C084309105D9F48FE795E0DA
:105640009F938F938AE396E09F938F9381E692E0F6
:105650009F938F9387EA92E09F938F930E94424992
:105660008DB79EB708960FB6F8949EBF0FBE8DBF3C
:1056700037C00197D9F489E895E09F938F938AE327
:1056800096E09F938F9381E692E09F938F9387EAB2
:1056900092E09F938F930E944249EDB7FEB73896F0
:1056A0000FB6F894FEBF0FBEEDBF1AC080EE95E0B6
:1056B0009F938F938AE396E09F938F9381E692E086
:1056C0009F938F9387EA92E09F938F930E94424922
:1056D0008DB79EB708960FB6F8949EBF0FBE8DBFCC
:1056E0000E9400250C94C74467EA72E08CE296E0C1
:1056F0000E949826892B09F4B4C36091AA06709180
:10570000AB0669557D4F83EA95E00E949826892B68
:1057100009F46EC085E090E09093A2068093A10604
:1057200084EF91E090936E0580936D0587EE9DE187
:10573000A7EABCE380930F0690931006A09311068E
:10574000B093120610927A0510927B0510927C0598
:1057500010927D0561EA76E082E490E00E941210EA
:105760006DE675E080E490E00E9412106FE076E054
:105770008CE390E00E94A80F6AE775E088E390E070
:105780000E94A80F61EA76E08CE190E00E9412107E
:105790006DE675E08AE190E00E9412106FE076E01D
:1057A00086E190E00E94A80F6AE775E082E190E050
:1057B0000E94A80F82E00E942C1183EA95E09F933B
:1057C0008F938CE296E09F938F9381E692E09F9374
:1057D0008F9387EA92E09F938F930E944249EDB79F
:1057E000FEB738960FB6F894FEBF0FBEEDBF78CF68
:1057F0006091AA067091AB0669557D4F8AEA95E0E3
:105800000E949826892B09F46EC082E090E0909364
:10581000A2068093A10684EF91E090936E05809399
:105820006D058DE495E1ACE8BCE380930F069093A1
:105830001006A0931106B093120610927A051092EA
:105840007B0510927C0510927D0561EA76E082E48A
:1058500090E00E9412106DE675E080E490E00E94F6
:1058600012106FE076E08CE390E00E94A80F6AE7E8
:1058700075E088E390E00E94A80F61EA76E08CE191
:1058800090E00E9412106DE675E08AE190E00E94BF
:1058900012106FE076E086E190E00E94A80F6AE7C0
:1058A00075E082E190E00E94A80F82E00E942C1136
:1058B0008AEA95E09F938F938CE296E09F938F9373
:1058C00081E692E09F938F9387EA92E09F938F9374
:1058D0000E9442498DB79EB708960FB6F8949EBFB6
:1058E0000FBE8DBFFDCE6091AA067091AB066955C3
:1058F0007D4F83E995E00E949826892B09F46EC0BC
:1059000086E090E09093A2068093A10684EF91E058
:1059100090936E0580936D0583E099E0AAE4BEE361
:1059200080930F0690931006A0931106B093120671
:1059300010927A0510927B0510927C0510927D05DD
:1059400061EA76E082E490E00E9412106DE675E074
:1059500080E490E00E9412106FE076E08CE390E02B
:105960000E94A80F6AE775E088E390E00E94A80F04
:1059700061EA76E08CE190E00E9412106DE675E03D
:105980008AE190E00E9412106FE076E086E190E0FC
:105990000E94A80F6AE775E082E190E00E94A80FDC
:1059A00082E00E942C1183E995E09F938F938CE213
:1059B00096E09F938F9381E692E09F938F9387EA7F
:1059C00092E09F938F930E944249EDB7FEB73896BD
:1059D0000FB6F894FEBF0FBEEDBF82CE6091AA064F
:1059E0007091AB0669557D4F8BE995E00E94982632
:1059F000892B09F46EC083E090E09093A206809317
:105A0000A10684EF91E090936E0580936D0589E681
:105A10009FE6A0E3BEE380930F0690931006A09349
:105A20001106B093120610927A0510927B0510921F
:105A30007C0510927D0561EA76E082E490E00E94A8
:105A400012106DE675E080E490E00E9412106FE0A5
:105A500076E08CE390E00E94A80F6AE775E088E3A7
:105A600090E00E94A80F61EA76E08CE190E00E944D
:105A700012106DE675E08AE190E00E9412106FE06E
:105A800076E086E190E00E94A80F6AE775E082E187
:105A900090E00E94A80F82E00E942C118BE995E013
:105AA0009F938F938CE296E09F938F9381E692E091
:105AB0009F938F9387EA92E09F938F930E9442492E
:105AC0008DB79EB708960FB6F8949EBF0FBE8DBFD8
:105AD00007CE6091AA067091AB0669557D4F8FE79E
