:100000000C948B010C94A8010C94A8010C94A801E9
:100010000C94A8010C94A8010C94A8010C9448130A
:100020000C94A8010C94A8010C94EC130C94A80156
:100030000C94A8010C9438140C94A8010C94A801F9
:100040000C94A8010C94A8010C94A8010C94A8018C
:100050000C94A8010C94A8010C94A8010C94A8017C
:100060000C94A8010C94A801D716E016E416ED161E
:10007000F116FA16FE1607174E756D65726F20643D
:100080006520477275706F203D00004361726761A3
:100090002076616C6F72657320706F722064656684
:1000A0006563746F00004461746F73206F726967D9
:1000B000696E616C65732079206465206261636B91
:1000C0007570204552524F4E454F530000446174A5
:1000D0006F73206465206261636B7570204F4B0005
:1000E000004461746F73206F726967696E616C653B
:1000F00073204552524F4E454F5300004461746F78
:1001000073206465206261636B7570204552524FA5
:100110004E454F5300004461746F73206F726967DE
:10012000696E616C6573204F4B000056616C6964A9
:100130006163696F6E20475255504F5F50494420AC
:10014000282330293A00000A0D00000A0D00000A99
:100150000A0D5465726D696E616C204C697374612F
:10016000210A0A0D00004552524F520000454E44EC
:1001700000004F4B0000424F525241444F00004498
:100180004553434F4E4F4349444F00005041524165
:100190004D4554524F0000434F4D414E444F0000D7
:1001A0004641425249434120524553455400005272
:1001B00045494E4943494152000052455345540078
:1001C00000504944000045535441444F00005052F0
:1001D000494E54000050455246494C000045564394
:1001E000000043454B504944000050564300005422
:1001F00056430000545650494400005450494400AE
:10020000004D4158494E5400004B4400004B4900FA
:10021000004B5000004D475050000000407A10F352
:100220005A00A0724E18090010A5D4E80000E87624
:1002300048170000E40B54020000CA9A3B0000007B
:10024000E1F505000080969800000040420F000094
:1002500000A08601000000102700000000E8030055
:100260000000006400000000000A0000000000011F
:1002700000000000002C76D888DC674F0823DFC11F
:10028000DFAE59E1B1B796E5E3E453C63AE65199DA
:100290007696E8E6C28426EB898C9B62ED407C6F03
:1002A000FCEFBC9C9F40F2BAA56FA5F490055A2ABA
:1002B000F75C936B6CF9676DC11BFCE0E40D47FEC6
:1002C000F520E6B500D0ED902E03009435770500BB
:1002D00080841E080000204E0A000000C80C333342
:1002E00033330F986E12831141EF8D2114893BE651
:1002F0005516CFFEE6DB18D1844B381BF77C1D90DA
:100300001DA4BBE424203284725E228100C9F12442
:10031000ECA1E53D270011241FBECFEFD8E0DEBFE2
:10032000CDBF12E0A0E0B1E0EAE8F2E502C005903E
:100330000D92AC38B107D9F724E0ACE8B2E001C0C7
:100340001D92A33CB207E1F70E947D110C94432952
:100350000C94581486E480937C0087EC80937A0098
:1003600010928C0210928D0210928E0210928F02C7
:1003700010929102109292021092930210929402A3
:10038000109290020895CF92DF92EF92FF928091A7
:100390009002813079F038F0823009F45CC083300B
:1003A00009F462C0A2C080917A00806480937A00D0
:1003B00081E057C080917A0086FD9DC080917800D1
:1003C00090917900C0908C02D0908D02E0908E02C6
:1003D000F0908F02BC0180E090E00E94552221E75E
:1003E0003DEB41E852E40E94AD21A70196010E9435
:1003F0003B2120E030E048EC52E40E94AD219B011B
:10040000AC01C701B6010E943C216B017C016093E5
:100410008C0270938D0280938E0290938F0220E065
:1004200030E040E751E40E94072387FD02C0459871
:100430000BC020E030E040E551E4C701B6010E9466
:10044000A82118160CF0459A80917C008160809359
:100450007C0082E006C080917A00806480937A00FC
:1004600083E08093900247C080917A0086FD43C06C
:100470008091780090917900C0909102D090920282
:10048000E0909302F0909402BC0180E090E00E9422
:1004900055222DE032E348E45DE30E940C2320E086
:1004A00030E040EA51E40E943C21A70196010E94FD
:1004B0003B2120E030E048EC52E40E94AD219B015A
:1004C000AC01C701B6010E943C2160939102709378
:1004D0009202809393029093940280917C008E7F8D
:1004E00080937C001092900206C0FF90EF90DF9006
:1004F000CF900C94AA01FF90EF90DF90CF900895D9
:1005000089E190E09093C5008093C4001092C000F0
:1005100088E18093C10086E08093C2001092680356
:1005200010929502089589EC90E02091C00027FF79
:1005300004C02091C6000197C1F70895A89582E0F4
:1005400090E090939702809396028091C00085FD81
:1005500006C08091960290919702892BB1F7209165
:1005600096023091970281E0232B09F080E00895F4
:10057000CF93C0916003CC2319F0C130A1F0B4C077
:100580008091C00087FF04C080916803813041F4EE
:100590008091620390916303892B09F4A5C0A6C0E2
:1005A0001092660390C0E09166038091C000E11153
:1005B00030C084FD08C08091C00083FD04C08091DC
:1005C000C00082FF03C00E9493028EC08091C600CB
:1005D000809398022CE43DE13093650320936403FB
:1005E0008A3011F08D3019F41092980240C00E94A8
:1005F0009E02E0916603F0E0E856FD4F8081809313
:10060000C600809166038F5F80936603C09360038A
:100610006FC087FD0CC08091640390916503892BA6
:1006200009F066C0F0E0E856FD4F108254C0E73C88
:1006300008F04DC08091C00084FDC5CF8091C000FE
:1006400083FDC1CF8091C00082FDBDCFF0E08091DD
:10065000C600E856FD4F80832CE43DE130936503EE
:10066000209364038A3011F08D3079F410820E9457
:100670009E028AE08093C6000E949E028DE08093D5
:10068000C60081E08093680328C00E949E02E0912A
:100690006603F0E0E856FD4FC081C093C600C83045
:1006A00069F40E949E0280E28093C6000E949E022E
:1006B000C093C60080916603815003C08091660399
:1006C0008F5F8093660381E08093600311C0E73CF5
:1006D00079F410925F03C093680380E293E09093F3
:1006E00063038093620302C0109268031092600358
:1006F000CF910895EF92FF920F931F93CF93DF93C3
:100700007C01A895EC018B01015011098881882397
:1007100061F0CE018E199F098017910734F40E9471
:100720009E0289918093C600F1CFDF91CF911F91F6
:100730000F91FF90EF900895AF92BF92CF92DF920A
:10074000EF92FF920F931F93CF93DF93CDB7DEB756
:10075000ADB6BEB6A895E22EF12CE40EF11CEDB7B5
:10076000FEB7EE19FF090FB6F894FEBF0FBEEDBF3E
:1007700031966F018F010E947923B701C6010E9453
:100780007A030FB6F894BEBE0FBEADBEDF91CF9117
:100790001F910F91FF90EF90DF90CF90BF90AF909F
:1007A00008950F931F93CF93DF93A895EC01FE015B
:1007B00084918E010F5F1F4F882341F00E949E029B
:1007C000FE01C491C093C600E801F1CFDF91CF9143
:1007D0001F910F910895A89582E090E09093970261
:1007E000809396028091C00087FD06C0809196029A
:1007F00090919702892BB1F7209196023091970240
:1008000081E0232B09F080E00895CF92DF92EF92F0
:10081000FF920F931F93CF93DF936C018C010150D4
:100820001109C0E0D0E07B0181E0E81AF108CE15A3
:10083000DF059CF4F80191918F01992371F09A30B2
:1008400061F09D3051F00E94EB03811106C0809150
:10085000C600F80180832196EACFCC0DDD1D1882F9
:10086000DF91CF911F910F91FF90EF90DF90CF908C
:1008700008951092800080EC809381001092820095
:10088000EFE6F0E080818D7F808380818B7F8083A5
:1008900080818E7F808380818F7D8083B59AB19A9D
:1008A000B29AB09A1092350410923604109237041E
:1008B000109238048AE090E09093340480933304DB
:1008C0001092320481E080933104089581E0809396
:1008D00032041092850010928400B59AB19AB29AAF
:1008E000B09AE1E8F0E0808183608083EFE6F0E099
:1008F00080818062808380818160808308958F926F
:100900009F92AF92BF92CF92DF92EF92FF92CF93DE
:10091000DF9380913104813019F0823051F097C01B
:100920008091330490913404892B09F09CC082E0BB
:100930008BC08091320481110CC0DF91CF91FF9068
:10094000EF90DF90CF90BF90AF909F908F900C94DE
:10095000660480913204833009F061C060913B04E9
:1009600070913C048091390490913A04681B790B92
:1009700080E090E00E9455226B017C0120E030E095
:1009800041EE53E40E940C239B01AC0160EC71EE3C
:1009900084E69BE40E94AD214B015C01A701960116
:1009A00060E07FEF8FE797E40E94AD210E941F2255
:1009B000161617063CF4EB016B3071052CF0CAE0FB
:1009C000D0E002C0C1E0D0E0C0903504D090360441
:1009D000E0903704F0903804A7019601C501B401F6
:1009E0000E943B214B015C01BE01DD0F880B990B7E
:1009F0000E9457229B01AC01C501B4010E94AD21A8
:100A00009B01AC01C701B6010E943C2160933504F3
:100A10007093360480933704909338040CC080910F
:100A20003204843001F5109235041092360410928D
:100A30003704109238048AE090E090933404809355
:100A400033041092320481E0809331040CC0DF91B2
:100A5000CF91FF90EF90DF90CF90BF90AF909F909D
:100A60008F900C943904DF91CF91FF90EF90DF903D
:100A7000CF90BF90AF909F908F90089510923E04BA
:100A80001092590410923D0408954F925F926F9214
:100A90007F928F929F92AF92BF92CF92DF92EF920E
:100AA000FF920F931F93CF93DF93CDB7DEB760977D
:100AB0000FB6F894DEBF0FBECDBF80913D048823F2
:100AC00021F0813009F4EDC006C4C0903504D09007
:100AD0003604E0903704F090380420E030E040E441
:100AE00050E4C701B6010E94072318160CF057C046
:100AF00010924D0410924E0410924F041092500424
:100B00008090A7049090A804A090A904B090AA0493
:100B100080925A0490925B04A0925C04B0925D04AF
:100B2000C0925104D0925204E0925304F0925404C3
:100B300010926304109262048091450490914604DF
:100B400090937D0480937C0420E030E040EA52E4FE
:100B5000C501B4010E94072318160CF120E030E013
:100B6000A901C501B4010E94A82187FD18C020E099
:100B700030E040E751E4C701B6010E940723181690
:100B800074F020E030E0A901C701B6010E94A8215D
:100B900087FD05C0449A81E080933D0401C04498DC
:100BA00080913E04813009F0AEC360E471E089E6D3
:100BB00093E00E94B72360913504709136048091D0
:100BC00037049091380400E713E021E044E00E94EC
:100BD000792368E471E084E793E00E94B723609191
:100BE000910270919202809193029091940205E893
:100BF00013E021E044E00E9479236AE571E089E88E
:100C000093E00E94B7236091A7047091A80480919B
:100C1000A9049091AA0405E913E021E044E00E94B0
:100C200079238091BE049091BF043091B904209142
:100C3000B80497FF07C09F938F933F932F9387E646
:100C400091E006C09F938F933F932F938EE791E09F
:100C50009F938F9389E993E09F938F930E94C6237C
:100C60000FB6F894DEBF0FBECDBF68EC70E089E62A
:100C700093E060960FB6F894DEBF0FBECDBFDF9154
:100C8000CF911F910F91FF90EF90DF90CF90BF9089
:100C9000AF909F908F907F906F905F904F900C944B
:100CA0007A03C090A704D090A804E090A904F09023
:100CB000AA0420E030E040EA52E4C701B6010E94F5
:100CC0000723181624F120E030E0A901C701B6017E
:100CD0000E94A82187FD1BC0C0903504D090360427
:100CE000E0903704F090380420E030E040E751E431
:100CF000C701B6010E94072318164CF020E030E02F
:100D0000A901C701B6010E94A82187FF03C044982A
:100D100010923D0480913F0490914004892B09F08A
:100D20005BC2409035045090360460903704709058
:100D30003804209151043091520440915304509151
:100D40005404C301B2010E94AD2120E030E040E82C
:100D50005FE30E943B216B017C0160935E04709312
:100D60005F0480936004909361040E941F229B01A2
:100D700077FF04C022273327261B370BB901330F17
:100D8000880B990B0E9457224B015C0120E030E058
:100D900048EC52E460918004709181048091820457
:100DA000909183040E94AD219B01AC01C501B40167
:100DB0000E94072318160CF066C020E030E040E8DF
:100DC0005FE3C501B4010E94072318166CF4449830
:100DD0009FE088E10FB6F894A895809360000FBE5D
:100DE00090936000A895FFCF80917C0490917D0442
:100DF000892B09F048C08090700490907104A090F5
:100E00007204B090730420E030E0A901C501B40180
:100E10000E94A8218823B9F1A5019401C701B60158
:100E20000E940C230E941F222091B8043091B90423
:100E3000269FA001279F500D369F500D11245093DF
:100E4000BF044093BE0410924D0410924E041092C1
:100E50004F04109250048091A7049091A804A0918F
:100E6000A904B091AA0480935A0490935B04A093C0
:100E70005C04B0935D0480917E0490917F04909314
:100E80006304809362044092510450925204609231
:100E900053047092540480916204909163042091F1
:100EA000A7043091A8044091A9045091AA04298371
:100EB0003A834B835C83892B09F013C1C09064048F
:100EC000D0906504E0906604F090670420E030E084
:100ED000A901C701B6010E94A821882349F0A701F2
:100EE0009601C301B2010E94AD214B015C0106C015
:100EF000812C912C80E8A82E8FE3B82E29813A818D
:100F00004B815C8160919102709192028091930279
:100F1000909194020E943B216B017C0160935504E7
:100F2000709356048093570490935804209178044A
:100F30003091790440917A0450917B04C501B40149
:100F40000E940C23A70196010E940C2369877A87CF
:100F50008B879C87609368047093690480936A040C
:100F600090936B0460914B0470914C0480E090E08E
:100F70000E9455226D877E878F87988B20917404FD
:100F8000309175044091760450917704C501B40105
:100F90000E940C23A70196010E940C232D853E85FB
:100FA0004F8558890E940C2320E030E04AE754E442
:100FB0000E94AD2120914D0430914E0440914F0488
:100FC000509150040E943C216D837E838F839887CB
:100FD00060934D0470934E0480934F04909350049B
:100FE000C0904104D0904204E0904304F090440447
:100FF000A70196010E940723181674F0F7FAF094DF
:10100000F7F8F094A70196016D817E818F81988514
:101010000E94A82187FF08C0C0924D04D0924E04C0
:10102000E0924F04F092500420916C0430916D04D2
:1010300040916E0450916F04C501B4010E940C23CD
:101040006B017C0129813A814B815C8160915A045A
:1010500070915B0480915C0490915D040E943B213F
:101060009B01AC01C701B6010E940C2320E030E0D7
:101070004AE754E40E940C232D853E854F8558890C
:101080000E94AD216B017C0160934704709348047A
:101090008093490490934A0489819A81AB81BC81F1
:1010A00080935A0490935B04A0935C04B0935D0416
:1010B00020914D0430914E0440914F0450915004C2
:1010C00069857A858B859C850E943C21A7019601C4
:1010D0000E943C210E941F227093BF046093BE04B3
:1010E00014C010924D0410924E0410924F041092AE
:1010F000500429813A814B815C8120935A043093BA
:101100005B0440935C0450935D04809159048130EA
:1011100009F05AC009E613E021E044E0C301B2013E
:101120000E94792364E971E08DE693E00E94B72381
:101130006091910270919202809193029091940239
:101140000EE613E021E044E00E94792364E971E0B7
:1011500082E793E00E94B7236091A7047091A804EE
:101160008091A9049091AA0403E713E021E044E0F0
:101170000E9479238091BE049091BF043091B904FC
:101180002091B80497FF07C09F938F933F932F93AD
:1011900086E991E006C09F938F933F932F9383EA54
:1011A00091E09F938F9387E793E09F938F930E94A3
:1011B000C6230FB6F894DEBF0FBECDBF68EC70E05B
:1011C00089E693E00E947A0380914B0490914C044D
:1011D0009093400480933F0480913E04813009F055
:1011E00066C060E471E089E693E00E94B7236091F5
:1011F000350470913604809137049091380400E7EB
:1012000013E021E044E00E94792368E471E084E780
:1012100093E00E94B72360919102709192028091B5
:1012200093029091940205E813E021E044E00E94CB
:1012300079236AE571E089E893E00E94B723609121
:10124000A7047091A8048091A9049091AA0405E9CB
:1012500013E021E044E00E9479238091BE04909144
:10126000BF043091B9042091B80497FF07C09F9341
:101270008F933F932F9387E691E006C09F938F93C0
:101280003F932F938EE791E09F938F9389E993E0AB
:101290009F938F930E94C6230FB6F894DEBF0FBEB4
:1012A000CDBF68EC70E089E693E00E947A0320E00D
:1012B00030E040E250E46091350470913604809152
:1012C0003704909138040E94A82187FF1CC04498DD
:1012D00010923D0418C060960FB6F894DEBF0FBEA2
:1012E000CDBFDF91CF911F910F91FF90EF90DF90D5
:1012F000CF90BF90AF909F908F907F906F905F90B6
:101300004F900C943E0560960FB6F894DEBF0FBE6A
:10131000CDBFDF91CF911F910F91FF90EF90DF90A4
:10132000CF90BF90AF909F908F907F906F905F9085
:101330004F900895A895FC0140815181628173818D
:10134000872FBB2787FDB0959B2FAB2F9927860F43
:10135000911D9A013327820F931F452F562F672F18
:10136000772767FD7A955527840F951F0895A895CF
:10137000FC0140818181282F30E0C901840F911D3B
:101380000895A895FC018081918199270895EF9295
:10139000FF920F931F93CF93DF938C017B01C4E6E1
:1013A000D0E0A895F999FECFF894F70140815181DA
:1013B00062817381C8010E94EF287894F999FECF69
:1013C000F894C8010E94D5287894F70120813181D2
:1013D000428153810E94A821882311F0219709F7A7
:1013E00080E090E092BD81BDDF91CF911F910F9180
:1013F000FF90EF900895EF92FF920F931F93CF937A
:10140000DF938C017B01C4E6D0E0A895F999FECF6B
:10141000F894C8010E94D528F70160837183828304
:1014200093837894F999FECFF894C8010E94D52847
:101430009B01AC017894F701608171818281938175
:101440000E94A821882311F02197F9F680E090E00E
:1014500092BD81BDDF91CF911F910F91FF90EF90D1
:101460000895EF92FF920F931F93CF93DF938C0118
:101470007B01C4E6D0E0A895F999FECFF894F70176
:1014800060817181C8010E94F7287894F999FECF94
:10149000F894C8010E94DB287894F70120813181FB
:1014A0008217930711F0219731F780E090E092BD09
:1014B00081BDDF91CF911F910F91FF90EF90089523
:1014C000CF93DF9300D0CDB7DEB788E794E00E94DA
:1014D0009A099A83898384E794E00E949A09298172
:1014E0003A81820F931F9A8389838CE694E00E944D
:1014F0009A0929813A81820F931F9A83898381E413
:1015000094E00E949A0929813A81820F931F9A835D
:10151000898380E894E00E949A0929813A81820FA8
:10152000931F9A83898380E794E00E949A09298116
:101530003A81820F931F9A83898384E694E00E9404
:101540009A0929813A81820F931F9A8389838BE4B8
:1015500094E00E94B70929813A81820F931F9A83F0
:1015600089838EE794E00E94B70929813A81820F2E
:10157000931F9A83898385E494E00E94B7092981A7
:101580003A81820F931F9A838983BE016F5F7F4FD9
:1015900088E290E00E94310ABE016F5F7F4F84E0D5
:1015A00090E00E94310A0F900F90DF91CF91089543
:1015B0008B7F11F40C94600A089580E090E0A0E81D
:1015C000BFE38093780490937904A0937A04B09356
:1015D0007B048AE097EDA3E2BCE3809374049093CC
:1015E0007504A0937604B093770480E090E0A8E4BB
:1015F000B2E480936C0490936D04A0936E04B09356
:101600006F0480E090E0A0EAB0E4809341049093FE
:101610004204A0934304B093440440E050E068ECDB
:1016200071E440938004509381046093820470932A
:1016300083048093640490936504A0936604B0933C
:1016400067048DEC9CECACE8BFE38093700490934E
:101650007104A0937204B093730488EB9BE09093A1
:101660004C0480934B0480EE9EE290937F04809321
:101670007E0488EE9DEF909346048093450468E7CE
:1016800074E088E490E00E94C70964E774E084E4B1
:1016900090E00E94C7096CE674E080E490E00E944C
:1016A000C70961E474E08CE390E00E94C70960E838
:1016B00074E088E390E00E94C70964E674E084E384
:1016C00090E00E94C70960E774E080E390E00E9428
:1016D000C7096BE474E08EE290E00E94310A6EE785
:1016E00074E08CE290E00E94310A65E474E08AE2E2
:1016F00090E00E94310A68E774E084E290E00E9482
:10170000C70964E774E080E290E00E94C7096CE6D4
:1017100074E08CE190E00E94C70961E474E088E124
:1017200090E00E94C70960E874E084E190E00E94C4
:10173000C70964E674E080E190E00E94C70960E7B1
:1017400074E08CE090E00E94C7096BE474E08AE0EA
:1017500090E00E94310A6EE774E088E090E00E9419
:10176000310A65E474E086E090E00E94310A0C944E
:10177000600A8B7F892B11F40C94DD0A0895EF9297
:10178000FF920F931F93CF93DF938C017B01C4E6ED
:10179000D0E0A895F999FECFF894C8010E94DB2803
:1017A000F701918380837894F999FECFF894C8016A
:1017B0000E94DB287894F7012081318128173907AE
:1017C00011F0219731F780E090E092BD81BDDF916B
:1017D000CF911F910F91FF90EF9008952F923F921C
:1017E0004F925F926F927F928F929F92AF92BF9231
:1017F000CF92DF92EF92FF920F931F93CF93DF93DD
:10180000CDB7DEB728970FB6F894DEBF0FBECDBFB9
:10181000E12CF12C3BE2232E31E0332E41EB442E20
:1018200041E0542E59E6C52E53E0D52E66E1662ED2
:1018300061E0762E79EBA72E71E0B72EECEF8E2EBD
:10184000E0E09E2EFF92EF923F922F925F924F9296
:1018500009E613E0DF92CF920E94C62368EC70E0A5
:10186000C8010E947A038FEFE81AF80A68E774E06B
:1018700088E490E00E94FB0988E794E00E949A09BE
:1018800098878F8364E774E084E490E00E94FB090A
:1018900084E794E00E949A092F813885820F931F74
:1018A00098878F836CE674E080E490E00E94FB09E7
:1018B0008CE694E00E949A092F813885820F931F4D
:1018C00098878F8361E474E08CE390E00E94FB09C9
:1018D00081E494E00E949A092F813885820F931F3A
:1018E00098878F8360E874E088E390E00E94FB09AA
:1018F00080E894E00E949A092F813885820F931F17
:1019000098878F8364E674E084E390E00E94FB098B
:1019100084E694E00E949A092F813885820F931FF4
:1019200098878F8360E774E080E390E00E94FB0972
:1019300080E794E00E949A092F813885820F931FD7
:1019400098878F836BE474E08EE290E00E94BF0B77
:101950008BE494E00E94B7092F813885820F931F92
:1019600098878F836EE774E08CE290E00E94BF0B53
:101970008EE794E00E94B7092F813885820F931F6C
:1019800098878F8365E474E08AE290E00E94BF0B41
:1019900085E494E00E94B7092F813885820F931F58
:1019A00098878F83BE016B5F7F4F88E290E00E9433
:1019B000BF0B68E774E084E290E00E94FB0988E7CF
:1019C00094E00E949A099C838B8364E774E080E230
:1019D00090E00E94FB0984E794E00E949A092B8121
:1019E0003C81820F931F9C838B836CE674E08CE1B7
:1019F00090E00E94FB098CE694E00E949A092B81FA
:101A00003C81820F931F9C838B8361E474E088E1A7
:101A100090E00E94FB0981E494E00E949A092B81E6
:101A20003C81820F931F9C838B8360E874E084E188
:101A300090E00E94FB0980E894E00E949A092B81C3
:101A40003C81820F931F9C838B8364E674E080E16A
:101A500090E00E94FB0984E694E00E949A092B81A1
:101A60003C81820F931F9C838B8360E774E08CE042
:101A700090E00E94FB0980E794E00E949A092B8184
:101A80003C81820F931F9C838B836BE474E08AE01C
:101A900090E00E94BF0B8BE494E00E94B7092B8179
:101AA0003C81820F931F9C838B836EE774E088E0F8
:101AB00090E00E94BF0B8EE794E00E94B7092B8153
:101AC0003C81820F931F9C838B8365E474E086E0E6
:101AD00090E00E94BF0B85E494E00E94B7092B813F
:101AE0003C81820F931F9C838B83BE016F5F7F4F6E
:101AF00084E090E00E94BF0B0FB6F894DEBF0FBEEB
:101B0000CDBF6F8178854D815E812B813C8189813C
:101B10009A816417750709F036C12817390719F536
:101B200086E191E09F938F9329EBE22E21E0F22E44
:101B3000FF92EF921F930F930E94C62368EC70E010
:101B4000C8010E947A038DEC90E09F938F93FF92DF
:101B5000EF921F930F930E94C62368EC70E0C801B8
:101B60000E947A03A7C17F926F92BF92AF92DF92D9
:101B7000CF920E94C62368EC70E089E693E00E9451
:101B80007A039F928F92BF92AF92DF92CF920E9480
:101B9000C62368EC70E089E693E00E947A0368E768
:101BA00074E088E490E00E94FB0988E794E00E94DA
:101BB0009A0998878F8364E774E084E490E00E9438
:101BC000FB0984E794E00E949A092F813885820FEF
:101BD000931F98878F836CE674E080E490E00E9406
:101BE000FB098CE694E00E949A092F813885820FC8
:101BF000931F98878F8361E474E08CE390E00E94E8
:101C0000FB0981E494E00E949A092F813885820FB4
:101C1000931F98878F8360E874E088E390E00E94C8
:101C2000FB0980E894E00E949A092F813885820F91
:101C3000931F98878F8364E674E084E390E00E94AA
:101C4000FB0984E694E00E949A092F813885820F6F
:101C5000931F98878F8360E774E080E390E00E9491
:101C6000FB0980E794E00E949A092F813885820F52
:101C7000931F98878F836BE474E08EE290E00E945C
:101C8000BF0B8BE494E00E94B7092F813885820F47
:101C9000931F98878F836EE774E08CE290E00E9438
:101CA000BF0B8EE794E00E94B7092F813885820F21
:101CB000931F98878F8365E474E08AE290E00E9426
:101CC000BF0B85E494E00E94B7092F813885820F0D
:101CD000931F98878F83BE016B5F7F4F88E290E0F0
:101CE0000E94BF0B0FB6F894DEBF0FBECDBF2F8191
:101CF00038858D819E812817390709F0E1C068E792
:101D000074E084E290E00E94C70964E774E080E236
:101D100090E00E94C7096CE674E08CE190E00E94BC
:101D2000C70961E474E088E190E00E94C70960E8B7
:101D300074E084E190E00E94C70964E674E080E109
:101D400090E00E94C70960E774E08CE090E00E9498
:101D5000C7096BE474E08AE090E00E94310A6EE704
:101D600074E088E090E00E94310A65E474E086E067
:101D700090E00E94310ABE01695F7F4F84E090E0ED
:101D80000E94310AA2C02817390709F068C081EE05
:101D900090E09F938F9399EBE92E91E0F92EFF92BB
:101DA000EF921F930F930E94C62368EC70E089E6C0
:101DB00093E00E947A038DEC90E09F938F93FF92C3
:101DC000EF921F930F930E94C62368EC70E089E6A0
:101DD00093E00E947A0368E774E088E490E00E9450
:101DE000C70964E774E084E490E00E94C7096CE6E8
:101DF00074E080E490E00E94C70961E474E08CE341
:101E000090E00E94C70960E874E088E390E00E94D7
:101E1000C70964E674E084E390E00E94C70960E7C4
:101E200074E080E390E00E94C7096BE474E08EE206
:101E300090E00E94310A6EE774E08CE290E00E942C
:101E4000310A65E474E08AE290E00E94310ABE0142
:101E50006D5F7F4F88E290E00E94310A2BC09AE0CC
:101E6000E916F10409F0EECC81EE90E09F938F9398
:101E700089EBE82E81E0F82EFF92EF921F930F93EB
:101E80000E94C62368EC70E089E693E00E947A0322
:101E90008CEF90E09F938F93FF92EF921F930F939D
:101EA0000E94C62368EC70E089E693E00E947A0302
:101EB0000E94DD0A0FB6F894DEBF0FBECDBF05C08D
:101EC0009AE0E916F10409F0BDCC28960FB6F89413
:101ED000DEBF0FBECDBFDF91CF911F910F91FF905D
:101EE000EF90DF90CF90BF90AF909F908F907F90BA
:101EF0006F905F904F903F902F900895EF92FF92D8
:101F00000F931F93CF93DF938C017B01C4E6D0E046
:101F1000A895F999FECFF894F7016081C8010E9455
:101F2000E1287894F999FECFF894C8010E94CD2851
:101F30007894F7019081891711F0219749F780E093
:101F400090E092BD81BDDF91CF911F910F91FF90E5
:101F5000EF900895EF92FF920F931F93CF93DF932B
:101F60008C017B01C4E6D0E0A895F999FECFF894E6
:101F7000C8010E94CD28F70180837894F999FECF9B
:101F8000F894C8010E94CD287894F70190819817A1
:101F900011F0219749F780E090E092BD81BDDF917B
:101FA000CF911F910F91FF90EF9008952098229A62
:101FB000219A259A239A2498389A399A3A9A3B9AE0
:101FC0003C9A3D9A549A559A569A579A539A529ACD
:101FD0005098519A089582E08093B00084E08093F5
:101FE000B10089EF8093B300E0E7F0E08081826088
:101FF000808308958AB18F708AB95A9A5B9882E07B
:102000008A95F1F700C0299A92E09A95F1F700C0FD
:1020100089B1807F92E09A95F1F700C0299895E008
:102020009A95F1F70000299A92E09A95F1F700C08D
:1020300099B192E09A95F1F700C0299895E09A95A8
:10204000F1F7000087FDDFCF5A988AB1806F8AB917
:102050000895982F92959F708F70611102C05B98C0
:1020600001C05B9A22E02A95F1F700C0299A4BB192
:1020700050E1959F90011124942F9F70292B2BB92B
:1020800095E09A95F1F70000299825E02A95F1F757
:102090000000299A2BB130E1839FC0011124922FB7
:1020A0009F70892B8BB955E05A95F1F7000029985C
:1020B00085E08A95F1F700000C94FA0F623031F058
:1020C000633031F0613029F4806403C08C5E01C05C
:1020D0008C5A60E080680C942910EF92FF921F9355
:1020E000CF93DF931F92CDB7DEB72FEF36E791E0A6
:1020F000215030409040E1F700C000009AB1906F4D
:102100009AB9219A539A529A9BB19F709BB9299878
:102110005A985B9800C000C00000299A5D9AE5E0DB
:10212000EA95F1F700002998F5E0FA95F1F700003B
:1021300089830E94FA0F60E089818C600E942910D7
:1021400060E088E20E94291060E080E40E9429108B
:1021500080E0E82E81E0F82E10E41E0D61E0F7012A
:1021600081917F010E9429101E11F8CF60E080E06C
:102170000F90DF91CF911F91FF90EF900C945E1024
:102180000F931F93CF93DF93EC0188818823C9F0CD
:10219000853281F48E010F5F1F4F8981805361E08A
:1021A000883028F085E20E94291061E089810E9430
:1021B000291004C061E00E9429108E01E8012196D7
:1021C000E4CFDF91CF911F910F910895EF92FF928D
:1021D0000F931F93CF93DF938B01682F80E00E94B2
:1021E0005E10C0E0D0E0F8018081882329F1C03181
:1021F000D10514F58532B9F478018FEFE81AF80AA1
:10220000F8018181805361E0883018F40E94291020
:102210000EC085E20E94291061E0F80181810E94D0
:102220002910219604C061E00E94291078018701DD
:102230000F5F1F4F2196D7CFC031D10534F461E035
:1022400080E20E9429102196F7CFDF91CF911F9154
:102250000F91FF90EF900895EF92FF920F931F93CD
:10226000CF93DF9300D000D01F92CDB7DEB79B0194
:10227000AE014F5F5F4F7A0145E0F70111924A9539
:10228000E9F7FE0136960AE010E0009731F0B80158
:102290000E940D218293CB01F8CF2F3FFFEF3F0724
:1022A00041F4F7018F010E191F0981918823D1F3A1
:1022B00004C005E010E0021B130B0E0D1F1DC8012A
:1022C0008E199F09059744F4F80181918F0161E00F
:1022D000805D0E942910F3CF0F900F900F900F9008
:1022E0000F90DF91CF911F910F91FF90EF90089584
:1022F000843110F40C945E1008950FB6F894A895EC
:1023000080916000886180936000109260000FBE31
:10231000F8940E94D60F0E94EB0F0E94AA010E941F
:1023200062140E9439040E9480020E943E050E94AD
:10233000EE0B0E94D21F80E00E946D1060E081E0F1
:102340000E9429106EEB71E086E894E00E94B723AA
:1023500066E874E080E00E94E6106FEC71E086E8C9
:1023600094E00E94B72366E874E081E00E94E610E2
:102370000E94511510928504109284041092A404B6
:102380001092A6041092A5049EE088E10FB6F8947E
:10239000A895809360000FBE9093600078948EEFB4
:1023A000282E81E0382E9FE8E92E94E0F92E28EFC0
:1023B000822E21E0922E35E0C32E32E0D32E4CEE59
:1023C000A42E41E0B42E0E94C3010E9482140E94F8
:1023D0007F040E94B8020E9401160E945B170E94AF
:1023E00045058091840490918504892B09F04EC1A4
:1023F0006CED71E086E894E00E94B7234090A7045A
:102400005090A8046090A9047090AA0420E030E0E5
:10241000A901C301B2010E94A82187FF03C062EE97
:1024200071E023C020E030E040E251E4C301B2019A
:102430000E94A82187FF04C00BE814E022E00DC031
:1024400020E030E048EC52E4C301B2010E94A82130
:1024500087FF09C00BE814E021E044E0C301B201AA
:102460000E94792306C067EE71E08BE894E00E9439
:10247000B723409091025090920260909302709026
:10248000940220E030E0A901C301B2010E94A8211A
:1024900087FF03C0BF92AF9233C020E030E048EC2A
:1024A00052E4C301B2010E94A82187FF27C09F9276
:1024B0008F92FF92EF920E94C623EC018C0101578C
:1024C0001B4F6091910270919202809193029091C2
:1024D000940220E042E00E947923DF92CF92CF560F
:1024E000DB4FDF93CF930E94C623ADB7BEB71896DC
:1024F0000FB6F894BEBF0FBEADBF0AC03F922F9279
:10250000FF92EF920E94C6230F900F900F900F90B2
:1025100066E874E080E00E94E61040903504509038
:102520003604609037047090380420E030E0A90150
:10253000C301B2010E94A82187FF03C062EE71E0CF
:1025400023C020E030E040E251E4C301B2010E9428
:10255000A82187FF04C006E814E022E00DC020E0B7
:1025600030E048EC52E4C301B2010E94A82187FF89
:1025700009C006E814E021E044E0C301B2010E9472
:10258000792306C067EE71E086E894E00E94B723E5
:10259000359B11C0AAE0B2E0BF93AF938AE894E004
:1025A0009F938F930E94C623EC0124960F900F9067
:1025B0000F900F9008C062E172E08AE894E00E94F8
:1025C000B723C9E0D0E0A8E1B2E0BF93AF93CE015A
:1025D0008A579B4F9F938F930E94C623C80FD91F82
:1025E00040908C0250908D0260908E0270908F020D
:1025F0000F900F900F900F9020E030E0A901C301E1
:10260000B2010E94A8218E010A571B4F87FF03C009
:1026100062EE71E01FC020E030E040E251E4C3010F
:10262000B2010E94A82187FF02C022E00BC020E077
:1026300030E048EC52E4C301B2010E94A82187FFB8
:1026400007C021E044E0C301B2010E94792305C024
:1026500067EE71E0C8010E94B723ACE1B2E0BF931E
:10266000AF93C657DB4FDF93CF930E94C62366E834
:1026700074E081E00E94E61084E690E09093850487
:10268000809384040F900F900F900F90A8959BCE8D
:102690001F920F920FB60F9211248F939F938091E8
:1026A0003F0490914004892B49F080913F04909120
:1026B000400401979093400480933F04809162040A
:1026C00090916304892B49F0809162049091630496
:1026D0000197909363048093620480917C049091AD
:1026E0007D04892B49F080917C0490917D040197B1
:1026F00090937D0480937C048091BB049091BC04F2
:10270000892B49F08091BB049091BC040197909370
:10271000BC048093BB048091B1049091B204892BD6
:1027200049F08091B1049091B20401979093B20462
:102730008093B1048091840490918504892B49F0A1
:1027400080918404909185040197909385048093EF
:1027500084048091330490913404892B49F0809152
:10276000330490913404019790933404809333049C
:102770008091960290919702892B49F08091960260
:10278000909197020197909397028093960280917F
:10279000620390916303892B49F0809162039091C9
:1027A00063030197909363038093620380916403B2
:1027B00090916503892B49F08091640390916503A2
:1027C000019790936503809364039F918F910F907D
:1027D0000FBE0F901F9018951F920F920FB60F9279
:1027E00011248F939F9380913204813051F4809112
:1027F00086009091870090933A048093390482E098
:102800001CC0809132048230D9F4809181008C7F89
:102810008093810080916F008F7D80936F00809105
:102820006F008E7F80936F0080918600909187006B
:1028300090933C0480933B0483E08093320411C066
:10284000809181008C7F8093810080916F008F7DCB
:1028500080936F0080916F008E7F80936F00109245
:1028600032049F918F910F900FBE0F901F9018957B
:102870001F920F920FB60F9211248F93EF93FF9335
:10288000E1E8F0E080818C7F8083EFE6F0E08081FA
:102890008F7D808380818E7F808384E0809332046B
:1028A000FF91EF918F910F900FBE0F901F90189591
:1028B0001F920F920FB60F9211240F900FBE0F9020
:1028C0001F901895E4E6F0E080818B7F808385E59A
:1028D0008CBD2A9A1092A7041092A8041092A90401
:1028E0001092AA048AEF90E09093B2048093B1040E
:1028F0001092B50408959DB58EBD0DB407FEFDCFB1
:102900008EB508958F929F92AF92BF92CF92DF9231
:10291000EF92FF928091B504882319F08130F1F095
:10292000ADC08091B1049091B204892B09F0B0C080
:102930002A9880E00E947B1490E09093B4048093E6
:10294000B30480E00E947B1490E09093B0048093E5
:10295000AF042A9A81E08093B5049AC06091AF04D5
:102960007091B00483E0759567958A95E1F7809141
:10297000B3049091B40425E0880F991F2A95E1F7DC
:10298000682B792B072E000C880B990B0E9457227D
:1029900020E030E040E85EE30E940C2320E030E0DD
:1029A00040E450E40E943B214B015C016093AB0486
:1029B0007093AC048093AD049093AE04C090A704D0
:1029C000D090A804E090A904F090AA0420E030E0A0
:1029D000A901C701B6010E94A821811109C08092F6
:1029E000A7049092A804A092A904B092AA043DC0A2
:1029F000A7019601C501B4010E94AD2120E030E09D
:102A000040E85FE30E943B210E941F229B0177FF69
:102A100004C022273327261B370BB901330F880B3D
:102A2000990B0E94572220E030E040E05FE30E94D3
:102A3000A82187FF1AC0A7019601C501B4010E9411
:102A40003B2120E030E040E05FE30E940C239B014B
:102A5000AC01C701B6010E943C216093A7047093AA
:102A6000A8048093A9049093AA048AEF90E090931D
:102A7000B2048093B1041092B5040AC0FF90EF90A5
:102A8000DF90CF90BF90AF909F908F900C94621486
:102A9000FF90EF90DF90CF90BF90AF909F908F907E
:102AA0000895409841984298439884ED9EEF909302
:102AB000BF048093BE048091BE049091BF0497FF31
:102AC0003EC0439A8FE19EE40197F1F700C00000F9
:102AD00043988FE19EE40197F1F700C00000419A0E
:102AE0008FE19EE40197F1F700C0000041988FE16B
:102AF0009EE40197F1F700C00000429A8FE19EE446
:102B00000197F1F700C0000042988FE19EE4019721
:102B1000F1F700C00000409A8FE19EE40197F1F7C1
:102B200000C0000040988FE19EE40197F1F700C0DB
:102B300000008091BE049091BF040496B8CF80E15C
:102B400090E09093BF048093BE048091BE04909166
:102B5000BF0418161906F4F5409A8FE19EE4019718
:102B6000F1F700C0000040988FE19EE40197F1F773
:102B700000C00000429A8FE19EE40197F1F700C087
:102B8000000042988FE19EE40197F1F700C0000039
:102B9000419A8FE19EE40197F1F700C0000041984F
:102BA0008FE19EE40197F1F700C00000439A8FE1A6
:102BB0009EE40197F1F700C0000043988FE19EE486
:102BC0000197F1F700C000008091BE049091BF040E
:102BD0000497B7CF1092BF041092BE0480E190E03A
:102BE0009093B9048093B80484E090E09093B70484
:102BF0008093B60488E38093BA0481E08093BD0497
:102C000008958091BD04813021F0823009F4C2C062
:102C100019C18091BB049091BC04892B09F014C1A7
:102C20008091BE049091BF0418161906DCF520911E
:102C3000B8043091B904283C31050CF088C04091AB
:102C4000B6045091B70442305105E1F064F44130CC
:102C5000510509F07AC02F5F3F4F3093B90420939C
:102C6000B804019758C043305105A1F044305105D4
:102C700009F06BC02F5F3F4F3093B9042093B80425
:102C8000019756C02F5F3F4F3093B9042093B8048B
:102C9000019734C02F5F3F4F3093B9042093B8049D
:102CA00001974CC0009709F452C02091B8043091AC
:102CB000B904213131050CF44AC04091B604509159
:102CC000B7044230510501F15CF441305105E9F59A
:102CD000215031093093B9042093B80401960EC0F5
:102CE00043305105F1F04430510579F52150310957
:102CF0003093B9042093B804019620C09093BF0488
:102D00008093BE0488E31FC0215031093093B90479
:102D10002093B80401969093BF048093BE0486E389
:102D200012C0215031093093B9042093B8040196A0
:102D30009093BF048093BE0482E305C09093BF04C8
:102D40008093BE0484E38093BA0482E078C0409804
:102D50004198429843988091BE049091BF04181600
:102D600019066CF48091B8049091B904883C9105DF
:102D700009F06AC01092BF041092BE040895892B16
:102D800009F462C08091B8049091B904409709F0A9
:102D90005BC0F0CFE091BA048E2F90E0FC01F29777
:102DA000E830F105E0F5EC5CFF4F0C942121409AEE
:102DB00086EF9FEF9093B7048093B60483E336C009
:102DC000409881E090E026C0419A86EF9FEF909373
:102DD000B7048093B60485E329C0419882E090E06F
:102DE00019C0429A86EF9FEF9093B7048093B60480
:102DF00087E31CC0429883E090E00CC0439A86EFC2
:102E00009FEF9093B7048093B60489E30FC0439873
:102E100084E090E09093B7048093B60409C081E009
:102E200090E09093B7048093B60482E38093BA0451
:102E300085E090E09093BC048093BB0481E0809394
:102E4000BD0408950C9451150895CF93DF93AC0100
:102E5000FB019F01261B370B91919A30D1F39D30D6
:102E6000C1F3D901F901EA1BFB0BE40FF51F9491A3
:102E7000992351F0E491EB01C20FD31F8881E8132D
:102E800015C02F5F3F4FEECFC9012115310581F0ED
:102E9000FB01E20FF31F8081803211F42F5F3F4F5F
:102EA0003093C2042093C104C90102C080E090E0C5
:102EB000DF91CF9108950F931F93CF93DF9380916C
:102EC000C004882321F08130B1F00C94C11FC0915F
:102ED0006803C13011F00C94CD1F68EC70E088E9F4
:102EE00092E00E947C201092C2041092C104C09310
:102EF000C0040C94CD1F68E972E085E192E00E9465
:102F00002517892B09F440C0C091B804D091B904A9
:102F10008091C1049091C20488569D4FFC0120818C
:102F20002B3211F02D3289F40E9499239093BF0423
:102F30008093BE048C0F9D1F893C910544F4803121
:102F400091053CF480E190E004C0CE0102C088EC21
:102F500090E09F938F93DF93CF9385E192E09F93CF
:102F60008F9381E292E09F938F9388E992E09F9301
:102F70008F930E94C6238DB79EB70A960FB6F8941A
:102F80009EBF0FBE8DBFEEC768E972E085ED91E090
:102F90000E942517892B09F4E2C28091C104909107
:102FA000C20488569D4FFC01208120532A3008F02E
:102FB00078C00E94992381309105E9F480E090E087
:102FC000A0E0B0E48093780490937904A0937A040D
:102FD000B0937B048DEC9CECACE4BEE38093740472
:102FE00090937504A0937604B093770480E090E00A
:102FF000A0E7B2E41FC0029709F0BDC08FE195E8D9
:10300000ABE9B0E48093780490937904A0937A04B8
:10301000B0937B0484E096E5AEE8BEE3809374044D
:1030200090937504A0937604B093770486E696E6B1
:10303000AAEAB1E480936C0490936D04A0936E04AB
:10304000B0936F0480E090E0A0EAB0E48093410484
:1030500090934204A0934304B093440480E090E032
:10306000A0EFB1E48093800490938104A093820444
:10307000B093830480E090E0A0E8BFE38093700405
:1030800090937104A0937204B0937304109264043B
:1030900010926504109266041092670480ED97E028
:1030A0005AC0BC018AEB91E00E942517892B09F4D4
:1030B00062C080E090E0A0E8BFE380937804909342
:1030C0007904A0937A04B0937B048AE097EDA3E29D
:1030D000BCE38093740490937504A0937604B0933A
:1030E000770480E090E0A8E4B2E480936C049093CD
:1030F0006D04A0936E04B0936F0480E090E0A0EAAA
:10310000B0E48093410490934204A0934304B093AD
:10311000440440E050E068EC71E440938004509334
:10312000810460938204709383044DEC5CEC6CE842
:103130007FE3409370045093710460937204709322
:1031400073048093640490936504A0936604B09321
:10315000670488EB9BE090934C0480934B0480EED3
:103160009EE290937F0480937E0488EE9DEF90937F
:1031700046048093450468E774E088E490E00E9488
:10318000C70968E774E084E290E00E94C70964E739
:1031900074E084E490E00E94C70964E774E080E290
:1031A00090E00E94C7096CE674E080E490E00E9421
:1031B000C7096CE674E08CE190E00E94C70961E405
:1031C00074E08CE390E00E94C70961E474E088E158
:1031D00090E00E94C70960E874E088E390E00E94F4
:1031E000C70960E874E084E190E00E94C70960E7E5
:1031F00074E080E390E00E94C70960E774E08CE02F
:1032000090E00E94C70964E674E084E390E00E94C5
:10321000C70964E674E080E190E00E94C7096BE4AE
:1032200074E08EE290E00E94310A6BE474E08AE080
:1032300090E00E94310A65E474E08AE290E00E9426
:10324000310A65E474E086E090E00E94310A6EE79E
:1032500074E08CE290E00E94310A6EE774E088E04E
:1032600090E00E94310A80E00E94D80A81E192E059
:103270009F938F938EE292E09F938F9388E992E0E1
:103280009F938F930E94C6239093C2048093C1049E
:103290008C0108561D4F60917804709179048091DB
:1032A0007A0490917B0423E047E00E947923809187
:1032B000C1049091C20407969093C2048093C10404
:1032C0002DE032E03F932F93CCE2D2E0DF93CF9317
:1032D00088569D4F9F938F930E94C6230091C104EF
:1032E0001091C204800F911F9093C2048093C10477
:1032F0008C0108561D4F6091740470917504809183
:1033000076049091770423E047E00E94792380912E
:10331000C1049091C20407969093C2048093C104A3
:1033200029E032E03F932F93DF93CF9388569D4F50
:103330009F938F930E94C6230091C1041091C204F1
:10334000800F911F9093C2048093C1048C01085692
:103350001D4F60916C0470916D0480916E0490918A
:103360006F0423E047E00E9479238091C10490918B
:10337000C20407969093C2048093C10421E032E016
:103380003F932F93DF93CF9388569D4F9F938F93B7
:103390000E94C6230091C1041091C204800F911FA6
:1033A0009093C2048093C1048C0108561D4F609114
:1033B000410470914204809143049091440421E0BF
:1033C00044E00E9479238091C1049091C204049644
:1033D0009093C2048093C1042AEE31E03F932F936F
:1033E000DF93CF9388569D4F9F938F930E94C62360
:1033F0000091C1041091C204800F911F9093C204E8
:103400008093C1048C0108561D4F60918004709117
:103410008104809182049091830421E045E00E9420
:1034200079238091C1049091C20405969093C204BF
:103430008093C1042DED31E03F932F93DF93CF9321
:1034400088569D4F9F938F930E94C6230091C1047D
:103450001091C204800F911F9093C2048093C10405
:10346000EDB7FEB7B4960FB6F894FEBF0FBEEDBF32
:103470008C0108561D4F6091700470917104809109
:1034800072049091730422E044E00E9479238091B9
:10349000C1049091C20404969093C2048093C10425
:1034A00022EE31E03F932F93DF93CF9388569D4FC9
:1034B0009F938F930E94C6230091C1041091C20470
:1034C000800F911F9093C2048093C1048C01085611
:1034D0001D4F609164047091650480916604909121
:1034E000670422E045E00E9479238091C104909115
:1034F000C20405969093C2048093C10420914604AF
:103500002F93209145042F932FEE31E03F932F937B
:1035100020917F042F9320917E042F9324EF31E09C
:103520003F932F9320914C042F9320914B042F9382
:103530002BEF31E03F932F9323E332E03F932F9320
:1035400088569D4F9F938F930E94C6238DB79EB739
:1035500046960FB6F8949EBF0FBE8DBF03C568E9AF
:1035600072E082EE91E00E942517892B09F459C080
:103570008091C1049091C20488569D4FFC01208126
:1035800020532A3068F468EC70E00E949620609323
:10359000640470936504809366049093670413C079
:1035A000BC018AEB91E00E942517892BD9F080E0BD
:1035B00090E0A0EAB0E48093640490936504A09343
:1035C0006604B093670464E674E084E390E00E94CC
:1035D000C70964E674E080E190E00E94C70980E0DA
:1035E0000E94D80A82EE91E09F938F938EE292E040
:1035F0009F938F9388E992E09F938F930E94C623B5
:103600009093C2048093C1048C0108561D4F6091B1
:10361000640470916504809166049091670422E0CF
:10362000CCC068E972E08DED91E00E942517892BEE
:1036300009F462C08091C1049091C20488569D4FE4
:10364000FC01208120532A3068F468EC70E00E946D
:103650009620609370047093710480937204909329
:10366000730413C0BC018AEB91E00E942517892BDB
:10367000D9F08DEC9CECACE8BFE3809370049093A0
:103680007104A0937204B093730460E774E080E364
:1036900090E00E94C70960E774E08CE090E00E942F
:1036A000C70980E00E94D80A8DED91E09F938F9327
:1036B0008EE292E09F938F9388E992E09F938F939D
:1036C0000E94C6239093C2048093C1048C010856C3
:1036D0001D4F6091700470917104809172049091FB
:1036E000730422E044E00E9479230F900F900F9022
:1036F0000F900F900F9036C468E972E08AEE91E067
:103700000E942517892B09F45AC08091C104909119
:10371000C20488569D4FFC01208120532A3068F452
:1037200068EC70E00E94962060938004709381049E
:10373000809382049093830413C0BC018AEB91E0D0
:103740000E942517892BD9F080E090E0A8ECB1E425
:103750008093800490938104A0938204B0938304A7
:1037600060E874E088E390E00E94C70960E874E0D4
:1037700084E190E00E94C70980E00E94D80A8AEEA6
:1037800091E09F938F938EE292E09F938F9388E9CD
:1037900092E09F938F930E94C6239093C2048093DC
:1037A000C1048C0108561D4F609180047091810402
:1037B000809182049091830421E045E094CF68E9F0
:1037C00072E081E192E00E942517892B09F458C02C
:1037D0008091C1049091C20488569D4FFC012081C4
:1037E00020532A3068F468EC70E00E9496206093C1
:1037F00078047093790480937A0490937B0413C0C7
:10380000BC018AEB91E00E942517892BD9F080E05A
:1038100090E0A0E8BFE38093780490937904A093AC
:103820007A04B0937B0468E774E088E490E00E9437
:10383000C70968E774E084E290E00E94C70980E06D
:103840000E94D80A81E192E09F938F938EE292E0EA
:103850009F938F9388E992E09F938F930E94C62352
:103860009093C2048093C1048C0108561D4F60914F
:1038700078047091790480917A0490917B0449C115
:1038800068E972E08DE092E00E942517892B09F427
:103890007FC08091C1049091C20488569D4FFC0165
:1038A000208120532A30E0F468EC70E00E949620DA
:1038B00060937404709375048093760490937704F6
:1038C00064E774E084E490E00E94C70964E774E070
:1038D00080E290E00E94C70980E00E94D80A3AC0C6
:1038E000BC018AEB91E00E942517892B99F18AE0AF
:1038F00097EDA3E2BCE38093740490937504A093C6
:103900007604B093770464E774E084E490E00E9466
:10391000C70964E774E080E290E00E94C70980E094
:103920000E94D80A8DE092E09F938F938EE292E0FE
:103930009F938F9388E992E09F938F930E94C62371
:103940009093C2048093C1040F900F900F900F903A
:103950000F900F908DE092E09F938F938EE292E014
:103960009F938F9388E992E09F938F930E94C62341
:103970009093C2048093C1048C0108561D4F60913E
:103980007404709175048091760490917704C1C09D
:1039900068E972E089E092E00E942517892B09F41A
:1039A00058C08091C1049091C20488569D4FFC017B
:1039B000208120532A3068F468EC70E00E94962041
:1039C00060936C0470936D0480936E0490936F0405
:1039D00013C0BC018AEB91E00E942517892BD9F016
:1039E00080E090E0A8E4B2E480936C0490936D04CE
:1039F000A0936E04B0936F046CE674E080E490E0F2
:103A00000E94C7096CE674E08CE190E00E94C7094F
:103A100080E00E94D80A89E092E09F938F938EE223
:103A200092E09F938F9388E992E09F938F930E94F7
:103A3000C6239093C2048093C1048C0108561D4F85
:103A400060916C0470916D0480916E0490916F048C
:103A500060C068E972E081E092E00E942517892B3E
:103A600009F45AC08091C1049091C20488569D4FB8
:103A7000FC01208120532A3068F468EC70E00E9439
:103A80009620609341047093420480934304909382
:103A9000440413C0BC018AEB91E00E942517892BD6
:103AA000D9F080E090E0A0EAB0E4809341049093E4
:103AB0004204A0934304B093440461E474E08CE3B3
:103AC00090E00E94C70961E474E088E190E00E9400
:103AD000C70980E00E94D80A81E092E09F938F930B
:103AE0008EE292E09F938F9388E992E09F938F9369
:103AF0000E94C6239093C2048093C1048C0108568F
:103B00001D4F609141047091420480914304909153
:103B1000440423E047E0E7CD68E972E08BEF91E0F1
:103B20000E942517892B09F448C08091C104909107
:103B3000C20488569D4FFC01208120532A3018F47E
:103B40000E94992309C0BC018AEB91E00E942517CD
:103B5000892BA9F088EB9BE090934C0480934B0455
:103B60006BE474E08EE290E00E94310A6BE474E052
:103B70008AE090E00E94310A80E00E94D80A809199
:103B80004C048F9380914B048F938BEF91E09F9324
:103B90008F938CE492E09F938F9388E992E09F93B8
:103BA0008F930E94C6232DB73EB7285F3F4F0FB6B5
:103BB000F8943EBF0FBE2DBFD5C168E972E08FEE0D
:103BC00091E00E942517892B09F448C08091C10417
:103BD0009091C20488569D4FFC01208120532A30C9
:103BE00018F40E94992309C0BC018AEB91E00E945D
:103BF0002517892BA9F088EE9DEF909346048093BA
:103C0000450465E474E08AE290E00E94310A65E4CC
:103C100074E086E090E00E94310A80E00E94D80AB9
:103C2000809146048F93809145048F938FEE91E0AD
:103C30009F938F938CE492E09F938F9388E992E017
:103C40009F938F930E94C6232DB73EB7285F3F4FA7
:103C50000FB6F8943EBF0FBE2DBF84C168E972E075
:103C600084EF91E00E942517892B09F448C08091C8
:103C7000C1049091C20488569D4FFC0120812053BD
:103C80002A3018F40E94992309C0BC018AEB91E004
:103C90000E942517892BA9F080EE9EE290937F0465
:103CA00080937E046EE774E08CE290E00E94310A1B
:103CB0006EE774E088E090E00E94310A80E00E94A4
:103CC000D80A80917F048F9380917E048F9384EF34
:103CD00091E09F938F938CE492E09F938F9388E978
:103CE00092E09F938F930E94C6232DB73EB7285F23
:103CF0003F4F0FB6F8943EBF0FBE2DBF33C168E9EA
:103D000072E08FEA91E00E942517892B61F182E72A
:103D100091E09F938F938FEA91E09F938F9387E534
:103D200092E09F938F9388E992E09F938F930E94F4
:103D3000C62368EC70E088E992E00E947A039FE075
:103D400088E10FB6F894A895809360000FBE909319
:103D50006000A8958DB79EB708960FB6F8949EBFE1
:103D60000FBE8DBFFFCF68E972E080EA91E00E944C
:103D70002517892B81F184E090E00E94B90B82E73E
:103D800091E09F938F9380EA91E09F938F9387E5D3
:103D900092E09F938F9388E992E09F938F930E9484
:103DA000C62368EC70E088E992E00E947A039FE005
:103DB00088E10FB6F894A895809360000FBE9093A9
:103DC0006000A895EDB7FEB738960FB6F894FEBF21
:103DD0000FBEEDBFFFCF68E972E08EEC91E00E946C
:103DE0002517892B09F47CC06091C1047091C2042D
:103DF00068567D4F86EC91E00E942517892B19F1BA
:103E000081E080933E0482E791E09F938F9386EC5C
:103E100091E09F938F938EEC91E09F938F938EE52B
:103E200092E09F938F9388E992E09F938F930E94F3
:103E3000C6232DB73EB7265F3F4F0FB6F8943EBF5F
:103E40000FBE2DBF8FC06091C1047091C20468562F
:103E50007D4F81EC91E00E942517892B11F181E0C3
:103E60008093590482E791E09F938F9381EC91E0D6
:103E70009F938F938EEC91E09F938F9388E692E0CF
:103E80009F938F9388E992E09F938F930E94C6231C
:103E90008DB79EB70A960FB6F8949EBF0FBE8DBF22
:103EA00061C08FE791E09F938F938CE891E09F939F
:103EB0008F938EEC91E09F938F938EE592E09F938A
:103EC0008F9388E992E09F938F930E94C623EDB76A
:103ED000FEB73A960FB6F894FEBF0FBEEDBF42C0D4
:103EE00080913E04813021F080915904813001F5A8
:103EF00010923E04109259048DE691E09F938F93A7
:103F00008EEC91E09F938F9387E592E09F938F9340
:103F100088E992E09F938F930E94C6232DB73EB706
:103F2000285F3F4F0FB6F8943EBF0FBE2DBF1AC09B
:103F30008FE791E09F938F9387E991E09F938F9311
:103F400087E592E09F938F9388E992E09F938F9308
:103F50000E94C6238DB79EB708960FB6F8949EBFF1
:103F60000FBE8DBF68EC70E088E992E00E947A0392
:103F70008BE491E00E94D1031092C2041092C1041C
:103F800008C01092C2041092C10487E491E00E941C
:103F9000D103109268031092C004DF91CF911F915A
:103FA0000F9108951092C0048FE491E09F938F9336
:103FB0008BEB91E09F938F9388E992E09F938F938F
:103FC0000E94C6230F900F900F900F900F900F90AC
:103FD00068EC70E088E992E00C947A031F93CF9329
:103FE000DF93EC01DB0120E030E060E070E081E095
:103FF0009D919923E1F064177507CCF4FE01E20F5F
:10400000F31F1491112399F0E491E9130AC02F5F73
:104010003F4FFE01E20FF31FE491E11105C080E084
:1040200003C020E030E081E06F5F7F4FE1CFDF91A0
:10403000CF911F910895FF920F931F93CF93DF931A
:10404000DC01FB0120E030E060E070E081E0415005
:104050005109F190FF20E1F064177507CCF48D0150
:10406000020F131FE8019881992391F09F110AC054
:104070002F5F3F4FED01C20FD31F9881911105C0F3
:1040800080E003C020E030E081E06F5F7F4FE1CF50
:10409000DF91CF911F910F91FF900895FB019F0138
:1040A000261B370B41914A30D1F34D30C1F3FC014F
:1040B000DB01A20FB31F8491882339F094918D9175
:1040C00031969817C1F381E008950895FB019F018F
:1040D000261B370B41914A30D1F34D30C1F3FC011F
:1040E000DB01A20FB31F8191882329F09D918917CD
:1040F000D1F381E008950895FC0120E030E085EAE5
:104100009081992389F02617370774F44FE9490FF6
:104110004A3118F49052908303C0943A09F4808392
:104120002F5F3F4F3196ECCFC90108953F924F92D8
:104130005F926F927F928F929F92AF92BF92CF9237
:10414000DF92EF92FF920F931F93CF93DF938C0137
:104150005B010E949923BC01990F880B990B0E9467
:1041600057226B017C01F801C0E0D0E081918E32D2
:1041700039F08823F1F1CA15DB05DCF52196F6CF7D
:1041800021968AE0882E912C9AE0392EF801EC0FC6
:10419000FD1F608180ED860F8A3058F5CA15DB055A
:1041A00044F570E060537109072E000C880B990BE1
:1041B0000E9457222B013C01B401092C000C880BF2
:1041C000990B0E9457229B01AC01C301B2010E94CE
:1041D000AD219B01AC01C701B6010E943C216B01DE
:1041E0007C012196C401389E4001399E900C112417
:1041F000CDCFC701B601DF91CF911F910F91FF90F5
:10420000EF90DF90CF90BF90AF909F908F907F9076
:104210006F905F904F903F90089597FB072E16F494
:10422000009407D077FD09D00E94272107FC05D014
:104230003EF4909581959F4F0895709561957F4FBD
:104240000895EE0FFF1F0590F491E02D0994AA1B2D
:10425000BB1B51E107C0AA1FBB1FA617B70710F071
:10426000A61BB70B881F991F5A95A9F780959095A3
:10427000BC01CD0108955058BB27AA270E945321A5
:104280000C94CD220E94BF2238F00E94C62220F05A
:1042900039F49F3F19F426F40C94BC220EF4E095F7
:1042A000E7FB0C94B622E92F0E94DE2258F3BA17DE
:1042B000620773078407950720F079F4A6F50C943C
:1042C00000230EF4E0950B2EBA2FA02D0B01B9019F
:1042D00090010C01CA01A0011124FF27591B99F07C
:1042E000593F50F4503E68F11A16F040A22F232F88
:1042F000342F4427585FF3CF469537952795A795D8
:10430000F0405395C9F77EF41F16BA0B620B730B7E
:10431000840BBAF09150A1F0FF0FBB1F661F771FEF
:10432000881FC2F70EC0BA0F621F731F841F48F4A4
:10433000879577956795B795F7959E3F08F0B0CF2D
:104340009395880F08F09927EE0F97958795089514
:104350000E94922208F481E008950E94C1210C94E9
:10436000CD220E94C62258F00E94BF2240F029F4BC
:104370005F3F29F00C94B62251110C9401230C9448
:10438000BC220E94DE2268F39923B1F3552391F3F6
:10439000951B550BBB27AA2762177307840738F0B4
:1043A0009F5F5F4F220F331F441FAA1FA9F335D011
:1043B0000E2E3AF0E0E832D091505040E695001CC5
:1043C000CAF72BD0FE2F29D0660F771F881FBB1F7F
:1043D000261737074807AB07B0E809F0BB0B802D5D
:1043E000BF01FF2793585F4F3AF09E3F510578F089
:1043F0000C94B6220C9401235F3FE4F3983ED4F36F
:10440000869577956795B795F7959F5FC9F7880F5C
:10441000911D9695879597F90895E1E0660F771FAE
:10442000881FBB1F621773078407BA0720F0621B3F
:10443000730B840BBA0BEE1F88F7E09508950E946A
:1044400026226894B1110C94012308950E94E6225B
:1044500088F09F5798F0B92F9927B751B0F0E1F045
:10446000660F771F881F991F1AF0BA95C9F714C0F5
:10447000B13091F00E940023B1E008950C94002324
:10448000672F782F8827B85F39F0B93FCCF386952E
:1044900077956795B395D9F73EF49095809570958B
:1044A00061957F4F8F4F9F4F0895E89409C097FB08
:1044B0003EF490958095709561957F4F8F4F9F4FFB
:1044C0009923A9F0F92F96E9BB279395F69587953F
:1044D00077956795B795F111F8CFFAF4BB0F11F402
:1044E00060FF1BC06F5F7F4F8F4F9F4F16C08823A9
:1044F00011F096E911C0772321F09EE8872F762FDF
:1045000005C0662371F096E8862F70E060E02AF01F
:104510009A95660F771F881FDAF7880F969587950B
:1045200097F90895990F0008550FAA0BE0E8FEEFE0
:1045300016161706E807F907C0F012161306E40767
:10454000F50798F0621B730B840B950B39F40A2660
:1045500061F0232B242B252B21F408950A2609F43E
:10456000A140A6958FEF811D811D089597F99F6742
:1045700080E870E060E008959FEF80EC08950024EB
:104580000A941616170618060906089500240A94B8
:1045900012161306140605060895092E0394000C3E
:1045A00011F4882352F0BB0F40F4BF2B11F460FFCD
:1045B00004C06F5F7F4F8F4F9F4F089557FD9058F6
:1045C000440F551F59F05F3F71F04795880F97FBD7
:1045D000991F61F09F3F79F0879508951216130691
:1045E0001406551FF2CF4695F1DF08C016161706C0
:1045F0001806991FF1CF86957105610508940895F5
:10460000E894BB2766277727CB0197F908950E9486
:10461000922208F48FEF08950E941F230C94CD225C
:104620000E94BF2238F00E94C62220F0952311F08C
:104630000C94B6220C94BC2211240C9401230E94E9
:10464000DE2270F3959FC1F3950F50E0551F629FD6
:10465000F001729FBB27F00DB11D639FAA27F00DDB
:10466000B11DAA1F649F6627B00DA11D661F829F02
:104670002227B00DA11D621F739FB00DA11D621FE7
:10468000839FA00D611D221F749F3327A00D611D04
:10469000231F849F600D211D822F762F6A2F1124E6
:1046A0009F5750409AF0F1F088234AF0EE0FFF1F19
:1046B000BB1F661F771F881F91505040A9F79E3F70
:1046C000510580F00C94B6220C9401235F3FE4F373
:1046D000983ED4F3869577956795B795F795E795C6
:1046E0009F5FC1F7FE2B880F911D9695879597F9CF
:1046F0000895EF920F931F93CF93DF93E80147FD47
:1047000002C034E001C034E1E42F440FFF0BF7FF97
:1047100003C0F195E195F109E32E022F2E2FAE0192
:104720000E94BB25CE01DF91CF911F910F91EF9099
:104730000895FC0188279927E89421912032E9F314
:10474000293010F02E30C8F32B3241F02D3239F4DD
:10475000689404C00E94BE23820F911D21912053B2
:104760002A30C0F31EF4909581959F4F0895FB0168
:10477000DC0101900D920020E1F708957AE0979F07
:10478000902D879F802D910D11240895AEE0B0E00B
:10479000ECECF3E20C941A290D891E8986E08C83D7
:1047A0001A8309838FEF9FE79E838D83AE01475E57
:1047B0005F4F6F89788DCE0101960E94E9232F818A
:1047C0003885F801E20FF31F10822E96E4E00C9476
:1047D0003629ACE0B0E0EFEEF3E20C940C297C015A
:1047E0006B018A01FC0117821682838181FFBDC1A2
:1047F000CE0101964C01F7019381F60193FD85915D
:1048000093FF81916F01882309F4ABC1853239F49C
:1048100093FD859193FF81916F01853229F4B70152
:1048200090E00E943728E7CF512C312C20E0203235
:10483000A0F48B3269F030F4803259F0833269F49D
:1048400020612CC08D3239F0803339F4216026C0CC
:104850002260246023C0286021C027FD27C030EDDE
:10486000380F3A3078F426FF06C0FAE05F9E300D2C
:104870001124532E13C08AE0389E300D1124332E9C
:1048800020620CC08E3221F426FD6BC1206406C06C
:104890008C3611F4206802C0883641F4F60193FD8D
:1048A000859193FF81916F018111C1CF982F9F7DD9
:1048B0009554933028F40C5F1F4FFFE3F9830DC02C
:1048C000833631F0833771F0833509F05BC022C045
:1048D000F801808189830E5F1F4F44244394512C3B
:1048E000540115C03801F2E06F0E711CF801A08070
:1048F000B18026FF03C0652D70E002C06FEF7FEF2F
:10490000C5012C870E942C282C0183012C852F7730
:10491000222E17C03801F2E06F0E711CF801A08042
:10492000B18026FF03C0652D70E002C06FEF7FEFFE
:10493000C5012C870E9421282C012C852068222E5D
:10494000830123FC1BC0832D90E048165906B0F468
:10495000B70180E290E00E9437283A94F4CFF50145
:1049600027FC859127FE81915F01B70190E00E94AD
:10497000372831103A94F1E04F1A5108411451048C
:1049800071F7E5C0843611F0893639F5F80127FF53
:1049900007C060817181828193810C5F1F4F08C0C5
:1049A00060817181072E000C880B990B0E5F1F4FE1
:1049B0002F76722E97FF09C090958095709561951E
:1049C0007F4F8F4F9F4F2068722E2AE030E0A40166
:1049D0000E946F28A82EA81844C0853729F42F7E7E
:1049E000B22E2AE030E025C0F22FF97FBF2E8F369D
:1049F000C1F018F4883579F0B4C0803719F08837E1
:104A000021F0AFC02F2F2061B22EB4FE0DC08B2D30
:104A10008460B82E09C024FF0AC09F2F9660B92E6B
:104A200006C028E030E005C020E130E002C020E10F
:104A300032E0F801B7FE07C0608171818281938105
:104A40000C5F1F4F06C06081718180E090E00E5FB7
:104A50001F4FA4010E946F28A82EA818FB2DFF77D6
:104A60007F2E76FE0BC0372D3E7FA51450F474FECA
:104A70000AC072FC08C0372D3E7E05C0BA2C372D07
:104A800003C0BA2C01C0B52C34FF0DC0FE01EA0DE5
:104A9000F11D8081803311F4397E09C032FF06C0D8
:104AA000B394B39404C0832F867809F0B39433FD94
:104AB00013C030FF06C05A2CB31418F4530C5B1803
:104AC000B32CB31468F4B70180E290E03C870E94F5
:104AD0003728B3943C85F5CFB31410F43B1801C0CC
:104AE000312C34FF12C0B70180E390E03C870E9474
:104AF00037283C8532FF17C031FD03C088E790E0BE
:104B000002C088E590E0B7010CC0832F867859F089
:104B100031FF02C08BE201C080E237FD8DE2B701B8
:104B200090E00E943728A51438F4B70180E390E0A4
:104B30000E9437285A94F7CFAA94F401EA0DF11D88
:104B40008081B70190E00E943728A110F5CF332073
:104B500009F451CEB70180E290E00E9437283A94E0
:104B6000F6CFF7018681978102C08FEF9FEF2C96D9
:104B7000E2E10C9428294F925F926F927F929F926C
:104B8000AF92BF92CF92DF92EF92FF920F931F935B
:104B9000CF93DF93CDB7DEB729970FB6F894DEBF7A
:104BA0000FBECDBF6A01122FB02E2BE3201720F0CD
:104BB000FF24F394F00E02C0BCE3FB2E0F2D27E080
:104BC000AE014F5F5F4F0E944927AC018981982F4A
:104BD0009970913031F0E1FC06C0E0FE06C090E231
:104BE00005C09DE203C09BE201C090E0EE2DE071A4
:104BF00083FF3CC0911102C083E001C084E08117B3
:104C000018F4212F281B01C020E0E1110BC0F60190
:104C1000822F30E2882319F031938150FBCFC20EEE
:104C2000D11C20E0992329F0D6019C93F6013196FE
:104C30006F01C6010396E2FE0AC03EE4D6013C9332
:104C400041E411964C93119712963C9306C03EE6B0
:104C5000F601308341E641833283FC01322F40E28A
:104C6000332309F442C041933150FACF82FF44C04C
:104C7000911102C083E001C084E0811718F4212F54
:104C8000281B01C020E0E1110BC0F601822F30E2A9
:104C9000882319F031938150FBCFC20ED11C20E044
:104CA000992329F0D6019C93F60131966F01C60134
:104CB0000396E2FE0BC039E4D6013C933EE4119624
:104CC0003C93119736E412963C9307C039E6F601FF
:104CD00030833EE6318336E63283FC01322F40E2F8
:104CE000332319F041933150FBCFFC01E20FF11D4A
:104CF00010828EEF9FEFB7C0F1E0911101C0F0E09C
:104D00006F2F70E01416150624F49A012F5F3F4FA1
:104D100002C021E030E0260F371FBB2029F06B2DA9
:104D200070E06F5F7F4F02C060E070E0260F371FBA
:104D3000612F70E0261737071CF4121B212F01C0CA
:104D400020E03E2D387159F4D601322F60E2332332
:104D500019F06D933150FBCFC20ED11C20E0FF2320
:104D600031F0D6019C93B6016F5F7F4F6B01E1116B
:104D70000BC0F601922F30E3992319F03193915033
:104D8000FBCFC20ED11C20E09F2D940F3A81782FCB
:104D90007071A72E84FF03C0313309F491501916A6
:104DA00024F4993018F098E001C091E0E42F852FA9
:104DB00057FF02C0E0E080E06E2F782FE0E0F0E0E7
:104DC000AEE29A2E3A01691A71082A01461A570A68
:104DD0000B2D10E01195019511096F3F8FEF7807AA
:104DE00029F4D6019C92C60101966C01461757071B
:104DF00084F0661677066CF47F01E40CF51CA1E0E4
:104E0000B0E0AC0FBD1FEA0EFB1ED7011196BC909F
:104E100002C090E3B92E615071093196C601019626
:104E20007C016017710724F0D601BC926C01D5CFCC
:104E30006417750741F4363320F4353321F4A1109B
:104E400002C081E3B82EF601B082F701822F90E212
:104E5000882319F091938150FBCFF701E20FF11DE8
:104E6000108280E090E029960FB6F894DEBF0FBE66
:104E7000CDBFDF91CF911F910F91FF90EF90DF9009
:104E8000CF90BF90AF909F907F906F905F904F902A
:104E90000895283008F027E03327DA01990F311DF3
:104EA00087FD916000966105710539F432602E5FCF
:104EB0003D9330E32A95E1F708959F3F30F0803825
:104EC0007105610509F03C5F3C5F3D93913008F04E
:104ED0008068911DDF93CF931F930F93FF92EF9202
:104EE000192F987F9695E92F96959695E90FFF27AC
:104EF000EB58FD4F99273327EE24FF24A701E70144
:104F000005900894079428F4360FE71EF81E491FF1
:104F1000511D660F771F881F991F0694A1F70590F2
:104F2000079428F4E70EF81E491F561FC11D770F7E
:104F3000881F991F661F0694A1F70590079428F40F
:104F4000F80E491F561FC71FD11D880F991F661FD6
:104F5000771F0694A1F70590079420F4490F561F78
:104F6000C71FD81F990F661F771F881F0694A9F7C0
:104F700084911095177041F0D695C7955795479530
:104F8000F794E7941A95C1F7EBE1F2E06894159075
:104F9000159135916591959105907FE27395E11892
:104FA000F10A430B560BC90BD009C0F7E10CF11EF7
:104FB000431F561FC91FD01D7EF4703311F48A950C
:104FC000E6CFE894015030F0080F0AF400270217EA
:104FD00008F4202F2395022F7A3328F079E37D936C
:104FE0002A95E9F710C07D932A9589F6069497953E
:104FF0006795379517951794E118F10A430B560BEF
:10500000C90BD00998F023957E9173957A3308F0F7
:1050100070E37C932013B8F77E9170617D9330F03C
:10502000839571E37D9370E32A95E1F71124EF9066
:10503000FF900F911F91CF91DF91992787FD909558
:105040000895FC010590615070400110D8F78095DB
:1050500090958E0F9F1F0895FC0161507040019044
:105060000110D8F7809590958E0F9F1F08950F938C
:105070001F93CF93DF93FB01238121FD03C08FEFAB
:105080009FEF28C022FF16C04681578124813581B9
:105090004217530744F4A081B1819D012F5F3F4F18
:1050A000318320838C93268137812F5F3F4F378355
:1050B000268310C0EB01092F182F0084F185E02D05
:1050C0000995892BE1F68E819F8101969F838E83BE
:1050D000812F902FDF91CF911F910F910895FA01A9
:1050E000AA27283051F1203181F1E8946F936E7F27
:1050F0006E5F7F4F8F4F9F4FAF4FB1E03ED0B4E018
:105100003CD0670F781F891F9A1FA11D680F791F58
:105110008A1F911DA11D6A0F711D811D911DA11D69
:1051200020D009F468943F912AE0269F1124301979
:10513000305D3193DEF6CF010895462F4770405D14
:105140004193B3E00FD0C9F7F6CF462F4F70405DC3
:105150004A3318F0495D31FD4052419302D0A9F71E
:10516000EACFB4E0A6959795879577956795BA9518
:10517000C9F700976105710508959B01AC010A2EDE
:1051800006945795479537952795BA95C9F7620FB5
:10519000731F841F951FA01D0895F999FECF92BD1E
:1051A00081BDF89A992780B50895A6E1B0E044E062
:1051B00050E00C94FE28A8E1B0E042E050E00C94EE
:1051C000FE28262FF999FECF1FBA92BD81BD20BDC2
:1051D0000FB6F894FA9AF99A0FBE01960895242F03
:1051E0000E94E228252F0E94E2280C94F7280E94B2
:1051F000E128272F0C94E228DC01CB01FC01F9996E
:10520000FECF06C0F2BDE1BDF89A319600B40D9212
:1052100041505040B8F708952F923F924F925F92BD
:105220006F927F928F929F92AF92BF92CF92DF92B6
:10523000EF92FF920F931F93CF93DF93CDB7DEB71B
:10524000CA1BDB0B0FB6F894DEBF0FBECDBF0994AF
:105250002A88398848885F846E847D848C849B8406
:10526000AA84B984C884DF80EE80FD800C811B8114
:10527000AA81B981CE0FD11D0FB6F894DEBF0FBE43
:0A528000CDBFED010895F894FFCFB3
:10528A000C12120C000000000F08080808080F0092
:10529A001C07010101071C000204081F020C0C0074
:1052AA0000000000000000000000000000000000F4
:1052BA0000000000000000000000000000000000E4
:1052CA000D436175643D2000206C2F6D696E3B2093
:1052DA0053657454656D703D200020433B20416343
:1052EA0054656D703D200020433B2056616C76501A
:1052FA006F733D2025303364253034643B002043EE
:10530A003B2056616C76506F733D20253033642BF9
:10531A00253033643B003B253033643B253034640D
:10532A000A0D003B253033643B2B253033640A0DCC
:10533A00000A0D2553202564000A0D2553002D501F
:10534A006564726F2D4A75616E2D416E612D00493B
:10535A006E696369616E646F2E2E2E00546D703A09
:10536A0020002D554C2D002D4F4C2D002525304366
:10537A0020554C252530430025253043200025257E
:10538A003043204F4C25253043006C2F6D202525B6
:10539A0033006C2F6D20200025253100562525323B
:1053AA000025533A2025642D3E2564000A0D255315
:1053BA003A20000A0D25533A2025750A0D25533A3D
:1053CA002025750A0D25533A2025750025533A20C4
:1053DA0025646D7365670025533A202553002553CC
:1053EA003A2025532025530025533A2025532025BA
:1053FA00530A0A0D434155443B534554543B4143D8
:0C540A0054543B56414C3B434F4D440072
:00000001FF
