:100000000C94B9000C94D6000C94D6000C94D60035
:100010000C94D6000C94D6000C94D6000C940508D1
:100020000C94D6000C94D6000C9492080C94D60034
:100030000C94D6000C94DE080C94D6000C94D600D8
:100040000C94D6000C94D6000C94D6000C94D600D8
:100050000C94D6000C94D6000C94D6000C94D600C8
:100060000C94D6000C94D600A304A704AC04B104ED
:10007000B704BB04C004C70400407A10F35A00A0C0
:10008000724E18090010A5D4E80000E87648170061
:1000900000E40B54020000CA9A3B000000E1F505A1
:1000A000000080969800000040420F000000A086EB
:1000B00001000000102700000000E803000000001D
:1000C0006400000000000A000000000001000000C1
:1000D00000002C76D888DC674F0823DFC1DFAE59DB
:1000E000E1B1B796E5E3E453C63AE651997696E86E
:1000F000E6C28426EB898C9B62ED407C6FFCEFBCF2
:100100009C9F40F2BAA56FA5F490055A2AF75C931C
:100110006B6CF9676DC11BFCE0E40D47FEF520E652
:10012000B500D0ED902E0300943577050080841E35
:10013000080000204E0A000000C80C333333330F90
:10014000986E12831141EF8D2114893BE65516CF2D
:10015000FEE6DB18D1844B381BF77C1D901DA4BB39
:10016000E424203284725E228100C9F124ECA1E5EE
:100170003D2711241FBECFEFD8E0DEBFCDBF11E079
:10018000A0E0B1E0EAE4F1E202C005900D92A036F1
:10019000B107D9F723E0A0E6B1E001C01D92A13379
:1001A000B207E1F70E9492060C94A3100C94FE088B
:1001B00086E480937C0087EC80937A001092600143
:1001C0001092610110926201109263011092640119
:1001D00010926501109266011092670110926801F9
:1001E0000895CF92DF92EF92FF9280916801813063
:1001F00079F038F0823009F45CC0833009F462C0D1
:100200009CC080917A00806480937A0081E057C01E
:1002100080917A0086FD97C0809178009091790056
:10022000C0906001D0906101E0906201F0906301A4
:10023000BC0180E090E00E941A0A21E73DEB41E812
:1002400052E40E94A809A70196010E94360920E005
:1002500030E04AEF53E40E94A8099B01AC01C701BA
:10026000B6010E9437096B017C01609360017093B5
:100270006101809362019093630120E030E040E7E8
:1002800051E40E94CC0A87FD02C045980BC020E0D3
:1002900030E048E551E4C701B6010E94A3091816F1
:1002A0000CF0459A80917C00816080937C0082E014
:1002B00006C080917A00806480937A0083E0809306
:1002C000680141C080917A0086FD3DC08091780030
:1002D00090917900C0906401D0906501E090660132
:1002E000F0906701BC0180E090E00E941A0A20E0D3
:1002F00030E040E251E40E94A809A70196010E9463
:10030000360920E030E04AEF53E40E94A8099B013F
:10031000AC01C701B6010E94370960936401709374
:100320006501809366019093670180917C008E7FC8
:1003300080937C001092680106C0FF90EF90DF90E0
:10034000CF900C94D800FF90EF90DF90CF9008955D
:1003500089E190E09093C5008093C4001092C000A2
:1003600088E18093C10086E08093C20010923C0235
:1003700010926901089589EC90E02091C00027FF58
:1003800004C02091C6000197C1F70895A89582E0A6
:1003900090E090936B0180936A018091C00085FD8D
:1003A00006C080916A0190916B01892BB1F7209171
:1003B0006A0130916B0181E0232B09F080E0089500
:1003C000CF93C0913402CC2319F0C130A1F0B4C056
:1003D0008091C00087FF04C080913C02813041F4CD
:1003E0008091360290913702892B09F4A5C0A6C0EE
:1003F00010923A0290C0E0913A028091C000E1115F
:1004000030C084FD08C08091C00083FD04C080918D
:10041000C00082FF03C00E94BB018EC08091C60055
:1004200080936C012CE43DE1309339022093380233
:100430008A3011F08D3019F410926C0140C00E9486
:10044000C601E0913A02F0E0E459FE4F80818093CA
:10045000C60080913A028F5F80933A02C0933402C3
:100460006FC087FD0CC08091380290913902892BB2
:1004700009F066C0F0E0E459FE4F108254C0E73C3A
:1004800008F04DC08091C00084FDC5CF8091C000B0
:1004900083FDC1CF8091C00082FDBDCFF0E080918F
:1004A000C600E459FE4F80832CE43DE130933902CD
:1004B000209338028A3011F08D3079F410820E9436
:1004C000C6018AE08093C6000E94C6018DE0809339
:1004D000C60081E080933C0228C00E94C601E091E2
:1004E0003A02F0E0E459FE4FC081C093C600C83024
:1004F00069F40E94C60180E28093C6000E94C60192
:10050000C093C60080913A02815003C080913A02A4
:100510008F5F80933A0281E08093340211C0E73C00
:1005200079F410923302C0933C0280E293E09093FE
:1005300037028093360202C010923C0210923402BD
:10054000CF910895EF92FF920F931F93CF93DF9374
:100550007C01A895EC018B01015011098881882349
:1005600061F0CE018E199F098017910734F40E9423
:10057000C60189918093C600F1CFDF91CF911F9181
:100580000F91FF90EF900895AF92BF92CF92DF92BC
:10059000EF92FF920F931F93CF93DF93CDB7DEB708
:1005A000ADB6BEB6A895E22EF12CE40EF11CEDB767
:1005B000FEB7EE19FF090FB6F894FEBF0FBEEDBFF0
:1005C00031966F018F010E943E0BB701C6010E9458
:1005D000A2020FB6F894BEBE0FBEADBEDF91CF91A2
:1005E0001F910F91FF90EF90DF90CF90BF90AF9051
:1005F00008950F931F93CF93DF93A895EC01FE010D
:1006000084918E010F5F1F4F882341F00E94C60125
:10061000FE01C491C093C600E801F1CFDF91CF91F4
:100620001F910F910895A89582E090E090936B013F
:1006300080936A018091C00087FD06C080916A01A5
:1006400090916B01892BB1F720916A0130916B0178
:1006500081E0232B09F080E00895CF92DF92EF92A2
:10066000FF920F931F93CF93DF936C018C01015086
:100670001109C0E0D0E07B0181E0E81AF108CE1555
:10068000DF059CF4F80191918F01992371F09A3064
:1006900061F09D3051F00E941303811106C08091DA
:1006A000C600F80180832196EACFCC0DDD1D1882AB
:1006B000DF91CF911F910F91FF90EF90DF90CF903E
:1006C00008951092800080EC809381001092820047
:1006D000EFE6F0E080818D7F808380818B7F808357
:1006E00080818E7F808380818F7D8083B59AB19A4F
:1006F000B29AB09A10920503109206031092070363
:10070000109208038AE090E090930C0380930B030F
:1007100010920A0381E080930903089581E0809399
:100720000A031092850010928400B59AB19AB29A89
:10073000B09AE1E8F0E0808183608083EFE6F0E04A
:100740008081806280838081816080830895CF92E0
:10075000DF92EF92FF9280910903813019F082308D
:1007600051F07DC080910B0390910C03892B09F00F
:100770007CC082E071C080910A03811108C081E0D1
:1007800090E0FF90EF90DF90CF900C948E038091DB
:100790000A038330B1F580910F03909110032091EB
:1007A0000D0330910E03C0900503D0900603E09036
:1007B0000703F0900803821B930BBC0180E090E0DC
:1007C0000E941A0A20E030E041EE53E40E94D10A70
:1007D0009B01AC0160EC71EE84E69BE40E94A809E9
:1007E000A70196010E94360920E030E040E251E482
:1007F0000E94A8099B01AC01C701B6010E943709FC
:100800001AC080910A03843081F5C0900503D0900E
:100810000603E0900703F090080320E030E040E298
:1008200051E4C701B6010E94A8099B01AC01C701B0
:10083000B6010E9436096093050370930603809306
:100840000703909308038AE090E090930C03809351
:100850000B0310920A0381E08093090306C0FF9006
:10086000EF90DF90CF900C946103FF90EF90DF90BA
:10087000CF9008952998219A8FE797E00197F1F793
:1008800000C000002198EFEEF0E03197F1F700C0D2
:10089000000083B1EFE8F6E03197F1F700C0000007
:1008A000827008952998219A95E09A95F1F70000B1
:1008B000811121988FEE90E00197F1F700C00000C0
:1008C000219808952998219A85E08A95F1F70000EA
:1008D00021989AE49A95F1F700C083B190EF9A9528
:1008E000F1F7869581700895CF93DF93D82FC9E0F3
:1008F000C15031F08D2F81700E945204D695F8CFEF
:10090000DF91CF910895CF93DF93D9E0C0E0D1502C
:1009100049F00E94620420E8829FC0011124C6951C
:10092000C82BF5CF8C2FDF91CF910895E09117035D
:100930008E2F90E08830910508F04DC0FC01EC5CF2
:10094000FF4F0C941C090E943A0481E01DC08CECFE
:100950000E94740482E018C084E40E94740483E05E
:1009600013C00E9462048823C1F184E00DC00E947C
:100970003A0485E009C08CEC0E94740486E004C04F
:100980008EEB0E94740487E08093170308950E9401
:100990008304809315030E94830480931603682FB9
:1009A00070E0762F662780911503680F711D072E62
:1009B000000C880B990B0E941C0A20E030E040E8F4
:1009C0005DE30E94D10A6093110370931203809338
:1009D00013039093140310921703089520982198FD
:1009E0002298389A399A3A9A3B9A3C9A3D9A549A64
:1009F000559A569A579A539A529A5098519A0895DE
:100A000082E08093B00084E08093B10089EF80930E
:100A1000B300E0E7F0E080818260808308958AB1CE
:100A20008F708AB95A9A5B9882E08A95F1F700C074
:100A30002C9A92E09A95F1F700C089B1807F92E0FC
:100A40009A95F1F700C02C9895E09A95F1F700007F
:100A50002C9A92E09A95F1F700C099B192E09A959C
:100A6000F1F700C02C9895E09A95F1F7000087FD0A
:100A7000DFCF5A988AB1806F8AB90895982F9295DE
:100A80009F708F70611102C05B9801C05B9A22E079
:100A90002A95F1F700C02C9A4BB150E1959F900137
:100AA0001124942F9F70292B2BB995E09A95F1F77B
:100AB00000002C9825E02A95F1F700002C9A2BB124
:100AC00030E1839FC0011124922F9F70892B8BB935
:100AD00055E05A95F1F700002C9885E08A95F1F7DA
:100AE00000000C940F05623031F0633031F061305A
:100AF00029F4806403C08C5E01C08C5A60E0806879
:100B00000C943E05EF92FF921F93CF93DF931F92B9
:100B1000CDB7DEB72FEF36E791E02150304090405F
:100B2000E1F700C000009AB1906F9AB9249A539AE5
:100B3000529A9BB19F709BB92C985A985B9800C0B1
:100B400000C000002C9A5D9AE5E0EA95F1F70000FC
:100B50002C98F5E0FA95F1F7000089830E940F05C3
:100B600060E089818C600E943E0560E088E20E941E
:100B70003E0560E080E40E943E0580E0E82E81E0D2
:100B8000F82E10E41E0D61E0F70181917F010E94B3
:100B90003E051E11F8CF60E080E00F90DF91CF910D
:100BA0001F91FF90EF900C9473050F931F93CF93B9
:100BB000DF93EC0188818823C9F0853281F48E01AE
:100BC0000F5F1F4F8981805361E0883028F085E2F4
:100BD0000E943E0561E089810E943E0504C061E0FB
:100BE0000E943E058E01E8012196E4CFDF91CF916E
:100BF0001F910F910895EF92FF920F931F93CF9340
:100C0000DF938B01682F80E00E947305C0E0D0E085
:100C1000F8018081882329F1C031D10514F585328E
:100C2000B9F478018FEFE81AF80AF801818180534E
:100C300061E0883018F40E943E050EC085E20E94F3
:100C40003E0561E0F80181810E943E05219604C0C5
:100C500061E00E943E05780187010F5F1F4F2196DA
:100C6000D7CFC031D10534F461E080E20E943E0567
:100C70002196F7CFDF91CF911F910F91FF90EF90C9
:100C80000895EF92FF920F931F93CF93DF9300D0BD
:100C900000D01F92CDB7DEB79B01AE014F5F5F4F13
:100CA0007A0145E0F70111924A95E9F7FE0136967F
:100CB0000AE010E0009731F0B8010E940809829321
:100CC000CB01F8CF2F3FFFEF3F0741F4F7018F0132
:100CD0000E191F0981918823D1F304C005E010E0AB
:100CE000021B130B0E0D1F1DC8018E199F090597BE
:100CF00044F4F80181918F0161E0805D0E943E051E
:100D0000F3CF0F900F900F900F900F90DF91CF9136
:100D10001F910F91FF90EF900895843110F40C947F
:100D2000730508950FB6F894A895809160008861C6
:100D300080936000109260000FBEF8940E94EE0451
:100D40000E9400050E94D8000E9461030E94A80131
:100D500080E00E94820560E081E00E943E051092E2
:100D600019031092180310922E0310923003109260
:100D70002F039EE088E10FB6F894A8958093600059
:100D80000FBE90936000789488E2282E83E0382E7E
:100D900092E5E92E91E0F92E2EE1C22E23E0D22E2B
:100DA0003BE5A32E31E0B32E44E6842E912C0E9425
:100DB000F1000E9496040E94A7030E94E001809126
:100DC000180390911903892B09F01DC160E471E0AB
:100DD0008AE193E00E945E0B409011035090120351
:100DE000609013037090140320E030E0A901C30168
:100DF000B2010E94A30987FF07C066E471E08FE19A
:100E000093E00E945E0B20C020E030E040E251E41D
:100E1000C301B2010E94A30987FF04C00FE113E0E0
:100E200022E00DC020E030E048EC52E4C301B20102
:100E30000E94A30987FFE1CF0FE113E021E044E026
:100E4000C301B2010E943E0B6BE471E083E293E0C8
:100E50000E945E0B409064015090650160906601B5
:100E60007090670120E030E0A901C301B2010E9447
:100E7000A30987FF07C066E471E084E293E00E9463
:100E80005E0B20C020E030E040E251E4C301B2013B
:100E90000E94A30987FF04C004E213E022E00DC012
:100EA00020E030E048EC52E4C301B2010E94A30903
:100EB00087FFE1CF04E213E021E044E0C301B20187
:100EC0000E943E0BADE4B1E0BF93AF933F922F92EF
:100ED0000E94650B6AE173E080E00E94FB05409090
:100EE00005035090060360900703709008030F906D
:100EF0000F900F900F9020E030E0A901C301B201E4
:100F00000E94A30987FF07C066E471E08AE193E0CD
:100F10000E945E0B20C020E030E040E251E4C301BB
:100F2000B2010E94A30987FF04C00AE113E022E096
:100F30000DC020E030E048EC52E4C301B2010E9451
:100F4000A30987FFE1CF0AE113E021E044E0C301F8
:100F5000B2010E943E0BFF92EF92DF92CF920E946D
:100F6000650BEC018C010C5F1F4F409060015090AD
:100F7000610160906201709063010F900F900F907B
:100F80000F9020E030E0A901C301B2010E94A30943
:100F9000065E1C4F87FD1DC020E030E040E251E4BA
:100FA000C301B2010E94A30987FF02C022E00BC067
:100FB00020E030E048EC52E4C301B2010E94A309F2
:100FC00087FF07C021E044E0C301B2010E943E0B4D
:100FD00005C066E471E0C8010E945E0BBF92AF924B
:100FE000CE5DDC4FDF93CF930E94650B6AE173E027
:100FF00081E00E94FB0590921903809218030F90E4
:101000000F900F900F90A895D2CE1F920F920FB60F
:101010000F9211248F939F931A9B1BC080912F03D3
:10102000909130038436910558F580912F0390916B
:10103000300301969093300380932F0380912F0308
:101040009091300384369105D9F481E080932E038A
:1010500017C080912F0390913003892B89F08091E4
:101060002F039091300301979093300380932F03C7
:1010700080912F0390913003892B11F410922E034D
:101080008091180390911903892B49F080911803DE
:1010900090911903019790931903809318038091FD
:1010A0000B0390910C03892B49F080910B039091D5
:1010B0000C03019790930C0380930B0380916A01BA
:1010C00090916B01892B49F080916A0190916B019D
:1010D000019790936B0180936A0180913602909101
:1010E0003702892B49F0809136029091370201979F
:1010F00090933702809336028091380290913902A2
:10110000892B49F080913802909139020197909390
:101110003902809338029F918F910F900FBE0F90EC
:101120001F9018951F920F920FB60F9211248F9354
:101130009F9380910A03813051F4809186009091B1
:10114000870090930E0380930D0382E01CC0809172
:101150000A038230D9F4809181008C7F80938100D2
:1011600080916F008F7D80936F0080916F008E7FE4
:1011700080936F0080918600909187009093100378
:1011800080930F0383E080930A0311C08091810054
:101190008C7F8093810080916F008F7D80936F00A2
:1011A00080916F008E7F80936F0010920A039F9151
:1011B0008F910F900FBE0F901F9018951F920F9256
:1011C0000FB60F9211248F93EF93FF93E1E8F0E0B5
:1011D00080818C7F8083EFE6F0E080818F7D80834B
:1011E00080818E7F808384E080930A03FF91EF915A
:1011F0008F910F900FBE0F901F9018951F920F9216
:101200000FB60F9211240F900FBE0F901F901895DC
:1012100097FB072E16F4009407D077FD09D00E94A3
:10122000220907FC05D03EF4909581959F4F0895C3
:10123000709561957F4F0895EE0FFF1F0590F49113
:10124000E02D0994AA1BBB1B51E107C0AA1FBB1FBD
:10125000A617B70710F0A61BB70B881F991F5A9542
:10126000A9F780959095BC01CD0108955058BB27F2
:10127000AA270E944E090C94920A0E94840A38F010
:101280000E948B0A20F039F49F3F19F426F40C9445
:10129000810A0EF4E095E7FB0C947B0AE92F0E948B
:1012A000A30A58F3BA17620773078407950720F05B
:1012B00079F4A6F50C94C50A0EF4E0950B2EBA2F1E
:1012C000A02D0B01B90190010C01CA01A00111244C
:1012D000FF27591B99F0593F50F4503E68F11A16F8
:1012E000F040A22F232F342F4427585FF3CF469589
:1012F00037952795A795F0405395C9F77EF41F16AB
:10130000BA0B620B730B840BBAF09150A1F0FF0F74
:10131000BB1F661F771F881FC2F70EC0BA0F621F60
:10132000731F841F48F4879577956795B795F79550
:101330009E3F08F0B0CF9395880F08F09927EE0FE5
:101340009795879508950E94570A08F481E00895BB
:101350000E94BC090C94920A0E948B0A58F00E94C9
:10136000840A40F029F45F3F29F00C947B0A511164
:101370000C94C60A0C94810A0E94A30A68F399236C
:10138000B1F3552391F3951B550BBB27AA27621781
:101390007307840738F09F5F5F4F220F331F441F8E
:1013A000AA1FA9F335D00E2E3AF0E0E832D09150C2
:1013B0005040E695001CCAF72BD0FE2F29D0660FAF
:1013C000771F881FBB1F261737074807AB07B0E8F2
:1013D00009F0BB0B802DBF01FF2793585F4F3AF0F8
:1013E0009E3F510578F00C947B0A0C94C60A5F3F2F
:1013F000E4F3983ED4F3869577956795B795F7957E
:101400009F5FC9F7880F911D9695879597F9089565
:10141000E1E0660F771F881FBB1F62177307840701
:10142000BA0720F0621B730B840BBA0BEE1F88F710
:10143000E0950895E89409C097FB3EF49095809557
:10144000709561957F4F8F4F9F4F9923A9F0F92F8A
:1014500096E9BB279395F695879577956795B79508
:10146000F111F8CFFAF4BB0F11F460FF1BC06F5FEE
:101470007F4F8F4F9F4F16C0882311F096E911C000
:10148000772321F09EE8872F762F05C0662371F021
:1014900096E8862F70E060E02AF09A95660F771F35
:1014A000881FDAF7880F9695879597F90895990F11
:1014B0000008550FAA0BE0E8FEEF16161706E8071E
:1014C000F907C0F012161306E407F50798F0621B3F
:1014D000730B840B950B39F40A2661F0232B242B14
:1014E000252B21F408950A2609F4A140A6958FEF33
:1014F000811D811D089597F99F6780E870E060E085
:1015000008959FEF80EC089500240A94161617069C
:1015100018060906089500240A94121613061406E4
:1015200005060895092E0394000C11F4882352F047
:10153000BB0F40F4BF2B11F460FF04C06F5F7F4FFF
:101540008F4F9F4F089557FD9058440F551F59F0E6
:101550005F3F71F04795880F97FB991F61F09F3FA0
:1015600079F087950895121613061406551FF2CFC9
:101570004695F1DF08C0161617061806991FF1CF19
:1015800086957105610508940895E894BB27662740
:101590007727CB0197F908950E94570A08F48FEF37
:1015A00008950E94E40A0C94920A0E94840A38F07A
:1015B0000E948B0A20F0952311F00C947B0A0C9466
:1015C000810A11240C94C60A0E94A30A70F3959F05
:1015D000C1F3950F50E0551F629FF001729FBB272A
:1015E000F00DB11D639FAA27F00DB11DAA1F649FC6
:1015F0006627B00DA11D661F829F2227B00DA11D79
:10160000621F739FB00DA11D621F839FA00D611DFE
:10161000221F749F3327A00D611D231F849F600D1F
:10162000211D822F762F6A2F11249F5750409AF048
:10163000F1F088234AF0EE0FFF1FBB1F661F771FD4
:10164000881F91505040A9F79E3F510580F00C949F
:101650007B0A0C94C60A5F3FE4F3983ED4F3869568
:1016600077956795B795F795E7959F5FC1F7FE2B3F
:10167000880F911D9695879597F90895EF920F938E
:101680001F93CF93DF93E80147FD02C034E001C010
:1016900034E1E42F440FFF0BF7FF03C0F195E19510
:1016A000F109E32E022F2E2FAE010E945A0DCE011A
:1016B000DF91CF911F910F91EF900895FB01DC0115
:1016C00001900D920020E1F70895AEE0B0E0EBE666
:1016D000FBE00C947A100D891E8986E08C831A83B6
:1016E00009838FEF9FE79E838D83AE01475E5F4F37
:1016F0006F89788DCE0101960E94880B2F813885E5
:10170000F801E20FF31F10822E96E4E00C9496107D
:10171000ACE0B0E0EEE8FBE00C946C107C016B01F7
:101720008A01FC0117821682838181FFBDC1CE012F
:1017300001964C01F7019381F60193FD859193FF8A
:1017400081916F01882309F4ABC1853239F493FD8F
:10175000859193FF81916F01853229F4B70190E063
:101760000E94D60FE7CF512C312C20E02032A0F47C
:101770008B3269F030F4803259F0833269F42061A1
:101780002CC08D3239F0803339F4216026C02260BC
:10179000246023C0286021C027FD27C030ED380F0A
:1017A0003A3078F426FF06C0FAE05F9E300D11242F
:1017B000532E13C08AE0389E300D1124332E206240
:1017C0000CC08E3221F426FD6BC1206406C08C361D
:1017D00011F4206802C0883641F4F60193FD85912A
:1017E00093FF81916F018111C1CF982F9F7D9554F7
:1017F000933028F40C5F1F4FFFE3F9830DC083364D
:1018000031F0833771F0833509F05BC022C0F801F5
:10181000808189830E5F1F4F44244394512C5401CF
:1018200015C03801F2E06F0E711CF801A080B18084
:1018300026FF03C0652D70E002C06FEF7FEFC5018A
:101840002C870E94CB0F2C0183012C852F77222E11
:1018500017C03801F2E06F0E711CF801A080B18052
:1018600026FF03C0652D70E002C06FEF7FEFC5015A
:101870002C870E94C00F2C012C852068222E83010A
:1018800023FC1BC0832D90E048165906B0F4B70125
:1018900080E290E00E94D60F3A94F4CFF50127FC45
:1018A000859127FE81915F01B70190E00E94D60FDC
:1018B00031103A94F1E04F1A51084114510471F774
:1018C000E5C0843611F0893639F5F80127FF07C0E5
:1018D00060817181828193810C5F1F4F08C060819C
:1018E0007181072E000C880B990B0E5F1F4F2F760E
:1018F000722E97FF09C090958095709561957F4FE6
:101900008F4F9F4F2068722E2AE030E0A4010E9482
:101910000E10A82EA81844C0853729F42F7EB22EA9
:101920002AE030E025C0F22FF97FBF2E8F36C1F0BC
:1019300018F4883579F0B4C0803719F0883721F071
:10194000AFC02F2F2061B22EB4FE0DC08B2D84604E
:10195000B82E09C024FF0AC09F2F9660B92E06C07A
:1019600028E030E005C020E130E002C020E132E0B4
:10197000F801B7FE07C060817181828193810C5F9D
:101980001F4F06C06081718180E090E00E5F1F4FA5
:10199000A4010E940E10A82EA818FB2DFF777F2E01
:1019A00076FE0BC0372D3E7FA51450F474FE0AC09E
:1019B00072FC08C0372D3E7E05C0BA2C372D03C0FF
:1019C000BA2C01C0B52C34FF0DC0FE01EA0DF11D8B
:1019D0008081803311F4397E09C032FF06C0B39490
:1019E000B39404C0832F867809F0B39433FD13C0F9
:1019F00030FF06C05A2CB31418F4530C5B18B32CE8
:101A0000B31468F4B70180E290E03C870E94D60FDF
:101A1000B3943C85F5CFB31410F43B1801C0312CBE
:101A200034FF12C0B70180E390E03C870E94D60FDC
:101A30003C8532FF17C031FD03C088E790E002C04B
:101A400088E590E0B7010CC0832F867859F031FF0C
:101A500002C08BE201C080E237FD8DE2B70190E069
:101A60000E94D60FA51438F4B70180E390E00E94DD
:101A7000D60F5A94F7CFAA94F401EA0DF11D808194
:101A8000B70190E00E94D60FA110F5CF332009F4E2
:101A900051CEB70180E290E00E94D60F3A94F6CF83
:101AA000F7018681978102C08FEF9FEF2C96E2E1CC
:101AB0000C9488104F925F926F927F929F92AF9298
:101AC000BF92CF92DF92EF92FF920F931F93CF932B
:101AD000DF93CDB7DEB729970FB6F894DEBF0FBE00
:101AE000CDBF6A01122FB02E2BE3201720F0FF2468
:101AF000F394F00E02C0BCE3FB2E0F2D27E0AE01E5
:101B00004F5F5F4F0E94E80EAC018981982F99705A
:101B1000913031F0E1FC06C0E0FE06C090E205C065
:101B20009DE203C09BE201C090E0EE2DE07183FFD7
:101B30003CC0911102C083E001C084E0811718F419
:101B4000212F281B01C020E0E1110BC0F601822FDC
:101B500030E2882319F031938150FBCFC20ED11CA3
:101B600020E0992329F0D6019C93F60131966F016C
:101B7000C6010396E2FE0AC03EE4D6013C9341E46E
:101B800011964C93119712963C9306C03EE6F601CF
:101B9000308341E641833283FC01322F40E233231C
:101BA00009F442C041933150FACF82FF44C09111F1
:101BB00002C083E001C084E0811718F4212F281BA4
:101BC00001C020E0E1110BC0F601822F30E2882332
:101BD00019F031938150FBCFC20ED11C20E0992324
:101BE00029F0D6019C93F60131966F01C601039648
:101BF000E2FE0BC039E4D6013C933EE411963C93DF
:101C0000119736E412963C9307C039E6F60130830B
:101C10003EE6318336E63283FC01322F40E2332345
:101C200019F041933150FBCFFC01E20FF11D1082FE
:101C30008EEF9FEFB7C0F1E0911101C0F0E06F2F80
:101C400070E01416150624F49A012F5F3F4F02C06E
:101C500021E030E0260F371FBB2029F06B2D70E00C
:101C60006F5F7F4F02C060E070E0260F371F612F6B
:101C700070E0261737071CF4121B212F01C020E04B
:101C80003E2D387159F4D601322F60E2332319F01A
:101C90006D933150FBCFC20ED11C20E0FF2331F0F9
:101CA000D6019C93B6016F5F7F4F6B01E1110BC0B2
:101CB000F601922F30E3992319F031939150FBCF25
:101CC000C20ED11C20E09F2D940F3A81782F7071A5
:101CD000A72E84FF03C0313309F49150191624F460
:101CE000993018F098E001C091E0E42F852F57FF5C
:101CF00002C0E0E080E06E2F782FE0E0F0E0AEE29E
:101D00009A2E3A01691A71082A01461A570A0B2DB0
:101D100010E01195019511096F3F8FEF780729F4B5
:101D2000D6019C92C60101966C014617570784F0B4
:101D3000661677066CF47F01E40CF51CA1E0B0E0B8
:101D4000AC0FBD1FEA0EFB1ED7011196BC9002C05E
:101D500090E3B92E615071093196C60101967C015C
:101D60006017710724F0D601BC926C01D5CF6417BF
:101D7000750741F4363320F4353321F4A11002C045
:101D800081E3B82EF601B082F701822F90E288231A
:101D900019F091938150FBCFF701E20FF11D1082F2
:101DA00080E090E029960FB6F894DEBF0FBECDBF5D
:101DB000DF91CF911F910F91FF90EF90DF90CF9027
:101DC000BF90AF909F907F906F905F904F900895DD
:101DD000283008F027E03327DA01990F311D87FDFD
:101DE000916000966105710539F432602E5F3D9374
:101DF00030E32A95E1F708959F3F30F08038710570
:101E0000610509F03C5F3C5F3D93913008F08068CC
:101E1000911DDF93CF931F930F93FF92EF92192F92
:101E2000987F9695E92F96959695E90FFF27EE52A4
:101E3000FF4F99273327EE24FF24A701E7010590E0
:101E40000894079428F4360FE71EF81E491F511D09
:101E5000660F771F881F991F0694A1F705900794B6
:101E600028F4E70EF81E491F561FC11D770F881F63
:101E7000991F661F0694A1F70590079428F4F80EA1
:101E8000491F561FC71FD11D880F991F661F771F37
:101E90000694A1F70590079420F4490F561FC71F19
:101EA000D81F990F661F771F881F0694A9F7849182
:101EB0001095177041F0D695C79557954795F794AB
:101EC000E7941A95C1F7E8E7F0E06894159015914A
:101ED00035916591959105907FE27395E118F10A2E
:101EE000430B560BC90BD009C0F7E10CF11E431F81
:101EF000561FC91FD01D7EF4703311F48A95E6CFAA
:101F0000E894015030F0080F0AF40027021708F493
:101F1000202F2395022F7A3328F079E37D932A9599
:101F2000E9F710C07D932A9589F6069497956795F1
:101F3000379517951794E118F10A430B560BC90B07
:101F4000D00998F023957E9173957A3308F070E369
:101F50007C932013B8F77E9170617D9330F0839568
:101F600071E37D9370E32A95E1F71124EF90FF90E0
:101F70000F911F91CF91DF91992787FD909508953B
:101F8000FC010590615070400110D8F78095909544
:101F90008E0F9F1F0895FC01615070400190011049
:101FA000D8F7809590958E0F9F1F08950F931F93DC
:101FB000CF93DF93FB01238121FD03C08FEF9FEFC0
:101FC00028C022FF16C046815781248135814217DF
:101FD000530744F4A081B1819D012F5F3F4F3183AE
:101FE00020838C93268137812F5F3F4F3783268351
:101FF00010C0EB01092F182F0084F185E02D099501
:10200000892BE1F68E819F8101969F838E83812F9C
:10201000902FDF91CF911F910F910895FA01AA2778
:10202000283051F1203181F1E8946F936E7F6E5F1B
:102030007F4F8F4F9F4FAF4FB1E03ED0B4E03CD0C9
:10204000670F781F891F9A1FA11D680F791F8A1FAC
:10205000911DA11D6A0F711D811D911DA11D20D013
:1020600009F468943F912AE0269F11243019305DCD
:102070003193DEF6CF010895462F4770405D4193BE
:10208000B3E00FD0C9F7F6CF462F4F70405D4A330B
:1020900018F0495D31FD4052419302D0A9F7EACFD3
:1020A000B4E0A6959795879577956795BA95C9F702
:1020B00000976105710508959B01AC010A2E0694F5
:1020C0005795479537952795BA95C9F7620F731FAE
:1020D000841F951FA01D08952F923F924F925F92EB
:1020E0006F927F928F929F92AF92BF92CF92DF9228
:1020F000EF92FF920F931F93CF93DF93CDB7DEB78D
:10210000CA1BDB0B0FB6F894DEBF0FBECDBF099420
:102110002A88398848885F846E847D848C849B8477
:10212000AA84B984C884DF80EE80FD800C811B8185
:10213000AA81B981CE0FD11D0FB6F894DEBF0FBEB4
:0A214000CDBFED010895F894FFCF24
:10214A000C12120C000000000F08080808080F0003
:10215A001C07010101071C001C021C021C000000D4
:10216A0004040A0A11111F00000000000000000008
:10217A0003030303131B0F0318181818191B1E183F
:10218A00546D703A20002D4F4C2D002F002525301C
:10219A0043006C2F6D20202525310056252532005D
:00000001FF
